:0200000480007A
:100000006F0040146F10C0006F00C0126F008012AC
:100010006F0040126F0000126F00C0116F0080115E
:100020006F0040116F0000116F00C0106F00801052
:100030006F0040106F0000106F00C00F6F00800F46
:100040006F00400F6F00000F6F00C00E6F00800E3A
:100050006F00400E6F00000E6F00C00D6F00800D2E
:100060006F00400D6F00000D6F00C00C6F00800C22
:100070006F00400C6F00000C6F00C00B6F00C01CC5
:1000800097710000938101A517010300130181F707
:1000900017050000130505F713651500731055309B
:1000A000176500001305857C177600001306C6AEA1
:1000B0003306A64093050000EF30C07917350000E5
:1000C00013058570EF20D041EF30806613050000E6
:1000D0009305000013060000EF2080716F004001BF
:0400E0006780000035
:1000F000130101FF93050000232481002326110032
:1001000013040500EF30501983A781D963840700D9
:10011000E780070013050400EF0080399307000013
:1001200063880700173500001305056A6F20503BF0
:10013000678000001765000013055502EF3080242A
:100140006FF05FFF130101FC232011002322A100A7
:100150002324B1002326C1002328D100232AE10053
:10016000232CF100232E010123201103232251020D
:1001700023246102232671022328C103232AD103E9
:10018000232CE103232EF103F32220341303200058
:10019000638862021303B0006388620013033000B7
:1001A000638862006F00C002EF0090216F0040037F
:1001B00017650000130545F6EF30C01C6F004002C4
:1001C00017650000130545F0EF30C01B6F004001BC
:1001D00017650000130565F6EF30C01A6F00400286
:1001E000F322103403830200130530003373A3009D
:1001F0006314A3009382220093822200739012342E
:100200008320010003254100832581000326C100CE
:100210008326010103274101832781010328C101AE
:100220008328010283224102032381028323C10226
:10023000032E0103832E4103032F8103832FC10368
:10024000130101047300203073002030000000000F
:10025000130101FE232E1100232C8100130401023F
:100260002326A4FE8327C4FE3307F0409387C1D919
:1002700023A0E7009307F0FF138507008320C10147
:1002800003248101130101026780000013000000B4
:10029000130101FE232E1100232C810013040102FF
:1002A000976700009387C7ED2326F4FE6F00C00117
:1002B0008327C4FE138717002326E4FE03C7070025
:1002C000B707001023A0E7008327C4FE83C70700F9
:1002D000E39007FE13000000130000008320C1011B
:1002E0000324810113010102678000001300000054
:1002F000130101FE232E1100232C8100130401029F
:100300002326A4FE2324B4FE9387C1D913078005B6
:1003100023A0E7009307F0FF138507008320C101A6
:100320000324810113010102678000001300000013
:10033000130101FE232E1100232C8100130401025E
:100340002326A4FE2324B4FE9387C1D91307800576
:1003500023A0E7009307F0FF138507008320C10166
:1003600003248101130101026780000013000000D3
:10037000130101FE232E1100232C8100130401021E
:100380002326A4FE9387C1D91307800523A0E70085
:100390009307F0FF138507008320C1010324810127
:1003A0001301010267800000130000001300000029
:1003B000130101FE232E1100232C810013040102DE
:1003C0002326A4FE2324B4FE9387C1D913078005F6
:1003D00023A0E7009307F0FF138507008320C101E6
:1003E0000324810113010102678000001300000053
:1003F000130101FE232E1100232C8100130401029E
:100400002326A4FE93870500130706002315F4FE98
:10041000930707002314F4FE9387C1D913078005BF
:1004200023A0E7009307F0FF138507008320C10195
:100430000324810113010102678000001300000002
:10044000130101FE232E1100232C8100130401024D
:100450002326A4FE9307F0FF138507008320C10124
:1004600003248101130101026780000013000000D2
:10047000130101FE232E1100232C8100130401021D
:100480002326A4FE2324B4FE2322C4FE9387C1D9CD
:100490001307C00023A0E7009307F0FF13850700B0
:1004A0008320C10103248101130101026780000040
:1004B000130101FE232E1100232C810013040102DD
:1004C0002326A4FEB70704800327C4FE23A0E70069
:1004D00073005010130000006FF0DFFF13000000E6
:1004E000130101FE232E1100232C810013040102AD
:1004F0002326A4FE2324B4FE2322C4FE2320D4FEFC
:100500009387C1D91307800523A0E7009307F0FF65
:10051000138507008320C101032481011301010217
:1005200067800000130000001300000013000000AB
:10053000130101FF2326110023248100130401016C
:100540009387C1D91307B00023A0E7009307F0FFFA
:10055000138507008320C1000324810013010101DA
:10056000678000001300000013000000130000006B
:10057000130101FE232E1100232C8100130401021C
:100580002326A4FE2324B4FE832784FE37270000FD
:1005900023A2E70093070000138507008320C10111
:1005A0000324810113010102678000001300000091
:1005B000130101FE232E1100232C810013040102DC
:1005C0002326A4FE2324B4FE2322C4FE2320D4FE2B
:1005D0009387C1D91307800523A0E7009307F0FF95
:1005E000138507008320C101032481011301010247
:1005F00067800000130000001300000013000000DB
:10060000130101FE232E1100232C8100130401028B
:100610002326A4FE9387C1D91307800523A0E700F2
:100620009307F0FF138507008320C1010324810194
:100630001301010267800000130000001300000096
:10064000130101FE232E1100232C8100130401024B
:100650002326A4FE2324B4FE9387C1D9130780FA6E
:1006600023A0E70093070000138507008320C10142
:1006700003248101130101026780000013000000C0
:10068000130101FF2326110023248100130401011B
:1006900093071000138507008320C1000324810005
:1006A0001301010167800000130000001300000027
:1006B000130101FE232E1100232C810013040102DB
:1006C0002326A4FE2324B4FE9387C1D9130780FAFE
:1006D00023A0E7009307F0FF138507008320C101E3
:1006E0000324810113010102678000001300000050
:1006F000130101FE232E1100232C8100130401029B
:100700002326A4FE8327C4FE9387F7FF93B7170021
:1007100093F7F70F138507008320C101032481019C
:1007200013010102678000001300000013000000A5
:10073000130101FE232E1100232C8100130401025A
:100740002326A4FE2324B4FE9387C1D91307600196
:1007500023A0E7009307F0FF138507008320C10162
:1007600003248101130101026780000013000000CF
:10077000130101FE232E1100232C8100130401021A
:100780002326A4FE2324B4FE9387C1D91307F001C6
:1007900023A0E7009307F0FF138507008320C10122
:1007A000032481011301010267800000130000008F
:1007B000130101FE232E1100232C810013040102DA
:1007C0002326A4FE2324B4FE2322C4FE93070000A4
:1007D000138507008320C101032481011301010255
:1007E00067800000130000001300000013000000E9
:1007F000130101FE232E1100232C8100130401029A
:100800002326A4FE2324B4FE9387C1D913078005B1
:1008100023A0E7009307F0FF138507008320C101A1
:10082000032481011301010267800000130000000E
:10083000130101FE232E1100232C81001304010259
:100840002326A4FE2324B4FE2322C4FE9307F0FF34
:10085000138507008320C1010324810113010102D4
:100860006780000013000000130000001300000068
:10087000130101FE232E1100232C81001304010219
:100880002326A4FE2324B4FE2322C4FE2320D4FE68
:100890009387C1D91307800523A0E7009307F0FFD2
:1008A000138507008320C101032481011301010284
:1008B0006780000013000000130000001300000018
:1008C000130101FE232E1100232C810013040102C9
:1008D0002326A4FE2324B4FE2322C4FE9307000093
:1008E000138507008320C101032481011301010244
:1008F00067800000130000001300000013000000D8
:10090000130101FE232E1100232C81001304010288
:100910002326A4FE2324B4FE832784FE3727000069
:1009200023A2E70093070000138507008320C1017D
:1009300003248101130101026780000013000000FD
:10094000130101FE232E1100232C81001304010248
:100950002326A4FE9307F0FF138507008320C1011F
:1009600003248101130101026780000013000000CD
:10097000130101FE232E1100232C81001304010218
:100980002326A4FE9307F0FF138507008320C101EF
:10099000032481011301010267800000130000009D
:1009A000130101FE232E1100232C810013040102E8
:1009B0002326A4FE9387C1D91307200023A0E700B4
:1009C0009307F0FF138507008320C10103248101F1
:1009D00013010102678000001300000013000000F3
:1009E000130101FE232E1100232C810013040102A8
:1009F0002326A4FE2324B4FE9387C1D913078005C0
:100A000023A0E7009307F0FF138507008320C101AF
:100A1000032481011301010267800000130000001C
:100A2000130101FE232E1100232C81001304010267
:100A30002326A4FE9387C1D91307A00023A0E700B3
:100A40009307F0FF138507008320C1010324810170
:100A50001301010267800000130000001300000072
:100A6000130101FE232E1100232C81001304010227
:100A70002326A4FE2324B4FE2322C4FE938701DD93
:100A800083A7070063960702176700001307878490
:100A900013063000B7C70100938507201305070030
:100AA000EF00105B938701DD1307100023A0E70020
:100AB0009767000093870782032644FE832584FE00
:100AC00013850700EF00D05E832744FE13850700DF
:100AD0008320C1010324810113010102678000000A
:100AE000130101FE232E1100232C810013040102A7
:100AF0002326A4FE938741D80327C4FE23A0E70042
:100B000093070000138507008320C101032481019E
:100B100013010102678000001300000013000000B1
:100B2000130101FD23261102232481021304010372
:100B3000232EA4FC938741D883A707002326F4FE25
:100B4000938741D803A707008327C4FD3307F70025
:100B5000938741D823A0E700938741D883A7070054
:100B60002324F4FE9307010013870700832784FEE4
:100B700063F4E702032784FE97F702009387874810
:100B8000637CF700938741D8032784FE23A0E70006
:100B90008327C4FE6F0040019387C1D91307C000AB
:100BA00023A0E7009307F0FF138507008320C1020D
:100BB0000324810213010103678000001300000079
:100BC000130101FC232E1102232C810213040104C2
:100BD000232EA4FC232CB4FC232AC4FC2328D4FCFD
:100BE0002326E4FC2324F4FC232204FD232014FD0B
:100BF000832704FC2326F4FE0327C4FE9307F0405A
:100C00006306F7320327C4FE9307F04063C8E73A50
:100C10000327C4FE9307E0406304F72E0327C4FEB6
:100C20009307E04063CCE7380327C4FE9307904066
:100C3000630AF7320327C4FE9307904063C0E73886
:100C40000327C4FE930720406300F7280327C4FE50
:100C50009307204063C4E7360327C4FE9307104080
:100C60006308F7240327C4FE9307104063C8E734E2
:100C70000327C4FE93070040630AF71C0327C4FE42
:100C80009307004063CCE7320327C4FE9307600D4F
:100C90006308F7200327C4FE9307600D63C0E732A3
:100CA0000327C4FE9307C00A6306F7180327C4FE90
:100CB0009307C00A63C4E7300327C4FE9307900A72
:100CC000630AF72C0327C4FE9307900A63C8E72E34
:100CD0000327C4FE93079009630AF72C0327C4FE79
:100CE0009307900963CCE72C0327C4FE93071008F1
:100CF0006306F7140327C4FE9307100863C0E72CAC
:100D00000327C4FE9307D0056306F70E0327C4FE2E
:100D10009307D00563C4E72A0327C4FE93070005A1
:100D2000630CF71E0327C4FE9307000563C8E7287A
:100D30000327C4FE9307F0046306F7200327C4FECD
:100D40009307F00463CCE7260327C4FE930700044F
:100D50006304F70C0327C4FE9307000463C0E7266F
:100D60000327C4FE9307F003630AF7080327C4FEB2
:100D70009307F00363C4E7240327C4FE9307E0034B
:100D80006306F7100327C4FE9307E00363C8E72256
:100D90000327C4FE930790036304F70E0327C4FEE2
:100DA0009307900363CCE7200327C4FE93078003D7
:100DB000630AF70A0327C4FE9307800363C0E72092
:100DC0000327C4FE930710036308F7100327C4FE2C
:100DD0009307100363C4E71E0327C4FE93071001A3
:100DE0006304F7100327C4FE930700036306F71894
:100DF0006F00C01C0325C4FDEFF08FEB832784FD3B
:100E0000032744FD13060700938507000325C4FD4F
:100E1000EFF01FAB6F00001B832784FD032744FD09
:100E200013060700938507000325C4FDEFF05FC399
:100E30006F004019EFF0DF846F00C018832584FD38
:100E40000325C4FDEFF0DF8E6F00C0178327C4FDBC
:100E5000032644FD832584FD13850700EFF05F9D85
:100E60006F004016832784FD832604FD032644FD7E
:100E7000938507000325C4FDEFF09F9F6F0080144A
:100E80000325C4FDEFF0CFDB6F00C013032644FD44
:100E9000832584FD0325C4FDEFF09F916F00801230
:100EA0008327C4FD13850700EFF09FC36F008011F7
:100EB0008327C4FD032784FD9305070013850700DE
:100EC000EFF01F8B6F0000108327C4FD1385070010
:100ED000EFF01FAD6F00000F8327C4FD13850700DF
:100EE000EFF00FC96F00000E8327C4FD032784FDB8
:100EF0009305070013850700EFF08FF46F00800C57
:100F00008327C4FD032784FD93050700138507008D
:100F1000EFF01F9F6F00000B832784FD9385070070
:100F20000325C4FDEFF0CFE46F00C0098327C4FDA3
:100F3000032784FD9305070013850700EFF05F8BFF
:100F40006F004008832784FD032744FD832604FDAA
:100F500013060700938507000325C4FDEFF04FE556
:100F60006F0040068327C4FD832584FD1385070099
:100F7000EFF00FBC6F000005832784FD832604FD7E
:100F8000032644FD938507000325C4FDEFF04FD5EC
:100F90006F0040038327C4FD032784FD93050700EA
:100FA00013850700EFF0CFF06F00C0018327C4FD69
:100FB00013850700EFF0DF9B6F00C000EFF04FAD2F
:100FC00013000000130000008320C10303248103E9
:100FD00013010104678000001300000013000000EB
:100FE000130101FF232611002324810013040101B2
:100FF00093070000138507008320C10003248100AC
:1010000013010101678000001300000013000000BD
:10101000130101FF23261100232481001304010181
:1010200093070000138507008320C100032481007B
:10103000130101016780000013000000130000008D
:10104000130101FF23261100232481001304010151
:1010500093070000138507008320C100032481004B
:10106000130101016780000013000000130000005D
:10107000130101FF23261100232481001304010121
:1010800093070000138507008320C100032481001B
:10109000130101016780000013000000130000002D
:1010A000130101FF232611002324810013040101F1
:1010B00093070000138507008320C10003248100EB
:1010C00013010101678000001300000013000000FD
:1010D000130101FF232611002324810013040101C1
:1010E00093070000138507008320C10003248100BB
:1010F00013010101678000001300000013000000CD
:10110000130101FF23261100232481001304010190
:1011100093070000138507008320C100032481008A
:10112000130101016780000013000000130000009C
:10113000130101FF23261100232481001304010160
:1011400093070000138507008320C100032481005A
:10115000130101016780000013000000130000006C
:10116000130101FF23261100232481001304010130
:1011700093070000138507008320C100032481002A
:10118000130101016780000013000000130000003C
:10119000130101FF23261100232481001304010100
:1011A00093070000138507008320C10003248100FA
:1011B000130101016780000013000000130000000C
:1011C000130101FF232611002324810013040101D0
:1011D00093070000138507008320C10003248100CA
:1011E00013010101678000001300000013000000DC
:1011F000130101FF232611002324810013040101A0
:1012000093070000138507008320C1000324810099
:1012100013010101678000001300000013000000AB
:10122000130101FF2326110023248100130401016F
:1012300093070000138507008320C1000324810069
:10124000130101016780000013000000130000007B
:10125000130101FF2326110023248100130401013F
:1012600093070000138507008320C1000324810039
:10127000130101016780000013000000130000004B
:10128000130101FF2326110023248100130401010F
:1012900093070000138507008320C1000324810009
:1012A000130101016780000013000000130000001B
:1012B000130101FF232611002324810013040101DF
:1012C00093070000138507008320C10003248100D9
:1012D00013010101678000001300000013000000EB
:1012E000130101FF232611002324810013040101AF
:1012F00093070000138507008320C10003248100A9
:1013000013010101678000001300000013000000BA
:10131000130101FF2326110023248100130401017E
:1013200093070000138507008320C1000324810078
:10133000130101016780000013000000130000008A
:10134000130101FF2326110023248100130401014E
:1013500093070000138507008320C1000324810048
:10136000130101016780000013000000130000005A
:10137000130101FF2326110023248100130401011E
:1013800093070000138507008320C1000324810018
:10139000130101016780000013000000130000002A
:1013A000130101FF232611002324810013040101EE
:1013B00093070000138507008320C10003248100E8
:1013C00013010101678000001300000013000000FA
:1013D000130101FF232611002324810013040101BE
:1013E00093070000138507008320C10003248100B8
:1013F00013010101678000001300000013000000CA
:10140000130101FF2326110023248100130401018D
:1014100093070000138507008320C1000324810087
:101420001301010167800000130000001300000099
:10143000130101FF2326110023248100130401015D
:1014400093070000138507008320C1000324810057
:101450001301010167800000130000001300000069
:10146000130101FF2326110023248100130401012D
:1014700093070000138507008320C1000324810027
:101480001301010167800000130000001300000039
:10149000130101FF232611002324810013040101FD
:1014A00093070000138507008320C10003248100F7
:1014B0001301010167800000130000001300000009
:1014C000130101FF232611002324810013040101CD
:1014D00093070000138507008320C10003248100C7
:1014E00013010101678000001300000013000000D9
:1014F000130101FF2326110023248100130401019D
:1015000093070000138507008320C1000324810096
:1015100013010101678000001300000013000000A8
:10152000130101FF2326110023248100130401016C
:1015300093070000138507008320C1000324810066
:101540001301010167800000130000001300000078
:10155000130101FF2326110023248100130401013C
:1015600093070000138507008320C1000324810036
:101570001301010167800000130000001300000048
:10158000130101FF2326110023248100130401010C
:1015900093070000138507008320C1000324810006
:1015A0001301010167800000130000001300000018
:1015B000130101FF232611002324810013040101DC
:1015C00093070000138507008320C10003248100D6
:1015D000130101016780000000000000000000000E
:1015E000130101FC232E1102232C81021304010498
:1015F0002326A4FCF32740F12326F4FE8327C4FE10
:101600002320F4FE232204FE832704FE032744FE46
:10161000B3E7E700639A07063707000C8327C4FC8B
:1016200093D65700B717000093870780B387F6005B
:1016300093972700B307F70083A70700232EF4FC36
:101640008327C4FC93F7F70113071000B317F700C3
:101650000327C4FDB367F700232EF4FC3707000C03
:101660008327C4FC93D65700B717000093870780E1
:10167000B387F60093972700B307F7000327C4FD4D
:1016800023A0E7006F00800013000000130000009B
:101690008320C10303248103130101046780000038
:1016A000130101FC232E1102232C810213040104D7
:1016B0002326A4FCF32740F12326F4FE8327C4FE4F
:1016C0002320F4FE232204FE832704FE032744FE86
:1016D000B3E7E700639C07063707000C8327C4FCC9
:1016E00093D65700B717000093870780B387F6009B
:1016F00093972700B307F70083A70700232EF4FC76
:101700008327C4FC93F7F70113071000B317F70002
:1017100093C7F7FF0327C4FDB377F700232EF4FC2C
:101720003707000C8327C4FC93D65700B717000077
:1017300093870780B387F60093972700B307F700D6
:101740000327C4FD23A0E7006F0080001300000002
:10175000130000008320C10303248103130101044B
:101760006780000013000000130000001300000059
:10177000130101FE232E1100232C8100130401020A
:101780002326A4FE2324B4FE93070600A303F4FE3D
:101790008327C4FE83A70700238207008327C4FE94
:1017A00083A70700238407008327C4FE83A70700BD
:1017B000130770FC2384E7008327C4FE83A7070078
:1017C00023880700832584FE0325C4FEEF00501CF8
:1017D0008327C4FE83A70700034774FE2386E70020
:1017E0008327C4FE032784FE23A2E7008327C4FEC9
:1017F000034774FE2384E7008327C4FE23A8070061
:101800008327C4FE23A607008327C4FE23AA07005C
:101810008327C4FE23AE07008327C4FE23A007024C
:101820008327C4FE23AC07008327C4FE23A207023C
:101830008327C4FEA3840700130000008320C10196
:1018400003248101130101026780000013000000DE
:10185000130101FE232E1100232C81001304010229
:101860002326A4FE2324B4FE93070600A303F4FE5C
:10187000834774FE13860700832584FE0325C4FE78
:10188000EFF01FEF8327C4FE17170000130787B27E
:1018900023A0E702130000008320C101032481017B
:1018A0001301010267800000130000001300000014
:1018B000130101FD232611022324810213040103D5
:1018C000232EA4FC232CB4FC232AC4FC232604FED0
:1018D000232204FE832784FD638E070A832744FDA9
:1018E000638A070A8327C4FD83A7070083C74701CC
:1018F000A305F4FE232204FE6F000001832744FEAB
:10190000938717002322F4FE032744FE9307100356
:10191000E3F6E7FE8347B4FE93F70702E38407FC90
:10192000232204FE6F000001832744FE93871700E3
:101930002322F4FE032744FE93071003E3F6E7FE99
:10194000032784FD8327C4FE3307F7008327C4FDE4
:1019500083A70700034707002380E7008327C4FE0F
:10196000938717002326F4FE232204FE6F00000154
:10197000832744FE938717002322F4FE032744FEA7
:1019800093071003E3F6E7FE0327C4FE832744FD15
:10199000E36AF7F4130000008320C10203248102EC
:1019A0001301010367800000130000001300000012
:1019B000130101FD232611022324810213040103D4
:1019C000232EA4FC232CB4FC232604FE832784FDB1
:1019D000638C0706032784FD8327C4FEB307F70043
:1019E00083C70700A305F4FE6F0080058327C4FDAD
:1019F00083A7070083C7470193F7F70F2305F4FE7A
:101A00008347A4FE93F7F70F93F70702E38007FEDF
:101A10008327C4FD83A707000347B4FE2380E700A4
:101A20008327C4FE938717002326F4FE032784FD33
:101A30008327C4FEB307F70083C70700A305F4FE9E
:101A40008347B4FEE39407FA130000008320C10229
:101A500003248102130101036780000013000000CA
:101A6000130101FE232E1100232C81001304010217
:101A70002326A4FE2324B4FE2322C4FE832744FE8F
:101A800063840706832784FE638007068327C4FEDA
:101A9000032784FE23A6E7008327C4FE032744FE12
:101AA00023A8E7008327C4FE23AA07008327C4FED8
:101AB000171700001307079023A0E7028327C4FE2F
:101AC00083A7070083C7470013F7F70F8327C4FED8
:101AD00083A70700136727001377F70F2382E70018
:101AE0000325C4FEEF00D021130000008320C101B4
:101AF000032481011301010267800000130000002C
:101B0000130101FD23261102232481021304010382
:101B1000232EA4FCA30704FE230704FE8327C4FD91
:101B200083A7070083C747012307F4FE8327C4FD6B
:101B300083C797000347E4FEB3E7E70013F7F70F07
:101B40008327C4FDA384E7008327C4FD83A707017F
:101B5000639C07008347E4FE93F70704638607004E
:101B600093071000A307F4FE8307F4FE1385070014
:101B70008320C10203248102130101036780000056
:101B8000130101FD23261102232481021304010302
:101B9000232EA4FC232CB4FC232AC4FC232604FEFD
:101BA000A30504FE832784FD6386070A832744FD7B
:101BB0006382070A8327C4FD83A7070083C7470101
:101BC000A305F4FE8327C4FD83C797000347B4FE33
:101BD000B3E7E70013F7F70F8327C4FDA384E700FB
:101BE0006F00C0058327C4FD03A70700832684FD7B
:101BF0008327C4FEB387F600034707001377F70F68
:101C00002380E7008327C4FE938717002326F4FE72
:101C10008327C4FD83A7070083C74701A305F4FEFC
:101C20008327C4FD83C797000347B4FEB3E7E700EB
:101C300013F7F70F8327C4FDA384E7008347B4FE9F
:101C400093F71700638807000327C4FE832744FD2A
:101C5000E36AF7F88327C4FE138507008320C102D7
:101C600003248102130101036780000013000000B8
:101C7000130101FE232E1100232C81001304010205
:101C80002326A4FE938705002315F4FE0325C4FE36
:101C9000EF0010070357A4FEB70701009387F7FF73
:101CA0006308F7048327C4FE83A7070083C74700A0
:101CB00093F7F70F13978701135787418357A4FEB4
:101CC0009397870193D7874193F7F70093978701FD
:101CD00093D78741B367F70013978701135787415D
:101CE0008327C4FE83A707001377F70F2382E7003B
:101CF000130000008320C1010324810113010102AC
:101D000067800000130000001300000013000000B3
:101D1000130101FE232E1100232C81001304010264
:101D20002326A4FE2324B4FE2322C4FE832784FE9C
:101D3000638A0708032744FE9307000C63E4E7085F
:101D40008327C4FE032784FE23AEE7008327C4FE57
:101D500083A7070083C7870093F7F70F939787013F
:101D600093D7874193F7F703139787011357874159
:101D7000832744FE9397870193D78741B367F70082
:101D800013978701135787418327C4FE83A7070052
:101D90001377F70F2384E7008327C4FE83A7070088
:101DA00083C7470013F7F70F8327C4FE83A70700F5
:101DB000136717001377F70F2382E7000325C4FE8C
:101DC000EF000074130000008320C101032481018F
:101DD00013010102678000001300000013000000DF
:101DE000130101FE232E1100232C81001304010294
:101DF0002326A4FE2324B4FE832784FE63860704DF
:101E00008327C4FE032784FE23A0E7028327C4FEA2
:101E100023A607008327C4FE23A807008327C4FE48
:101E200083A7070083C7470013F7F70F8327C4FE74
:101E300083A70700136727001377F70F2382E700B4
:101E40000325C4FEEF00C06B130000008320C10116
:101E500003248101130101026780000013000000C8
:101E6000130101FE232E1100232C81001304010213
:101E70002326A4FE2324B4FE832784FE638E070258
:101E80008327C4FE032784FE23A2E7028327C4FE20
:101E900083A7070083C7470013F7F70F8327C4FE04
:101EA00083A70700136787001377F70F2382E700E4
:101EB0000325C4FEEF00C064130000008320C101AD
:101EC0000324810113010102678000001300000058
:101ED000130101FD232611022324810213040103AF
:101EE000232EA4FC232CB4FC232AC4FCA30304FE4D
:101EF000232604FE832784FD638E0708832744FD81
:101F0000638A07088327C4FD83A7070083C74701A7
:101F1000A303F4FE8327C4FD83C79700034774FE21
:101F2000B3E7E70013F7F70F8327C4FDA384E700A7
:101F3000834774FE93F70702638E0704930700013B
:101F40002324F4FE032744FD9307F00063E6E70033
:101F5000832744FD2324F4FE232604FE6F00C002E1
:101F6000032784FD8327C4FE3307F7008327C4FDBE
:101F700083A70700034707002380E7008327C4FEE9
:101F8000938717002326F4FE0327C4FE832784FECD
:101F9000E368F7FC8327C4FE138507008320C10292
:101FA0000324810213010103678000001300000075
:101FB000130101FD232611022324810213040103CE
:101FC000232EA4FC9307F0FFA307F4FE8327C4FD90
:101FD00083A7070083C7470113F7F70F8327C4FDC3
:101FE00083C79700B367F70013F7F70F8327C4FD84
:101FF000A384E7008327C4FD83C7970093F7E7F91D
:10200000A307F4FE8327C4FDA38407008347F4FEDF
:10201000138507008320C1020324810213010103F9
:102020006780000013000000130000001300000090
:10203000130101FD2326110223248102130401034D
:10204000232EA4FC9307F0FFA307F4FE8327C4FD0F
:1020500083A7070083C78701A307F4FE8347F4FE25
:10206000138507008320C1020324810213010103A9
:102070006780000013000000130000001300000040
:10208000130101FD232611022324810213040103FD
:10209000232EA4FCA30704FE8327C4FD83A7070007
:1020A00083C74701A307F4FE8327C4FD83C79700B6
:1020B0000347F4FEB3E7E70013F7F70F8327C4FDE8
:1020C000A384E7008347F4FE93F70706A307F4FE13
:1020D0008347F4FE138507008320C1020324810295
:1020E00013010103678000001300000013000000CB
:1020F000130101FE232E1100232C81001304010281
:102100002326A4FE8327C4FE83A7070083C7C70036
:1021100013F7F70F8327C4FE83A70700136707048D
:102120001377F70F2386E700130000008320C10117
:1021300003248101130101026780000013000000E5
:10214000130101FE232E1100232C81001304010230
:102150002326A4FE8327C4FE83A7070083C7C700E6
:1021600013F7F70F8327C4FE83A707001377F7FB46
:102170001377F70F2386E700130000008320C101C7
:102180000324810113010102678000001300000095
:10219000130101FC232E1102232C810213040104DC
:1021A0002326A4FC2324B4FC8326C4FC032684FC3D
:1021B00023A2C60037666202130606A0930600003B
:1021C0002324C4FE2326D4FE832684FE93D6D60180
:1021D0000326C4FE93173600B387F600832684FED9
:1021E00013973600832684FC1388060093080000AA
:1021F000130608009386080013050700938507005F
:10220000EF00806713070500938705002322E4FE93
:10221000832744FE93D717002320F4FE832704FE70
:1022200093D76700232EF4FC0327C4FDB7070100F2
:102230006376F7048327C4FC83A70700130700F81D
:102240002386E7008327C4FD13D787008327C4FCB8
:1022500083A707001377F70F2382E7008327C4FCC7
:1022600083A707000327C4FD1377F70F2380E70038
:102270008327C4FC83A70700238607001300000000
:102280008320C1030324810313010104678000003C
:10229000130101FD232611022324810213040103EB
:1022A000232EA4FC8327C4FD83A7070083C78700D0
:1022B00093F7F70F93F7F700A307F4FE8347F4FEB5
:1022C0001307C000638EE7061307C0006348F70AD0
:1022D000130760006386E708130760006340F70A8E
:1022E00013074000638EE704130740006348F708B4
:1022F00063880700130720006384E7026F0000086B
:102300008327C4FD83A74702638E07068327C4FD86
:1023100083A747020325C4FDE78007006F008006FE
:102320008327C4FD83A70702638207068327C4FDB2
:1023300083A707020325C4FDE78007006F0000059F
:102340008327C4FD83A7C701638607048327C4FDD1
:1023500083A7C7010325C4FDE78007006F00800342
:102360008327C4FD83A78701638A07008327C4FDF1
:1023700083A787010325C4FDE78007001300000041
:102380006F008001130000006F00000113000000C7
:102390006F00800013000000130000008320C102C2
:1023A0000324810213010103678000001300000071
:1023B000130101FD232611022324810213040103CA
:1023C000232EA4FC8327C4FD83A7C700638A0710BC
:1023D0008327C4FD83A70701638407108327C4FDF7
:1023E00083A7070083C74701A303F4FE8327C4FD27
:1023F00083C79700034774FEB3E7E70013F7F70FAF
:102400008327C4FDA384E700834774FE93F7070284
:1024100063880708930700012324F4FE8327C4FD83
:1024200003A707018327C4FD83A74701B307F7402C
:102430002320F4FE032704FE9307F00063E6E70081
:10244000832704FE2324F4FE232604FE6F00800469
:102450008327C4FD03A7C7008327C4FD83A74701C3
:102460003307F7008327C4FD83A70700034707004E
:102470002380E7008327C4FD83A747011387170044
:102480008327C4FD23AAE7008327C4FE9387170090
:102490002326F4FE0327C4FE832784FEE36AF7FAAB
:1024A0008327C4FD03A747018327C4FD83A7070132
:1024B0006318F7028327C4FD23A807008327C4FD00
:1024C00083A7070083C7470013F7F70F8327C4FDCF
:1024D00083A707001377D7FF1377F70F2382E7004F
:1024E000130000008320C1020324810213010103B1
:1024F00067800000130000001300000013000000BC
:10250000130101FD23261102232481021304010378
:10251000232EA4FC232604FE0327C4FD97470000B6
:10252000938747DB6316F700930710002326F4FE1A
:102530000325C4FEEFF0CF8A130000008320C10200
:1025400003248102130101036780000013000000CF
:10255000130101FD23261102232481021304010328
:10256000232EA4FC232604FE0327C4FD9747000066
:10257000938747D66316F700930710002326F4FECF
:102580000325C4FEEFF0CF91130000008320C102A9
:10259000032481021301010367800000130000007F
:1025A000130101FD232611022324810213040103D8
:1025B000232EA4FC0327C4FD930790036302F702B4
:1025C000B71700802324F4FE832784FE37C7ADDECF
:1025D0001307F7EE23A0E700000000006F00800162
:1025E000B71700802326F4FE8327C4FE13071000CC
:1025F00023A0E700130000008320C102032481020E
:1026000013010103678000001300000013000000A5
:10261000130101FE232E1100232C8100130401025B
:10262000732700B02324E4FE2326F4FE032784FE50
:102630008327C4FE13050700938507008320C1018B
:1026400003248101130101026780000013000000D0
:10265000130101FD23261102232481021304010327
:10266000232604FE232404FE232204FE232004FE4A
:10267000232E04FC6F000015232C04FC6F000013B4
:102680000327C4FD832784FD3307F7028327C4FE95
:102690003307F700B7074D2193875721B317F70288
:1026A00093D647409357F741B386F6409387060089
:1026B00093975700B387D74093972700B387D740A6
:1026C000B307F7402326F4FE0327C4FD832784FDC8
:1026D0003307F702832784FE3307F700B7074D213E
:1026E00093875721B317F70293D647409357F74183
:1026F000B386F6409387060093975700B387D74079
:1027000093972700B387D740B307F7402324F4FEFD
:102710000327C4FD832784FD3307F702832744FE84
:102720003307F700B7074D2193875721B317F702F7
:1027300093D647409357F741B386F64093870600F8
:1027400093975700B387D74093972700B387D74015
:10275000B307F7402322F4FE0327C4FD832784FD3B
:102760003307F702832704FE3307F700B7074D212D
:1027700093875721B317F70293D647409357F741F2
:10278000B386F6409387060093975700B387D740E8
:1027900093972700B387D740B307F7402320F4FE71
:1027A000832784FD93871700232CF4FC032784FDE3
:1027B00093074000E3D6E7EC8327C4FD9387170017
:1027C000232EF4FC0327C4FD93074000E3D6E7EA79
:1027D0008327C4FE138507008320C10203248102DE
:1027E00013010103678000001300000013000000C4
:1027F000130101FD23261102232481021304010386
:10280000EFF01FE12324A4FE2326B4FEEFF05FE4E3
:102810002322A4FEEFF0DFDF232CA4FC232EB4FC44
:10282000032784FD8327C4FD032584FE8325C4FE7E
:102830003306A7401308060033380701B386B740B4
:10284000B3870641938607001307060093870600A7
:102850002328E4FC232AF4FC9307000013850700D7
:102860008320C10203248102130101036780000059
:102870001300000013000000130806009307050072
:1028800093880500639C060C63FAC5223707010094
:102890006368E63637070001130380016374E600BE
:1028A00013030001B3566600174700001307878F14
:1028B0003307D7000347070093060002330767007A
:1028C000630ED700B386E640B398D5003357E500D2
:1028D0003318D600B317D500B36817011356080193
:1028E00033D5C8029316080193D6060113D7070102
:1028F000B3F8C802B385A60293980801336717019D
:10290000637CB700B308E8001387080063F4B800DD
:1029100063F408391305F5FF3307B740B355C70211
:102920009397070193D707013377C702B386B6029F
:1029300013170701B3E7E70063FAD700B307F800FE
:1029400063F4D70063F607359385F5FF131505018A
:102950003365B500930500006780000063F8D5007B
:10296000930500001305000067800000B707010011
:1029700063E6F62A370700019307800163F4E60057
:102980009307000133D8F60017470000130787812B
:102990003307070103470700130800023307F70056
:1029A000630607293308E840B358E600B3960601EA
:1029B000B3E8D80033D3E50093DE0801B357D3035F
:1029C000139E0801B3950501135E0E013357E50010
:1029D0003367B70093560701331606013373D303E9
:1029E000B305FE0213130301B3E6660063FCB600F1
:1029F0003383D800930603006374B300637C132D04
:102A00009387F7FFB386B64033D3D6031317070176
:102A100013570701B3F6D603B3056E02939606016A
:102A20003367D700637CB700B386E80013870600DE
:102A300063F4B60063F416291303F3FF93970701B9
:102A4000B3E667003307B7409317060193150301F8
:102A500093D7070193D5050113D306011356060139
:102A6000330EF302B388F502B385C50293D708018C
:102A7000B385C501B387B7003303C30263F6C7014B
:102A8000370601003303C30013D60701330666007F
:102A90006360C7029398080193D8080193970701D0
:102AA00033150501B3871701637EF51E631CC71E2E
:102AB0001385F6FF9305000067800000630A061483
:102AC00037070100637CE6189338061093B81800A6
:102AD00093983800B3561601173700001307876C18
:102AE0003307D70003470700930600023307170197
:102AF000630AD714B387E6403318F60033D3E500F2
:102B000093580801335E130313160801B395F500BB
:102B1000135606013357E5003367B7009356070194
:102B2000B317F50033731303B305C603131303017F
:102B3000B3E6660063FCB6003305D80093060500D3
:102B40006374B50063760517130EFEFFB386B640B7
:102B500033D516031317070113570701B3F61603EE
:102B60003303A602939606013367D700637C6700A0
:102B7000B306E8001387060063F4660063F60615E3
:102B80001305F5FF93150E01B3E5A5003307674064
:102B90003355170393D60701337717033303C50261
:102BA0001317070133E7E600637C6700B306E8000C
:102BB0001387060063F4660063F6060D1305F5FF40
:102BC00033076740B35617039397070193D707015D
:102BD000337717033386C60213170701B3E7E700FD
:102BE00063FAC700B307F80063F4C70063F8070986
:102BF0009386F6FF131505013365D5006780000045
:102C00001333061013331300131333006FF09FC9EF
:102C100093060000930800006FF01FEC93B70610B6
:102C200093B71700939737006FF0DFD53336C500A1
:102C3000B3B6B6001336160033E5C60093050000A0
:102C4000678000003387C5409358060113160601BC
:102C500013560601930510006FF09FF3370700012C
:102C60006378E60093560601930800016FF0DFE6F3
:102C700093568601930880016FF01FE69386E6FF66
:102C80006FF05FF71305E5FF338706016FF05FF321
:102C90009385E5FF6FF09FCB1305E5FF33870801B0
:102CA0006FF09FC713850600930500006780000042
:102CB000130EEEFFB30605016FF05FE91303E3FFA8
:102CC000338716016FF09FD71305E5FF33870601A1
:102CD0006FF05FEB9387E7FFB30613016FF09FD2AE
:102CE000930505009306000013060000130500007D
:102CF0006F00D04C1386818297250000938585BA9A
:102D000017350000130585606F00004683254500D8
:102D1000130101FF2324810023261100938741DD45
:102D2000130405006384F500EF10903783258400B9
:102D30009387C1E36386F50013050400EF10503656
:102D40008325C400938741EA638CF50013050400D2
:102D5000032481008320C100130101016F1050344E
:102D60008320C1000324810013010101678000005A
:102D700083A7450693F717006398070083D7C5001C
:102D800093F70720638607001305000067800000A3
:102D900003A58505130101FF23261100EF00D029AB
:102DA0008320C100130500001301010167800000AA
:102DB00083A7450693F717006398070083D7C500DC
:102DC00093F7072063860700130500006780000063
:102DD00003A58505130101FF23261100EF005027ED
:102DE0008320C1001305000013010101678000006A
:102DF000130101FE97070000938707F0232E1100AF
:102E0000232C8100232A9100138441DD23282101F2
:102E1000232631012324410113068000930500007D
:102E200023ACF1D8138501E3930740002326F40077
:102E30002320040023220400232404002322040668
:102E400023280400232A0400232C0400EF009020F0
:102E5000170A0000130A0A54970900009389C959F8
:102E6000170900001309C96197040000938484675F
:102E70001385C1E2232044032322340323242403A3
:102E800023269402232E8400EF00101AB7070100B6
:102E9000938797001306800093050000138581E94E
:102EA000232AF406232404062326040623280406E2
:102EB0002326040C232C0406232E040623200408B6
:102EC000EF0050199387C1E3138541E92322F408E9
:102ED000232444092326340923282409232A940877
:102EE000EF009014B70702009387270113068000B4
:102EF00093050000138501F0232EF40C2328040C05
:102F0000232A040C232C040C232A04122320040E4D
:102F10002322040E2324040EEF00D013938741EAEA
:102F20002328440F232A340F232C240F232E940EFE
:102F30002326F40E032481018320C101832441014F
:102F4000032901018329C100032A81001385C1EFF0
:102F5000130101026F00500D130101FE232A91009D
:102F6000930405001385C1DB232E1100232C81005F
:102F7000EF00900C83A781D96384071013888182A6
:102F80009306F0FF832748009387F7FF63C807087D
:102F9000032488006F00C000130484066380D708F0
:102FA0000317C4009387F7FFE31807FEB707FFFF77
:102FB000938717002326F4001305840523220406B3
:102FC000EF0090061385C1DBEF0090081305C405E0
:102FD00023200400232404002322040023280400C7
:102FE000232A0400232C040013068000930500000C
:102FF000EF00500623280402232A0402232204049B
:10300000232404048320C101130504000324810147
:10301000832441011301010267800000032408009A
:1030200063060400130804006FF0DFF59305C01A6F
:103030001385040023260101EF00907D0328C100C1
:103040001304050063020504930740002322F500E2
:103050001305C500232004002324A4001306001A2E
:103060009305000023260101EF00C07E0328C10064
:103070009306F0FF23208800130804006FF09FF0F0
:10308000EFF01FD76FF09FEF232008001385C1DBFF
:10309000EF00007C9307C00023A0F4006FF09FF6C0
:1030A000130101FF23248100130405001385C1DBF4
:1030B00023261100EF00407883274403639C070018
:1030C00083A781D917070000130787C4232AE402C6
:1030D000638C0700032481008320C1001385C1DBBA
:1030E000130101016F00C076EFF09FD0032481002F
:1030F0008320C1001385C1DB130101016F004075FE
:103100001385C1DB6F0040731385C1DB6F00407412
:10311000130101FF1385C1DB23261100EF00C071ED
:103120008320C1001386818297050000938585C4A2
:1031300013050000130101016F000003130101FFDB
:1031400013868182970500009385C5C6130500008C
:1031500023261100EF0040018320C1001385C1DB4D
:10316000130101016F00C06E130101FD2320210333
:10317000232E3101232C4101232A510123286101EF
:103180002326710123261102232481022322910286
:10319000930A0600130B0500938B0500130A000029
:1031A000930910001309F0FF83A44A009384F4FFED
:1031B00063CA040203A48A008357C40063FEF900B3
:1031C0008317E4009305040013050B0063862701B1
:1031D000E7800B00336AAA009384F4FF130484068B
:1031E000E39C24FD83AA0A00E3900AFC8320C10229
:1031F0000324810283244102032901028329C1019E
:10320000832A4101032B0101832BC10013050A000E
:10321000032A81011301010367800000130101FDEE
:1032200023229102930405001385050023248102C3
:103230002326110213840500EF00806F83A7440347
:1032400013081500973500009385C5051306100077
:10325000930601011307200023288100232AA100DF
:1032600023260101232CB100232EC1002322D100EB
:103270002324E10003A48400638C070E8327440603
:103280000317C40093F61700638E060693162701F2
:1032900063CA0608B7E6FFFF9386F6FF37260000ED
:1032A000B3F7D7003367C7002322F4062316E400E0
:1032B000139727016344070C13850400130641008C
:1032C00093050400EF1090353337A00083274406A0
:1032D0003307E0409364A70093F717006398070053
:1032E0008357C40093F70720638607048320C10235
:1032F0000324810213850400832441021301010386
:1033000067800000937607206386060493162701E2
:10331000E3D206F813972701E35007FA9304F0FF6E
:103320006FF01FFC13972701E35807F89304F0FF91
:103330006FF0DFFB03258405EF0080518320C1027D
:103340000324810213850400832441021301010335
:103350006780000003258405EF00004E0317C400BA
:103360008327440693162701E3C406F46FF09FF207
:1033700013850400EFF0DFD26FF05FF09304F0FFED
:103380006FF09FF59305050003A581D86FF01FE945
:10339000130101FF23248100138405008395E500B8
:1033A00023261100EF00402D63400502832704050A
:1033B0008320C100B387A7002328F40403248100DD
:1033C00013010101678000008357C40037F7FFFF36
:1033D0001307F7FFB3F7E7008320C1002316F400BB
:1033E0000324810013010101678000001305000020
:1033F000678000008397C500130101FE1383060058
:10340000232E110093F6071013870500930806007A
:103410001308050063980602B7F6FFFF9386F6FFD0
:103420008320C101B3F7D7008315E7002316F70007
:103430009306030013860800130508001301010218
:103440006F0040298395E5002324C10093062000E6
:1034500013060000232661002320E1002322A1009F
:10346000EF00C01B032701000323C1008328810054
:103470008317C700032841006FF01FFA130101FFF3
:1034800023248100138405008395E5002326110081
:10349000EF00C0181307F0FF8317C4006302E502B2
:1034A00037170000B3E7E7008320C1002328A404F6
:1034B0002316F4000324810013010101678000003A
:1034C0001307058013070780B3F7E7008320C100C7
:1034D0002316F4000324810013010101678000001A
:1034E0008395E5006F004000130101FF2324810054
:1034F000130405001385050023AE01D8232611000F
:10350000EFC01FF49307F0FF630AF5008320C100AA
:1035100003248100130101016780000083A7C1D942
:10352000E38607FE8320C1002320F40003248100EA
:10353000130101016780000083A781D8638EA70C67
:1035400083254504130101FE232A9100232E110037
:10355000232C81009304050063880504232821019E
:10356000232631011309000093090008B3872501C0
:1035700003A40700630E0400930504000324040061
:1035800013850400EF00407AE31804FE83A5440489
:1035900013094900E31C39FD13850400EF00C078CE
:1035A000032901018329C10083A5840363860500E3
:1035B00013850400EF00407703A40404630C0400A7
:1035C000930504000324040013850400EF00C07574
:1035D000E31804FE83A5C404638605001385040074
:1035E000EF00807483A74403638E070003248101E6
:1035F0008320C101138504008324410113010102CA
:10360000678007008320C1010324810183244101D5
:1036100013010102678000006780000093870500A6
:10362000130101FF23248100930506001304050004
:1036300013860600138507002326110023AE01D848
:10364000EFD00F979307F0FF630AF5008320C100C6
:1036500003248100130101016780000083A7C1D901
:10366000E38607FE8320C1002320F40003248100A9
:10367000130101016780000093870500130101FF1A
:103680002324810093050600130405001386060019
:10369000138507002326110023AE01D8EFD04FA2D7
:1036A0009307F0FF630AF5008320C1000324810023
:1036B000130101016780000083A7C1D9E38607FEDB
:1036C0008320C1002320F4000324810013010101A1
:1036D0006780000093870500130101FF2324810008
:1036E00093050600130405001386060013850700E2
:1036F0002326110023AE01D8EFD08FB69307F0FF39
:10370000630AF5008320C100032481001301010135
:103710006780000083A7C1D9E38607FE8320C1002C
:103720002320F400032481001301010167800000BD
:10373000130101FF232481002320210123261100EE
:103740002322910017390000130989B817340000AB
:10375000130404B8630289023309894013592940CC
:10376000930400008327040093841400130444008E
:10377000E7800700E3E824FF17390000130989B543
:10378000173400001304C4B463028902330989406A
:1037900013592940930400008327040093841400E4
:1037A00013044400E7800700E3E824FF8320C100FE
:1037B0000324810083244100032901001301010136
:1037C00067800000973700009387C7B01737000065
:1037D000130747B0130101FFB387E740232291008D
:1037E0002326110093D427406386040223248100FA
:1037F000173400001304C4AD3304F400832704001D
:103800009384F4FF1304C4FFE7800700E39804FEE9
:10381000032481008320C10083244100130101019E
:1038200067800000678000006780000067800000FC
:1038300067800000678000006780000013051000AB
:10384000678000001305100067800000678000009B
:10385000678000001303F00013070500637EC302B6
:103860009377F7006390070A63920508937606FF43
:103870001376F600B386E6002320B7002322B700B4
:103880002324B7002326B70013070701E366D7FEFA
:103890006314060067800000B306C34093962600B9
:1038A00097020000B38656006780C6002307B70062
:1038B000A306B7002306B700A305B7002305B7008A
:1038C000A304B7002304B700A303B7002303B70082
:1038D000A302B7002302B700A301B7002301B7007A
:1038E000A300B7002300B7006780000093F5F50F31
:1038F00093968500B3E5D50093960501B3E5D50011
:103900006FF0DFF69396270097020000B38656000B
:1039100093820000E78006FA93800200938707FFF6
:103920003307F7403306F600E378C3F66FF0DFF3B2
:103930009377350013070500639C0704B7867F7FE4
:103940009386F6F79305F0FF032607001307470059
:10395000B377D600B387D700B3E7C700B3E7D70084
:10396000E384B7FE8346C7FFB307A740638406041A
:103970008346D7FF638C06020345E7FF3335A0007B
:103980003305F5001305E5FF67800000E38806FABC
:10399000834707001307170093763700E39807FE65
:1039A0003307A7401305F7FF678000001385D7FF93
:1039B000678000001385C7FF67800000130101FDC9
:1039C000232481021384C1D8232291029304050089
:1039D0000325040023202103232E31012326B100D7
:1039E000232611021309060093890600EFF0DFE495
:1039F00083A701DC8325C1006384070803A7470070
:103A00009306F0010325040063C2E608931627001D
:103A1000639C04021307170023A2E700B387D700B3
:103A200023A4B700EFF0DFE2130500008320C102FA
:103A30000324810283244102032901028329C10155
:103A40001301010367800000B388D70023A428096D
:103A500003A88718130610003316E6003368C80061
:103A600023A4071923A4381113082000E39404FBAE
:103A700003A8C7183366C80023A6C7186FF09FF9BC
:103A80009387C1F023A0F1DC6FF05FF7EFF05FDC0C
:103A90001305F0FF6FF09FF9130101FD232671015B
:103AA000938BC1D823286101130B050003A50B00DC
:103AB000232C4101138A01DC2320210323248101CB
:103AC00023261102138C0500EFF01FD703290A00EB
:103AD000630C0908232E3101232A5101232481027A
:103AE00023229102232291019309F0FF930A1000EF
:103AF000832449001384F4FF634E04049394240048
:103B0000B304990063140C088327490083A644007A
:103B10009387F7FF6388870C23A20400638606025D
:103B20008327891833978A00832C4900B377F700DD
:103B300063920708E78006000327490083270A00ED
:103B4000631C9709639A27091304F4FF9384C4FF45
:103B5000E31A34FB03248102832441028329C10137
:103B6000832A4101832C410003A50B008320C1025D
:103B700003290102032A8101032B0101832BC100C8
:103B8000032C8100130101036FF09FCC83A7441025
:103B90001307F4FFE30AFCF61304E4FFE30C37FB1E
:103BA00083A7041063848705938484FFE31034FFA4
:103BB0006FF05FFA8327C91883A544083377F700AD
:103BC000631C070213050B00E7800600032749006A
:103BD00083270A00E30897F7E38E07F613890700A7
:103BE0006FF01FF1232289006FF05FF313040700C9
:103BF0009384C4FF6FF05FF113850500E780060032
:103C00006FF09FF3130101FE232C8100232A910002
:103C1000232821012326310113840500232E1100BE
:103C2000130905009739000093894982EF00504637
:103C300083A789003717000083A4470093F4C4FFCB
:103C40009387F47F9387077F338487401354C4009E
:103C50001304F4FF1314C400634EE4009305000042
:103C600013050900EF10100883A78900B387970098
:103C70006306F50213050900EF0010428320C1011D
:103C80000324810183244101032901018329C10007
:103C9000130500001301010267800000B305804096
:103CA00013050900EF1010049307F0FF6304F504F7
:103CB00003A7890083A7C109B384844093E4140057
:103CC0002322970013050900B387874023AEF1082C
:103CD000EF00903C8320C101032481018324410132
:103CE000032901018329C1001305100013010102FA
:103CF000678000009305000013050900EF10807E27
:103D000003A789009306F000B307E540E3D4F6F675
:103D100083A601D993E717002322F7003305D54086
:103D200023AEA1086FF01FF563840512130101FE95
:103D3000232C81002326B10013040500232E11003B
:103D4000EF0010358325C100972800009388087084
:103D500003A8880003A5C5FF138785FF9377E5FFB8
:103D60003306F700832646001373150093F6C6FF4B
:103D70006308C8182322D6003308D6000328480059
:103D800013781800631A030803A385FF17250000A2
:103D90001305456C3307674083258700B3876700A9
:103DA000638AA5120323C70023A665002324B3005A
:103DB000630C081893E617002322D7002320F6008F
:103DC0009306F01F63E2F60A93F687FF9386860058
:103DD00083A54800B386D80003A6060013D5570074
:103DE00093071000B397A700B3E7B700938586FF4A
:103DF0002324C7002326B70023A2F80023A0E6004F
:103E00002326E60013050400032481018320C10159
:103E1000130101026F005028631E0802B387D70008
:103E200017250000130505638326860013E8170095
:103E3000B305F7006380A6160326C60023A6C600B6
:103E40002324D6002322070123A0F5006FF05FF79B
:103E5000678000001365150023AEA5FE2320F60041
:103E60009306F01FE3F2F6F693D697001306400090
:103E70006360D60E93D667009385960393953500BD
:103E800013868603B385B80083A60500938585FF56
:103E90006398D5006F00C01183A686006388D500A3
:103EA00003A646001376C6FFE3E8C7FE83A5C60057
:103EB0002326B7002324D70013050400032481011F
:103EC0008320C10123A4E50023A6E600130101021B
:103ED0006F00901C6310080A8325C6000326860025
:103EE000B386F60093E716002326B60023A4C50088
:103EF0002322F7003307D7002320D7006FF09FF06D
:103F0000B386D7006310030283A785FF3307F7400A
:103F100003268700B386F6008327C7002326F60012
:103F200023A4C70013E6160083A741D92322C700A4
:103F300023A4E800E3E8F6EC83A5C1DC1305040044
:103F4000EFF05FCC6FF01FECB387D7006FF0DFEDC1
:103F5000130640016378D602130640056368D6064F
:103F600093D6C7009385F606939535001386E6062B
:103F70006FF05FF193E617002322D7002320F600AD
:103F80006FF05FE89385C605939535001386B605F7
:103F90006FF05FEF23AAE80023A8E8002326A7001C
:103FA0002324A7002322070123A0F5006FF09FE53B
:103FB00003A548001356264093071000B397C70087
:103FC000B3E7A70023A2F8006FF09FEE1306401599
:103FD000636CD60093D6F7009385860793953500DA
:103FE000138676076FF01FEA13064055636CD60000
:103FF00093D627019385D607939535001386C60778
:104000006FF05FE89305803F1306E0076FF09FE7CE
:10401000130101FC232C8102232E11029387B5008A
:104020001307600113040500636EF708930600018F
:1040300063ECB606EF00D00593060001130780017C
:104040009308200017280000130848403307E800B1
:1040500083274700130687FF638EC74403A74700E3
:1040600003A6C70083A587001377C7FF3387E70040
:104070008326470023A6C5002326F1002324B6008B
:1040800093E61600130504002322D700EF00D000AA
:104090008327C1008320C103032481031385870084
:1040A00013010104678000009307C0002320F4007F
:1040B000130500008320C1030324810313010104BD
:1040C0006780000093F687FFE3C007FEE3EEB6FCCF
:1040D0002326D100EF00C07B8326C1009307701F09
:1040E00063F8D74C93D79600638E071613074000EA
:1040F000636AF74293D7660093889703138E87030A
:104100001395380017280000130848343305A80019
:1041100083274500130585FF6308F5021303F000AC
:104120006F00400183A5C70063560634630EB500D7
:104130009387050003A747001377C7FF3306D740CF
:10414000E352C3FE93080E0083270801972E000058
:10415000938E4E30638ED72D03A747009305F00052
:104160001377C7FF3306D74063CEC546232AD8014D
:104170002328D801635406441306F01F0323480084
:104180006362E634137687FF130686003306C800A1
:104190008325060013555700130710003317A70097
:1041A0003363E300130786FF23A4B70023A6E700C9
:1041B000232268002320F60023A6F50093D7284089
:1041C000130510003315F5006366A30AB377650085
:1041D000639407021315150093F8C8FFB3776500C1
:1041E00093884800639A070013151500B37765009C
:1041F00093884800E38A07FE130EF000139F3800EF
:10420000330FE80113030F000327C300938F080047
:10421000630CE33203264700930707000327C70018
:104220001376C6FFB305D640634CBE32E3C205FE2B
:104230003386C7008326460083A587001305040044
:1042400093E616002322D60023A6E5002324B70018
:104250002326F100EF0040648327C1001385870007
:104260006FF05FE51305002093080004130EF003C0
:104270006FF05FE98327880003A747001373C7FF28
:104280003306D3406366D300132706016306071A7B
:1042900083A5C1DC03A601D91307F0FFB385B600DF
:1042A0006306E642371700001307F700B385E50001
:1042B00037F7FFFFB3F5E50013050400232E0101D6
:1042C000232CF100232AD100232861002326B100EA
:1042D000EF1040211307F0FF8325C10003230101E4
:1042E00083264101832781010328C101130E0500A4
:1042F000138F01D96306E534338767006360E534C3
:10430000938EC10903A60E003386C50023A0CE00FC
:10431000630AA74883280F001305F0FF6382A84AA9
:104320003307EE403307C70023A0EE00137F7E0063
:10433000630E0F3A137E8EFFB7180000130E8E0027
:10434000938888003306BE00B385E841B385C54035
:104350009395450193D54501130504002326D10308
:10436000232401032322F1022320D102232E610002
:10437000232CC101232AE1012328C1002326B100F7
:10438000EF104016130705001305F0FF8325C10049
:1043900003260101032F4101032E81010323C101E3
:1043A000832601028327410203288102832EC10252
:1043B000630EA74403A60E003307C7413307B700B7
:1043C000136717002324C8013386C5002322EE009B
:1043D00023A0CE00638E07031305F0006376653ECD
:1043E00083A54700130743FF137787FF93F5150055
:1043F000B3E5E50023A2B70093085000B385E700BA
:1044000023A2150123A41501636AE54003274E008A
:1044100083A781DC63F4C70023A4C1DC83A741DC4C
:1044200063F4C70023A2C1DC93070E006F00C02114
:10443000032348006FF09FD813E7160023A2E7007C
:10444000B386D700136616002324D8001305040092
:1044500023A2C6002326F100EF0000448327C100F9
:104460008320C10303248103138587001301010402
:104470006780000003A687003387E7008326470094
:104480002326B6002326F10093E6160023A4C500D8
:10449000130504002322D700EF0000408327C1004A
:1044A0008320C103032481031385870013010104C2
:1044B000678000008327C70093882800E306F7C8B9
:1044C0006FF0DFB9135697009305400063FEC514E3
:1044D0009305400163E2C5281305C6051315350091
:1044E0009305B6053305A80003260500130585FFCF
:1044F0006318C5006F00001E032686006308C50010
:104500008325460093F5C5FFE368B7FE0325C60083
:1045100023A6A70023A4C7002324F5002326F60022
:104520006FF0DFC9130740016370F71413074005EC
:104530006362F72493D7C6009388F706138EE706C5
:10454000139538006FF01FBC938F1F0093F73F0047
:1045500013038300638807120327C3006FF05FCB48
:1045600003A5870093E8160023A217012326E50080
:104570002324A700B386D700232AD8002328D800F5
:1045800013E715003386C70023A6D60123A4D6015E
:1045900023A2E600130504002320B6002326F10021
:1045A000EF00802F8327C100138587006FF09FB035
:1045B00093D83600138786006FF0DFA83387E700B3
:1045C000832647002326F1001305040093E6160016
:1045D0002322D700EF00402C8327C10013858700DA
:1045E0006FF05FAD93E5160023A2B700B386D70046
:1045F000232AD8002328D800936516003387E700C4
:1046000023A6D60123A4D60123A2B60013050400D5
:104610002320C7002326F100EF0000288327C100D4
:10462000138587006FF01FA91356670013059603C3
:1046300013153500930586036FF0DFEA638A0715CB
:104640008327880003A747001377C7FF3306D740A7
:104650006366D70013270601E30007DE1305040095
:10466000EF0080236FF0DFA49388C705138EB70592
:10467000139538006FF01FA983278F009388F8FFE8
:104680006394E72193F73800130F8FFFE39607FE3B
:10469000032748009347F5FFB3F7E7002322F8000C
:1046A000131515001307F5FFE376F7BC3377F50014
:1046B000631A0700131515003377F500938F4F0029
:1046C000E30A07FE93880F006FF05FB3938505013F
:1046D0006FF09FBE93D52540130710003317B70026
:1046E0003363E300232268006FF09FE23306BE00CD
:1046F000B305C0409395450193D5450113050400CA
:104700002324D103232201032320F102232ED100ED
:10471000232C6100232AC1012326B1002328C100D4
:10472000EF00505C130705001305F0FF8325C1005F
:10473000032E4101032381018326C1018327010246
:1047400003284102832E8102E316A7C60327010135
:10475000930500006FF01FC69305400563ECC50686
:104760001356C7001305F606131535009305E60624
:104770006FF05FD713074015636CF70693D7F60009
:1047800093888707138E7707139538006FF09F97EC
:10479000938EC10903A60E003386C50023A0CE0068
:1047A0006FF05FB713154501E31605B6032E8800B9
:1047B000B305B30013E715002322EE006FF05FC5C9
:1047C0002320CF016FF09FB6930710002322FE0035
:1047D0006FF0DFE89305401563ECC5061356F7004C
:1047E0001305860713153500930576076FF09FCFE5
:1047F00013074055636CF70693D726019388D707B4
:10480000138EC707139538006FF0DF8F130F8FFFDC
:104810003307E601930500006FF0DFB99385870049
:1048200013050400232AD101232801012326D100E6
:10483000EFF08FCF03280101832E41018326C100B1
:10484000032E880003A60E0003274E006FF05FBC06
:104850009305405563E4C502135627011305D60797
:10486000131535009305C6076FF0DFC71305803FAA
:104870009308F007130EE0076FF0DF881305803F01
:104880009305E0076FF01FC6832748006FF05FE1D4
:10489000138501DB6FE05FFA138501DB6FE05FFBDF
:1048A000130101FF23261100232021016382050E3D
:1048B0002324810023229100138405009304050022
:1048C000630605008327450363800710832744069A
:1048D0000317C40093F717006396070A137707209E
:1048E0006308070E9305040013850400EF00C0124F
:1048F0008327C40213090500638A07008325C401C6
:1049000013850400E78007006340050A8357C4004D
:1049100093F707086392070A83250403638C050055
:10492000930704046386F50013850400EFF0CFBFFE
:1049300023280402832544046388050013850400AA
:10494000EFF08FBE23220404EFE08FFB83274406A1
:104950002316040093F717006384070A03258405D0
:10496000EFE01FEDEFE04FFA8320C1000324810048
:1049700083244100130509000329010013010101EB
:1049800067800000E31007F60324810083244100C0
:104990008320C10013090000130509000329010049
:1049A00013010101678000008357C4001309F0FF61
:1049B00093F70708E38207F68325040113850400B3
:1049C000EFF08FB66FF05FF5EFE08FED6FF01FF057
:1049D00003258405EFE05FE68317C400E39407F046
:1049E0008327440693F71700E39007FA032584050D
:1049F000EFE01FE603248100832441006FF05FF99C
:104A000003258405EFE0DFE46FF05FF59305050013
:104A100003A581D86FF0DFE80397C500130101FEFD
:104A2000232C810023263101232E11009377870048
:104A3000138405009309050063920712B71700005D
:104A40009387078083A64500B367F7002396F50098
:104A5000635CD018032884026306080E232A9100A1
:104A60009316370183A4090023A0090063CA06181E
:104A70008325C40113060000930610001385090066
:104A8000E70008009307F0FF13060500630CF51A12
:104A90008317C4000328840293F74700638E07003E
:104AA00003274400832704033306E6406386070098
:104AB0008327C4033306F6408325C4019306000010
:104AC00013850900E70008001307F0FF8317C400EF
:104AD000631CE51283A609001307D0016362D7188F
:104AE00037074020130717003357D70013771700F5
:104AF000630807168326040137F7FFFF1307F77FC4
:104B000033F7E7002316E400232204002320D40017
:104B1000139737016356070083A7090063880710BE
:104B20008325040323A09900638A051093070404D6
:104B30006386F50013850900EFF00F9F8324410180
:104B4000232804028320C101032481018329C10099
:104B500013050000130101026780000023282101D2
:104B600003A90501630A0908232A910083A405000B
:104B70001377370023A02501B38424419307000055
:104B80006314070083A745012324F40063489000C1
:104B90006F0040063309A900635E90048327440236
:104BA0008325C401938604001306090013850900B8
:104BB000E7800700B384A440E34EA0FC8357C40001
:104BC0000329010193E707048320C1012316F400A0
:104BD00003248101832441018329C1001305F0FFCF
:104BE000130101026780000083A6C503E344D0E6F9
:104BF0006FF05FF583244101032901016FF09FF4F9
:104C0000032604056FF05FE98326040137F7FFFFF1
:104C10001307F77F33F7E7002316E400232204008D
:104C20002320D40013973701E35C07EE83250403A8
:104C30002328A40423A09900E39A05EE83244101CC
:104C40006FF05FF083A70900E38407E4138737FE62
:104C5000630C07009387A7FE638807008357C4008F
:104C600093E707046FF05FF623A0990083244101C6
:104C70006FF05FED130101FE232E110013070500F5
:104C80006306050083274503638E07088396C500E6
:104C9000930700006382060483A7450693F7170075
:104CA0006396070093F60620638006041305070049
:104CB0002324B100EFF05FD6832581009307050020
:104CC00003A74506137717006318070003D7C5002D
:104CD00013770720630807028320C10113850700AB
:104CE000130101026780000003A585052326E1006A
:104CF0002324B100EFE05FB40327C10083258100C6
:104D00006FF0DFFA2324A10003A58505EFE05FB46F
:104D1000832781008320C10113850700130101024D
:104D2000678000002326B1002324A100EFE04FB7E5
:104D30008325C100032781006FF05FF56304050C34
:104D400003A781D8130101FE232E1100930505004E
:104D50006306070083274703638007068396C50021
:104D6000930700006382060483A7450693F71700A4
:104D70006396070093F60620638E0604130507006A
:104D80002324B100EFF05FC983258100930705005C
:104D900003A74506137717006318070003D7C5005C
:104DA00013770720630607048320C10113850700DA
:104DB00013010102678000002326A10013050700EC
:104DC0002324E100EFE0CFAD8325C100032781005C
:104DD0006FF0DFF803A585052326E1002324B10049
:104DE000EFE09FA50327C100832581006FF01FF925
:104DF0002324A10003A58505EFE09FA5832781005B
:104E00006FF09FFA13868182970500009385C5E6AF
:104E1000171500001305854F6FE00FB58327860037
:104E2000638C07228396C500130101FC232C8102A9
:104E30002324410323225103232E110293F78600DA
:104E400013840500930A0500130A06006384070A09
:104E500083A705016380070A232A910223282103DF
:104E6000232631032320610393F7260083240A00BD
:104E7000638A070A370B0080130B0BC093090000ED
:104E8000130900001386090013850A00630E091A2E
:104E90009306090063762B01B7060080938606C04F
:104EA000832744028325C401E78007006358A0409C
:104EB00083278A00B389A9003309A940B387A74093
:104EC0002324FA00E39007FC832441030329010310
:104ED0008329C102032B0102130500008320C103B3
:104EE00003248103032A8102832A4102130101045E
:104EF000678000009305040013850A00EF00003E60
:104F0000631605268316C400232A91022328210351
:104F1000232631032320610393F7260083240A000C
:104F2000E39A07F4232E7101232C810193F71600D5
:104F3000639807128327040037070080130CF7FFDC
:104F4000130B0000930900006388090E13F7062075
:104F50000329840013850700630E0720930B0900C3
:104F600063E0292D13F70648630C07080326440164
:104F700083250401131716003307C7001359F701DF
:104F8000B38BB7403309E90093871B0013591940CD
:104F9000B3873701130609006376F9001389070008
:104FA0001386070093F606406382062C93050600DD
:104FB00013850A00EFF0CF856306053083250401D1
:104FC00013860B002326A100EF0040698357C4001D
:104FD0000327C10093F7F7B793E707082316F400F8
:104FE000B307794133057701232A24012328E400FC
:104FF0002320A4002324F40013890900938B0900C3
:1050000093050B0013860B00EF00C05203278400AA
:1050100083270400330727412324E40003278A0061
:10502000B38777012320F400330737412324EA00B4
:10503000630007288316C40003AB040083A944005F
:10504000938484006FF05FF083A9040003A94400F7
:10505000938484006FF01FE3130500006780000055
:10506000130B0000930B000013050000130C00004D
:10507000630E0B066306050893870B0093090B006C
:1050800063F46701938907008326440103298400A0
:1050900003250400832704013389260163F4A70054
:1050A0006340390963CED918832744028325C4019C
:1050B00013060C0013850A00E7800700130905009A
:1050C0006354A008B38B2B411305100063800B16AB
:1050D00083278A00B38727412324FA00638A071CA9
:1050E000330B2B41330C2C01E3160BF803AB4400BC
:1050F0009387040093848400E30A0BFE03AC07004B
:1051000013060B009305A00013050C00EF004033BD
:10511000630A051813051500B30B85416FF0DFF521
:1051200093050C0013060900EF00C040832704001C
:105130009305040013850A00B38727012320F40098
:10514000EFF05FB3E30005F88317C400832BC101C0
:10515000032C810183244103032901038329C10214
:10516000032B010293E707042316F4001305F0FF55
:105170006FF0DFD6032704016360F70603274401BD
:1051800063ECE9049386090063743C0193060C0008
:1051900033E7E602832744028325C40113060B008C
:1051A00013850A00B386E640E7800700E35EA0F8B7
:1051B0001309050083278A00B3892941B387274152
:1051C0002324FA006386070E8316C4008327040095
:1051D000330B2B016FF05FD763F4290113890900AA
:1051E000138507001306090093050B00EF008034B8
:1051F0008327040003278400B3872701330727414F
:105200002320F4002324E400E31607FA93050400A6
:1052100013850A00EFF01FA6E30E05F86FF0DFF22A
:1052200013890900938B09006FF09FDD930504003B
:1052300013850A00EFF01FA4E30C05E86FF0DFF020
:105240001386090093050C00EF00C02E032784008D
:10525000832704001389090033073741B3873701D7
:105260002324E4002320F4006FF0DFE513850A0017
:10527000EF00405113070500E31405D68325040110
:1052800013850A00EFE05FAA8357C4001307C0002C
:10529000832BC101032C810123A0EA0093F7F7F7C8
:1052A0006FF05FEB93071B00938B07006FF01FDD20
:1052B000832BC101032C81016FF01FC18317C40030
:1052C0006FF05FE99307C00023A0FA00832BC101B0
:1052D0008317C400032C81016FF0DFE703A781D897
:1052E000130101FE232E110013060500938705000C
:1052F0006306070083264703638A06100397C700E7
:1053000093768700638E060283A60701638A0604EC
:105310000397C70013761700630E060603A647011E
:1053200023A40700130500003306C04023ACC700C8
:10533000638006088320C101130101026780000019
:10534000937607016382060E93764700639E0606F6
:1053500083A60701136787002396E700E39A06FAFE
:1053600003A7C7009305002013770728E302B7FAC5
:1053700013050600938507002324F100EF00502356
:10538000832781000397C70083A6070113761700C0
:10539000E31606F813762700930500006314060051
:1053A00083A5470123A4B70013050000E39406F882
:1053B00093760708E38006F8136707042396E7004F
:1053C0001305F0FF6FF01FF783A50703638605023F
:1053D000938607046380D502130506002326F10097
:1053E0002324C100EFE05F948327C10003268100DE
:1053F0000397C70023A8070283A607011377B7FD09
:1054000023A2070023A0D7006FF0DFF42324A1001C
:10541000130507002326B100EFD09FC88327C100E2
:10542000032681006FF09FED930690001367070439
:105430002320D6002396E7001305F0FF6FF09FEFBF
:105440009377350013F7F50F6380070263080608AA
:10545000834705001306F6FF6380E7081305150070
:1054600093773500E39407FE130830006378C8048F
:1054700093F5F50F93978500B385B70093970501D2
:105480003703FFFEB7888080B385F5001303F3EF81
:105490009388080883270500B3C7F500B386670023
:1054A00093C7F7FFB3F7F600B3F71701639A070046
:1054B0001306C6FF13054500E36EC8FC6300060231
:1054C0003306C5006F00C000130515006308C50052
:1054D00083470500E39AE7FE67800000130500009C
:1054E00067800000130101FF2324810013040500DD
:1054F0001385050023AE01D823261100EFB04FE23B
:105500009307F0FF630AF5008320C10003248100A4
:10551000130101016780000083A7C1D9E38607FE5C
:105520008320C1002320F400032481001301010122
:105530006780000063F6A502B387C5006372F502B9
:10554000630806043306C50003C7F7FF1306F6FF1A
:105550009387F7FF2300E600E318C5FE678000008D
:105560009307F00063E8C702930705009306F6FF70
:105570006300060E93861600B386D70003C70500A6
:105580009387170093851500A38FE7FEE398D7FE56
:1055900067800000B367B50093F737009388050074
:1055A0006392070A93574600139847003308050192
:1055B0009387F7FF1307050083A605009385050170
:1055C000130707012328D7FE83A645FF232AD7FE0A
:1055D00083A685FF232CD7FE83A6C5FF232ED7FEE7
:1055E000E31C07FD939747003387170193050701D5
:1055F000B307F5001378C60093870701138E0500E3
:105600009376F600630808049386C6FF93F6C6FFF8
:105610003307D700130747013308154103A30500DB
:10562000B38805019385450023A06800E398E5FE53
:1056300013874600B305C701B307F700137636009A
:105640006FF0DFF29306F6FF930705006FF09FF20D
:1056500067800000138606006FF05FF1B3C7A500F6
:1056600093F73700B308C500639607061336460064
:10567000631206069377350013070500639A070C3B
:1056800013F6C8FFB306E6409307000263C4D706CB
:105690009386050093070700637AC70203A80600F4
:1056A000938747009386460023AE07FFE3E8C7FED3
:1056B0001306F6FF3306E6401376C6FF93854500D2
:1056C00013074700B385C5003307C7006368170198
:1056D0006780000013070500E37C15FF83C7050002
:1056E0001307170093851500A30FF7FEE398E8FE54
:1056F0006780000083A6050083A2450083AF850074
:1057000003AFC50083AE050103AE450103A38501C8
:1057100003A8C5012320D70083A60502130747026B
:10572000232057FE232ED7FE2322F7FFB306E640A1
:105730002324E7FF2326D7FF2328C7FF232A67FE5A
:10574000232C07FF93854502E3C6D7FA6FF05FF479
:1057500083C605001307170093773700A30FD7FE02
:1057600093851500E38E07F083C605001307170025
:1057700093773700A30FD7FE93851500E39A07FCB4
:105780006FF01FF06386051E130101FE232C8100BC
:10579000232A910013840500232E11009304050091
:1057A0002320C100EFF0CF8E832501001307600195
:1057B0009387B5006376F71293F787FF9386070008
:1057C00013D7F70163E2B71E6310071E0326C4FF59
:1057D000130884FF1377C6FF6356D712971800008B
:1057E00083A848C73303E800032543006380681E8D
:1057F0009378E5FFB308130183A8480093F81800D5
:10580000639A08141375C5FFB308A70063D2D80EB6
:105810001376160063140602032E84FF330EC8416C
:1058200003264E001376C6FF3305C500B308E50016
:1058300063D6D832B308C70063DED82813850400C6
:105840002324E100232201012320F100EFE04FFC9B
:1058500083270100032841000327810093060500E8
:10586000630C05440326C4FF930585FF1376E6FF0A
:105870003306C8006306B6221306C7FF930740022B
:1058800063E4C72C130730016364C7229307050044
:10589000130704000326070023A0C70003264700C0
:1058A00023A2C7000327870023A4E7009305040071
:1058B000138504002320D100EFE00FC713850400F7
:1058C000EFE09FFD832601008320C10103248101B5
:1058D0008324410113850600130101026780000043
:1058E0009306000193870600130700006FF09FEDF9
:1058F0008326C30003268300138708002326D600CF
:1059000023A4C600832648003305F7409305F00022
:1059100093F616003306E80063E0A506B366D700E9
:105920002322D8008327460093E717002322F6009E
:1059300013850400EFE05FF6930604008320C101A5
:105940000324810183244101138506001301010210
:105950006780000013761600E31206EE032E84FF24
:10596000330EC84103264E001376C6FF6FF09FEC3E
:10597000930506006FE0CFE9B3E6D7002322D800F5
:10598000B305F8001365150023A2A5008327460080
:10599000938585001385040093E717002322F60002
:1059A000EFE08FB86FF0DFF89307C00023A0F4009A
:1059B000930600008320C101032481018324410157
:1059C0001385060013010102678000001375C5FFEF
:1059D000B308E5001383070163DC6824137616001F
:1059E000E31E06E4032E84FF330EC84103264E0057
:1059F0001376C6FF3305C500B308E500E3CC68E2C3
:105A00008326CE0083258E001306C7FF13074002AE
:105A100023A6D50023A4B60093068E006366C72E86
:105A2000930530011387060063F2C5028325040045
:105A30001307B0012324BE00832544002326BE00A3
:105A4000636AC7301304840013070E0103260400A1
:105A50002320C700032644002322C7000326840016
:105A60002324C7003306FE003387F8409715000053
:105A700023A2C59E136717002322E60003274E00CA
:105A8000138504002320D10013771700B367F700B4
:105A90002322FE00EFE05FE0832601006FF01FEAA3
:105AA0008326C5FF93F6C6FF3307D7006FF09FE547
:105AB000832504001307B0012320B500832544008B
:105AC0002322B500636EC710130784009307850077
:105AD0006FF05FDC8326CE0083258E001306C7FFA0
