:0200000480007A
:100000006F00D06C6F10C0576F00506B6F00106B9B
:100010006F00D06A6F00906A6F00506A6F00106ABC
:100020006F00D0696F0090696F0050696F001069B0
:100030006F00D0686F0090686F0050686F001068A4
:100040006F00D0676F0090676F0050676F00106798
:100050006F00D0666F0090666F0050666F0010668C
:100060006F00D0656F0090656F0050656F00106580
:100070006F00D0646F0090646F0050646F00507523
:1000800097B101009381C15E17010300130181F74D
:1000900017050000130505F713651500731055309B
:1000A00017B501001305450F17C60100130646DCFE
:1000B0003306A64093050000EF90001B1795000043
:1000C0001305C511EF800057EF90C007130500001E
:1000D0009305000013060000EF0080046F0040014C
:0400E0006780000035
:1000F000130101FF93050000232481002326110032
:1001000013040500EF90803A83A701B463840700CD
:10011000E780070013050400EF00907C000000005A
:10012000130101F6138605002326A1009305C100E3
:100130001305E105232E1108232C8108232A910899
:100140002328210923263109232441092322510987
:10015000232E7107232C8107232A91072328A10727
:10016000EF70001813051000EF20800A231EA10075
:1001700013052000EF20C009231FA1001305300044
:10018000EF2000092310A10213054000EF204008D2
:10019000232CA10213055000EF20800763140500F3
:1001A000130570008327C101232EA1026380075A23
:1001B00013071000E38AE74A138601B89379150004
:1001C000231E01042322C10213782500938609000F
:1001D000937C4500631A0836638E0C3A93881900A5
:1001E0001309007D335C1903232A8103E39E092E42
:1001F000B38E8903330FD6012328E1038327C1037C
:1002000093FF1700638E0F000316C101832581023F
:1002100003254103EF40D00D8327C1032320A10410
:1002200013F727006312073893F24700638A02002E
:10023000032601038315C10103254103EF20501F4D
:1002400003268103631A062493091000232C31032B
:1002500017B90100130989EB0328810393162800BD
:100260003385060193181500232C1103EF7040010C
:10027000832A8103232A0104232C010463860A1C98
:10028000930510001305C101EF30902283554105FD
:1002900013041000EF20C010231AA1049305F0FFEF
:1002A0001305C101EF30D02083554105EF20400FE9
:1002B000131A0501935B0A01131C0501B3EC8B01B2
:1002C000232A910563823A19338D8A40137E3D00BB
:1002D00063080E0A630A8E0693042000630C9E02D4
:1002E000930504001305C101EF30901C83554105AF
:1002F00013840400EF20C00A231AA1049305F0FF21
:100300001305C101EF30D01A83554105EF20400994
:10031000231AA104930510001305C101EF305019F1
:100320008355410513041400EF208007231AA1040C
:100330009305F0FF1305C101EF3090178355410578
:10034000EF200006231AA104930510001305C10134
:10035000EF3010168355410513041400EF204004BC
:10036000231AA1049305F0FF1305C101EF305014C7
:1003700083554105EF20C002231AA10463868A0C2D
:10038000930510001305C101EF309012835541050C
:1003900013044400EF20C000231AA1049305F0FFCA
:1003A0001305C101EF30D01083554105EF10507F88
:1003B000231AA104930510001305C101EF30500F5B
:1003C00083554105EF10D07D231AA1049305F0FF5A
:1003D0001305C101EF30D00D83554105EF10507C5E
:1003E000231AA104930510001305C101EF30500C2E
:1003F00083554105EF10D07A231AA1049305F0FF2D
:100400001305C101EF30D00A83554105EF10507933
:10041000231AA104930510001305C101EF30500900
:1004200083554105EF10D077231AA1049305F0FFFF
:100430001305C101EF30D00783554105EF10507609
:10044000231AA104E39E8AF2EF609064EF60506586
:10045000EF6010660326090083264900930A050011
:10046000138A0500EF701072E34805DE13850A0059
:1004700093050A00EF808002631405001305100045
:10048000930EA00033DFAE02832F810393071F007A
:100490003387FF02232CE102EF60905E1305C10158
:1004A000EF601066EF60D05EEF60905F13090500AB
:1004B0000315C10193050000EF208053930505004B
:1004C0000315E101EF20C052930505000315010259
:1004D000EF2000529305050003154103EF20405122
:1004E000B7820000138352B093090500E30465103E
:1004F0006364A30EB72A0000138F2A8FE300E50D73
:10050000B75200001383F2EA631C652417950100BB
:10051000130505EDEF805008B7E30000B755000064
:1005200037760000938A435A138C8560130A96A786
:100530001308200023228101938C0A00930B0A00E8
:10054000232401016F00400E9389190063880C0277
:10055000938A2600930B007D33DC5B03232A8103FF
:10056000639E0676930C4000338D8603330EA601FE
:100570002326C103E3840CC86FF09FC7130A007DD4
:10058000335C3A03232A8103E38006FE2324C1025D
:100590006FF09FFD1305007D232AA102E38009C6A9
:1005A0002324C1026FF09FC50313E1018313C1012E
:1005B0008325C1020325410313140301336674002C
:1005C00093064104EF50D0768324C10393F5440091
:1005D000E39005C66FF0DFC6B7960000138526A02E
:1005E000E388A90437FD0000130E5D9F639AC917C5
:1005F000179501001305C5E1EF80007AB79400005C
:100600003724000037EA0000938AA4E3130C74FD3A
:10061000130A4A71930E300023228101938C0A0041
:10062000930B0A002324D101138D81B083260D0082
:10063000E38C0604232061092326B107130B000075
:10064000930D00006F008002B308240003D7C80593
:10065000938D1D0083220D00B3046701139B0D01D0
:10066000935D0B01138B040063FC5D0C13944D0030
:100670003305B40193182500138E0806B3042E0029
:1006800083A7C4FD239E04FE93FE170063880E0219
:1006900003D664FF6304760393060A0093850D0076
:1006A00017950100130545DCEF80005203DFC4FFFE
:1006B00083A7C4FD930F1F00239EF4FF13F72700A9
:1006C00063000704B302B4011393220093030306EB
:1006D000B384230003D684FF63048603832641008A
:1006E00093850D0017950100130505DBEF80C04DC4
:1006F00083D5C4FF83A7C4FD13861500239EC4FEC3
:10070000B306B40113F8470013942600E30E08F271
:10071000130E0406B3042E0003D6A4FF631A965DDD
:1007200003D7C4FF938D1D0083220D00B30467011E
:10073000139B0D01935D0B01138B0400E3E85DF245
:10074000032B0108832DC1066F00C0028314010230
:10075000E39404A6930560062310B1026FF0DFA5B1
:10076000B70A0100130AF0FF9384FAFF2324410122
:10077000138D81B0EF20C04A83254103B30C95004F
:1007800017950100130585D7EF80004493050900F4
:1007900017950100130505D8EF80004313050900E4
:1007A000EF601031130605009386050017950100D0
:1007B0001305C5D7EF80404113050900EF60502FA6
:1007C000939B0C01130600009306000013DC0B4101
:1007D000EF70502A6356A0040323810383230D0086
:1007E00033057302EF7090521304050013050900DE
:1007F00093840500EF60D02B130605009386050057
:100800001305040093850400EF70401713060500DC
:1008100093860500179501001305C5D2EF80C03AF5
:1008200083270D008325810317950100130505D348
:10083000B385F502EF80403997950100938585D304
:10084000179501001305C5D3EF8000389795010077
:10085000938585D417950100130545D4EF80C036E4
:1008600097950100938505D517950100130505D5CA
:10087000EF8080359385090017950100130585D514
:10088000EF8080340327C103937917006380091038
:1008900003260D00630C060E930C000013984C0009
:1008A000B306980113952600330E250003566E05F6
:1008B00093850C0017950100130585D3EF80C03098
:1008C000938E1C00139F0E01935A0F0113974A0039
:1008D000B3025701832F0D00139A2200930C0A06CE
:1008E000179501001305C5D0B38B2C0093850A0022
:1008F00063FCFA0903D66BFFEF80002D13831A0007
:100900009313030113D4030193154400B3878500A7
:1009100083240D009399270013860906179501007B
:10092000130505CD3308260093050400637E940467
:10093000035668FFEF804029930614009398060140
:1009400093DA0801939E4A00338F5E01032E0D0057
:10095000931F2F0013870F0617950100130545C934
:10096000B302270093850A0063F0CA0303D662FF2F
:10097000EF80802513851A00832B0D00131A0501C3
:10098000935C0A01E3EC7CF10327C1031373270096
:100990006300031083230D00638C034E130A0000D1
:1009A00093144A00B38544019397250033862700AA
:1009B0000356860593050A0017950100130505C522
:1009C000EF80802013081A009316080193DA0601BD
:1009D000139E4A00B30E5E0183280D00139F2E0064
:1009E000930F0F0617950100130545C233872F009B
:1009F00093850A0063FC1A09035687FFEF80C01C29
:100A000093821A00139A0201935C0A0113934C001B
:100A1000B3039301832B0D00139423009304040666
:100A200017950100130585BEB387240093850C003C
:100A300063FE7C0503D687FFEF80001993851C00B9
:100A40009399050193DA090113984A00B3065801F6
:100A500003260D0093982600138E080617950100B3
:100A60001305C5BAB30E2E0093850A0063F0CA02BF
:100A700003D68EFFEF80401513851A00832F0D00DB
:100A8000131F0501135A0F01E36CFAF10327C10389
:100A900093724700638E020E832C0D00130A000030
:100AA00063840C1E931B4A0033834B019313230072
:100AB000B387230003D6A70593050A001795010005
:100AC000130585B6EF80401013041A009315040136
:100AD00093D905011396490033083601832A0D0086
:100AE0009316280093880606179501001305C5B3D1
:100AF000338E28009385090063FC59090356AEFF25
:100B0000EF80800C938E1900139F0E01135A0F0172
:100B100013174A00B3024701832F0D00939C220054
:100B2000938B0C0617950100130505B033832B003A
:100B300093050A00637EFA050356A3FFEF80C00801
:100B400093031A009394030113D4040193174400F0
:100B5000B385870083290D00939A250013860A0622
:100B600017950100130545AC3308260093050400D2
:100B7000637034030356A8FFEF80000513051400CB
:100B800083280D009316050113DA0601E36C1AF1B0
:100B9000032E0D00930A000063080E0E939E4A0078
:100BA000338F5E01931F2F00B3822F0003D64205BF
:100BB000938C1A0093850A0017950100130585A8E8
:100BC000939B0C01EF80400093D40B01939344005E
:100BD0003384930003230D0093192400938709069F
:100BE00017950100130505A6B38A27009385040015
:100BF00063FC640803D64AFFEF70107D93851400F0
:100C000013960501135A060193164A00B38846014C
:100C100003280D00139E2800930E0E061795010061
:100C2000130545A2338F2E0093050A00637E0A0543
:100C300003564FFFEF705079930F1A0013970F016F
:100C4000935C0701939B4C00B3849B0183220D00AE
:100C50001393240093030306179501001305859E43
:100C60003384230093850C0063F05C02035644FF39
:100C7000EF70907513851C0083270D0093190501F3
:100C800093DA0901E3ECFAF0630A0C08635080136D
:100C9000179501001305C5A9EF8000101305E105A4
:100CA000EF6000658320C109032481098324410981
:100CB000032901098329C108032A8108832A4108DD
:100CC000832BC107032C8107832C4107032D0107C8
:100CD000130500001301010A678000002324C102EC
:100CE000930C40006FF05F882324C1026FF04FD057
:100CF00093860A0093850D00178501001305057D75
:100D0000EF70906C83DEC4FF138F1E00931F0F01E2
:100D100013D70F01239EE4FE6FF09F9317950100F8
:100D200013050594EF80400783258100130C3000E4
:100D3000E39685F703268103032D0D003305A603F3
:100D4000EF70C07C130A050013050900938C0500A1
:100D5000EF600056130605009386050013050A0090
:100D600093850C00EF609041130605009386050003
:100D70009797010093874782178701001307877FA2
:100D80001795010013054592EF70106497950100C7
:100D900093854582179501001305C592EF70D062C7
:100DA0001305A000EF7090676FF05FEF17950100DB
:100DB0001305C591EF70507E6FF05FEE178501004F
:100DC0001305C567EF70507DB79F0000B7E70000BF
:100DD000938A4FD8138A173C130C70741307400082
:100DE00023228101938C0A00930B0A002324E10043
:100DF0006FF09F83178501001305C55BEF70D079F5
:100E0000B7430000B715000037360000938AF39B04
:100E1000138C9519130A063413081000232281013C
:100E2000938C0A00930B0A00232401016FF0CFFF7B
:100E30001785010013054555EF701076B7CB0000FC
:100E4000B7DC0000B7680000138C2BE5138A0C4B4D
:100E5000938A78E423228101938C0A00930B0A0081
:100E6000232401006FF04FFC83120102639602B449
:100E7000373315349303534113046006232E710056
:100E8000231081026FF04FB3930400006FF09F8E28
:100E900013744700E30E04CE6FF01FDF1300000051
:100EA0001300000093070000638807001785000007
:100EB0001305C5326F700078678000001785010048
:100EC0001305153DEF70506D6FF05FFF130101FCCE
:100ED000232011002322A1002324B1002326C100D6
:100EE0002328D100232AE100232CF100232E010125
:100EF000232011032322510223246102232671029D
:100F00002328C103232AD103232CE103232EF10339
:100F1000F322203413032000638862021303B0001D
:100F20006388620013033000638862006F00C002B0
:100F3000EF00003D6F0040031785010013050531E8
:100F4000EF7090656F004002178501001305052BB7
:100F5000EF7090646F004001178501001305253183
:100F6000EF7090636F004002F3221034038302009D
:100F7000130530003373A3006314A300938222008F
:100F800093822200739012348320010003254100D4
:100F9000832581000326C100832601010327410127
:100FA000832781010328C101832801028322410292
:100FB000032381028323C102032E0103832E4103F5
:100FC000032F8103832FC103130101047300203019
:100FD000730020300000000000000000000000004E
:100FE0003305A04023A2A1B41305F0FF67800000E1
:100FF00037070010930750052320F700978601005C
:1010000083C6562B178601001306E62C178E0100A7
:10101000130E6E2A2320D700978E010083CEAE29AF
:101020002320D70183421E00130E8E002320570079
:101030000343AEFF232067008343BEFF23207700D6
:101040000345CEFF2320A7008345DEFF2320B70002
:101050000348EEFF232007018348FEFF23201701EA
:10106000834E0E00E31ECEFA6780000013000000DE
:101070009307800523A2F1B41305F0FF67800000F9
:101080009307800523A2F1B41305F0FF67800000E9
:101090009307800523A2F1B41305F0FF67800000D9
:1010A0009307800523A2F1B41305F0FF67800000C9
:1010B0009307800523A2F1B41305F0FF67800000B9
:1010C0001305F0FF6780000013000000130000000C
:1010D0009307C00023A2F1B41305F0FF678000005E
:1010E000B707048023A0A700730050106F00000012
:1010F0009307800523A2F1B41305F0FF6780000079
:101100009307B00023A2F1B41305F0FF678000003D
:10111000B727000023A2F500130500006780000038
:101120009307800523A2F1B41305F0FF6780000048
:101130009307800523A2F1B41305F0FF6780000038
:10114000930780FA23A2F1B4130500006780000022
:10115000130510006780000013000000130000005A
:10116000930780FA23A2F1B41305F0FF6780000013
:101170001305F5FF1335150067800000130000000C
:101180009307600123A2F1B41305F0FF678000000C
:101190009307F00123A2F1B41305F0FF678000006C
:1011A000130500006780000013000000130000001A
:1011B0009307800523A2F1B41305F0FF67800000B8
:1011C0001305F0FF6780000013000000130000000B
:1011D0009307800523A2F1B41305F0FF6780000098
:1011E00013050000678000001300000013000000DA
:1011F000B727000023A2F500130500006780000058
:101200001305F0FF678000001300000013000000CA
:101210001305F0FF678000001300000013000000BA
:101220009307200023A2F1B41305F0FF67800000AC
:101230009307800523A2F1B41305F0FF6780000037
:101240009307A00023A2F1B41305F0FF678000000C
:1012500003A781B2130101FE232C8100232E11006C
:1012600093870500130406006306070213060400B3
:10127000179501001305056993850700EF00407F6E
:101280008320C1011305040003248101130101021D
:10129000678000002326B100B7C5010093850520B3
:1012A00013063000179501001305C565EF00406F68
:1012B000930210008327C10023A451B26FF01FFBDB
:1012C00023A2A1B0130500006780000013000000F6
:1012D00083A241B017F702001307C7D23385A200DB
:1012E00023A2A1B06374E500636825009307C000E2
:1012F00023A2F1B49302F0FF13850200678000007F
:101300009307100863CC17159302F00263D41219E7
:10131000138308FD9308100563EE68021787010028
:101320001307077993132300B386E30003A806008D
:10133000330EE80067000E00930EC00A6388D811D0
:1013400063CE1E1B930F90096382F8119307900AD6
:101350006386F814978701009387C7F59783010088
:10136000938363F7B386F34013F8760013075005B1
:10137000370E00106308080813051000630CA80658
:10138000930E20006302D807130F30006308E805AE
:10139000930F4000630EF803130650006304C80265
:1013A00093056000630AB8002320EE0097870100D0
:1013B000938757F003C707002320EE0003C71700E9
:1013C000938717002320EE0003C7170093871700A9
:1013D0002320EE0003C71700938717002320EE0099
:1013E00003C71700938717002320EE0003C71700D9
:1013F00093871700938717002320EE0003C7070089
:10140000638C77142320EE0083C217009387870034
:1014100023205E0003C3A7FF23206E0083C8B7FF0D
:1014200023201E0183C6C7FF2320DE0003C8D7FF89
:1014300023200E0103C5E7FF2320AE0083CEF7FF74
:101440002320DE0103C70700E39E77FA67800000D0
:101450009302800523A251B4678000009302F040FC
:10146000E3CA12EF1303F03FE35813ED938808C06B
:101470009303F000E3E013EF178701001307C7772A
:10148000139528003306E500832606003388E6001E
:101490006700080013031001E39E68EA930880FACE
:1014A00023A211B5678000003726000023A2C500E3
:1014B000678000009305200023A2B1B4678000007C
:1014C000130EF00123A2C1B567800000130560016F
:1014D00023A2A1B467800000370404802320A40065
:1014E000730050106F00000003AF81B263000F0261
:1014F00017950100130505416F008057130F600D0C
:10150000E39AE8E523A2A1B067800000130101FE81
:10151000B7CF01002326C1002324B10013063000F9
:1015200093850F20179501001305C53D232E11004B
:10153000EF0000479307100023A4F1B20326C10077
:10154000832581008320C101179501001305853B88
:10155000130101026F00C0516780000013000000FA
:101560001300000013000000000000000000000055
:101570001305000067800000130000001300000046
:101580001305000067800000130000001300000036
:101590001305000067800000130000001300000026
:1015A0001305000067800000130000001300000016
:1015B0001305000067800000130000001300000006
:1015C00013050000678000001300000013000000F6
:1015D00013050000678000001300000013000000E6
:1015E00013050000678000001300000013000000D6
:1015F00013050000678000001300000013000000C6
:1016000013050000678000001300000013000000B5
:1016100013050000678000001300000013000000A5
:101620001305000067800000130000001300000095
:101630001305000067800000130000001300000085
:101640001305000067800000130000001300000075
:101650001305000067800000130000001300000065
:101660001305000067800000130000001300000055
:101670001305000067800000130000001300000045
:101680001305000067800000130000001300000035
:101690001305000067800000130000001300000025
:1016A0001305000067800000130000001300000015
:1016B0001305000067800000130000001300000005
:1016C00013050000678000001300000013000000F5
:1016D00013050000678000001300000013000000E5
:1016E00013050000678000001300000013000000D5
:1016F00013050000678000001300000013000000C5
:1017000013050000678000001300000013000000B4
:1017100013050000678000001300000013000000A4
:101720001305000067800000130000001300000094
:101730001305000067800000130000001300000084
:101740001305000067800000130000001300000074
:101750001305000067800000130000001300000064
:10176000130500006780000000000000000000007A
:101770008327C50063840720032605016300062034
:1017800083260500034895000327450183C54601CC
:10179000B3E20501A304550013F30502630E031C15
:1017A0006300E61EB303E64093080001138F0300B5
:1017B00063F47800138F0800338EE700834E0E0029
:1017C000930F1700130810002380D601232AF50178
:1017D0006380031BB385F70183C205001303270051
:1017E0009308200023805600232A65006382131982
:1017F000338E6700834E0E001308370093053000C8
:101800002380D601232A05016384B316B38207011E
:1018100003C3020093084700130E400023806600B4
:10182000232A15016386C315B38E170103C80E0062
:10183000930557009302500023800601232AB50028
:10184000638853123383B700834E03009308670005
:10185000130E60002380D601232A1501638AC31169
:101860003388170183450800930277001303700043
:101870002380B600232A5500638C630EB38E570075
:1018800003C80E0093088700130E80002380060112
:10189000232A1501638EC30DB385170183C205008A
:1018A00013039700930E900023805600232A6500AF
:1018B0006380D30D33886700834508009308A70031
:1018C000130EA0002380B600232A15016382C30BE8
:1018D000B382170103C30200930EB7001308B000D0
:1018E00023806600232AD50163840309B385D701C9
:1018F00083C205009308C700130EC0002380560062
:10190000232A15016386C30733831701834E03001F
:101910001308D7009305D0002380D601232A0501A0
:101920006388B304B382070103C302009308E7008E
:10193000130EE00023806600232A1501638AC30387
:10194000B38E170103C80E009305F7009302F00051
:1019500023800601232AB500638C5300B387B700A8
:1019600083C307001307070123807600232AE500BD
:10197000330FFF011307FFFF6304E60067800000D9
:1019800003C64600232805001375D60F2382A60040
:101990006780000013000000130000001300000027
:1019A000130101FE232A910083240500232C8100CA
:1019B0002328210123263101232E11002382040034
:1019C00023840400930770FC2384F40013040500AF
:1019D0009389050013090600238804001386050077
:1019E0009306000037D5121393050000EF50903294
:1019F000935275003707010063FEE200130300F8FD
:101A0000238664001355F5002382A400238054002C
:101A1000238604002386240123042401A304040054
:101A200097030000938303D5232234018320C1014F
:101A30002328040023260400232A0400232E040064
:101A4000232C040023220402232074020324810196
:101A500083244101032901018329C10013010102EB
:101A60006780000013000000130000001300000056
:101A7000130101FF23260100638C0522630A06225D
:101A80000325050013080000930710038346450152
:101A9000232601000327C10063E2E70A8322C10075
:101AA00013831200232661008323C10063E87708B3
:101AB0008328C100138E18002326C101832EC10084
:101AC00063EED707032FC100930F1F002326F101F8
:101AD0000327C10063E4E7068322C10013831200D9
:101AE000232661008323C10063EA77048328C100B1
:101AF000138E18002326C101832EC10063E0D70591
:101B0000032FC100930F1F002326F1010327C100FB
:101B100063E6E7028322C1001383120023266100DB
:101B20008323C10063EC77008328C100138E180063
:101B30002326C101832EC100E3F2D7F793F60602F4
:101B4000E38606F423260100032FC10063E2E70BBE
:101B5000832FC10013871F002326E1008322C100C9
:101B600063E857080323C100930313002326710081
:101B70008328C10063EE1707032EC100930E1E00D9
:101B80002326D1018326C10063E4D706032FC100B9
:101B9000930F1F002326F1010327C10063EAE70426
:101BA0008322C10013831200232661008323C10016
:101BB00063E077048328C100138E18002326C10137
:101BC000832EC10063E6D7038326C100138F16005E
:101BD0002326E101832FC10063ECF7010327C10035
:101BE00093021700232651000323C100E3F267F696
:101BF000B383050183C803001308180023001501EF
:101C000023260100032EC10063E2C70B832EC1000F
:101C100093861E002326D100032FC10063E8E70945
:101C2000832FC10013871F002326E1008322C100F8
:101C300063EE57060323C1009303130023267100AC
:101C40008328C10063E41707032EC100930E1E0012
:101C50002326D1018326C10063EAD704032FC100E4
:101C6000930F1F002326F1010327C10063E0E7045F
:101C70008322C10013831200232661008323C10045
:101C800063E677028328C100138E18002326C10162
:101C9000832EC10063ECD7018326C100138F160089
:101CA0002326E101832FC100E3F2F7F7E360C8DEEA
:101CB0001301010167800000130000001300000001
:101CC0006388050C03C605006304060C8327050022
:101CD000130101FF9386150003C74701A307E10025
:101CE0008342F10013F302026318030883C3470120
:101CF000A30771000345F10093750502639E050675
:101D000003C84701A30701018348F10013FE08023D
:101D100063140E0683CE4701A307D101034FF100E0
:101D2000937F0F02639A0F0403C74701A307E100E3
:101D30008342F10013F302026310030483C34701DB
:101D4000A30771000345F100937505026396050230
:101D500003C84701A30701018348F10013FE0802ED
:101D6000631C0E0083CE4701A307D101034FF1008E
:101D7000937F0F02E3820FF6938616002380C7003D
:101D800003C6F6FFE31A06F41301010167800000A1
:101D90006780000013000000130000001300000023
:101DA000630C0602638A05020327050097060000FC
:101DB0009386469C2326B500834747002328C50009
:101DC000232A05002320D50293E22700230257008F
:101DD000732340F16304030067800000B725000C03
:101DE00097930100938303B203A605003305754062
:101DF0001338150093081000339E0801B36ECE000F
:101E000023A0D5016780000013000000130000002C
:101E100083270500034795008326050183C24701F8
:101E200033E3E200A304650093F3F20F6398060026
:101E300013D56300137515006780000013050000BB
:101E40006780000013000000130000001300000072
:101E50006382050663000606032805000347950014
:101E600083474801B3E2E700A304550013F31700CA
:101E700063020304130E00006F008000638E0F02E4
:101E800083460800B383C501130E1E002380D300D0
:101E90000328050083489500834E480133EF1E0157
:101EA000A304E50193FF1E00E36ACEFC13050E00B8
:101EB00067800000130E000013050E00678000000D
:101EC000F32740F163960702B726000C179701002D
:101ED000130747A303A60600B302E54013B312009D
:101EE0009303100033986300B368C80023A0160161
:101EF000370E0100930EFEFF638CD501032505000C
:101F000093F5F500034F4500B36FBF002302F501C1
:101F100067800000130000001300000013000000A1
:101F2000638C05029337160C6388070203270500AC
:101F3000232EB5008342870013F3F203B363C3007B
:101F4000230477008345470013E615002302C700EA
:101F5000F32640F16384060067800000B728000C78
:101F6000179801001308089A03AE080033050541CD
:101F7000933E1500130F1000B31FDF01B3E7CF012D
:101F800023A0F80067800000130000001300000089
:101F900063840502032705002320B50223260500DC
:101FA000834747002328050093E2270023025700B8
:101FB000732340F16304030067800000B725000C21
:101FC000979301009383039483A60500330575401E
:101FD0001336150013081000B318C80033EED800EC
:101FE00023A0C5016780000013000000130000005B
:101FF00063800502032705002322B50283474700BB
:1020000093E2870023025700732340F16304030027
:1020100067800000B725000C979301009383838E9F
:1020200083A605003305754013361500130810000C
:10203000B318C80033EED80023A0C50167800000A4
:102040006386051263040612832705008346950004
:1020500003C74701B362D700A304550013730702F7
:1020600063060310930300011305060063E4C31025
:1020700003C805009308100023800701630A160FA8
:1020800003CE1500930E20002380C7016302D60FF4
:1020900003CF2500930F30002380E701630AF60D7C
:1020A00083C63500130740002380D7006302E60C87
:1020B00083C245001303500023805700630A660A59
:1020C00083C3550013086000238077006302060B6A
:1020D00083C86500130E700023801701630AC609C8
:1020E00083CE7500130F80002380D7016302E609B9
:1020F00083CF8500930690002380F701630AD606FC
:1021000083C295001307A000238057006302E606F0
:1021100003C3A5009303B00023806700630A76041D
:1021200003C8B5009308C0002380070163021605A9
:1021300003CEC500930ED0002380C701630AD603E7
:1021400003CFD500930FE0002380E7016302F6037D
:1021500083C6E5009302F0002380D700630A56008F
:1021600083C5F5002380B7006780000013050000D9
:1021700067800000138503006FF09FEF13000000DD
:10218000832705000347950083C24701A304050088
:1021900033E5E2001375E5096780000013000000D5
:1021A0008327050003C58701678000001300000036
:1021B00003270500834795008342470133E3F2007C
:1021C000A304650013F502066780000013000000F9
:1021D000032705008347C70093E20704230657003F
:1021E00067800000130000001300000013000000CF
:1021F000032705008347C70093F2F70B2306570018
:1022000067800000130000000000000000000000D4
:102210009307500063E4A704178701001307C7A1C1
:1022200013152500B302E50003A30200B303E30086
:102230006780030003A541B36780000003A5C1B315
:102240006780000003A581B36780000003A501B18A
:102250006780000003A5C1B067800000130500007F
:10226000678000001300000013000000130000004E
:1022700013F7F50F9312870093D58500B717000069
:1022800037F3FFFFB3E3B200138FF7F0930F030FA1
:1022900033F6E301B3F6F3011318460093D8460072
:1022A000937EF50037370000B7D5FFFF336E180176
:1022B000930237339383C5CC93974E001355450053
:1022C000B3E6A70033735E0033767E001318230055
:1022D0009358260013FE360313F7C60CB7550000BB
:1022E000B7B7FFFFB36E1801138555551383A7AA1F
:1022F0001358270013162E00336E0601B3F6AE00F6
:10230000B3F86E0093D5180013971600937E5E0500
:102310009377AE0A3368B70093961E0013D6170062
:1023200033EEC60093588800B3CEC80193971E00C1
:10233000178801001308C891B386070103D6060069
:102340003367B70093158700B348B600137EF60FC6
:10235000939E080193D78E0113188E003366F80000
:10236000337FE601B37FF60193164F0013D74F007A
:10237000B3E5E600B3F25500B3F37500939822007D
:1023800013DE2300B3EEC80133F5AE0033F36E0065
:1023900013181500935713003365F8006780000089
:1023A00093F7F50F9392870093D5850037170000B8
:1023B00037F3FFFFB3E3B200930FF7F09302030F7D
:1023C00033F6F301B3F653001318460093D84600D2
:1023D000937EF500137F050FB7370000B7D5FFFFD9
:1023E000938337331383C5CC336E180113974E0094
:1023F00093564F0033786E00B368D70033767E0073
:10240000131E2600935E280093F7380313F7C80CB9
:10241000B7550000B7B6FFFF336FDE0193885555FF
:102420001388A6AA139E2700935E2700B3771F0187
:1024300033760F013367DE0193561600939517002C
:10244000137F5705137EA70AB3EED50013561E005F
:1024500093171F0033EFC70013D78E00334EE701E9
:10246000B3E5D500977701009387877E93161E000A
:10247000B38EF60003D70E00139685001355850022
:10248000334FC700137EF70F93150F0193DE8501BD
:1024900093168E0033E7D6013376F701337F57006A
:1024A000131E460093554F00B36EBE00B3F67E0078
:1024B00033F76E00139F260013562700336ECF00AC
:1024C000B3751E01B37E0E011397150093D61E003F
:1024D000336FD7001376FF0F131E860093558F00BE
:1024E000B36EBE0033F7FE0133FF5E001376F500D6
:1024F00093164700135E4F00B3EEC60193154600D6
:102500001355450033E7A50033FF7E0033FE6E0010
:102510009376370313552E001376C70C93152F00AF
:1025200033EFA500939E26001357260033EEEE00EE
:1025300033761F01B3750F01937E5E0513D5150029
:102540009376AE0A131716003366A700139F1E007A
:1025500013DE1600B365CF01935E8600B3C6BE00DE
:1025600013971600B307F70003D50700131F860063
:10257000334EE5019375F50F13160E01935E860138
:1025800093968500B3E7D601B3FFF701B3F2570086
:1025900013D5420013974F00336FA700B3737F002A
:1025A00033736F00139E2300935523003366BE00E0
:1025B000B378160133780601939E180093561800DD
:1025C00033E5DE0067800000130000001300000008
:1025D00093F7F50F9392870093D585003717000086
:1025E000B7F8FFFF9303F7F033E3B2009382080FCD
:1025F000B37673003376530013984600135E46009B
:10260000137FF500937F050FB7370000B7D5FFFFA5
:1026100093883733B36EC80113174F001388C5CCA6
:1026200013D64F0033F31E01B3F60E01B36EC7008D
:10263000131E230013DF260093F73E0313F7CE0C7F
:10264000B755000037B6FFFF93865555B36FEE01BF
:102650009305A6AA139E2700935E270033FFDF0091
:1026600033F3BF00B36FDE011357130093171F003E
:1026700013F65F0513FEAF0AB3EEE70013531E0017
:10268000131F160033666F0093DF8E00B3CECF00AA
:10269000177301001303C35BB3E7E70013971E0032
:1026A000330E6700835F0E0013968700135F85006B
:1026B000B3CECF0013970E0193F7FF0F135E870180
:1026C000939F870033E6CF01B37E7600B377560041
:1026D00013974E0013DE4700B36FC70133F61F0197
:1026E000B3FE0F019317260013D72E00B3EFE700B8
:1026F00033FEDF0033F6BF00931E1E009357160013
:1027000033E7FE00937FF70F13968F00135E870069
:10271000B367C601B3FE770033F75700939F4E00AF
:1027200013564700137EFF00137F0F0FB3E7CF0050
:1027300013174E00935F4F00B3FE07013366F70196
:1027400033FE170193172E0013DF2E00937F3603FD
:10275000137EC60C33E7E701939E2F0093572E009C
:102760003376D700337FB70033E7FE00135E1F00D8
:10277000937EA70A93171600937F570533E6C70188
:1027800013971F0093DF1E00B36EF701135F8600DF
:102790003346DF01B3E7C701131E160033076E008F
:1027A000835F0700139F8700935E0501B3C7EF01A6
:1027B000139E070113F6FF0F13578E01931F860018
:1027C00033EFEF00B3777F0033765F00139E47004F
:1027D00013574600B36FEE0033FF1F01B3F70F012D
:1027E00013162F0013DE27003367C601B37FD7000F
:1027F000337FB70093971F0013561F0033E7C700BE
:10280000137EF70F931F8E00135F8700B3E7EF016E
:1028100033F6770033F75700931F4600135E4700E7
:1028200013FFFE0093FE0E0FB3E7CF0113174F0007
:1028300093DF4E0033F60701336EF70133FF1701C4
:1028400093172F00935E2600937F3E03137FCE0CD9
:1028500033E7D70113962F0093572F00337ED7000D
:10286000B37EB7003367F600937F570593171E00BA
:102870001376A70A13DE1E0033EFC701939E1F00D5
:102880001357160033E6EE00935F8F0033CFCF006F
:10289000931E1F0033876E00835F0700B3E7C701F5
:1028A000139E870033CFCF01931E0F0113F6FF0F46
:1028B00013D78E01931F8600B3E7EF0033FE770036
:1028C00033FF5700931E4E0013564F0033E7CE00E0
:1028D000B37F1701B3770701139F2F0013DE270083
:1028E000B36ECF0133F7DE0033F6BE00931F17003F
:1028F0009357160033EFFF00137EFF0F931E8E00D9
:1029000013578F0033E6EE00B37F7600B37756009F
:1029100013558501137FF50013DE4700939E4F008A
:10292000B3EFCE0113174F00135645003365C700B0
:10293000B3F71F0133FF0F0113773503935E2F00A9
:10294000937FC50C139E2700B367DE0113D52F00BC
:10295000131627003367A600B3FFD70033FEB70076
:10296000937EA70A93571E00137F570513951F00E8
:10297000B36FF50013171F0013D61E00336EC70088
:1029800013DF8F00B34ECF0113951E003303650094
:102990008357030013978F00B3CFE70013F6F70FA9
:1029A000139E0F01135F8E01931E860033E5EE0127
:1029B000B3737500B37255001393430093D742006D
:1029C0003367F300B378170133780701939F28002A
:1029D0001356280033EECF00B376DE00B375BE0089
:1029E000139F160093DE15003365DF01678000003A
:1029F00093F7F50F9392870093D585003717000062
:102A000037F3FFFFB3E3B200930FF7F09302030F26
:102A100033F6F301B3F653001318460093D846007B
:102A2000937EF500137F050FB7370000B7D5FFFF82
:102A3000938337331383C5CC336E180113974E003D
:102A400093564F0033786E00B368D70033767E001C
:102A5000131E2600935E280093F7380313F7C80C63
:102A6000B7550000B7B6FFFF336FDE0193885555A9
:102A70001388A6AA139E2700935E2700B3771F0131
:102A800033760F013367DE019356160093951700D6
:102A9000137F5705137EA70AB3EED50013561E0009
:102AA00093171F0033EFC70013D78E00334EE70193
:102AB000B3E5D500977701009387871993161E0019
:102AC000B38EF60003D70E001396850013558500CC
:102AD000334FC700137EF70F93150F0193DE850167
:102AE00093168E0033E7D6013376F701337F570014
:102AF000131E460093554F00B36EBE00B3F67E0022
:102B000033F76E00139F260013562700336ECF0055
:102B1000B3751E01B37E0E011397150093D61E00E8
:102B2000336FD7001376FF0F131E860093558F0067
:102B3000B36EBE0033F7FE0133FF5E001376F5007F
:102B4000135E4F001375050F9316470033E7C60158
:102B500093154600935E450033EFD501337577003A
:102B6000337E670093763F03935E2E001376CF0C7F
:102B70009315250033E5D50113972600135F260032
:102B8000336EE70133761501B3750501937E5E055B
:102B900013D515009376AE0A131716003366A700F7
:102BA000139F1E0013DE1600B365CF01935E8600EF
:102BB000B3C6BE0013971600B307F70003D507008E
:102BC000131F8600334EE5019375F50F13160E01A2
:102BD000935E860193968500B3E7D601B3FFF701B4
:102BE000B3F2570013D5420013974F00336FA7007D
:102BF000B3737F0033736F00139E2300935523003C
:102C00003366BE00B378160133780601939E180030
:102C10009356180033E5DE006780000013000000C3
:102C20001305000067800000130000000000000092
:102C30001303F5FF9308100063F46832B38E150197
:102C4000139F0E0193570F011398B701130E7000D5
:102C500093F27700130101FF93050000977E0100B6
:102C6000938E0E1F130F4000930FC0029353E80181
:102C70006384C20963645F2A9386D2FF13970601B7
:102C80001358070163E208099392230033885E001A
:102C900003280800938317009396030193829500FD
:102CA00093D7060163F66206B306B60033E7060162
:102CB00093733700639C0326338706419303F7FF22
:102CC00013B7330063140726832508001307800019
:102CD00023A0B6000328480023A20601B386E6001D
:102CE000938502001398B7012380F60193F27700D1
:102CF0009353E801E390C2F9939623003387DE00F3
:102D0000032807026FF01FF99382550063E46218ED
:102D100063FEA51693881500138E0800B33F1501B6
:102D20003303B540930E1000637E1521130FF3FF9C
:102D30003308B600B303004113376F0093F233003A
:102D4000631E070E639C0F0E63820220230008009F
:102D500013F8230063020802B30816012380080059
:102D600093063000138E25006398D200B307C60186
:102D700023800700338ED500B38F5E403383550028
:102D800093F5CFFF938EC5FF13DF2E0013071F00AF
:102D9000B307660093737700B382F500638403067C
:102DA00013081000638A030593082000638213054B
:102DB00093063000638AD3021303400063826302E8
:102DC000930E5000638AD301130F60006394E319DC
:102DD00023A007009387470023A00700938747009D
:102DE00023A007009387470023A00700938747008D
:102DF00023A007009387470023A00700938747007D
:102E00006386F20223A0070023A2070023A4070081
:102E100023A6070023A8070023AA070023AC070066
:102E200023AE070093870702E39EF2FC6380F50759
:102E3000B385C501938815003308B6002300080048
:102E400063F6A804330E160123000E00938F2500AD
:102E500063FEAF023307F6012300070093833500BA
:102E600063F6A302B3027600238002009386450036
:102E700063FEA6003303D60023000300938E5500A3
:102E800063F6AE003306D6012300060013010101EC
:102E900067800000232681001394230097730100AC
:102EA000938303FBB386830003A80603938717006D
:102EB000B306B600034708001394070193570401B3
:102EC0002380E60093851500130740000344180093
:102ED000B305B60093034000238085000344280017
:102EE0002381860083453800A381B6006306770CF2
:102EF0008343480013078000238276000344580070
:102F0000A3828600834568002383B60003487800C7
:102F1000A38306010324C1006FF05FDC93922300BA
:102F2000B3835E0003A803016FF0DFD62326810080
:102F30000344080093851500130780002380860052
:102F40006FF0DFF8930E03006FF05FDE138E050065
:102F50006FF09FE223A00700938747006FF05FE7C1
:102F6000230006009305000063F6A804B3081601C9
:102F7000238008009387250063FEA702B302F600B2
:102F800023800200138335006376A302B303660037
:102F9000238003009386450063FEA6003307D60016
:102FA00023000700138E55006376AE003305C6017B
:102FB00023000500678000000324C1006FF01FD2CA
:102FC00003270500130605008347070063860726CD
:102FD0009306C00213050000638CD71C1308E0029F
:102FE000638C071D636CF802138F57FD937FDF0F0F
:102FF00063860F1E83AF450083A2050013071700E9
:1030000013831F001385120023A0A50023A26500CF
:10301000130510002320E60067800000138307FDDE
:103020009373F30F93089000E3E678FC03AE05007A
:1030300093071700930E1E0023A0D5010347170026
:103040006306071E630ED71E1308E002630407051C
:10305000130F07FD937FFF0F130590006372F503B5
:1030600083A205011305100013871700B387A20080
:1030700023A8F5002320E6006780000023A4D501E3
:1030800003C71700938717006302071A9306C0024D
:103090006FF05FFB03A305019303130023A87500E2
:1030A00003CE17009387170063040E129306C00225
:1030B000630CDE0E9378FE0D930E50046392D80DD0
:1030C00003A54501138717009303150023AA750074
:1030D00003CE170063080E1A9308C002630A1E1776
:1030E00003A7C50093065EFD93FED60F13081700D5
:1030F00023A6050163900E0803CF2700138727003E
:10310000630E0F1463001F1783AF850193020FFD39
:1031100013F3F20F13851F00930E900023ACA5004C
:1031200063FA6E0013873700130510002320E600B2
:103130006780000093030700034E17001307170072
:103140009308C00293070EFD93F6F70F63020E1269
:1031500063041E13E3F0DEFE03A845001305100010
:1031600013872300330FA80023A2E5012320E600E4
:103170006780000013872700130510006FF09FE998
:1031800013080EFD137FF80F930F9000E3FAEFF191
:1031900083A2450113051000138717003383A20093
:1031A00023AA65006FF01FE713870700130550007F
:1031B000130717006FF01FE603A50500930717001C
:1031C0009302150023A05500034E1700E3120EEEE4
:1031D00013870700130550006FF0DFE303A5050018
:1031E000930717009302150023A05500034317000F
:1031F000630E03086302D30A83A38500930603FDCD
:1032000013FEF60F93089000938E1300E3F8C8E7BF
:10321000630A030123A4D501130727001305100037
:103220006FF05FDF23A4D5016FF09FE713870700DE
:10323000130540006FF01FDE130500006FF09FDDE7
:103240001387070013054000130717006FF09FDC7A
:1032500013053000130717006FF0DFDB1305600064
:103260006FF05FDB13056000130717006FF09FDA44
:10327000130570006FF01FDA1305700013071700B5
:103280006FF05FD9130530006FF0DFD813870700A8
:10329000130520006FF01FD81387070013052000C7
:1032A000130717006FF01FD7130000001300000072
:1032B000130101F8232C8106232A910623282107D4
:1032C00023263107232441072322510723206107A6
:1032D000232E7105232C8105232E11061389050049
:1032E00083C505002326210123280102232801008C
:1032F000232A0102232A0100232C0102232C01008E
:10330000232E0102232E0100232001042320010289
:103310002322010423220102232401042324010285
:10332000232601042326010293840700930B050042
:10333000130C0600938A0600130B07009309010380
:1033400013040101130AC100638A05529385090021
:1033500013050A00EFF0DFC693172500B38287003C
:103360008326C10003A702009385090003C306005A
:103370009303170023A0720013050A0063000308DB
:10338000EFF01FC413162500330886008328C10000
:10339000032E08009385090083CE0800130F1E003A
:1033A0002320E80113050A00638A0E04EFF05FC1D1
:1033B000931F2500B3878F008322C10003A7070056
:1033C0009385090083C602001303170023A067003A
:1033D00013050A0063840602EFF09FBE1315250053
:1033E000B30585008323C10003A6050003C80300BD
:1033F0009308160023A01501E31A08F423262101DF
:10340000B30B790163787919130A100063104B43E9
:10341000834209001347F9FFB386EB001303C00290
:1034200013F5760063866200B3C582012300B900FC
:103430009307190063FA77156302050C93031000D4
:103440006302750A130620006304C50813083000E0
:10345000630605079308400063081505130E500026
:10346000630AC503930E6000630CD50103CF070008
:1034700063066F00B34F8F012380F7019387170016
:1034800003CA070063066A00B3428A01238057001B
:103490009387170003C7070063066700B3468701D9
:1034A0002380D7009387170003C5070063066500D4
:1034B000B34585012380B7009387170083C30700B6
:1034C0006386630033C683012380C7009387170098
:1034D00003C8070063066800B3488801238017010A
:1034E0009387170003CE070063066E00B34E8E016C
:1034F0002380D7019387170063F8770903CF07006C
:1035000063066F00B34F8F012380F70103CA1700D2
:103510009382170063066A0033478A01A380E7009D
:1035200083C7120063866700B3C68701A380D200F9
:1035300003C5220063066500B34585012381B200FF
:1035400083C332006386630033C68301A381C20054
:1035500003C8420063066800B34888012382120151
:1035600003CE520063066E00B34E8E01A382D201D9
:1035700003CF620063066F00B34F8F012383F20114
:1035800093877200E3EC77F7034C0900130AC1003C
:10359000630A0C289385090013050A00EFF05FA267
:1035A00013132500B30283008326C10003A7020082
:1035B0009385090083C306001306170023A0C200E9
:1035C00013050A0063800308EFF09F9F131825007E
:1035D000B3088800032EC10083AE0800938509005C
:1035E000034F0E00938F1E0023A0F80113050A005D
:1035F000630A0F04EFF0DF9C93172500338C8700DC
:103600000323C10083220C00938509008346030035
:10361000138712002320EC0013050A0063840602BE
:10362000EFF01F9A13152500B30585008323C10011
:1036300003A6050003C803009308160023A0150184
:10364000E31A08F463727919130A100063184B2106
:10365000034B0900934FF9FF338CFB019307C00222
:1036600013737C006306FB00B3425B012300590027
:1036700013091900637A79156302030C930610008D
:103680006302D30A130720006304E3081305300024
:103690006306A306930540006308B3049303500038
:1036A000630A730213066000630CC3000348090039
:1036B0006306F800B34858012300190113091900E3
:1036C000034A09006306FA00334E5A012300C90178
:1036D00013091900834E09006386FE0033CF5E0193
:1036E0002300E90113091900034B09006306FB00DD
:1036F000B34F5B012300F90113091900034C0900C2
:103700006306FC0033435C012300690013091900C0
:10371000834209006386F200B3C652012300D90038
:1037200013091900034709006306F70033455701E1
:103730002300A9001309190063787909834509005A
:103740006386F500B3C355012300790003461900D1
:10375000130819006306F600B3485601A3001901C7
:10376000034918006306F900334A5901A3004801D0
:10377000034E28006306FE00B34E5E012301D8010C
:10378000034F38006306FF00334B5F01A30168015C
:10379000834F48006386FF0033CC5F01230288011A
:1037A000034358006306F300B3425301A3025800D9
:1037B000834668006386F60033C756012303E8009A
:1037C00013097800E36C79F7938A09000325040054
:1037D0009385040013044400EFE09FDF9305050088
:1037E00003A50A00938A4A00EFE09FDE93040500D8
:1037F000E31E34FD8320C10703248107832441078E
:10380000032901078329C106032A8106832A410669
:10381000032B0106832BC105032C8105130101082D
:1038200067800000E36679E36FF01FFA930F0900E9
:10383000130EC00283CE0F0033CF8E016384CE01FE
:103840002380EF01B38F6F01E3E67FFF8347090019
:10385000130AC100E39007D4E37879F7130EC0028E
:10386000834E090033CF5E016384CE012300E9015A
:1038700033096901E36679FF6FF01FF5B30BA90007
:10388000E36479B96FF05FF41300000000000000FA
:10389000031F050093577F4093F2170063860200D1
:1038A0001375FF076780000013573F401373F7003D
:1038B000130101FE93134300232C81003306730090
:1038C000232E1100232A910093767F0083D785034E
:1038D000938805001304050013070600638E06088D
:1038E000130510006392A60813858802138607004B
:1038F000930507002326E10123241101EF20503F07
:1039000083288100931E0501032FC10003DEC80335
:1039100093D40E4163140E0A83D78803239EA80212
:1039200093850700232611012324E101EFE05FA71F
:10393000832281008326C1009307050013F702F05C
:1039400013F5F4073363E500239CF6029363030841
:103950008320C101231074000324810183244101C9
:103960001301010267800000931F0F0113D50F019F
:1039700093040F006FF0DFFA9304100263E4C400B5
:103980001307200283A548018396280003960800A8
:1039900003A588012326E10123241101EFF05F91A3
:1039A0008328810013180501032FC10083D5E80384
:1039B0009354084163940500239FA80283D788038A
:1039C0006FF01FF61300000013000000130000004A
:1039D00003180500130101FE232C81009357784042
:1039E000232A9100232E110093F2170093840500DF
:1039F000130406009378F8076390020A13573840BF
:103A00009373F700130F0500139543003386A3004B
:103A10002328210193767800835784031307060037
:103A20006380061C130E10006396C61513860700EC
:103A300093050700130584022326E10123240101D5
:103A4000EF20102B835EC4031313050103288100AC
:103A5000032FC1001359034163960E1C835784033F
:103A6000231EA402938507002326E10123240101DC
:103A7000EFE01F93832781009378F907231CA402AA
:103A800093F207F00325C10033E758000329010131
:103A900093630708231075008393040093D6734043
:103AA00013F61600630006028320C101032481017E
:103AB00093F6F307832441013385D84013010102B3
:103AC0006780000093D5334013FEF500931E4E002F
:103AD0002328210113F373003309DE018357840384
:103AE000130709006308030A93021000631C5308BC
:103AF000138607009305090013058402232611018C
:103B000023247100EF20D01E8357C403131805012E
:103B1000832381008328C10013590841639E070A4B
:103B200083578403231EA4029385070023261101D3
:103B300023247100EFE0DF86032681009376F907E6
:103B4000231CA402937506F08328C1008320C101C1
:103B50000324810133EEB600936E0E082390D40146
:103B600003290101832441013385D8401301010257
:103B700067800000931F080113D50F011309080087
:103B80006FF05FEE139703011355070113890300CC
:103B90006FF09FF9130F100263642F0113072002C7
:103BA00083162400031604008325440103258401A1
:103BB0002326110123247100EFF08FEF835FE403CC
:103BC0009318050113D90841832381008328C1007C
:103BD00063940F00231FA402835784036FF0DFF464
:103BE0009305100263E4C500130720028316240026
:103BF0000316040083254401032584012326E101E3
:103C000023240101EFF0CFEA8358E40313190501DF
:103C100003288100032FC100135909416394080050
:103C2000231FA402835784036FF0DFE31300000017
:103C3000630A060003152500839525003305B5406A
:103C400067800000831705009396070113F707F0BC
:103C500093D28601336357002310650083930500D8
:103C6000031525001398030113F603F093588801F8
:103C7000336E16012390C501839525003305B540A9
:103C80006780000013000000130000001300000014
:103C900003970500839725002310E5002311F50005
:103CA00067800000130000001300000013000000F4
:103CB000831E4500130101FB232481042326710385
:103CC000232611042322910423202105232E3103CE
:103CD000232C4103232A5103232861032324810336
:103CE000232291032320A103232EB10103244502A3
:103CF000930B0000E35CD05BE3C0055CE304045E6F
:103D00002324B10093080000130F000013030000E8
:103D1000130E0000930704006F00C00083A7070084
:103D2000638E071403A7470083268100031727002B
:103D3000E316D7FE83220400130A00002320440167
:103D40006384020803A6020023A0820013840200F9
:103D5000630C060603280600232056001304060001
:103D600063040806832308002320C8001304080006
:103D7000638C030483A4030023A0030113840300C2
:103D80006384040403A9040023A0740013840400C2
:103D9000630C0902832909002320990013040900F8
:103DA0006384090283AF090023A029011384090059
:103DB000138A0900638A0F0013840F008322040012
:103DC00023204401E39002F8638E070A83AA470088
:103DD00013031300039B0A00137C1B0063080C00F1
:103DE000935C9B4013FD1C00330EAE0183AD0700B6
:103DF000638C0D0083A60D0023A0D7008327040049
:103E000023A0FD002320B40193841800939804019B
:103E100093D80841634C070213071700931F07014B
:103E200013DA0F41939A04012324410113DB0A01A1
:103E3000638E1E07937BFB0FE35E0AEC13890B0076
:103E4000930704003787FFFF6F00400213990401B6
:103E500093590901638A1E0513F9F90F93070400AA
:103E60006F00C00083A70700638C070283AC470084
:103E700083CB0C00E3982BFF6FF0DFEB138706007A
:103E80006FF05FEB83220400130F1F0003A64200B4
:103E90000308160093731800330E7E006FF0DFF6F0
:103EA000930B09006FF01FE92324E100931E230008
:103EB000338FEE413303EE01131C0301935C0C01BD
:103EC00023269101130A0500634EB07003230400FA
:103ED000032E810013090400032A030083224300F8
:103EE00003254A0083250A002322A30023225A0027
:103EF0002320B30023200A00634C0E2E032C49001C
:103F000003268100031D2C00630ECD000329090048
:103F1000E3080938032C490003268100031D2C0007
:103F2000E316CDFE032844008325C10003150800D5
:103F3000EFE01FAC032909002326A1006304090C4C
:103F4000832344009305050003950300EFE05FAA77
:103F5000832909002326A100930505006384090A2B
:103F60008328440003950800EFE09FA883AA090076
:103F70002326A1009305050063860A080327440051
:103F800003150700EFE0DFA683A40A002326A100A3
:103F90009305050063880406832F440003950F00F2
:103FA000EFE01FA583AC04002326A10093050500C4
:103FB000638A0C04832D440003950D00EFE05FA39A
:103FC00003AB0C002326A10093050500630C0B0234
:103FD000832E440003950E00EFE09FA1832B0B007E
:103FE0002326A10093050500638E0B00032F4400D8
:103FF00003150F00EFE0DF9F03A90B002326A100AC
:10400000E31209F20329040083224A000323490032
:1040100003250900930F100023226A002322590070
:104020002320AA002320490193830F006306042262
:1040300013090000130700009302000013FE7F0025
:1040400093821200130604009307000063040E0815
:1040500063D6F70F03260400930710006300060ED3
:10406000630AFE06930520006300BE069306300037
:104070006306DE04130A4000630C4E03130C500069
:1040800063028E03130D60006308AE010326060071
:10409000938705006304060A03260600938717002A
:1040A000630E0608032606009387170063080608B8
:1040B00003260600938717006302060803260600FE
:1040C00093871700630C06060326060093871700E4
:1040D0006306060663D4F7070326060093871700D6
:1040E00013880700630C0604032606009387170055
:1040F00063060604032606009307280063000604EF
:104100000326060093073800630A0602032606000A
:10411000930748006304060203260600930758002D
:10412000630E060003260600930768006308060076
:104130000326060093077800E31E06F893060400A2
:1041400093850F00130406006354F0026384050096
:1041500063180402930807009387F7FF138706008C
:1041600083A60600638E080823A0E800E340F0FE63
:10417000B33C80006356B00C63860C0C6380070A66
:10418000938AF7FF93F43A00832C44006386041665
:1041900083AD4600039B2C0083990D00839E2D0068
:1041A000939B090193F809F013DF8B0133E3E801D6
:1041B00023906D0003950C00131A0501137E05F082
:1041C000135C8A01336D8E012390AC01635ADB09C5
:1041D000930807009385F5FF1307040003240400E8
:1041E000E39408F86F00C00103290900E30A090AF3
:1041F0008326490083C70600E398FBFE6FF09FD239
:10420000130907006FF05FF42320F700B33C800030
:10421000138707006384050263820C02930704007E
:104220009385F5FF03240400E31007FE13890700BC
:10423000B33C800013870700E39005FE1387070057
:10424000E39E0CDE23200700638A72261304090014
:10425000939F1F00E31E04DC232000007300100066
:1042600003A8060093870A00630C07009308070061
:104270001387060023A0E800930608006FF01FEFE5
:1042800013870600138906006358501D130610009B
:10429000930608006382C406930A20006392541DAB
:1042A000032D4800839A2C0003160D0083142D0063
:1042B000131B0601937D06F093598B01B3EE3D016C
:1042C0002310DD01839B0C00139F0B0193F80BF06F
:1042D00013538F0133E568002390AC00E3CA9AEED4
:1042E000032808009387F7FFE31207F813870600F7
:1042F000138906009306080003A84600039A2C00C1
:10430000031C0800031E2800931A0C01137D0CF0F7
:1043100013D68A01B364CD0023109800839D0C004E
:1043200093990D0113FB0DF093DE8901B36BDB0153
:1043300023907C01E34ECAE99387F7FF03A80600A8
:1043400093880700E31407F2138706001389060019
:104350006354F01003264800039E2C0093060800C7
:1043600083190600831E2600139A090193FB09F0A6
:10437000135F8A0133ECEB0123108601039D0C00CF
:1043800013150D0113730DF0935A8501B364530196
:1043900023909C00E34EDEE3032808009387F7FF99
:1043A000E31607EC832D480013870600039B2C00BF
:1043B00083960D00039A2D0013090700139E060132
:1043C00013F606F093598E01B36E36012390DD018A
:1043D000839B0C0093060800139C0B0113FF0BF04A
:1043E000135D8C013363AF0123906C00E3424BDF1C
:1043F000032808009387E8FFE31A07E6032548002F
:10440000138706001389060083140500839A2C0085
:1044100083192500139B040193568B0193FD04F02F
:1044200033E6DD002310C500039E0C009306080050
:10443000931E0E01937B0EF013DA8E0133EF4B01C6
:104440002390EC01E3C63AD9032808009387D8FFEC
:10445000E31E07E06FF09FE9930608006FF05FD15D
:1044600083244800839D2C00039B0400839924002F
:1044700093180B01937E0BF093DB880133EF7E01E1
:104480002390E40103930C00131E0301137503F042
:10449000135A8E01336C450123908C01E3CA3DD33E
:1044A000032808009387F7FFE31207DC1387060051
:1044B00013890600930608006FF09FDE032B0900A6
:1044C00063020B0E832249008325C100039502007D
:1044D000EFE00FD203240B002326A1006304040C99
:1044E000832349009305050003950300EFE04FD0B7
:1044F000032A04002326A1009305050063040A0A89
:10450000032F490003150F00EFE08FCE032C0A00A4
:104510002326A1009305050063060C080323490028
:1045200003150300EFE0CFCC032D0C002326A100E0
:104530009305050063080D060325490003150500D2
:10454000EFE00FCB832A0D002326A1009305050081
:10455000638A0A040327490003150700EFE04FC9E7
:1045600083A40A002326A10093050500638C04029E
:104570008326490003950600EFE08FC783AD040052
:104580002326A10093050500638E0D000328490032
:1045900003150800EFE0CFC503AB0D002326A100F3
:1045A000E3120BF28320C104032481040325C1001C
:1045B00083244104032901048329C103032A8103BD
:1045C000832A4103032B0103832BC102032C8102A5
:1045D000832C4102032D0102832DC101130101052A
:1045E00067800000130B1000E30804C6930A000064
:1045F00093090000130C000013757B00130C1C00C2
:104600009302040013090000630405086356690F50
:1046100083220400130910006380020E630A250739
:10462000930520006300B506130D30006306A50551
:10463000130E4000630CC503930D50006302B503D5
:10464000930660006308D50083A202001389050069
:104650006384020A83A2020013091900638E020810
:1046600083A20200130919006388020883A20200D2
:10467000130919006382020883A2020013091900BA
:10468000638C020683A202001309190063860206E6
:104690006354690783A202001309190093070900F4
:1046A000638C020483A202001309190063860204CA
:1046B00083A20200138927006380020483A2020000
:1046C00013893700638A020283A20200138947001C
:1046D0006384020283A2020013895700638E0200E2
:1046E00083A20200138967006388020083A202008C
:1046F00013897700E39E02F893040400930D0B00E6
:10470000138402006354200363840D0063180402C1
:10471000938709001309F9FF9389040083A4040017
:104720006388070423A03701E34020FFB33E8000E5
:104730006352B00963820E0863000904130DF9FF88
:10474000937C7D00638A0C1E8325440003A54400EE
:1047500013060A00EFF0CFA7635CA0069387090059
:10476000938DFDFF9309040003240400E39C07FAE2
:10477000938A09006FF01FF9138F09006F00800101
:1047800023203F01B33E8000138F090063840D0294
:1047900063840E0293090400938DFDFF032404003B
:1047A000E3100FFE938A0900B33E8000138F0900C7
:1047B000E3900DFEE3920EE423A009001304100021
:1047C000630E8C30131B1B0013840A006FF0DFE1B3
:1047D00013090D0003AD0400638C090093870900E1
:1047E0009389040023A0370193040D006FF0DFF3D9
:1047F00093890400938A04006350202B1306100051
:1048000093040D00638ACC121308200063800C11FE
:104810009303300063867C0C93084000638C1C0972
:10482000130750006382EC06930F60006388FC035B
:104830008325440003254D0013060A00EFF04F992D
:10484000E34EA0F0032D0D001309F9FFE39809F8DA
:1048500093890400938A040093040D008325440087
:1048600003254D0013060A00EFF08F96E348A0EEF3
:10487000032D0D001309F9FFE39209F69389040053
:10488000938A040093040D008325440003254D0002
:1048900013060A00EFF0CF93E342A0EC032D0D00C6
:1048A0001309F9FFE39C09F293890400938A040039
:1048B00093040D008325440003254D0013060A00D0
:1048C000EFF00F91E34CA0E8032D0D001309F9FF61
:1048D000E39609F093890400938A040093040D0081
:1048E0008325440003254D0013060A00EFF04F8E88
:1048F000E346A0E6032D0D001309F9FFE39009EE4E
:1049000093890400938A040093040D0083254400D6
:1049100003254D0013060A00EFF08F8BE340A0E45F
:10492000032D0D001309F9FFE39A09EA93890400A6
:10493000938A040093040D008325440003A54400DA
:1049400013060A00EFF0CF88E34AA0E01309F9FF4D
:1049500003AD0400930C0900E39209E89389040075
:10496000938A0400635A20138325440003254D00D5
:1049700013060A0093040D00EFF08F85E340A0DEDC
:10498000032D0D001309F9FFE39A09E48325440080
:1049900003254D0013060A0093890400938A04003E
:1049A00093040D00EFF0CF82E34AA0DA032D0D004F
:1049B0001389ECFFE39409E28325440003254D00AD
:1049C00013060A0093890400938A040093040D00DF
:1049D000EFF00F80E344A0D8032D0D001389DCFF16
:1049E000E39E09DE8325440003254D0013060A00DB
:1049F00093890400938A040093040D00EFE05FFDA7
:104A0000E34EA0D4032D0D001389CCFFE39809DCFD
:104A10008325440003254D0013060A0093890400F2
:104A2000938A040093040D00EFE09FFAE348A0D2BC
:104A3000032D0D001389BCFFE39209DA832544009E
:104A400003254D0013060A0093890400938A04008D
:104A500093040D00EFE0DFF7E342A0D0032D0D003B
:104A60001389ACFFE39C09D68325440003254D0040
:104A700013060A0093890400938A040093040D002E
:104A8000EFE01FF5E34CA0CC032D0D0013899CFF34
:104A9000E39609D46FF09FE993040D006FF01FC9EE
:104AA00003290400631009C86FF04FD62324B10016
:104AB000232601006FF00FC163060402138705006F
:104AC0009307040093080000130F00001303000075
:104AD00013090000130E00006FF04FB913840A0091
:104AE0006FF0CFBE8327000073001000130000009A
:104AF000B7D7CCCC9382D7CC33335502130101FF07
:104B000023268100232491002322210113850500FF
:104B100023A00500B786FFFF93830608138F0501C6
:104B2000135443001307E4FF13183700B3040501BF
:104B300023229500131E2700239074002391040064
:104B4000938585003389C401938E4400637C9F580C
:104B50009386840063F82659B788FFFF2324050055
:104B60002320B5002326D50193CFF8FF9307F0FF4C
:104B70002393F4012392F40063080706B785FFFF2F
:104B800093088F0093C3F5FF9305000063FC98041E
:104B900013834600637E235303240500B342B6000B
:104BA0001398320093FE7500137E880723208F0030
:104BB000B367DE012320E501939F87002322DF00F6
:104BC000B382F70193851500239056002391760058
:104BD000630AB700138F080093088F009306030041
:104BE000E3E898FA8325050003AF050063040F0688
:104BF000B7D4CCCC1389D4CC33372703B7430000C8
:104C00001384F3FF9307002093041000135E270022
:104C10006F00000283280F0023919E00638C08021E
:104C200093050F009384140093870710138F0800D7
:104C300083AE4500E3E0C4FF93FF0770B3C2C40036
:104C400083280F00B3E55F00B3F685002391DE00F3
:104C5000E39808FC93031000938403009307050076
:104C600013060000130500001304000013F3730083
:104C700013041400138807001307000063040308DB
:104C80006356700E03A80700130710006300080E98
:104C9000630AE306130F20006300E30713093000E3
:104CA00063062305130E4000630CC303930E5000EC
:104CB0006302D303930F60006308F3010328080025
:104CC00013070F006304080A0328080013071700DE
:104CD000630E080803280800130717006308080874
:104CE00003280800130717006302080803280800B8
:104CF00013071700630C08060328080013071700A2
:104D00006306080663547706032808001307170094
:104D100093020700630C0804032808001307170018
:104D200063060804032808001387220063000804B0
:104D30000328080013873200630A080203280800CA
:104D400013874200630408020328080013875200F7
:104D5000630E080003280800138762006308080038
:104D60000328080013877200E31E08F893860700E3
:104D700093850300930708006354E00263840500F1
:104D80006398070203A806001307F7FF63040608E9
:104D90002320D6001386060093060800E340E0FEB9
:104DA000B338F000635AB00A638A080A630807063A
:104DB000930EF7FF13FF3E0083A84700630E0F1208
:104DC00003A34600839F28000319030083122300D6
:104DD00013180901137E09F013598801336E2E014F
:104DE0002310C3010398080013190801137308F076
:104DF000135E89013368C3012390080163DC5F06F9
:104E0000138806009385F5FF9386070083A70700A4
:104E1000E31006F8138506006FF0DFF713070600AE
:104E20006F0080012320C700B338F000130706008D
:104E30006384050263840802138607009385F5FFE7
:104E400083A70700E31007FE13050600B338F00040
:104E500013070600E39005FEE39A08E0232006000E
:104E6000630E942493931300E31A05DE23200000BD
:104E70007300100003A8060013870E00E31A06F063
:104E800013860600138506006358D01D930E10008C
:104E9000930608006302DF07930F20006312FF1DD3
:104EA00003294800039F2800031E0900831F2900CF
:104EB00013130E0193528301937E0EF033EE5E00C6
:104EC0002310C90103990800931E0901937209F088
:104ED00013D38E0133EE62002390C801E342FFF347
:104EE000032808001307F7FFE31406EA13860600F9
:104EF000138506009306080003A946008392280044
:104F000003180900031F2900931F0801937E08F06E
:104F100013D38F0133EE6E002310C90103990800EB
:104F200013180901937E09F0935F880133E3FE01B2
:104F300023906800E3C6E2ED1307F7FF03A806001D
:104F4000130E0700E31606E4138606001385060019
:104F50006354E01003294800039F280083160900CA
:104F6000831F29009392060113D3820193FE06F05A
:104F7000B3E66E002310D9000399080093060800D9
:104F800093120901937E09F013D3820133E96E0075
:104F900023902801E346FFE7032808001307F7FFE3
:104FA000E31806DE832248001386060013850600F8
:104FB000839F0200039F280093960F0193FE0FF03A
:104FC00013D3860133E96E0023902201839F0800EA
:104FD0008392220093960F0113D3860193FE0FF064
:104FE00033E96E002390280193060800E34A5FE04E
:104FF000032808001307EEFFE31C06D883224800AD
:105000001386060013850600839F0200039F280075
:1050100093960F0193FE0FF013D3860133E96E00D0
:1050200023902201839F08008392220093960F0110
:1050300013D3860193FE0FF033E96E00239028010D
:1050400093060800E34E5FDA032808001307DEFF2B
:10505000E31006D46FF09FE9930608006FF05FD469
:1050600003294800039F280083120900831F290099
:1050700013930201935E830113FE02F0B362DE011B
:10508000231059000399080013130901137E09F036
:10509000935E8301B362DE0123905800E342FFD7A1
:1050A000032808001307F7FFE31406CE1386060053
:1050B00013850600930608006FF09FDE0324C100ED
:1050C000832481000329410013010101678000004E
:1050D00093851500E308B7B01383060093080F000B
:1050E0006FF05FAF138F050093860E0093050000ED
:1050F0006FF09FA8130000001300000013000000D1
:10510000032806009308880063F6E80403A7060056
:10511000130347006370F30423201601832705005F
:1051200083920500039625002320F8002320050123
:105130002322E80083A306001385430023A0A600D2
:105140008325480013050800239055002391C500CE
:105150006780000013080000130508006780000046
:10516000930705000325050083A647000326450095
:105170000327050023A2C7002322D50023A0E700B0
:1051800023200500678000001300000013000000CA
:1051900083A645000327450083A705002322D500E9
:1051A00023A2E5002320F50023A0A50067800000CE
:1051B000039625006342060263180500678000001D
:1051C00003250500630A050203234500831323001A
:1051D000E398C3FE678000006300050203970500A3
:1051E0006F00C00003250500630805008327450004
:1051F00083C20700E398E2FE67800000130000000E
:10520000630C05088327050013080000232005010F
:105210006384070803A7070023A0A70013850700DE
:10522000630E0706832607002320F70013050700F7
:105230006384060683A2060023A0E6001385060009
:10524000638C020403A3020023A0D2001385020092
:105250006304030483230300232053001305030086
:10526000638C030283A5030023A06300138503005E
:105270006384050203A6050023A0750013850500BD
:1052800013880500630A060013050600832705003E
:1052900023200501E39007F8678000006780000085
:1052A000130101FB23202105232A51032328610335
:1052B000232481032326110423248104232291041F
:1052C000232E3103232C4103232671032322910330
:1052D0002320A103232EB10113090500130C100094
:1052E000138B0500930A06006308091E232601009C
:1052F00093040000930B00008327C10013777C0008
:10530000130809009382170023265100130400009C
:10531000630407086356800F032809001304100074
:105320006300080E630A8706930620006300D70611
:10533000130630006306C70413034000630C6702C2
:105340009303500063027702130560006308A7000F
:1053500003280800138406006304080A03280800D1
:1053600013041400630E0808032808001304140033
:1053700063080808032808001304140063020808DF
:105380000328080013041400630C0806032808000F
:1053900013041400630608066354840703280800F6
:1053A0001304140093050400630C08040328080088
:1053B000130414006306080403280800138425005E
:1053C000630008040328080013843500630A0802F8
:1053D000032808001384450063040802032808001A
:1053E00013845500630E0800032808001384650029
:1053F000630808000328080013847500E31E08F8FA
:1054000093090900130A0C00130908006354800271
:1054100063040A0063180902938604001304F4FF6E
:105420009384090083A909006388060423A09600D9
:10543000E34080FEB33720016350400963800708D2
:10544000630A0404930DF4FF93FC7D00638E0C1E2D
:105450008325490003A5490013860A00E7000B00D5
:105460006350A00893860400130AFAFF930409000E
:1054700003290900E39C06FA938B04006FF01FF9DF
:1054800023A0A401B337200193040D0063040A0292
:1054900063820702130D0900130AFAFF03290900AA
:1054A000E39004FE930B0D00B337200193040D002D
:1054B000E3100AFE93040D00E39007E40329C10002
:1054C00023A00400930210006304592E13890B00DB
:1054D000131C1C00E31C09E02320000073001000D3
:1054E00003AD090013840D00638C0400938604004F
:1054F0009384090023A0960093090D006FF05FF3D9
:10550000938B0900938409006350B02B930810001B
:1055100093090D00638A1C13130E20006380CC11C5
:10552000930E30006386DC0D130F4000638CEC0992
:10553000930F50006382FC07130760006388EC023E
:105540008325490003254D0013860A00E7000B0060
:10555000E34AA0F0032D0D001384FDFFE3980BF840
:10556000938B09009384090093090D00832549005A
:1055700003254D0013860A00E7000B00E344A0EE6C
:10558000032D0D001304F4FFE39204F6938B09003E
:105590009384090093090D008325490003254D00DC
:1055A00013860A00E7000B00E34EA0EA032D0D006E
:1055B0001304F4FFE39C04F2938B09009384090025
:1055C00093090D008325490003254D0013860A0029
:1055D000E7000B00E348A0E8032D0D001304F4FFDF
:1055E000E39604F0938B09009384090093090D005E
:1055F0008325490003254D0013860A00E7000B00B0
:10560000E342A0E6032D0D001304F4FFE39004EE43
:10561000938B09009384090093090D0083254900A9
:1056200003254D0013860A00E7000B00E34CA0E2BF
:10563000032D0D001304F4FFE39A04EA938B090091
:105640009384090093090D008325490003A54900AF
:1056500013860A00E7000B00E346A0E01304F4FF02
:1056600003AD0900930D0400E39204E8938B090055
:1056700093840900635A80128325490003254D0055
:1056800013860A0093090D00E7000B00E34CA0DC31
:10569000032D0D001304F4FFE39A0BE48325490066
:1056A00003254D0013860A00938B0900938409009B
:1056B00093090D00E7000B00E346A0DA032D0D006F
:1056C0001384EDFFE3940BE28325490003254D008D
:1056D00013860A00938B09009384090093090D0037
:1056E000E7000B00E340A0D8032D0D001384DDFF7D
:1056F000E39E0BDE8325490003254D0013860A0037
:10570000938B09009384090093090D00E7000B00B7
:10571000E34AA0D4032D0D001384CDFFE3980BDCE6
:105720008325490003254D0013860A00938B090049
:105730009384090093090D00E7000B00E344A0D215
:10574000032D0D001384BDFFE3920BDA832549007E
:1057500003254D0013860A00938B090093840900EA
:1057600093090D00E7000B00E34EA0CE032D0D00C2
:105770001384ADFFE39C0BD68325490003254D0020
:1057800013860A00938B09009384090093090D0086
:10579000E7000B00E348A0CC032D0D0013849DFF10
:1057A000E3960BD46FF09FE993090D006FF09FC84B
:1057B0008320C104032481048324410403290104B8
:1057C0008329C103032A8103832A4103032B010395
:1057D000032C8102832C4102032D0102832DC10180
:1057E00013850B00832BC1021301010567800000A4
:1057F0001300000000000000000000000000000096
:10580000130101FC232E1102E300054A232C81021F
:1058100013141500232821032320610337F9FFFF08
:10582000130B06003306860023263103232251037F
:10583000232E7101232A9102938B06002324410316
:10584000232C8101232A91012328A1012326B101C0
:10585000938A050093090700930606003369270120
:10586000930800001307E4FF9352170013831200FC
:1058700093737300B38786406384030A9305100013
:105880006386B30893042000638A930613083000EC
:10589000638E0305130A400063824305130C500016
:1058A00063868303930C6000638A930103DD070022
:1058B00093872700B38DA901239FB7FF03DE07005D
:1058C00093872700B38EC901239FD7FF03DF07000B
:1058D00093872700B38FE901239FF7FF03D70700C2
:1058E00093872700B382E900239F57FE03D3070065
:1058F00093872700B3836900239F77FE83D5070032
:1059000093872700B384B900239F97FE03D807002D
:1059100093872700338A0901239F47FF6386D706B1
:1059200003DC070083DC270003DD470083DD67001D
:1059300083D2870083D3A70083D5C70003D7E700AE
:10594000B38F8901338F9901B38EA901338EB901C9
:1059500033835900B38479003388B900338AE9006E
:105960002390F7012391E7012392D7012393C701E5
:1059700023946700239597002396070123974701F7
:1059800093870701E39ED7F893841800B3868700B6
:1059900063069500938804006FF0DFEC130E00009F
:1059A000930E00001305E4FF93571500138C1700A6
:1059B000131D2E00937C7C00B387AA013307864019
:1059C00063820C0C930D10006382BC0B93022000C9
:1059D00063845C089303300063867C069305400073
:1059E0006388BC04930F5000638AFC03130F6000AC
:1059F000638CEC010313070093874700130727000C
:105A00003308330323AE07FF031A070093874700C9
:105A100013072700B3063A0323AED7FE031507008A
:105A20009387470013072700330C350323AE87FF06
:105A3000831C07009387470013072700338D3C031F
:105A400023AEA7FF831D0700938747001307270096
:105A5000B3823D0323AE57FE8313070093874700AD
:105A600013072700B385330323AEB7FE831F070058
:105A70001307270093874700338F3F0323AEE7FFC9
:105A80006308E606031A0700031C2700831C47006F
:105A900003136700031887000315A700031DC70041
:105AA0008316E700B30D3A03130707019387070234
:105AB000B3023C0323A0B7FFB3833C0323A257FEEA
:105AC000B305330323A477FEB30F380323A6B7FE31
:105AD000330F350323A8F7FF330A3D0323AAE7FF5B
