:0200000480007A
:100000006F0040146F10C0006F00C0126F008012AC
:100010006F0040126F0000126F00C0116F0080115E
:100020006F0040116F0000116F00C0106F00801052
:100030006F0040106F0000106F00C00F6F00800F46
:100040006F00400F6F00000F6F00C00E6F00800E3A
:100050006F00400E6F00000E6F00C00D6F00800D2E
:100060006F00400D6F00000D6F00C00C6F00800C22
:100070006F00400C6F00000C6F00C00B6F00C01CC5
:1000800097A10100938101C517010300130181F7B6
:1000900017050000130505F713651500731055309B
:1000A000179501001305857517A6010013068642F2
:1000B0003306A64093050000EF70D033178500008B
:1000C000130585AAEF60D06FEF7090201305000034
:1000D0009305000013060000EF4090726F0040018E
:0400E0006780000035
:1000F000130101FF93050000232481002326110032
:1001000013040500EF70505383A741B363840700C5
:10011000E780070013050400EF0080399307000013
:100120006388070017850000130505A46F605069F8
:100130006780000017850100130515AEEF70805E23
:100140006FF05FFF130101FC232011002322A100A7
:100150002324B1002326C1002328D100232AE10053
:10016000232CF100232E010123201103232251020D
:1001700023246102232671022328C103232AD103E9
:10018000232CE103232EF103F32220341303200058
:10019000638862021303B0006388620013033000B7
:1001A000638862006F00C002EF0090216F0040037F
:1001B00017850100130505A2EF70C0566F004002BD
:1001C000178501001305059CEF70C0556F004001B5
:1001D00017850100130525A2EF70C0546F0040027F
:1001E000F322103403830200130530003373A3009D
:1001F0006314A3009382220093822200739012342E
:100200008320010003254100832581000326C100CE
:100210008326010103274101832781010328C101AE
:100220008328010283224102032381028323C10226
:10023000032E0103832E4103032F8103832FC10368
:10024000130101047300203073002030000000000F
:10025000130101FE232E1100232C8100130401023F
:100260002326A4FE8327C4FE3307F040938781B37F
:1002700023A0E7009307F0FF138507008320C10147
:1002800003248101130101026780000013000000B4
:10029000130101FE232E1100232C810013040102FF
:1002A00097870100938787992326F4FE6F00C0018A
:1002B0008327C4FE138717002326E4FE03C7070025
:1002C000B707001023A0E7008327C4FE83C70700F9
:1002D000E39007FE13000000130000008320C1011B
:1002E0000324810113010102678000001300000054
:1002F000130101FE232E1100232C8100130401029F
:100300002326A4FE2324B4FE938781B3130780051C
:1003100023A0E7009307F0FF138507008320C101A6
:100320000324810113010102678000001300000013
:10033000130101FE232E1100232C8100130401025E
:100340002326A4FE2324B4FE938781B313078005DC
:1003500023A0E7009307F0FF138507008320C10166
:1003600003248101130101026780000013000000D3
:10037000130101FE232E1100232C8100130401021E
:100380002326A4FE938781B31307800523A0E700EB
:100390009307F0FF138507008320C1010324810127
:1003A0001301010267800000130000001300000029
:1003B000130101FE232E1100232C810013040102DE
:1003C0002326A4FE2324B4FE938781B3130780055C
:1003D00023A0E7009307F0FF138507008320C101E6
:1003E0000324810113010102678000001300000053
:1003F000130101FE232E1100232C8100130401029E
:100400002326A4FE93870500130706002315F4FE98
:10041000930707002314F4FE938781B31307800525
:1004200023A0E7009307F0FF138507008320C10195
:100430000324810113010102678000001300000002
:10044000130101FE232E1100232C8100130401024D
:100450002326A4FE9307F0FF138507008320C10124
:1004600003248101130101026780000013000000D2
:10047000130101FE232E1100232C8100130401021D
:100480002326A4FE2324B4FE2322C4FE938781B333
:100490001307C00023A0E7009307F0FF13850700B0
:1004A0008320C10103248101130101026780000040
:1004B000130101FE232E1100232C810013040102DD
:1004C0002326A4FEB70704800327C4FE23A0E70069
:1004D00073005010130000006FF0DFFF13000000E6
:1004E000130101FE232E1100232C810013040102AD
:1004F0002326A4FE2324B4FE2322C4FE2320D4FEFC
:10050000938781B31307800523A0E7009307F0FFCB
:10051000138507008320C101032481011301010217
:1005200067800000130000001300000013000000AB
:10053000130101FF2326110023248100130401016C
:10054000938781B31307B00023A0E7009307F0FF60
:10055000138507008320C1000324810013010101DA
:10056000678000001300000013000000130000006B
:10057000130101FE232E1100232C8100130401021C
:100580002326A4FE2324B4FE832784FE37270000FD
:1005900023A2E70093070000138507008320C10111
:1005A0000324810113010102678000001300000091
:1005B000130101FE232E1100232C810013040102DC
:1005C0002326A4FE2324B4FE2322C4FE2320D4FE2B
:1005D000938781B31307800523A0E7009307F0FFFB
:1005E000138507008320C101032481011301010247
:1005F00067800000130000001300000013000000DB
:10060000130101FE232E1100232C8100130401028B
:100610002326A4FE938781B31307800523A0E70058
:100620009307F0FF138507008320C1010324810194
:100630001301010267800000130000001300000096
:10064000130101FE232E1100232C8100130401024B
:100650002326A4FE2324B4FE938781B3130780FAD4
:1006600023A0E70093070000138507008320C10142
:1006700003248101130101026780000013000000C0
:10068000130101FF2326110023248100130401011B
:1006900093071000138507008320C1000324810005
:1006A0001301010167800000130000001300000027
:1006B000130101FE232E1100232C810013040102DB
:1006C0002326A4FE2324B4FE938781B3130780FA64
:1006D00023A0E7009307F0FF138507008320C101E3
:1006E0000324810113010102678000001300000050
:1006F000130101FE232E1100232C8100130401029B
:100700002326A4FE8327C4FE9387F7FF93B7170021
:1007100093F7F70F138507008320C101032481019C
:1007200013010102678000001300000013000000A5
:10073000130101FE232E1100232C8100130401025A
:100740002326A4FE2324B4FE938781B313076001FC
:1007500023A0E7009307F0FF138507008320C10162
:1007600003248101130101026780000013000000CF
:10077000130101FE232E1100232C8100130401021A
:100780002326A4FE2324B4FE938781B31307F0012C
:1007900023A0E7009307F0FF138507008320C10122
:1007A000032481011301010267800000130000008F
:1007B000130101FE232E1100232C810013040102DA
:1007C0002326A4FE2324B4FE2322C4FE93070000A4
:1007D000138507008320C101032481011301010255
:1007E00067800000130000001300000013000000E9
:1007F000130101FE232E1100232C8100130401029A
:100800002326A4FE2324B4FE938781B31307800517
:1008100023A0E7009307F0FF138507008320C101A1
:10082000032481011301010267800000130000000E
:10083000130101FE232E1100232C81001304010259
:100840002326A4FE2324B4FE2322C4FE9307F0FF34
:10085000138507008320C1010324810113010102D4
:100860006780000013000000130000001300000068
:10087000130101FE232E1100232C81001304010219
:100880002326A4FE2324B4FE2322C4FE2320D4FE68
:10089000938781B31307800523A0E7009307F0FF38
:1008A000138507008320C101032481011301010284
:1008B0006780000013000000130000001300000018
:1008C000130101FE232E1100232C810013040102C9
:1008D0002326A4FE2324B4FE2322C4FE9307000093
:1008E000138507008320C101032481011301010244
:1008F00067800000130000001300000013000000D8
:10090000130101FE232E1100232C81001304010288
:100910002326A4FE2324B4FE832784FE3727000069
:1009200023A2E70093070000138507008320C1017D
:1009300003248101130101026780000013000000FD
:10094000130101FE232E1100232C81001304010248
:100950002326A4FE9307F0FF138507008320C1011F
:1009600003248101130101026780000013000000CD
:10097000130101FE232E1100232C81001304010218
:100980002326A4FE9307F0FF138507008320C101EF
:10099000032481011301010267800000130000009D
:1009A000130101FE232E1100232C810013040102E8
:1009B0002326A4FE938781B31307200023A0E7001A
:1009C0009307F0FF138507008320C10103248101F1
:1009D00013010102678000001300000013000000F3
:1009E000130101FE232E1100232C810013040102A8
:1009F0002326A4FE2324B4FE938781B31307800526
:100A000023A0E7009307F0FF138507008320C101AF
:100A1000032481011301010267800000130000001C
:100A2000130101FE232E1100232C81001304010267
:100A30002326A4FE938781B31307A00023A0E70019
:100A40009307F0FF138507008320C1010324810170
:100A50001301010267800000130000001300000072
:100A6000130101FE232E1100232C81001304010227
:100A70002326A4FE2324B4FE2322C4FE938741B779
:100A800083A70700639607021787010013078747AC
:100A900013063000B7C70100938507201305070030
:100AA000EF00105B938741B71307100023A0E70006
:100AB0009787010093870745032644FE832584FE1C
:100AC00013850700EF00D05E832744FE13850700DF
:100AD0008320C1010324810113010102678000000A
:100AE000130101FE232E1100232C810013040102A7
:100AF0002326A4FE938741B00327C4FE23A0E7006A
:100B000093070000138507008320C101032481019E
:100B100013010102678000001300000013000000B1
:100B2000130101FD23261102232481021304010372
:100B3000232EA4FC938741B083A707002326F4FE4D
:100B4000938741B003A707008327C4FD3307F7004D
:100B5000938741B023A0E700938741B083A70700A4
:100B60002324F4FE9307010013870700832784FEE4
:100B700063F4E702032784FE97F702009387874810
:100B8000637CF700938741B0032784FE23A0E7002E
:100B90008327C4FE6F004001938781B31307C00011
:100BA00023A0E7009307F0FF138507008320C1020D
:100BB0000324810213010103678000001300000079
:100BC000130101FC232E1102232C810213040104C2
:100BD000232EA4FC232CB4FC232AC4FC2328D4FCFD
:100BE0002326E4FC2324F4FC232204FD232014FD0B
:100BF000832704FC2326F4FE0327C4FE9307F0405A
:100C00006306F7320327C4FE9307F04063C8E73A50
:100C10000327C4FE9307E0406304F72E0327C4FEB6
:100C20009307E04063CCE7380327C4FE9307904066
:100C3000630AF7320327C4FE9307904063C0E73886
:100C40000327C4FE930720406300F7280327C4FE50
:100C50009307204063C4E7360327C4FE9307104080
:100C60006308F7240327C4FE9307104063C8E734E2
:100C70000327C4FE93070040630AF71C0327C4FE42
:100C80009307004063CCE7320327C4FE9307600D4F
:100C90006308F7200327C4FE9307600D63C0E732A3
:100CA0000327C4FE9307C00A6306F7180327C4FE90
:100CB0009307C00A63C4E7300327C4FE9307900A72
:100CC000630AF72C0327C4FE9307900A63C8E72E34
:100CD0000327C4FE93079009630AF72C0327C4FE79
:100CE0009307900963CCE72C0327C4FE93071008F1
:100CF0006306F7140327C4FE9307100863C0E72CAC
:100D00000327C4FE9307D0056306F70E0327C4FE2E
:100D10009307D00563C4E72A0327C4FE93070005A1
:100D2000630CF71E0327C4FE9307000563C8E7287A
:100D30000327C4FE9307F0046306F7200327C4FECD
:100D40009307F00463CCE7260327C4FE930700044F
:100D50006304F70C0327C4FE9307000463C0E7266F
:100D60000327C4FE9307F003630AF7080327C4FEB2
:100D70009307F00363C4E7240327C4FE9307E0034B
:100D80006306F7100327C4FE9307E00363C8E72256
:100D90000327C4FE930790036304F70E0327C4FEE2
:100DA0009307900363CCE7200327C4FE93078003D7
:100DB000630AF70A0327C4FE9307800363C0E72092
:100DC0000327C4FE930710036308F7100327C4FE2C
:100DD0009307100363C4E71E0327C4FE93071001A3
:100DE0006304F7100327C4FE930700036306F71894
:100DF0006F00C01C0325C4FDEFF08FEB832784FD3B
:100E0000032744FD13060700938507000325C4FD4F
:100E1000EFF01FAB6F00001B832784FD032744FD09
:100E200013060700938507000325C4FDEFF05FC399
:100E30006F004019EFF0DF846F00C018832584FD38
:100E40000325C4FDEFF0DF8E6F00C0178327C4FDBC
:100E5000032644FD832584FD13850700EFF05F9D85
:100E60006F004016832784FD832604FD032644FD7E
:100E7000938507000325C4FDEFF09F9F6F0080144A
:100E80000325C4FDEFF0CFDB6F00C013032644FD44
:100E9000832584FD0325C4FDEFF09F916F00801230
:100EA0008327C4FD13850700EFF09FC36F008011F7
:100EB0008327C4FD032784FD9305070013850700DE
:100EC000EFF01F8B6F0000108327C4FD1385070010
:100ED000EFF01FAD6F00000F8327C4FD13850700DF
:100EE000EFF00FC96F00000E8327C4FD032784FDB8
:100EF0009305070013850700EFF08FF46F00800C57
:100F00008327C4FD032784FD93050700138507008D
:100F1000EFF01F9F6F00000B832784FD9385070070
:100F20000325C4FDEFF0CFE46F00C0098327C4FDA3
:100F3000032784FD9305070013850700EFF05F8BFF
:100F40006F004008832784FD032744FD832604FDAA
:100F500013060700938507000325C4FDEFF04FE556
:100F60006F0040068327C4FD832584FD1385070099
:100F7000EFF00FBC6F000005832784FD832604FD7E
:100F8000032644FD938507000325C4FDEFF04FD5EC
:100F90006F0040038327C4FD032784FD93050700EA
:100FA00013850700EFF0CFF06F00C0018327C4FD69
:100FB00013850700EFF0DF9B6F00C000EFF04FAD2F
:100FC00013000000130000008320C10303248103E9
:100FD00013010104678000001300000013000000EB
:100FE000130101FF232611002324810013040101B2
:100FF00093070000138507008320C10003248100AC
:1010000013010101678000001300000013000000BD
:10101000130101FF23261100232481001304010181
:1010200093070000138507008320C100032481007B
:10103000130101016780000013000000130000008D
:10104000130101FF23261100232481001304010151
:1010500093070000138507008320C100032481004B
:10106000130101016780000013000000130000005D
:10107000130101FF23261100232481001304010121
:1010800093070000138507008320C100032481001B
:10109000130101016780000013000000130000002D
:1010A000130101FF232611002324810013040101F1
:1010B00093070000138507008320C10003248100EB
:1010C00013010101678000001300000013000000FD
:1010D000130101FF232611002324810013040101C1
:1010E00093070000138507008320C10003248100BB
:1010F00013010101678000001300000013000000CD
:10110000130101FF23261100232481001304010190
:1011100093070000138507008320C100032481008A
:10112000130101016780000013000000130000009C
:10113000130101FF23261100232481001304010160
:1011400093070000138507008320C100032481005A
:10115000130101016780000013000000130000006C
:10116000130101FF23261100232481001304010130
:1011700093070000138507008320C100032481002A
:10118000130101016780000013000000130000003C
:10119000130101FF23261100232481001304010100
:1011A00093070000138507008320C10003248100FA
:1011B000130101016780000013000000130000000C
:1011C000130101FF232611002324810013040101D0
:1011D00093070000138507008320C10003248100CA
:1011E00013010101678000001300000013000000DC
:1011F000130101FF232611002324810013040101A0
:1012000093070000138507008320C1000324810099
:1012100013010101678000001300000013000000AB
:10122000130101FF2326110023248100130401016F
:1012300093070000138507008320C1000324810069
:10124000130101016780000013000000130000007B
:10125000130101FF2326110023248100130401013F
:1012600093070000138507008320C1000324810039
:10127000130101016780000013000000130000004B
:10128000130101FF2326110023248100130401010F
:1012900093070000138507008320C1000324810009
:1012A000130101016780000013000000130000001B
:1012B000130101FF232611002324810013040101DF
:1012C00093070000138507008320C10003248100D9
:1012D00013010101678000001300000013000000EB
:1012E000130101FF232611002324810013040101AF
:1012F00093070000138507008320C10003248100A9
:1013000013010101678000001300000013000000BA
:10131000130101FF2326110023248100130401017E
:1013200093070000138507008320C1000324810078
:10133000130101016780000013000000130000008A
:10134000130101FF2326110023248100130401014E
:1013500093070000138507008320C1000324810048
:10136000130101016780000013000000130000005A
:10137000130101FF2326110023248100130401011E
:1013800093070000138507008320C1000324810018
:10139000130101016780000013000000130000002A
:1013A000130101FF232611002324810013040101EE
:1013B00093070000138507008320C10003248100E8
:1013C00013010101678000001300000013000000FA
:1013D000130101FF232611002324810013040101BE
:1013E00093070000138507008320C10003248100B8
:1013F00013010101678000001300000013000000CA
:10140000130101FF2326110023248100130401018D
:1014100093070000138507008320C1000324810087
:101420001301010167800000130000001300000099
:10143000130101FF2326110023248100130401015D
:1014400093070000138507008320C1000324810057
:101450001301010167800000130000001300000069
:10146000130101FF2326110023248100130401012D
:1014700093070000138507008320C1000324810027
:101480001301010167800000130000001300000039
:10149000130101FF232611002324810013040101FD
:1014A00093070000138507008320C10003248100F7
:1014B0001301010167800000130000001300000009
:1014C000130101FF232611002324810013040101CD
:1014D00093070000138507008320C10003248100C7
:1014E00013010101678000001300000013000000D9
:1014F000130101FF2326110023248100130401019D
:1015000093070000138507008320C1000324810096
:1015100013010101678000001300000013000000A8
:10152000130101FF2326110023248100130401016C
:1015300093070000138507008320C1000324810066
:101540001301010167800000130000001300000078
:10155000130101FF2326110023248100130401013C
:1015600093070000138507008320C1000324810036
:101570001301010167800000130000001300000048
:10158000130101FF2326110023248100130401010C
:1015900093070000138507008320C1000324810006
:1015A0001301010167800000130000001300000018
:1015B000130101FF232611002324810013040101DC
:1015C00093070000138507008320C10003248100D6
:1015D000130101016780000000000000000000000E
:1015E000130101FC232E1102232C81021304010498
:1015F0002326A4FCF32740F12326F4FE8327C4FE10
:101600002320F4FE232204FE832704FE032744FE46
:10161000B3E7E700639A07063707000C8327C4FC8B
:1016200093D65700B717000093870780B387F6005B
:1016300093972700B307F70083A70700232EF4FC36
:101640008327C4FC93F7F70113071000B317F700C3
:101650000327C4FDB367F700232EF4FC3707000C03
:101660008327C4FC93D65700B717000093870780E1
:10167000B387F60093972700B307F7000327C4FD4D
:1016800023A0E7006F00800013000000130000009B
:101690008320C10303248103130101046780000038
:1016A000130101FC232E1102232C810213040104D7
:1016B0002326A4FCF32740F12326F4FE8327C4FE4F
:1016C0002320F4FE232204FE832704FE032744FE86
:1016D000B3E7E700639C07063707000C8327C4FCC9
:1016E00093D65700B717000093870780B387F6009B
:1016F00093972700B307F70083A70700232EF4FC76
:101700008327C4FC93F7F70113071000B317F70002
:1017100093C7F7FF0327C4FDB377F700232EF4FC2C
:101720003707000C8327C4FC93D65700B717000077
:1017300093870780B387F60093972700B307F700D6
:101740000327C4FD23A0E7006F0080001300000002
:10175000130000008320C10303248103130101044B
:101760006780000013000000130000001300000059
:10177000130101FE232E1100232C8100130401020A
:101780002326A4FE2324B4FE93070600A303F4FE3D
:101790008327C4FE83A70700238207008327C4FE94
:1017A00083A70700238407008327C4FE83A70700BD
:1017B000130770FC2384E7008327C4FE83A7070078
:1017C00023880700832584FE0325C4FEEF00501CF8
:1017D0008327C4FE83A70700034774FE2386E70020
:1017E0008327C4FE032784FE23A2E7008327C4FEC9
:1017F000034774FE2384E7008327C4FE23A8070061
:101800008327C4FE23A607008327C4FE23AA07005C
:101810008327C4FE23AE07008327C4FE23A007024C
:101820008327C4FE23AC07008327C4FE23A207023C
:101830008327C4FEA3840700130000008320C10196
:1018400003248101130101026780000013000000DE
:10185000130101FE232E1100232C81001304010229
:101860002326A4FE2324B4FE93070600A303F4FE5C
:10187000834774FE13860700832584FE0325C4FE78
:10188000EFF01FEF8327C4FE17170000130787B27E
:1018900023A0E702130000008320C101032481017B
:1018A0001301010267800000130000001300000014
:1018B000130101FD232611022324810213040103D5
:1018C000232EA4FC232CB4FC232AC4FC232604FED0
:1018D000232204FE832784FD638E070A832744FDA9
:1018E000638A070A8327C4FD83A7070083C74701CC
:1018F000A305F4FE232204FE6F000001832744FEAB
:10190000938717002322F4FE032744FE9307100356
:10191000E3F6E7FE8347B4FE93F70702E38407FC90
:10192000232204FE6F000001832744FE93871700E3
:101930002322F4FE032744FE93071003E3F6E7FE99
:10194000032784FD8327C4FE3307F7008327C4FDE4
:1019500083A70700034707002380E7008327C4FE0F
:10196000938717002326F4FE232204FE6F00000154
:10197000832744FE938717002322F4FE032744FEA7
:1019800093071003E3F6E7FE0327C4FE832744FD15
:10199000E36AF7F4130000008320C10203248102EC
:1019A0001301010367800000130000001300000012
:1019B000130101FD232611022324810213040103D4
:1019C000232EA4FC232CB4FC232604FE832784FDB1
:1019D000638C0706032784FD8327C4FEB307F70043
:1019E00083C70700A305F4FE6F0080058327C4FDAD
:1019F00083A7070083C7470193F7F70F2305F4FE7A
:101A00008347A4FE93F7F70F93F70702E38007FEDF
:101A10008327C4FD83A707000347B4FE2380E700A4
:101A20008327C4FE938717002326F4FE032784FD33
:101A30008327C4FEB307F70083C70700A305F4FE9E
:101A40008347B4FEE39407FA130000008320C10229
:101A500003248102130101036780000013000000CA
:101A6000130101FE232E1100232C81001304010217
:101A70002326A4FE2324B4FE2322C4FE832744FE8F
:101A800063840706832784FE638007068327C4FEDA
:101A9000032784FE23A6E7008327C4FE032744FE12
:101AA00023A8E7008327C4FE23AA07008327C4FED8
:101AB000171700001307079023A0E7028327C4FE2F
:101AC00083A7070083C7470013F7F70F8327C4FED8
:101AD00083A70700136727001377F70F2382E70018
:101AE0000325C4FEEF00D021130000008320C101B4
:101AF000032481011301010267800000130000002C
:101B0000130101FD23261102232481021304010382
:101B1000232EA4FCA30704FE230704FE8327C4FD91
:101B200083A7070083C747012307F4FE8327C4FD6B
:101B300083C797000347E4FEB3E7E70013F7F70F07
:101B40008327C4FDA384E7008327C4FD83A707017F
:101B5000639C07008347E4FE93F70704638607004E
:101B600093071000A307F4FE8307F4FE1385070014
:101B70008320C10203248102130101036780000056
:101B8000130101FD23261102232481021304010302
:101B9000232EA4FC232CB4FC232AC4FC232604FEFD
:101BA000A30504FE832784FD6386070A832744FD7B
:101BB0006382070A8327C4FD83A7070083C7470101
:101BC000A305F4FE8327C4FD83C797000347B4FE33
:101BD000B3E7E70013F7F70F8327C4FDA384E700FB
:101BE0006F00C0058327C4FD03A70700832684FD7B
:101BF0008327C4FEB387F600034707001377F70F68
:101C00002380E7008327C4FE938717002326F4FE72
:101C10008327C4FD83A7070083C74701A305F4FEFC
:101C20008327C4FD83C797000347B4FEB3E7E700EB
:101C300013F7F70F8327C4FDA384E7008347B4FE9F
:101C400093F71700638807000327C4FE832744FD2A
:101C5000E36AF7F88327C4FE138507008320C102D7
:101C600003248102130101036780000013000000B8
:101C7000130101FE232E1100232C81001304010205
:101C80002326A4FE938705002315F4FE0325C4FE36
:101C9000EF0010070357A4FEB70701009387F7FF73
:101CA0006308F7048327C4FE83A7070083C74700A0
:101CB00093F7F70F13978701135787418357A4FEB4
:101CC0009397870193D7874193F7F70093978701FD
:101CD00093D78741B367F70013978701135787415D
:101CE0008327C4FE83A707001377F70F2382E7003B
:101CF000130000008320C1010324810113010102AC
:101D000067800000130000001300000013000000B3
:101D1000130101FE232E1100232C81001304010264
:101D20002326A4FE2324B4FE2322C4FE832784FE9C
:101D3000638A0708032744FE9307000C63E4E7085F
:101D40008327C4FE032784FE23AEE7008327C4FE57
:101D500083A7070083C7870093F7F70F939787013F
:101D600093D7874193F7F703139787011357874159
:101D7000832744FE9397870193D78741B367F70082
:101D800013978701135787418327C4FE83A7070052
:101D90001377F70F2384E7008327C4FE83A7070088
:101DA00083C7470013F7F70F8327C4FE83A70700F5
:101DB000136717001377F70F2382E7000325C4FE8C
:101DC000EF000074130000008320C101032481018F
:101DD00013010102678000001300000013000000DF
:101DE000130101FE232E1100232C81001304010294
:101DF0002326A4FE2324B4FE832784FE63860704DF
:101E00008327C4FE032784FE23A0E7028327C4FEA2
:101E100023A607008327C4FE23A807008327C4FE48
:101E200083A7070083C7470013F7F70F8327C4FE74
:101E300083A70700136727001377F70F2382E700B4
:101E40000325C4FEEF00C06B130000008320C10116
:101E500003248101130101026780000013000000C8
:101E6000130101FE232E1100232C81001304010213
:101E70002326A4FE2324B4FE832784FE638E070258
:101E80008327C4FE032784FE23A2E7028327C4FE20
:101E900083A7070083C7470013F7F70F8327C4FE04
:101EA00083A70700136787001377F70F2382E700E4
:101EB0000325C4FEEF00C064130000008320C101AD
:101EC0000324810113010102678000001300000058
:101ED000130101FD232611022324810213040103AF
:101EE000232EA4FC232CB4FC232AC4FCA30304FE4D
:101EF000232604FE832784FD638E0708832744FD81
:101F0000638A07088327C4FD83A7070083C74701A7
:101F1000A303F4FE8327C4FD83C79700034774FE21
:101F2000B3E7E70013F7F70F8327C4FDA384E700A7
:101F3000834774FE93F70702638E0704930700013B
:101F40002324F4FE032744FD9307F00063E6E70033
:101F5000832744FD2324F4FE232604FE6F00C002E1
:101F6000032784FD8327C4FE3307F7008327C4FDBE
:101F700083A70700034707002380E7008327C4FEE9
:101F8000938717002326F4FE0327C4FE832784FECD
:101F9000E368F7FC8327C4FE138507008320C10292
:101FA0000324810213010103678000001300000075
:101FB000130101FD232611022324810213040103CE
:101FC000232EA4FC9307F0FFA307F4FE8327C4FD90
:101FD00083A7070083C7470113F7F70F8327C4FDC3
:101FE00083C79700B367F70013F7F70F8327C4FD84
:101FF000A384E7008327C4FD83C7970093F7E7F91D
:10200000A307F4FE8327C4FDA38407008347F4FEDF
:10201000138507008320C1020324810213010103F9
:102020006780000013000000130000001300000090
:10203000130101FD2326110223248102130401034D
:10204000232EA4FC9307F0FFA307F4FE8327C4FD0F
:1020500083A7070083C78701A307F4FE8347F4FE25
:10206000138507008320C1020324810213010103A9
:102070006780000013000000130000001300000040
:10208000130101FD232611022324810213040103FD
:10209000232EA4FCA30704FE8327C4FD83A7070007
:1020A00083C74701A307F4FE8327C4FD83C79700B6
:1020B0000347F4FEB3E7E70013F7F70F8327C4FDE8
:1020C000A384E7008347F4FE93F70706A307F4FE13
:1020D0008347F4FE138507008320C1020324810295
:1020E00013010103678000001300000013000000CB
:1020F000130101FE232E1100232C81001304010281
:102100002326A4FE8327C4FE83A7070083C7C70036
:1021100013F7F70F8327C4FE83A70700136707048D
:102120001377F70F2386E700130000008320C10117
:1021300003248101130101026780000013000000E5
:10214000130101FE232E1100232C81001304010230
:102150002326A4FE8327C4FE83A7070083C7C700E6
:1021600013F7F70F8327C4FE83A707001377F7FB46
:102170001377F70F2386E700130000008320C101C7
:102180000324810113010102678000001300000095
:10219000130101FC232E1102232C810213040104DC
:1021A0002326A4FC2324B4FC8326C4FC032684FC3D
:1021B00023A2C60037666202130606A0930600003B
:1021C0002324C4FE2326D4FE832684FE93D6D60180
:1021D0000326C4FE93173600B387F600832684FED9
:1021E00013973600832684FC1388060093080000AA
:1021F000130608009386080013050700938507005F
:10220000EF30104A13070500938705002322E4FEF0
:10221000832744FE93D717002320F4FE832704FE70
:1022200093D76700232EF4FC0327C4FDB7070100F2
:102230006376F7048327C4FC83A70700130700F81D
:102240002386E7008327C4FD13D787008327C4FCB8
:1022500083A707001377F70F2382E7008327C4FCC7
:1022600083A707000327C4FD1377F70F2380E70038
:102270008327C4FC83A70700238607001300000000
:102280008320C1030324810313010104678000003C
:10229000130101FD232611022324810213040103EB
:1022A000232EA4FC8327C4FD83A7070083C78700D0
:1022B00093F7F70F93F7F700A307F4FE8347F4FEB5
:1022C0001307C000638EE7061307C0006348F70AD0
:1022D000130760006386E708130760006340F70A8E
:1022E00013074000638EE704130740006348F708B4
:1022F00063880700130720006384E7026F0000086B
:102300008327C4FD83A74702638E07068327C4FD86
:1023100083A747020325C4FDE78007006F008006FE
:102320008327C4FD83A70702638207068327C4FDB2
:1023300083A707020325C4FDE78007006F0000059F
:102340008327C4FD83A7C701638607048327C4FDD1
:1023500083A7C7010325C4FDE78007006F00800342
:102360008327C4FD83A78701638A07008327C4FDF1
:1023700083A787010325C4FDE78007001300000041
:102380006F008001130000006F00000113000000C7
:102390006F00800013000000130000008320C102C2
:1023A0000324810213010103678000001300000071
:1023B000130101FD232611022324810213040103CA
:1023C000232EA4FC8327C4FD83A7C700638A0710BC
:1023D0008327C4FD83A70701638407108327C4FDF7
:1023E00083A7070083C74701A303F4FE8327C4FD27
:1023F00083C79700034774FEB3E7E70013F7F70FAF
:102400008327C4FDA384E700834774FE93F7070284
:1024100063880708930700012324F4FE8327C4FD83
:1024200003A707018327C4FD83A74701B307F7402C
:102430002320F4FE032704FE9307F00063E6E70081
:10244000832704FE2324F4FE232604FE6F00800469
:102450008327C4FD03A7C7008327C4FD83A74701C3
:102460003307F7008327C4FD83A70700034707004E
:102470002380E7008327C4FD83A747011387170044
:102480008327C4FD23AAE7008327C4FE9387170090
:102490002326F4FE0327C4FE832784FEE36AF7FAAB
:1024A0008327C4FD03A747018327C4FD83A7070132
:1024B0006318F7028327C4FD23A807008327C4FD00
:1024C00083A7070083C7470013F7F70F8327C4FDCF
:1024D00083A707001377D7FF1377F70F2382E7004F
:1024E000130000008320C1020324810213010103B1
:1024F00067800000130000001300000013000000BC
:10250000130101FD23261102232481021304010378
:10251000232EA4FC232604FE0327C4FD9777010085
:102520009387479E6316F700930710002326F4FE57
:102530000325C4FEEFF0CF8A130000008320C10200
:1025400003248102130101036780000013000000CF
:10255000130101FD23261102232481021304010328
:10256000232EA4FC232604FE0327C4FD9777010035
:10257000938747996316F700930710002326F4FE0C
:102580000325C4FEEFF0CF91130000008320C102A9
:10259000032481021301010367800000130000007F
:1025A000130101FD232611022324810213040103D8
:1025B000232EA4FC0327C4FD93075000630EF708E5
:1025C0000327C4FD9307500063C0E70A0327C4FD37
:1025D00093074000630AF7060327C4FD93074000F2
:1025E00063C4E7080327C4FD930730006306F704BC
:1025F0000327C4FD9307300063C8E7060327C4FD23
:1026000093071000630AF7000327C4FD9307200017
:10261000630CF7006F004005938781B283A7070022
:102620002326F4FE6F00C0049387C1B283A707007E
:102630002326F4FE6F00C003938781B083A70700B1
:102640002326F4FE6F00C0029387C1B083A7070062
:102650002326F4FE6F00C001938701B383A7070010
:102660002326F4FE6F00C000232604FE13000000A2
:102670008327C4FE138507008320C102032481023F
:102680001301010367800000130000001300000025
:10269000130101FD232611022324810213040103E7
:1026A0009307050013870500A30FF4FC93070700A9
:1026B000231EF4FCA30704FEA30604FE230704FE66
:1026C000A30704FE6F00C00B8357C4FD1397870157
:1026D000135787418307F4FDB347F70093978701AA
:1026E00093D7874193F7F70F93F71700A306F4FEEC
:1026F0008347F4FD93D71700A30FF4FC0347D4FEE0
:10270000930710006314F7028357C4FD1387070073
:10271000B747000093872700B347F700231EF4FC58
:10272000930710002307F4FE6F008000230704FEC8
:102730008357C4FD93D71700231EF4FC8347E4FEA0
:10274000638E07008357C4FD13870700B787FFFF19
:10275000B367F700231EF4FC6F00C0018357C4FD6C
:1027600013870700B78700009387F7FFB377F70059
:10277000231EF4FC8347F4FE93871700A307F4FE9F
:102780000347F4FE93077000E3F0E7F48357C4FDBA
:10279000138507008320C102032481021301010372
:1027A0006780000013000000130000001300000009
:1027B000130101FE232E1100232C810013040102BA
:1027C00093070500138705002317F4FE93070700FE
:1027D0002316F4FE8357E4FE93F7F70F0357C4FE66
:1027E0009305070013850700EFF09FEA93070500A4
:1027F0002316F4FE8357E4FE93D7870093970701CF
:1028000093D7070193F7F70F0357C4FE930507000B
:1028100013850700EFF0DFE7930705002316F4FEAA
:102820008357C4FE138507008320C101032481015F
:102830001301010267800000130000001300000074
:10284000130101FE232E1100232C81001304010229
:102850002326A4FE938705002315F4FE8327C4FED8
:102860009397070193D707410357A4FE93050700E9
:1028700013850700EF00C004930705002315F4FE3D
:102880008327C4FE93D707019397070193D7074186
:102890000357A4FE9305070013850700EF004002CD
:1028A000930705002315F4FE8357A4FE1385070044
:1028B0008320C1010324810113010102678000000C
:1028C000130101FE232E1100232C810013040102A9
:1028D00093070500138705002317F4FE93070700ED
:1028E0002316F4FE8357E4FE0357C4FE9305070046
:1028F00013850700EFF0DFEB930705001385070052
:102900008320C101032481011301010267800000BB
:10291000130101FE232E1100232C81001304010258
:10292000A30704FE8347F4FE6388070017550100E0
:1029300013050533EF40105F8347F4FE138507004E
:102940008320C1010324810113010102678000007B
:102950001300000013000000000000000000000051
:10296000130101F92326110623248106130401070C
:10297000232EA4F8232CB4F8930506001386060032
:10298000930607001387070093870500231BF4F8BD
:1029900093070600231AF4F8938706002319F4F826
:1029A000930707002318F4F8832784F92320F4FA07
:1029B000232604FE6F00C0040327C4FE930744FAD5
:1029C00013172700B307F70023A007000327C4FE4F
:1029D000930744FA13172700B307F70003A707006C
:1029E0008326C4FE930744FC93962600B387F60023
:1029F00023A0E7008327C4FE938717002326F4FE55
:102A00000327C4FE93077000E3F8E7FA6F00800421
:102A1000130744FA930704FA930507001385070088
:102A2000EF00004E2322A4FE032744FE930744FC3C
:102A300013172700B307F70083A7070013871700B2
:102A4000832644FE930744FC93962600B387F60042
:102A500023A0E700832704FA83C70700E39A07FA55
:102A6000832784F92320F4FA6F004004832704FAB3
:102A700003C707009307C0026302F702832704FA23
:102A800083C60700835764F913F7F70F832704FA07
:102A900033C7E6001377F70F2380E700032704FA14
:102AA000831724F9B307F7002320F4FA032784F9E6
:102AB0008327C4F93307F700832704FAE3E8E7FA2A
:102AC000832784F92320F4FA6F008004130744FA63
:102AD000930704FA9305070013850700EF004042AF
:102AE0002324A4FE032784FE930744FC1317270026
:102AF000B307F70083A7070013871700832684FE18
:102B0000930744FC93962600B387F60023A0E700C2
:102B1000832704FA83C70700E39A07FA832784F917
:102B20002320F4FA6F004004832704FA03C7070048
:102B30009307C0026302F702832704FA83C60700E3
:102B4000835744F913F7F70F832704FA33C7E600D6
:102B50001377F70F2380E700032704FA831724F97C
:102B6000B307F7002320F4FA032784F98327C4F975
:102B70003307F700832704FAE3E8E7FA232604FE85
:102B80006F0080060327C4FE930744FC1317270039
:102B9000B307F70083A70700035704F9930507005D
:102BA00013850700EFF0DFC9930705002318F4F839
:102BB0000327C4FE930744FA13172700B307F7004F
:102BC00083A70700035704F993050700138507003F
:102BD000EFF01FC7930705002318F4F88327C4FEFE
:102BE000938717002326F4FE0327C4FE9307700083
:102BF000E3FAE7F8835704F9138507008320C10639
:102C00000324810613010107678000001300000000
:102C1000130101FD23261102232481021304010361
:102C2000232EA4FC93870500232AC4FC231DF4FC57
:102C3000232604FE232404FE232004FE8327C4FD50
:102C40009387F7FF232EF4FC232404FE6F00C01E9D
:102C5000832784FE638E0706232204FE6F00800311
:102C6000032704FE832744FE3307F7008326C4FEB0
:102C7000832744FEB387F600832644FDB387F6001E
:102C8000034707002380E700832744FE938717004C
:102C90002322F4FE032744FE832784FEE362F7FC2D
:102CA0000327C4FE832744FEB307F700032744FD30
:102CB000B307F7001307C0022380E700032784FE51
:102CC0008327C4FEB307F700938717002326F4FE7B
:102CD0008317A4FD9397070193D7070193871700E4
:102CE0009397070193D70701231DF4FC8357A4FD95
:102CF00093F7770013077000638EE70E13077000D9
:102D0000634AF712130760006346F7121307500077
:102D100063D2E70A130720006346F70063DC07006D
:102D20006F0040111387D7FF9307100063E4E7108B
:102D30006F0040048317A4FD93D737409397070192
:102D400093D707419397070193D7070193F737006C
:102D5000176701001307871D93972700B307F70034
:102D600083A707002320F4FE930740002324F4FEEA
:102D70006F00800C8317A4FD93D73740939707010A
:102D800093D707419397070193D7070193F737002C
:102D9000176701001307871A93972700B307F700F7
:102DA00083A707002320F4FE930780002324F4FE6A
:102DB0006F0080088317A4FD93D7374093970701CE
:102DC00093D707419397070193D7070193F73700EC
:102DD000176701001307871793972700B307F700BA
:102DE00083A707002320F4FE930780002324F4FE2A
:102DF0006F0080048317A4FD93D737409397070192
:102E000093D707419397070193D7070193F73700AB
:102E1000176701001307871493972700B307F7007C
:102E200083A707002320F4FE930780002324F4FEE9
:102E30006F008000130000000327C4FE832784FE78
:102E4000B307F700938717000327C4FDE3E2E7E029
:102E50008327C4FD93871700232EF4FC6F00000224
:102E6000032744FD8327C4FEB307F7002380070030
:102E70008327C4FE938717002326F4FE0327C4FE8E
:102E80008327C4FDE36EF7FC13000000130000006D
:102E90008320C10203248102130101036780000023
:102EA000130101FD232611022324810213040103CF
:102EB00093070500A30FF4FC8347F4FD93B70703C2
:102EC00093B7170013F7F70F8347F4FD93B7A703E2
:102ED00093F7F70FB377F70093F7F70FA307F4FE15
:102EE0008347F4FE138507008320C1020324810277
:102EF00013010103678000001300000013000000AD
:102F0000130101FD2326110223248102130401036E
:102F1000232EA4FC232CB4FC8327C4FD83A7070025
:102F20002326F4FE232404FE6F00003A8327C4FE08
:102F300083C70700A303F4FE034774FE9307C00290
:102F4000631AF7008327C4FE938717002326F4FE35
:102F50006F000039032784FE930770006308F73081
:102F6000032784FE9307700063ECE732032784FE97
:102F7000930760006302F72A032784FE930760002B
:102F800063E0E732032784FE930750006304F71CD5
:102F9000032784FE9307500063E4E730032784FE91
:102FA000930740006308F714032784FE930740004B
:102FB00063E8E72E032784FE930730006302F720BF
:102FC000032784FE9307300063ECE72C832784FEFD
:102FD000638A0700032784FE93072000630CF70829
:102FE0006F00002C834774FE13850700EFF05FEB42
:102FF0009307050063880700930740002324F4FE2D
:103000006F00C005034774FE9307B0026308F70022
:10301000034774FE9307D0026318F700930720005C
:103020002324F4FE6F008003034774FE9307E0023D
:103030006318F700930750002324F4FE6F0000028A
:10304000930710002324F4FE832784FD9387470011
:1030500003A707001307170023A0E700832784FDB9
:1030600083A7070013871700832784FD23A0E700A9
:103070006F00C024834774FE13850700EFF05FE202
:103080009307050063820702930740002324F4FEA0
:10309000832784FD9387870003A707001307170082
:1030A00023A0E7006F008021034774FE9307E0022E
:1030B0006312F702930750002324F4FE832784FD54
:1030C0009387870003A707001307170023A0E700D3
:1030D0006F00C01E930710002324F4FE832784FD95
:1030E0009387870003A707001307170023A0E700B3
:1030F0006F00C01C034774FE9307E0026312F702DF
:10310000930750002324F4FE832784FD938707014F
:1031100003A707001307170023A0E7006F00C018DC
:10312000834774FE13850700EFF09FD793070500D0
:10313000639C0716930710002324F4FE832784FD65
:103140009387070103A707001307170023A0E700D1
:103150006F008015034774FE930750046308F7005F
:10316000034774FE930750066312F702930730007B
:103170002324F4FE832784FD9387470103A70700D8
:103180001307170023A0E7006F008012834774FE27
:1031900013850700EFF0DFD093070500639A07104F
:1031A000930710002324F4FE832784FD93874701AF
:1031B00003A707001307170023A0E7006F00400FC5
:1031C000034774FE9307B0026308F700034774FED9
:1031D0009307D0026312F702930760002324F4FEE2
:1031E000832784FD9387C70003A7070013071700F1
:1031F00023A0E7006F00800C930710002324F4FE47
:10320000832784FD9387C70003A7070013071700D0
:1032100023A0E7006F00800A834774FE1385070030
:10322000EFF01FC893070500638207029307700041
:103230002324F4FE832784FD9387870103A70700D7
:103240001307170023A0E7006F0040079307100043
:103250002324F4FE832784FD9387870103A70700B7
:103260001307170023A0E7006F004005834774FE93
:1032700013850700EFF0DFC293070500639E070286
:10328000930710002324F4FE832784FD93874700CF
:1032900003A707001307170023A0E7006F00C00172
:1032A000130000006F008001130000006F00000198
:1032B000130000006F008000130000008327C4FE8D
:1032C000938717002326F4FE8327C4FE83C70700D5
:1032D00063880700032784FE93071000E318F7C4F0
:1032E0008327C4FD0327C4FE23A0E700832784FEB1
:1032F000138507008320C102032481021301010307
:1033000067800000000000000000000000000000D6
:10331000130101FD2326110223248102130401035A
:10332000232EA4FC232CB4FC8327C4FD83D70700E1
:103330002315F4FE8317A4FE93D7774093970701D4
:1033400093D7074193F7F70F93F71700A304F4FE01
:10335000834794FE638C07008357A4FE93F7F70717
:103360009397070193D707416F00C0188357A4FEB6
:1033700093F777002313F4FE8317A4FE93D7374007
:103380009397070193D7074193F7F7002316F4FEAD
:103390008357C4FE939747009397070193D707413C
:1033A0000357C4FEB3E7E7002316F4FE831764FE59
:1033B00063880700130710006388E7066F00400B5F
:1033C0000317C4FE9307100263C6E70093072002A9
:1033D0002316F4FE832784FD03A58701832784FD3C
:1033E00083A54701832784FD03960700832784FD77
:1033F00083962700832784FD83D787030317C4FEA2
:10340000EFF00FD6930705002317F4FE832784FD02
:1034100083D7E703639407060357E4FE832784FDFD
:10342000239FE7026F008005832784FD13878702AF
:10343000832784FD83D687038317C4FE1386060083
:103440009385070013050700EF00905893070500C8
:103450002317F4FE832784FD83D7C70363940702F1
:103460000357E4FE832784FD239EE7026F0080015B
:103470008357A4FE2317F4FE6F0000011300000021
:103480006F008000130000000357E4FE832784FDD3
:1034900083D787039385070013050700EFF04FB12B
:1034A0009307050013870700832784FD239CE70209
:1034B0008357E4FE93F7F7072317F4FE8357A4FE20
:1034C00093F707F09397070193D7074193E707080E
:1034D0009397070193D707410357E4FEB3E7E7004B
:1034E00013970701135707418327C4FD2390E70073
:1034F0008317E4FE138507008320C10203248102A1
:103500001301010367800000130000001300000096
:10351000130101FD23261102232481021304010358
:10352000232EA4FC232CB4FC232AC4FC8327C4FD33
:10353000832544FD13850700EFF09FDD9307050009
:103540002317F4FE832784FD832544FD138507009C
:10355000EFF01FDC930705002316F4FE0317E4FECB
:103560008317C4FEB307F740138507008320C10209
:10357000032481021301010367800000130000008F
:10358000130101FE232E1100232C810013040102DC
:103590002326A4FE2324B4FE2322C4FE832744FE54
:1035A000639E07088327C4FE8397070093F707F0FD
:1035B00013970701135707418327C4FE839707001A
:1035C0009397070193D7070193D787009397070134
:1035D00093D707019397070193D70741B367F70084
:1035E00013970701135707418327C4FE2390E70071
:1035F000832784FE8397070093F707F0139707014B
:1036000013570741832784FE839707009397070189
:1036100093D7070193D787009397070193D70701A3
:103620009397070193D70741B367F70013970701F3
:1036300013570741832784FE2390E7008327C4FEA6
:103640008397270013870700832784FE839727002B
:10365000B307F740138507008320C10103248101CC
:103660001301010267800000130000001300000036
:10367000130101FE232E1100232C810013040102EB
:103680002326A4FE2324B4FE832784FE0397070089
:103690008327C4FE2390E700832784FE0397270037
:1036A0008327C4FE2391E700130000008320C1019B
:1036B0000324810113010102678000001300000050
:1036C000130101FC232E1102232C81021304010497
:1036D0002326A4FC938705002315F4FC231704FE7E
:1036E000231604FE231504FE8327C4FC83A7470288
:1036F0002322F4FE8327C4FC83D74700231EF4FC57
:103700008357A4FC2319F4FC231F04FC6F008017CB
:103710008357E4FD93F7F70F9397070193D707417A
:103720002318F4FC930704FD93850700032544FE4A
:10373000EF000077232AA4FC032544FEEF0050018C
:103740002322A4FE832744FD639807048357A4FE25
:10375000938717002315F4FE832744FE83A70700F1
:1037600083A747008397070093D787409397070164
:1037700093D707419397070193D7070193F7170052
:103780009397070193D707010357E4FEB387E70038
:103790002317F4FE6F00800A8357C4FE9387170037
:1037A0002316F4FE832744FD83A747008397070071
:1037B0009397070193D7070193F71700638E0702CA
:1037C000832744FD83A747008397070093D797403B
:1037D0009397070193D707419397070193D7070161
:1037E00093F717009397070193D707010357E4FE58
:1037F000B387E7002317F4FE832744FD83A7070060
:10380000638E0702832744FD83A707002320F4FE6D
:10381000832704FE03A70700832744FD23A0E700B6
:10382000832744FE03A70700832704FE23A0E700A5
:10383000832744FE032704FE23A0E700831724FD0B
:1038400063C40702831724FD9397070193D70701E9
:10385000938717009397070193D707019397070161
:1038600093D707412319F4FC8317E4FD93970701CD
:1038700093D70701938717009397070193D7070101
:10388000231FF4FC0317E4FD8317C4FDE342F7E8AC
:103890008357C4FE939727009397070193D7070197
:1038A0000357A4FEB387E7409397070193D7070117
:1038B0000357E4FEB387E7002317F4FE8317A4FC45
:1038C000635EF0000326C4FC97050000938585C461
:1038D000032544FEEF00C06E2322A4FE832744FE8E
:1038E00083A7070013850700EF00804B232CA4FC5F
:1038F000930704FD93850700032544FEEF00405A1B
:103900002320A4FE832704FE63920704832744FE3A
:1039100083A707002320F4FE6F004003832744FEA3
:1039200083A74700839707000357E4FE930507002A
:1039300013850700EFE0DFF8930705002317F4FE77
:10394000832704FE83A707002320F4FE832704FEB9
:10395000E39607FC832744FE83A7070093850700AF
:10396000032584FDEF00C04B232CA4FC13060000AC
:1039700097050000938505C1032544FEEF004064D0
:103980002322A4FE832744FE83A707002320F4FEFE
:103990006F004003832744FE83A7470083970700F7
:1039A0000357E4FE9305070013850700EFE05FF17E
:1039B000930705002317F4FE832704FE83A707005F
:1039C0002320F4FE832704FEE39607FC8357E4FEDE
:1039D000138507008320C10303248103130101041D
:1039E00067800000130000001300000013000000B7
:1039F000130101FB23261104232481041304010570
:103A0000232EA4FA232CB4FA93070600231BF4FAFE
:103A1000930740012322F4FE0327C4FB832744FEBF
:103A2000B357F7029387E7FF2320F4FE032784FBB5
:103A3000832704FE93973700B307F700232EF4FC87
:103A40008327C4FD2324F4FC032784FC832704FE7E
:103A500093972700B307F700232CF4FC832784FBFC
:103A6000232AF4FC832744FD23A00700032784FCBA
:103A7000832744FD23A2E700832744FD83A7470053
:103A800023910700832744FD83A747003787FFFF63
:103A9000130707082390E700832784FB9387870099
:103AA000232CF4FA832784FC938747002324F4FC17
:103AB000B787FFFF93C7F7FF2313F4FC9307F0FFCB
:103AC0002312F4FC930684FC130684FB930544FC48
:103AD000832784FD0327C4FD032544FDEF00401D1B
:103AE000232604FE6F00400A8327C4FE13970701B4
:103AF00013570701835764FBB347F70093970701F8
:103B000093D7070193F7F7002318F4FC835704FDBC
:103B10009397370013970701135707018327C4FEB4
:103B20009397070193D7070193F7770093970701BE
:103B300093D70701B367F7002317F4FC8317E4FC5E
:103B40009397870013970701135707418317E4FCE6
:103B5000B367F7009397070193D707412312F4FC4B
:103B6000930684FC130684FB930544FC832784FDA1
:103B70000327C4FD032544FDEF0080138327C4FE03
:103B8000938717002326F4FE0327C4FE832704FE31
:103B9000E36CF7F4832744FD83A707002324F4FE96
:103BA000930710002326F4FE6F00C00C032704FEC9
:103BB000B7D7CCCC9387D7CCB337F70293D72700AE
:103BC0000327C4FE6374F7028327C4FE138717001C
:103BD0002326E4FE032784FE03274700939707016B
:103BE00093D707412311F7006F0000088327C4FE15
:103BF000138717002326E4FE1397070113570701C5
:103C0000835764FBB347F7002319F4FC8327C4FEF2
:103C10009397070193D7070193978700939707011D
:103C200093D7070193F707709397070193D707017D
:103C3000035724FDB3E7E7009397070193D70701E4
:103C40009396070193D60641832784FE83A74700F6
:103C5000374700001307F7FF33F7E6001317070194
:103C6000135707412391E700832784FE83A70700AA
:103C70002324F4FE832784FE83A70700E39807F23A
:103C800013060000970500009385C58F032544FDAA
:103C9000EF000033232AA4FC832744FD138507008B
:103CA0008320C104032481041301010567800000FF
:103CB000130101FC232E1102232C810213040104A1
:103CC000232EA4FC232CB4FC232AC4FC2328D4FCDC
:103CD0002326E4FC2324F4FC832744FD83A7070068
:103CE000938787000327C4FC63E6E700930700007F
:103CF0006F008009832704FD83A70700938747008F
:103D0000032784FC63E6E700930700006F00C00709
:103D1000832744FD83A707002326F4FE832744FD61
:103D200083A7070013878700832744FD23A0E700AC
:103D30008327C4FD03A707008327C4FE23A0E70051
:103D40008327C4FD0327C4FE23A0E700832704FDC7
:103D500003A707008327C4FE23A2E700832704FDEF
:103D600083A7070013874700832704FD23A0E700EC
:103D70008327C4FE83A74700832584FD138507009E
:103D8000EFF01F8F8327C4FE138507008320C10334
:103D90000324810313010104678000001300000065
:103DA000130101FD232611022324810213040103C0
:103DB000232EA4FC8327C4FD83A707002326F4FE3B
:103DC0008327C4FD83A747002324F4FE8327C4FE72
:103DD00003A747008327C4FD23A2E7008327C4FE6F
:103DE000032784FE23A2E7008327C4FD83A70700DF
:103DF00003A707008327C4FD23A0E7008327C4FE91
:103E000023A007008327C4FE138507008320C10277
:103E100003248102130101036780000013000000E6
:103E2000130101FD2326110223248102130401033F
:103E3000232EA4FC232CB4FC8327C4FD83A74700B6
:103E40002326F4FE832784FD03A747008327C4FDB0
:103E500023A2E700832784FD0327C4FE23A2E700F3
:103E6000832784FD03A707008327C4FD23A0E70061
:103E7000832784FD0327C4FD23A0E7008327C4FD17
:103E8000138507008320C10203248102130101036B
:103E90006780000013000000130000001300000002
:103EA000130101FE232E1100232C810013040102B3
:103EB0002326A4FE2324B4FE832784FE83972700B1
:103EC00063C407046F0000018327C4FE83A70700B3
:103ED0002326F4FE8327C4FE638E07008327C4FED7
:103EE00083A7470003972700832784FE8397270033
:103EF000E31CF7FC8327C4FE6F0000048327C4FE85
:103F000083A707002326F4FE8327C4FE63840702E9
:103F10008327C4FE83A74700839707009397070171
:103F200093D7070193F7F70F032784FE03170700C2
:103F3000E396E7FC8327C4FE138507008320C101B5
:103F400003248101130101026780000013000000B7
:103F5000130101FD2326110223248102130401030E
:103F6000232EA4FC232604FE6F00C0028327C4FD79
:103F700083A707002324F4FE8327C4FD0327C4FE80
:103F800023A0E7008327C4FD2326F4FE832784FEB5
:103F9000232EF4FC8327C4FDE39A07FC8327C4FE89
:103FA000138507008320C10203248102130101034A
:103FB00067800000130000001300000013000000E1
:103FC000130101FB2326110423248104130401059A
:103FD000232EA4FA232CB4FA232AC4FA9307100040
:103FE000232EF4FC8327C4FB2326F4FE232E04FA9D
:103FF000232004FE232C04FC6F008018832784FDFB
:1040000093871700232CF4FC8327C4FE2324F4FE9B
:10401000232A04FC232604FC6F000003832744FDAD
:1040200093871700232AF4FC832784FE83A70700C5
:104030002324F4FE832784FE638007028327C4FCC5
:10404000938717002326F4FC0327C4FC8327C4FDB1
:10405000E346F7FC6F008000130000008327C4FDD7
:104060002328F4FC6F00C00F832744FD63940702EC
:10407000832784FE2322F4FE832784FE83A7070080
:104080002324F4FE832704FD9387F7FF2328F4FC01
:104090006F00800A832704FD63860700832784FE60
:1040A000639407028327C4FE2322F4FE8327C4FE01
:1040B00083A707002326F4FE832744FD9387F7FF99
:1040C000232AF4FC6F0040078327C4FE03A74700A0
:1040D000832784FE83A64700832784FB032644FBB3
:1040E0009385060013050700E78007009307050086
:1040F0006344F0028327C4FE2322F4FE8327C4FE18
:1041000083A707002326F4FE832744FD9387F7FF48
:10411000232AF4FC6F004002832784FE2322F4FE4E
:10412000832784FE83A707002324F4FE832704FD4E
:104130009387F7FF2328F4FC832704FE638A070094
:10414000832704FE032744FE23A0E7006F00C0007E
:10415000832744FE232EF4FA832744FE2320F4FE13
:10416000832744FDE342F0F0832704FD6356F0000B
:10417000832784FEE39A07EE832784FE2326F4FE3A
:104180008327C4FEE39C07E6832704FE23A00700E1
:10419000032784FD9307100063C6E7008327C4FB51
:1041A0006F0040018327C4FD93971700232EF4FC72
:1041B0006FF05FE3138507008320C10403248104AB
:1041C00013010105678000001300000013000000C8
:1041D000130101FC232E1102232C8102130401047C
:1041E0002326A4FC93870500130706002315F4FC7F
:1041F000930707002314F4FC8327C4FC83A707005C
:104200002326F4FE8327C4FC83A7C7002324F4FEDF
:104210008327C4FC83A747002322F4FE8327C4FC22
:1042200083A787002320F4FE8357A4FC231FF4FCFC
:104230008317E4FD13870700832604FE032644FE4C
:10424000832584FE0325C4FEEF0080049307050048
:1042500013870700835784FC938507001305070025
:10426000EFE00FE6930705002314F4FC835784FC6A
:10427000138507008320C103032481031301010474
:10428000678000001300000013000000130000000E
:10429000130101FC232E1102232C810213040104BB
:1042A000232EA4FC232CB4FC232AC4FC2328D4FCF6
:1042B000930707002317F4FC231704FE8357E4FC3D
:1042C00013870700B7F7FFFFB367F7002316F4FE65
:1042D0008317E4FC13860700832544FD0325C4FDF2
:1042E000EF0000598317E4FC93860700032644FD82
:1042F000832584FD0325C4FDEF00804A8317C4FE97
:1043000013860700832584FD0325C4FDEF00403795
:1043100093070500138707008357E4FE9385070082
:1043200013050700EFE0CFD9930705002317F4FE2C
:10433000832604FD032644FD832584FD0325C4FD57
:10434000EF0000618317C4FE13860700832584FDF8
:104350000325C4FDEF00C032930705001387070053
:104360008357E4FE9385070013050700EFE04FD560
:10437000930705002317F4FE832604FD032644FD5E
:10438000832584FD0325C4FDEF00806C8317C4FEE4
:1043900013860700832584FD0325C4FDEF00402E0E
:1043A00093070500138707008357E4FE93850700F2
:1043B00013050700EFE0CFD0930705002317F4FEA5
:1043C000832604FD032644FD832584FD0325C4FDC7
:1043D000EF00007E8317C4FE13860700832584FD4B
:1043E0000325C4FDEF00C0299307050013870700CC
:1043F0008357E4FE9385070013050700EFE04FCCD9
:10440000930705002317F4FE8357E4FCB307F0403D
:104410009397070193D707019397070193D7074114
:1044200013860700832544FD0325C4FDEF004044A7
:104430008317E4FE138507008320C103032481034F
:104440001301010467800000130000001300000046
:10445000130101FC232E1102232C810213040104F9
:104460002326A4FC2324B4FC2322C4FC2320D4FC54
:10447000232004FE930710002326F4FE232404FEC9
:10448000232204FE832744FC63960702930710004F
:104490002322F4FC6F000002832784FE9387170019
:1044A0002324F4FE832784FEB387F7029397370013
:1044B0002322F4FE032744FE8327C4FCE36EF7FCAB
:1044C000832784FE9387F7FF2320F4FE832784FC51
:1044D0009387F7FF93F7C7FF93874700232EF4FCDA
:1044E000832704FEB387F702939717000327C4FDC1
:1044F000B307F700232CF4FC232404FE6F00801084
:10450000232204FE6F00800E0327C4FE832744FC91
:104510003307F7029357F74193D707013307F700A3
:104520001317070113570701B307F7402322F4FCC1
:10453000832744FC13970701135707018327C4FE01
:104540009397070193D70701B307F70093970701E4
:1045500093D70701231BF4FC032784FE832704FE63
:104560003307F702832744FEB307F700939717003A
:10457000032784FDB307F700035764FD2390E7008A
:104580008327C4FE1397070113570701835764FD60
:10459000B307F7009397070193D70701231BF4FC98
:1045A000835764FD93F7F70F231BF4FC032784FE66
:1045B000832704FE3307F702832744FEB307F7007F
:1045C000939717000327C4FDB307F700035764FD53
:1045D0002390E7008327C4FE938717002326F4FE69
:1045E000832744FE938717002322F4FE032744FE0B
:1045F000832704FEE36AF7F0832784FE938717007E
:104600002324F4FE032784FE832704FEE36AF7EEE7
:10461000832704FC0327C4FD23A2E700832704FCAF
:10462000032784FD23A4E700832704FEB387F70252
:1046300093971700032784FDB307F7009387F7FFCD
:1046400093F7C7FF9387470013870700832704FC6E
:1046500023A6E700032704FE832704FC23A0E7002A
:10466000832704FE138507008320C10303248103ED
:104670001301010467800000130000001300000014
:10468000130101FC232E1102232C810213040104C7
:104690002326A4FC2324B4FC930706002313F4FC74
:1046A000232604FE232404FE232C04FC231304FEEF
:1046B000232004FE6F00000C232E04FC6F00000A70
:1046C000032704FE8327C4FC3307F7028327C4FDB6
:1046D000B307F70093972700032784FCB307F7007D
:1046E00083A70700232CF4FC0327C4FE832784FD43
:1046F000B307F7002326F4FE831764FC0327C4FEE8
:1047000063D0E702835764FE9387A700939707015E
:1047100093D707012313F4FE232604FE6F00C00283
:10472000032784FD832784FEB3A7E70093F7F70FE1
:1047300013870700835764FEB307F70093970701B9
:1047400093D707012313F4FE832784FD2324F4FE6B
:104750008327C4FD93871700232EF4FC0327C4FD91
:104760008327C4FCE36EF7F4832704FE93871700C6
:104770002320F4FE032704FE8327C4FCE36EF7F234
:10478000831764FE138507008320C103032481037C
:1047900013010104678000001300000013000000F3
:1047A000130101FD232611022324810213040103B6
:1047B000232EA4FC232CB4FC232AC4FC93870600DC
:1047C0002319F4FC232604FE6F004008232404FE72
:1047D0006F0040060327C4FE8327C4FD3307F7029A
:1047E000832784FEB307F70093971700032744FD40
:1047F000B307F7008397070013860700031724FD0C
:104800008326C4FE8327C4FDB386F602832784FE75
:10481000B387F60093972700832684FDB387F600BD
:104820003307E60223A0E700832784FE938717005F
:104830002324F4FE032784FE8327C4FDE36CF7F8EA
:104840008327C4FE938717002326F4FE0327C4FEA4
:104850008327C4FDE36CF7F613000000130000008B
:104860008320C10203248102130101036780000039
:10487000130101FD232611022324810213040103E5
:10488000232EA4FC232CB4FC93070600231BF4FC6A
:10489000232604FE6F008009232404FE6F00800796
:1048A0000327C4FE8327C4FD3307F702832784FE52
:1048B000B307F70093971700032784FDB307F700AA
:1048C000839707001397070113570701835764FD68
:1048D000B307F7009396070193D606010327C4FE9A
:1048E0008327C4FD3307F702832784FEB307F7004D
:1048F00093971700032784FDB307F700139706016A
:10490000135707412390E700832784FE93871700FE
:104910002324F4FE032784FE8327C4FDE362F7F813
:104920008327C4FE938717002326F4FE0327C4FEC3
:104930008327C4FDE362F7F61300000013000000B4
:104940008320C10203248102130101036780000058
:10495000130101FD23261102232481021304010304
:10496000232EA4FC232CB4FC232AC4FC2328D4FC2F
:10497000232604FE6F00000B8327C4FE93972700B5
:10498000032784FDB307F70023A00700232404FEB8
:104990006F00C0078327C4FE93972700032784FD79
:1049A000B307F70083A607000327C4FE8327C4FDCF
:1049B0003307F702832784FEB307F70093971700A6
:1049C000032744FDB307F70083970700138607000A
:1049D000832784FE93971700032704FDB307F7008E
:1049E000839707003307F6028327C4FE93972700B7
:1049F000032684FDB307F6003387E60023A0E70013
:104A0000832784FE938717002324F4FE032784FE64
:104A10008327C4FDE360F7F88327C4FE938717005C
:104A20002326F4FE0327C4FE8327C4FDE366F7F4C0
:104A300013000000130000008320C1020324810240
:104A40001301010367800000130000001300000041
:104A5000130101FD23261102232481021304010303
:104A6000232EA4FC232CB4FC232AC4FC2328D4FC2E
:104A7000232604FE6F000011232404FE6F00000FA4
:104A80000327C4FE8327C4FD3307F702832784FE70
:104A9000B307F70093972700032784FDB307F700B8
:104AA00023A00700232204FE6F00C00A0327C4FED0
:104AB0008327C4FD3307F702832784FEB307F7007B
:104AC00093972700032784FDB307F70083A6070009
:104AD0000327C4FE8327C4FD3307F702832744FE60
:104AE000B307F70093971700032744FDB307F700B8
:104AF0008397070013860700032744FE8327C4FD1E
:104B00003307F702832784FEB307F7009397170054
:104B1000032704FDB307F700839707003307F60266
:104B20000326C4FE8327C4FD3306F602832784FED2
:104B3000B307F60093972700032684FDB307F6001A
:104B40003387E60023A0E700832744FE93871700FE
:104B50002322F4FE032744FE8327C4FDE368F7F411
:104B6000832784FE938717002324F4FE032784FE03
:104B70008327C4FDE366F7F08327C4FE93871700FD
:104B80002326F4FE0327C4FE8327C4FDE366F7EE65
:104B900013000000130000008320C10203248102DF
:104BA00013010103678000001300000013000000E0
:104BB000130101FD232611022324810213040103A2
:104BC000232EA4FC232CB4FC232AC4FC2328D4FCCD
:104BD000232604FE6F008013232404FE6F0080113F
:104BE0000327C4FE8327C4FD3307F702832784FE0F
:104BF000B307F70093972700032784FDB307F70057
:104C000023A00700232204FE6F00400D0327C4FEEB
:104C10008327C4FD3307F702832744FEB307F70059
:104C200093971700032744FDB307F7008397070006
:104C300093860700032744FE8327C4FD3307F7024A
:104C4000832784FEB307F70093971700032704FD1B
:104C5000B307F70083970700B387F6022320F4FE1B
:104C60000327C4FE8327C4FD3307F702832784FE8E
:104C7000B307F70093972700032784FDB307F700D6
:104C800083A7070093860700832704FE93D7274056
:104C900013F7F700832704FE93D7574093F7F707DE
:104CA000B307F702B386F6000327C4FE8327C4FDCB
:104CB0003307F702832784FEB307F7009397270093
:104CC000032784FDB307F7001387060023A0E7003E
:104CD000832744FE938717002322F4FE032744FE14
:104CE0008327C4FDE364F7F2832784FE93871700CC
:104CF0002324F4FE032784FE8327C4FDE362F7EE3A
:104D00008327C4FE938717002326F4FE0327C4FEDF
:104D10008327C4FDE362F7EC1300000013000000DA
:104D20008320C10203248102130101036780000074
:104D3000130000001300000000000000000000004D
:104D4000130101FE232E1100232C81001304010204
:104D5000F32700B02326F4FE8327C4FE1387070041
:104D6000938781B723A0E700130000008320C101CF
:104D70000324810113010102678000001300000079
:104D8000130101FE232E1100232C810013040102C4
:104D9000F32700B02326F4FE8327C4FE1387070001
:104DA0009387C1B723A0E700130000008320C1014F
:104DB0000324810113010102678000001300000039
:104DC000130101FE232E1100232C81001304010284
:104DD0009387C1B703A70700938781B783A707000D
:104DE000B307F7402326F4FE8327C4FE138507008C
:104DF0008320C101032481011301010267800000A7
:104E0000130101FD2326110223248102130401034F
:104E1000232EA4FC0325C4FDEF2000081307050082
:104E20009387050097360100938646F203A6060095
:104E300083A646001305070093850700EF10C04CBA
:104E400013070500938705002324E4FE2326F4FEC0
:104E5000032784FE8327C4FE1305070093850700FC
:104E60008320C10203248102130101036780000033
:104E7000130101FE232E1100232C810013040102D3
:104E80002326A4FE2324B4FE2322C4FE8327C4FECB
:104E9000130710002380E700130000008320C101E6
:104EA0000324810113010102678000001300000048
:104EB000130101FE232E1100232C81001304010293
:104EC0002326A4FE8327C4FE2380070013000000CE
:104ED0008320C101032481011301010267800000C6
:104EE0001300000013000000130000000000000089
:104EF000130101FD2326110223248102130401035F
:104F0000232EA4FC8327C4FD2324F4FE832784FEE0
:104F100083A7C7012322F4FE832784FE239C070274
:104F2000832784FE239D0702832784FE239E070296
:104F3000832784FE239F0702232604FE6F00000AB6
:104F400093051000032584FEEFE08FF7930705001B
:104F50002311F4FE832784FE03D78703835724FE9F
:104F60009305070013850700EFD09F849307050082
:104F700013870700832784FE239CE7029305F0FF35
:104F8000032584FEEFE0CFF3930705002311F4FE21
:104F9000832784FE03D78703835724FE93050700E6
:104FA00013850700EFD0DF80930705001387070004
:104FB000832784FE239CE7028327C4FE639A0700AD
:104FC000832784FE03D78703832784FE239DE7027C
:104FD0008327C4FE938717002326F4FE0327C4FE0D
:104FE000832744FEE36EF7F4930700001385070060
:104FF0008320C102032481021301010367800000A2
:10500000130101F6232E1108232C8108232A91086D
:1050100023282109232631091304010A2326A4F693
:105020002324B4F6231E04FC231D04FC9307F0FF85
:10503000231CF4FC231B04FC231104FC1307C4F6FB
:10504000930784F793872704032684F693050700C4
:1050500013850700EFF0DFE113051000EFD04FD408
:10506000930705009397070193D70741231CF4F694
:1050700013052000EFD0CFD29307050093970701C7
:1050800093D70741231DF4F613053000EFD04FD11D
:10509000930705009397070193D70741231EF4F662
:1050A00013054000EFD0CFCF93070500232AF4F873
:1050B00013055000EFD0CFCE93070500232CF4F852
:1050C000832784F96396070093077000232CF4F874
:1050D000831784F7639207028317A4F7639E070080
:1050E0008317C4F7639A0700231C04F6231D04F6F4
:1050F00093076006231EF4F6031784F79307100046
:10510000631AF7028317A4F7639607028317C4F79D
:1051100063920702B737000093875741231CF4F6C8
:10512000B737000093875741231DF4F693076006B5
:10513000231EF4F6974701009387C7712320F4F8E4
:105140009307007D2328F4F8231C04FA231F04FC92
:105150006F0080038357E4FD13071000B317F700B7
:1051600013870700832784F9B377F7006388070064
:105170008357A4FD93871700231DF4FC8357E4FD98
:1051800093871700231FF4FC0357E4FD93072000C7
:10519000E3F2E7FC231F04FC6F0080050357E4FDE6
:1051A0009307070093974700B387E700939727007B
:1051B000938707FEB387870083A607FB8357A4FD69
:1051C0000357E4FDB3D6F602930707009397470011
:1051D000B387E70093972700938707FEB38787007D
:1051E00023A8D7FA8357E4FD93871700231FF4FC05
:1051F0008357E4FDE38407FA231F04FC6F00000BD0
:105200008357E4FD13071000B317F7001387070057
:10521000832784F9B377F70063840708232804FC05
:105220006F00C006032704FD93070700939747000C
:10523000B387E70093972700938707FEB38787001C
:1052400003A707FA832604F98357C4FDB387F60240
:105250008356E4FD13861600B306F700032704FD0A
:105260009307070093974700B387E7003387C7008A
:10527000930704F813172700B307F70023A0D700FC
:10528000832704FD938717002328F4FC832704FD5C
:10529000E38A07F88357C4FD93871700231EF4FCA5
:1052A0008357E4FD93871700231FF4FC0357E4FDA5
:1052B00093072000E3F6E7F4231F04FC6F00801E31
:1052C0000357E4FD9307070093974700B387E70070
:1052D00093972700938707FEB387870083A787FBF1
:1052E00093F71700638C0706832604F90357E4FD40
:1052F0009307070093974700B387E700939727002A
:10530000938707FEB387870083A547FA0357E4FD19
:105310009307070093974700B387E7009397270009
:10532000938707FEB3878700839787F98354E4FD4B
:105330001386070013850600EFE08FEB13070500C7
:105340009387040093974700B387970093972700AC
:10535000938707FEB387870023AEE7FA0357E4FD80
:105360009307070093974700B387E70093972700B9
:10537000938707FEB387870083A787FB93F72700F0
:105380006380070A032504F90357E4FD9307070028
:1053900093974700B387E70093972700938707FE0B
:1053A000B387870083A587FA0357E4FD93070700B7
:1053B00093974700B387E70093972700938707FEEB
:1053C000B3878700839787F9938607000357E4FD27
:1053D0009307070093974700B387E7009397270049
:1053E000938707FEB38787008397A7F993970701F1
:1053F00033E6F6000357E4FD930684F793070700AE
:1054000093974700B387E700939727009387070296
:10541000B387F6009387870093860700EFF04F83EA
:105420000357E4FD9307070093974700B387E7000E
:1054300093972700938707FEB387870083A787FB8F
:1054400093F74700638A0704832604F90357E4FDB2
:105450009307070093974700B387E70093972700C8
:10546000938707FEB3878700839587F90357E4FD89
:105470009307070093974700B387E70093972700A8
:10548000938707FEB387870083A7C7FA13860700B1
:1054900013850600EFD0CFF78357E4FD93871700FD
:1054A000231FF4FC8357E4FDE38C07E0832744F9D2
:1054B0006390070C232404FC232604FC93071000AC
:1054C000232AF4F86F008004032744F993070700A8
:1054D00093972700B387E70093971700232AF4F8E0
:1054E000EFF01F86930784F713850700EFF05FA0A6
:1054F000EFF01F89EFF0DF8C93070500138507009D
:10550000EFF01F902324A4FC2326B4FC973701005E
:10551000938747C103A6070083A64700032584FCA1
:105520008325C4FCEF10C07E93070500E3CE07F887
:10553000032584FC8325C4FCEF10100F930705009E
:105540002322F4FC832744FC639607009307100092
:105550002322F4FC032744F99306A000832744FC8C
:10556000B3D7F60293871700B307F702232AF4F89C
:10557000EFF00FFD930784F713850700EFF05F97B7
:10558000EFF01F80EFF0DF83232EA4FA831784F758
:10559000035724FC9305070013850700EFD04FB293
:1055A000930705002311F4FC8317A4F7035724FC89
:1055B0009305070013850700EFD08FB09307050010
:1055C0002311F4FC8317C4F7035724FC9305070049
:1055D00013850700EFD0CFAE930705002311F4FC2D
:1055E000832704F99397070193D70741035724FCB6
:1055F0009305070013850700EFD08FAC93070500D4
:105600002311F4FC835724FC37F700001307579F3E
:105610006380E70A37F700001307579F6342F70CD0
:1056200037970000130727A06382E704379700002D
:10563000130727A06346F70A37870000130757B000
:105640006380E70437870000130757B0634AF70801
:10565000372700001307278F6388E70637570000B6
:105660001307F7EA638AE7026F008007231C04FC34
:10567000172501001305856FEF20C00A6F00000792
:1056800093071000231CF4FC172501001305C570B7
:10569000EF2040096F00800593072000231CF4FCD5
:1056A0001725010013050572EF20C0076F000004E5
:1056B00093073000231CF4FC1725010013058573A4
:1056C000EF2040066F00800293074000231CF4FC8B
:1056D000172501001305C574EF20C0046F000001F9
:1056E0009307F0FF231BF4FC13000000831784FDD5
:1056F00063C4073A231F04FC6F0000390357E4FD1D
:105700009307070093974700B387E7009397270015
:10571000938707FEB3878700239C07FC0357E4FDAC
:105720009307070093974700B387E70093972700F5
:10573000938707FEB387870083A787FB93F717003C
:105740006384070E0357E4FD930707009397470010
:10575000B387E70093972700938707FEB3878700F7
:1057600003D727FD831784FD9746010093860680A3
:1057700093971700B387F60083D707006306F70AED
:105780008355E4FD0357E4FD930707009397470013
:10579000B387E70093972700938707FEB3878700B7
:1057A00083D727FD13860700831784FD1737010071
:1057B0001307C77B93971700B307F70083D707003A
:1057C000938607001725010013054568EF109058D0
:1057D0000357E4FD9307070093974700B387E7005B
:1057E00093972700938707FEB3878700839787FDEA
:1057F0009397070193D707019387170093970701A2
:1058000093D707019396070193D6064193070700A4
:1058100093974700B387E70093972700938707FE86
:10582000B3878700239CD7FC0357E4FD9307070049
:1058300093974700B387E70093972700938707FE66
:10584000B387870083A787FB93F727006384070E3E
:105850000357E4FD9307070093974700B387E700DA
:1058600093972700938707FEB387870003D747FDE9
:10587000831784FD9736010093860670939717006F
:10588000B387F60083D707006306F70A8355E4FD64
:105890000357E4FD9307070093974700B387E7009A
:1058A00093972700938707FEB387870083D747FD29
:1058B00013860700831784FD173701001307C76B92
:1058C00093971700B307F70083D707009386070065
:1058D000172501001305855AEF10D0470357E4FD43
:1058E0009307070093974700B387E7009397270034
:1058F000938707FEB3878700839787FD93970701F8
:1059000093D70701938717009397070193D7070150
:105910009396070193D60641930707009397470094
:10592000B387E70093972700938707FEB387870025
:10593000239CD7FC0357E4FD930707009397470088
:10594000B387E70093972700938707FEB387870005
:1059500083A787FB93F747006384070E0357E4FD93
:105960009307070093974700B387E70093972700B3
:10597000938707FEB387870003D767FD831784FDEE
:10598000973601009386066093971700B387F60059
:1059900083D707006306F70A8355E4FD0357E4FD48
:1059A0009307070093974700B387E7009397270073
:1059B000938707FEB387870083D767FD13860700A9
:1059C000831784FD173701001307C75B93971700F0
:1059D000B307F70083D70700938607001725010058
:1059E0001305054DEF1010370357E4FD930707002B
:1059F00093974700B387E70093972700938707FEA5
:105A0000B3878700839787FD9397070193D7070193
:105A1000938717009397070193D707019396070180
:105A200093D606419307070093974700B387E70093
:105A300093972700938707FEB3878700239CD7FCA3
:105A40000357E4FD9307070093974700B387E700E8
:105A500093972700938707FEB3878700839787FD77
:105A60001397070113570701835764FDB307F70026
:105A70009397070193D70701231BF4FC8357E4FD99
:105A800093871700231FF4FC0357E4FD938701B1AC
:105A900083A70700E364F7C6EFC09FE793070500FD
:105AA00013870700835764FDB307F7009397070137
:105AB00093D70701231BF4FC832704F99385070080
:105AC000172501001305C541EF10D0288325C4FB1D
:105AD0001725010013054542EF10D0270325C4FB0D
