:0200000480007A
:100000006F0040326F00D01C6F00C0306F00803036
:100010006F0040306F0000306F00C02F6F00802FE6
:100020006F00402F6F00002F6F00C02E6F00802EDA
:100030006F00402E6F00002E6F00C02D6F00802DCE
:100040006F00402D6F00002D6F00C02C6F00802CC2
:100050006F00402C6F00002C6F00C02B6F00802BB6
:100060006F00402B6F00002B6F00C02A6F00802AAA
:100070006F00402A6F00002A6F00C0296F00C03A4D
:1000800097910100938181CB17010300130181F740
:1000900017050000130505F713651500731055309B
:1000A00017950100130585D2179601001306462106
:1000B0003306A64093050000EF501053176500006B
:1000C0001305C5C9EF301071EF50D03F1305000084
:1000D0009305000013060000EF0080046F0040014C
:0400E0006780000035
:1000F000130101FF93050000232481002326110032
:1001000013040500EF60000583A7010A638407005C
:10011000E780070013050400EF00804100000000A5
:10012000130101812326117E2324817E2322917EC7
:1001300093060000130101FD130600009305000063
:1001400013050020EF30C03E630A05189304050034
:1001500017650100130585B1EF508043732720B068
:100160002326E100F32700B097650100938545132E
:1001700013060101138504002324F100EF30405DD4
:10018000732420B08322C10033045440732300B091
:1001900083238100330573402324A10017650100E8
:1001A0001305C5ADEF50C03E032781009306040040
:1001B000930504001306070017650100130505AD3C
:1001C000EF40507F3716000013050101130606802B
:1001D000977501009385C58CEF50807E1304050050
:1001E000631A0502176501001305C5B1EF50403AC7
:1001F00013850400EF301060130101038320C17EDA
:10020000130504008324417E0324817E1301017FB2
:100210006780000017650100130545AAEF504037BD
:1002200093040101039624008395040017650100DF
:100230001305C5AC93840402EF40D077039664FEA7
:10024000839544FE17650100130545ABEF4090769A
:100250000396A4FE839584FE17650100130505AA85
:10026000EF4050750396E4FE8395C4FE17650100C8
:100270001305C5A8EF401074039624FF839504FF6F
:1002800017650100130585A7EF40D072039664FF40
:10029000839544FF17650100130545A6EF40907153
:1002A0000396A4FF839584FF17650100130505A538
:1002B000EF4050708395C4FF0396E4FF176501007B
:1002C0001305C5A3EF40106F9305F17F93861501C9
:1002D000E39AD4F4130410006FF01FF217650100C5
:1002E00013058597EF50C02A130410006FF0DFF05C
:1002F000130000001300000013000000930700002B
:100300006388070017650000130545A56F30904C02
:1003100067800000176501001305958FEF50402797
:100320006FF05FFF130101FC232011002322A100C5
:100330002324B1002326C1002328D100232AE10071
:10034000232CF100232E010123201103232251022B
:1003500023246102232671022328C103232AD10307
:10036000232CE103232EF103F32220341303200076
:10037000638862021303B0006388620013033000D5
:10038000638862006F00C002EF00803C6F00400392
:100390001765010013058583EF50801F6F00400231
:1003A000175501001305857DEF50801E6F00400139
:1003B000176501001305A583EF50801D6F004002F3
:1003C000F322103403830200130530003373A300BB
:1003D0006314A3009382220093822200739012344C
:1003E0008320010003254100832581000326C100ED
:1003F0008326010103274101832781010328C101CD
:100400008328010283224102032381028323C10244
:10041000032E0103832E4103032F8103832FC10386
:10042000130101047300203073002030000000002D
:100430003305A04023A2A10A1305F0FF6780000046
:1004400037070010930750052320F7009756010047
:1004500083C6567E175601001306E67F175E01001D
:10046000130E6E7D2320D700975E010083CEAE7CF5
:100470002320D70183421E00130E8E002320570035
:100480000343AEFF232067008343BEFF2320770092
:100490000345CEFF2320A7008345DEFF2320B700BE
:1004A0000348EEFF232007018348FEFF23201701A6
:1004B000834E0E00E31ECEFA67800000130000009A
:1004C0009307800523A2F10A1305F0FF678000005F
:1004D0009307800523A2F10A1305F0FF678000004F
:1004E0009307800523A2F10A1305F0FF678000003F
:1004F0009307800523A2F10A1305F0FF678000002F
:100500009307800523A2F10A1305F0FF678000001E
:100510001305F0FF678000001300000013000000C7
:100520009307C00023A2F10A1305F0FF67800000C3
:10053000B707048023A0A700730050106F000000CD
:100540009307800523A2F10A1305F0FF67800000DE
:100550009307B00023A2F10A1305F0FF67800000A3
:10056000B727000023A2F5001305000067800000F4
:100570009307800523A2F10A1305F0FF67800000AE
:100580009307800523A2F10A1305F0FF678000009E
:10059000930780FA23A2F10A130500006780000088
:1005A0001305100067800000130000001300000016
:1005B000930780FA23A2F10A1305F0FF6780000079
:1005C0001305F5FF133515006780000013000000C8
:1005D0009307600123A2F10A1305F0FF6780000072
:1005E0009307F00123A2F10A1305F0FF67800000D2
:1005F00013050000678000001300000013000000D6
:100600009307800523A2F10A1305F0FF678000001D
:100610001305F0FF678000001300000013000000C6
:100620009307800523A2F10A1305F0FF67800000FD
:100630001305000067800000130000001300000095
:10064000B727000023A2F500130500006780000013
:100650001305F0FF67800000130000001300000086
:100660001305F0FF67800000130000001300000076
:100670009307200023A2F10A1305F0FF6780000012
:100680009307800523A2F10A1305F0FF678000009D
:100690009307A00023A2F10A1305F0FF6780000072
:1006A00003A70109130101FE232C8100232E110051
:1006B000938705001304060063060702130604006F
:1006C00017850100130585E793850700EF00407F3C
:1006D0008320C101130504000324810113010102D9
:1006E000678000002326B100B7C50100938505206F
:1006F0001306300017850100130545E4EF00406F35
:10070000930210008327C10023A851086FF01FFB3C
:1007100023ACA10613050000678000001300000051
:1007200083A28107170703001307C78D3385A20033
:1007300023ACA1066374E500636825009307C0003D
:1007400023A2F10A9302F0FF1385020067800000E4
:100750009307100863CC17159302F00263D41219A3
:10076000138308FD9308100563EE68021767010004
:100770001307879A93132300B386E30003A80600A8
:10078000330EE80067000E00930EC00A6388D8118C
:1007900063CE1E1B930F90096382F8119307900A92
:1007A0006386F814975701009387C7489753010051
:1007B0009383634AB386F34013F87600130750051A
:1007C000370E00106308080813051000630CA80614
:1007D000930E20006302D807130F30006308E8056A
:1007E000930F4000630EF803130650006304C80221
:1007F00093056000630AB8002320EE0097570100BC
:100800009387574303C707002320EE0003C7170051
:10081000938717002320EE0003C717009387170064
:100820002320EE0003C71700938717002320EE0054
:1008300003C71700938717002320EE0003C7170094
:1008400093871700938717002320EE0003C7070044
:10085000638C77142320EE0083C2170093878700F0
:1008600023205E0003C3A7FF23206E0083C8B7FFC9
:1008700023201E0183C6C7FF2320DE0003C8D7FF45
:1008800023200E0103C5E7FF2320AE0083CEF7FF30
:100890002320DE0103C70700E39E77FA678000008C
:1008A0009302800523A2510A678000009302F04062
:1008B000E3CA12EF1303F03FE35813ED938808C027
:1008C0009303F000E3E013EF176701001307479964
:1008D000139528003306E500832606003388E600DA
:1008E0006700080013031001E39E68EA930880FA8A
:1008F00023A2110B678000003726000023A2C50049
:10090000678000009305200023A2B10A67800000E1
:10091000130EF00123A2C10B6780000013056001D4
:1009200023A2A10A67800000370404802320A400CA
:10093000730050106F00000003AF010963000F0245
:1009400017850100130585BF6F008057130F600DD9
:10095000E39AE8E523ACA10667800000130101FEDD
:10096000B7CF01002326C1002324B10013063000B5
:1009700093850F2017850100130545BC232E110018
:10098000EF0000479307100023A8F1080326C100D9
:10099000832581008320C10117850100130505BA55
:1009A000130101026F00C0516780000013000000B6
:1009B0001300000013000000000000000000000011
:1009C0001305000067800000130000001300000002
:1009D00013050000678000001300000013000000F2
:1009E00013050000678000001300000013000000E2
:1009F00013050000678000001300000013000000D2
:100A000013050000678000001300000013000000C1
:100A100013050000678000001300000013000000B1
:100A200013050000678000001300000013000000A1
:100A30001305000067800000130000001300000091
:100A40001305000067800000130000001300000081
:100A50001305000067800000130000001300000071
:100A60001305000067800000130000001300000061
:100A70001305000067800000130000001300000051
:100A80001305000067800000130000001300000041
:100A90001305000067800000130000001300000031
:100AA0001305000067800000130000001300000021
:100AB0001305000067800000130000001300000011
:100AC0001305000067800000130000001300000001
:100AD00013050000678000001300000013000000F1
:100AE00013050000678000001300000013000000E1
:100AF00013050000678000001300000013000000D1
:100B000013050000678000001300000013000000C0
:100B100013050000678000001300000013000000B0
:100B200013050000678000001300000013000000A0
:100B30001305000067800000130000001300000090
:100B40001305000067800000130000001300000080
:100B50001305000067800000130000001300000070
:100B60001305000067800000130000001300000060
:100B70001305000067800000130000001300000050
:100B80001305000067800000130000001300000040
:100B90001305000067800000130000001300000030
:100BA0001305000067800000130000001300000020
:100BB0001305000067800000000000000000000036
:100BC0008327C500638407200326050163000620F0
:100BD00083260500034895000327450183C5460188
:100BE000B3E20501A304550013F30502630E031CD1
:100BF0006300E61EB303E64093080001138F030071
:100C000063F47800138F0800338EE700834E0E00E4
:100C1000930F1700130810002380D601232AF50133
:100C20006380031BB385F70183C20500130327000C
:100C30009308200023805600232A6500638213193D
:100C4000338E6700834E0E00130837009305300083
:100C50002380D601232A05016384B316B3820701DA
:100C600003C3020093084700130E40002380660070
:100C7000232A15016386C315B38E170103C80E001E
:100C8000930557009302500023800601232AB500E4
:100C9000638853123383B700834E030093086700C1
:100CA000130E60002380D601232A1501638AC31125
:100CB00033881701834508009302770013037000FF
:100CC0002380B600232A5500638C630EB38E570031
:100CD00003C80E0093088700130E800023800601CE
:100CE000232A1501638EC30DB385170183C2050046
:100CF00013039700930E900023805600232A65006B
:100D00006380D30D33886700834508009308A700EC
:100D1000130EA0002380B600232A15016382C30BA3
:100D2000B382170103C30200930EB7001308B0008B
:100D300023806600232AD50163840309B385D70184
:100D400083C205009308C700130EC000238056001D
:100D5000232A15016386C30733831701834E0300DB
:100D60001308D7009305D0002380D601232A05015C
:100D70006388B304B382070103C302009308E7004A
:100D8000130EE00023806600232A1501638AC30343
:100D9000B38E170103C80E009305F7009302F0000D
:100DA00023800601232AB500638C5300B387B70064
:100DB00083C307001307070123807600232AE50079
:100DC000330FFF011307FFFF6304E6006780000095
:100DD00003C64600232805001375D60F2382A600FC
:100DE00067800000130000001300000013000000E3
:100DF000130101FE232A910083240500232C810086
:100E00002328210123263101232E110023820400EF
:100E100023840400930770FC2384F400130405006A
:100E20009389050013090600238804001386050032
:100E30009306000037D5121393050000EF201053DE
:100E4000935275003707010063FEE200130300F8B8
:100E5000238664001355F5002382A40023805400E8
:100E6000238604002386240123042401A304040010
:100E700097030000938303D5232234018320C1010B
:100E80002328040023260400232A0400232E040020
:100E9000232C040023220402232074020324810152
:100EA00083244101032901018329C10013010102A7
:100EB0006780000013000000130000001300000012
:100EC000130101FF23260100638C0522630A062219
:100ED000032505001308000093071003834645010E
:100EE000232601000327C10063E2E70A8322C10031
:100EF00013831200232661008323C10063E877086F
:100F00008328C100138E18002326C101832EC1003F
:100F100063EED707032FC100930F1F002326F101B3
:100F20000327C10063E4E7068322C1001383120094
:100F3000232661008323C10063EA77048328C1006C
:100F4000138E18002326C101832EC10063E0D7054C
:100F5000032FC100930F1F002326F1010327C100B7
:100F600063E6E7028322C100138312002326610097
:100F70008323C10063EC77008328C100138E18001F
:100F80002326C101832EC100E3F2D7F793F60602B0
:100F9000E38606F423260100032FC10063E2E70B7A
:100FA000832FC10013871F002326E1008322C10085
:100FB00063E857080323C10093031300232671003D
:100FC0008328C10063EE1707032EC100930E1E0095
:100FD0002326D1018326C10063E4D706032FC10075
:100FE000930F1F002326F1010327C10063EAE704E2
:100FF0008322C10013831200232661008323C100D2
:1010000063E077048328C100138E18002326C101F2
:10101000832EC10063E6D7038326C100138F160019
:101020002326E101832FC10063ECF7010327C100F0
:1010300093021700232651000323C100E3F267F651
:10104000B383050183C803001308180023001501AA
:1010500023260100032EC10063E2C70B832EC100CB
:1010600093861E002326D100032FC10063E8E70901
:10107000832FC10013871F002326E1008322C100B4
:1010800063EE57060323C100930313002326710068
:101090008328C10063E41707032EC100930E1E00CE
:1010A0002326D1018326C10063EAD704032FC100A0
:1010B000930F1F002326F1010327C10063E0E7041B
:1010C0008322C10013831200232661008323C10001
:1010D00063E677028328C100138E18002326C1011E
:1010E000832EC10063ECD7018326C100138F160045
:1010F0002326E101832FC100E3F2F7F7E360C8DEA6
:1011000013010101678000001300000013000000BC
:101110006388050C03C605006304060C83270500DD
:10112000130101FF9386150003C74701A307E100E0
:101130008342F10013F302026318030883C34701DB
:10114000A30771000345F10093750502639E050630
:1011500003C84701A30701018348F10013FE0802F9
:1011600063140E0683CE4701A307D101034FF1009C
:10117000937F0F02639A0F0403C74701A307E1009F
:101180008342F10013F302026310030483C3470197
:10119000A30771000345F1009375050263960502EC
:1011A00003C84701A30701018348F10013FE0802A9
:1011B000631C0E0083CE4701A307D101034FF1004A
:1011C000937F0F02E3820FF6938616002380C700F9
:1011D00003C6F6FFE31A06F413010101678000005D
:1011E00067800000130000001300000013000000DF
:1011F000630C0602638A05020327050097060000B8
:101200009386469C2326B500834747002328C500C4
:10121000232A05002320D50293E22700230257004A
:10122000732340F16304030067800000B725000CBE
:10123000977301009383833003A60500330575403F
:101240001338150093081000339E0801B36ECE00CA
:1012500023A0D501678000001300000013000000E8
:1012600083270500034795008326050183C24701B4
:1012700033E3E200A304650093F3F20F63980600E2
:1012800013D5630013751500678000001305000077
:10129000678000001300000013000000130000002E
:1012A00063820506630006060328050003479500D0
:1012B00083474801B3E2E700A304550013F3170086
:1012C00063020304130E00006F008000638E0F02A0
:1012D00083460800B383C501130E1E002380D3008C
:1012E0000328050083489500834E480133EF1E0113
:1012F000A304E50193FF1E00E36ACEFC13050E0074
:1013000067800000130E000013050E0067800000C8
:10131000F32740F163960702B726000C1777010008
:101320001307C72103A60600B302E54013B312005A
:101330009303100033986300B368C80023A016011C
:10134000370E0100930EFEFF638CD50103250500C7
:1013500093F5F500034F4500B36FBF002302F5017D
:10136000678000001300000013000000130000005D
:10137000638C05029337160C638807020327050068
:10138000232EB5008342870013F3F203B363C30037
:10139000230477008345470013E615002302C700A6
:1013A000F32640F16384060067800000B728000C34
:1013B000177801001308881803AE080033050541AB
:1013C000933E1500130F1000B31FDF01B3E7CF01E9
:1013D00023A0F80067800000130000001300000045
:1013E00063840502032705002320B5022326050098
:1013F000834747002328050093E227002302570074
:10140000732340F16304030067800000B725000CDC
:10141000977301009383831283A6050033057540FB
:101420001336150013081000B318C80033EED800A7
:1014300023A0C50167800000130000001300000016
:1014400063800502032705002322B5028347470076
:1014500093E2870023025700732340F163040300E3
:1014600067800000B725000C977301009383030D7C
:1014700083A60500330575401336150013081000C8
:10148000B318C80033EED80023A0C5016780000060
:1014900063860512630406128327050083469500C0
:1014A00003C74701B362D700A304550013730702B3
:1014B00063060310930300011305060063E4C310E1
:1014C00003C805009308100023800701630A160F64
:1014D00003CE1500930E20002380C7016302D60FB0
:1014E00003CF2500930F30002380E701630AF60D38
:1014F00083C63500130740002380D7006302E60C43
:1015000083C245001303500023805700630A660A14
:1015100083C3550013086000238077006302060B25
:1015200083C86500130E700023801701630AC60983
:1015300083CE7500130F80002380D7016302E60974
:1015400083CF8500930690002380F701630AD606B7
:1015500083C295001307A000238057006302E606AC
:1015600003C3A5009303B00023806700630A7604D9
:1015700003C8B5009308C000238007016302160565
:1015800003CEC500930ED0002380C701630AD603A3
:1015900003CFD500930FE0002380E7016302F60339
:1015A00083C6E5009302F0002380D700630A56004B
:1015B00083C5F5002380B700678000001305000095
:1015C00067800000138503006FF09FEF1300000099
:1015D000832705000347950083C24701A304050044
:1015E00033E5E2001375E509678000001300000091
:1015F0008327050003C587016780000013000000F2
:1016000003270500834795008342470133E3F20037
:10161000A304650013F502066780000013000000B4
:10162000032705008347C70093E2070423065700FA
:10163000678000001300000013000000130000008A
:10164000032705008347C70093F2F70B23065700D3
:101650006780000013000000000000000000000090
:10166000130101F983284700232E31058329070040
:10167000232291062322910593040600938C0600F1
:10168000338619032324810523248106232671052B
:101690002320A1052326110623202107232C410501
:1016A000232A510523286105338C9C0293122600BE
:1016B000930610001308050013840500938B0700A0
:1016C000330D5500131C2C006380D83E338B9902D8
:1016D000232EB103130A870013992800930A0500EB
:1016E000938D08001304050013850A0093870B00EF
:1016F00013070A0093860C0013060B002320B10089
:10170000EFF01FF683250100B38A2A0193870B00AF
:101710003388850113070A0093860C0013060B001B
:1017200013850A0093050800630E5D132320010151
:10173000EFF01FF303230100B38A2A0193870B0004
:10174000B303830113070A0093860C0013060B00F2
:1017500013850A009385030063065D112320710041
:10176000EFF01FF083280100B38A2A0193870B0052
:10177000338E880113070A0093860C0013060B00B2
:1017800013850A0093050E00630E5D0D2320C10131
:10179000EFF01FED832E0100B38A2A0193870B001F
:1017A000338F8E0113070A0093860C0013060B007B
:1017B00013850A0093050F0063065D0B2320E101EA
:1017C000EFF01FEA832F0100B38A2A0193870B00F1
:1017D000B3828F0113070A0093860C0013060B00D7
:1017E00013850A0093850200630E5D0723205100D4
:1017F000EFF01FE783250100B38A2A0193870B00CE
:101800003388850113070A0093860C0013060B002A
:1018100013850A009305080063065D052320010176
:10182000EFF01FE403230100B38A2A0193870B0022
:10183000B303830113070A0093860C0013060B0001
:1018400013850A0093850300630E5D012320710058
:10185000EFF01FE103250100B38A2A01B3058501DA
:10186000E3145DE9930740001308040093880D001A
:1018700003A4CB00E38EF904E3C2377B832DC103BD
:10188000130C2000E3828949130D3000E390A92B4B
:10189000139B2400338F6803930A1000939328004E
:1018A00013933800B307E401839C27006384540139
:1018B0006F10C007373B0000B386030133050301F7
:1018C000930BABAA930E0400374E0000031F0800D1
:1018D000031A28009388F8FFB30F7F031304440012
:1018E000938E8E001308480013054500938646002A
:1018F000B3097A03338CCF019355FC40231EB8FE05
:10190000B383C90193D4F340231F98FE0397C6FF06
:101910000399E6FFB30A7703330D7903B387CA014E
:1019200013D6F740239EC6FEB302CD0113D3F24077
:10193000239F66FE031BC5FF031FE5FF330A7B03DE
:10194000B30F7F03B309CA0113DCF940231E85FFDF
:10195000B385CF0193DAF540231F55FF0319C4FF68
:101960000316E4FF83948EFF8392AEFF039DC6FFB0
:101970008397E6FFB3099C028353C8FF33072D0307
:101980003303F902338BC702B3875A02330A674124
:10199000B30FCA01330FCD0213DDFF40B38A9A02A1
:1019A000B384F9403387C401B3056F001353F74084
:1019B000330B6D003389C5011356F940131F0B011A
:1019C000135A1F41330C5C02B3834341239E76FEBE
:1019D000835FE8FF330D6D4093120D0193D90241EF
:1019E000B3055C013389C5019357F940B30AF6404A
:1019F00093940A013306F60013D70441330A970380
:101A000013130601135F1341B383EF41239F76FE47
:101A1000835FC8FF035DE8FF330BFB01330CA601B6
:101A2000B3829903231E68FF231F88FF83D9C6FF53
:101A3000B305CA0113D9F540B3073901231EF5FEDA
:101A400083DAE6FFB384C20113D6F4403387CA4079
:101A5000231FE5FE03D3C6FF330F2341239EE6FF7A
:101A600003DAE6FFB3034601239F76FEE39008E620
:101A70008320C1060324810683244106032901062D
:101A80008329C105032A8105832A4105032B01050A
:101A9000832BC104032C8104832C4104032D0104F6
:101AA00013010107678000003309AD40930CC9FFA3
:101AB00013D62C00B306160113FB7600130705009E
:101AC00063020B0C63021B0B130A200063024B0919
:101AD000130E30006302CB07930E40006302DB0558
:101AE000130F50006302EB03930F6000E312FB55EA
:101AF0000353040013074700231E67FE835324008B
:101B000033048401231F77FE835A04001307470020
:101B1000231E57FF0355240033048401231FA7FE0F
:101B20008357040013074700231EF7FE03592400C0
:101B300033048401231F27FF835C0400130747003D
:101B4000231E97FF0356240033048401231FC7FE7E
:101B50008356040013074700231ED7FE035B2400AF
:101B600033048401231F67FF035A0400130747004F
:101B7000231E47FF035E240033048401231FC7FF95
:101B80006306ED0A835E0400330F8401B30F8F01F7
:101B90002310D70183522400B3838F01B3858301BF
:101BA0002311570003530F00B38A850133898A013B
:101BB0002312670003552F00B3078901130707029B
:101BC0002313A7FE83DC0F0033848701231497FFC0
:101BD00003D62F002315C7FE83D603002316D7FE96
:101BE00003DB2300231767FF03DA0500231847FFF1
:101BF00003DE25002319C7FF83DE0A00231AD7FF5F
:101C000003DF2A00231BE7FF835F0900231CF7FF84
:101C100083522900231D57FE83D30700231E77FE1E
:101C200083D52700231FB7FEE31EEDF4130D4000FC
:101C300003A4CB0013992800638EA949E3523DC544
:101C4000130C5000139928006392896F232EB1035F
:101C5000B3891403939D1400130B0400B38B9D00F0
:101C600013972B00B30328012324E102B38223013D
:101C700013962400939634001393290033046400D0
:101C8000B30A640003952A00831724000317040095
:101C9000B38F2201B72C000093944400039C0A00E8
:101CA0002320F100B3852F012322A100130D07008B
:101CB0002326610123246101138F9C99232EC100E7
:101CC0002320D1022322910223280100B7470000DC
:101CD00023261103930A0B0083180800031A280017
:101CE000032E01013389E80313084800930E1E00F8
:101CF0002328D101938343009385450093824200BA
:101D0000938F4F00B309EA03B30DF90093DBFD4055
:101D1000231E78FF3383F9001354F340231F88FEFA
:101D20000395C3FF0397E3FFB30CE5033306E70313
:101D3000B386FC0093D4F640239E93FEB308F600CE
:101D400013DAF840239F43FF039EC2FF839EE2FF06
:101D50003309EE03B389EE03B30DF90093DBFD40C5
:101D6000239E72FF3383F9001354F340239F82FEB6
:101D70000395CFFF0397EFFF03248100B30CE50326
:101D80003306E703B386FC0093D4F640239E9FFE00
:101D9000B308F60013DAF840239F4FFF039EC5FFF8
:101DA000839EE5FF3309EE03B389EE03B30DF9001B
:101DB00013DEFD40239EC5FFB38BF90013D5FB4016
:101DC000239FA5FE839BE2FF03170B0083162B00C6
:101DD0000393C2FF831D0400031A2400B30EE30221
:101DE0008398CFFF8399EFFF0396C3FF83940A0084
:101DF000839CE3FF0324010203992A00232A910113
:101E0000330B8B003303D30203248100832C810224
:101E100033049401832CC101232481000324C100D5
:101E2000B38A9A013307770303140400B386DB02F5
:101E30003307E3003307F7001357F7403383B80342
:101E4000B38BDE40832EC100B38CFB00832BC1001B
:101E500083962E0093DEFC40832C4102B388480316
:101E6000B38B9B01835CC8FF23267101831BE8FFB2
:101E7000338A4903B3893D03B30D43413383FD00E6
:101E8000935DF340338ABE0113130A01B38EBE4142
:101E900013530341939D0E01B30E9A01330A83033A
:101EA000B3883801B389F80093D8F94093DD0D4128
:101EB0003303A303B309FA0013DAF940B3894C01E1
:101EC000330A1701330717419318070113D7084145
:101ED00093180A0193D808413303F3001353F340D6
:101EE000B38C6C0033039602330A7A01330626035F
:101EF000232CC1000326410133092603B384C40205
:101F0000330323413306F300032381011359F640C1
:101F100033069300B3048E023303F6001356F340E6
:101F2000330485023305D502B306DE02338EA440A6
:101F3000B304FE0013D3F44033056900330969404C
:101F4000131E090193140501B30ED50113530E415D
:101F500033848600B306F4003384880313D5F64037
:101F600013DE0441B304A600231ED8FF338A4401C4
:101F7000939E04013309A6401316090193560641A6
:101F8000B304AE033305F4001359F54033842B0139
:101F900013D60E4103294100832E0100231F48FF61
:101FA000B384F400338AD60313D5F440B389A9006F
:101FB000B30E2703330AFA009354FA403305A603FD
:101FC0003389FE00935EF94003290100338AD4016E
:101FD000B3844941B3894901239E93FE3305F5003B
:101FE000135AF540B30E230333094401032441007F
:101FF00033858D02B384FE0093DEF440B388A803DA
:10200000330AF5001354FA4033858E00B3042501DA
:10201000239F93FE3309A940239E35FF239F25FF6D
:10202000B389F8008328410003250100330E8E0395
:1020300093DEF940B38BDB013307A702330AFE00BE
:102040001354FA40B38C8C0003244100B38616036A
:10205000330EF700032701009359FE403306860331
:10206000B384F60013D9F440B38E2941B306394145
:10207000B388DC01338ADC00239E12FF3303830222
:10208000B30CF60013D5FC40B38BAB000324010165
:10209000B38DED02B304F30013D9F4403386FD0091
:1020A000135EF640B309C941B38E3B01239FD2FFB3
:1020B000239E4FFFB3082E41032AC102B3861B01A2
:1020C000239FDFFEE31A8AC0832DC1036FF05F9A5E
:1020D000832DC10383AC4B0013931400939218001B
:1020E000B30E930033851201931F2500139D2E001C
:1020F000139F3800139E240013933400639C0C4EEE
:10210000930E1000B3052801E396D44133060F0166
:1021100033870F01130F0400930F0400374D0000A5
:10212000031E0800031328009388F8FF1315DE0030
:10213000931BD300B30EC541B3826B40B389AE018C
:10214000B387A20193DAF94013DCF740231058015A
:1021500023118801839C0500039B25001304440080
:102160001399DC009313DB00330A9941B384634174
:10217000B306AA01338EA40113D3F6401355FE40D3
:10218000239065002391A500831E0600831B260073
:10219000938FCF009392DE009397DB00B389D241F7
:1021A000B38A7741338CA901B38CAA01135BFC403D
:1021B00013D9FC402311260123106601031A0700DE
:1021C00083132700130F8F009314DA00139ED3009C
:1021D000B386444133037E403385A601B30EA30189
:1021E00093D7FE40935BF540231077012311F7004E
:1021F000839A0500839C2500031CC4FF031AE4FF97
:1022000083936FFFB3828A03039B4FFF83198FFF72
:10221000831606000315260013084800130646001F
:10222000938545001307470033894C03B3049C038F
:1022300033832241B30EA301835CC8FF13DCFE404D
:10224000338E4A03831AAFFFB3826B03330A9E00B7
:10225000B304AA0113DEF4408354E8FF338B670311
:10226000B38B7B0233833603338A6B01330BAA01B2
:10227000935BFB4033897702B389A902B38722417C
:10228000B383A70193DEF340B302DC01B3865603A8
:1022900033055503338B3601B309AB01B30AA340B1
:1022A0003389AA019357F94013D5F940B383FC0051
:1022B00033037E01B38AA400231E78FE338A534081
:1022C000231F58FFB386A440B3846A40231E46FFF1
:1022D000231F96FE0359C8FFB38CFC408357E8FFC9
:1022E000338ACC01338B8641B3822201B303F300DE
:1022F000231E58FE231F78FEB3097A41B38CCC41CC
:10230000338C8601338E6E01239E35FF239FC5FFDC
:10231000B38B9B01B30EDC41231E77FF231FD7FF36
:10232000E39008E06FF0CFF4832DC103139D2900E3
:1023300013050D0003A90B00232201012320110125
:10234000EF10904A930C0500E30A057A83280100F8
:1023500003284100635C1017930B10006394787D91
:1023600063563017130FCDFF135B2F003783000028
:10237000930A1B001305F3FF13FC3A003383AC01EF
:10238000130E0800334D350393870C001307080024
:1023900037460000630A0C06630E1C0393062000F8
:1023A0006318DC74031F0700031B27009387470093
:1023B00013074700B30AAF03330CAB033385CA00DE
:1023C0009356F540239ED7FE330ACC009352FA4031
:1023D000239F57FE831B0700831327009387470023
:1023E000B38FAB0313074700B38EA303B385CF00AE
:1023F00093D8F540239E17FF338FCE00135BFF4029
:10240000239F67FF6308F30A831A0700031C270052
:10241000831647003385AA0383136700031F8700D1
:102420009387070113070701330AAC03B302C50002
:1024300093DBF240031CA7FF8312C7FF239877FFAB
:10244000B38FA603B30ECA0093D5FE40831EE7FFE9
:102450002399B7FEB388CF00338BA30393DAF840F8
:10246000239A57FFB306AF033305CB00135AF54049
:10247000239B47FFB30BAC03B383C60093DFF3404A
:10248000239CF7FF338FA203B385CB0013DBF5400A
:10249000239D67FFB388AE03B30ACF0013DCFA4075
:1024A000239E87FFB386C80013D5F640239FA7FE5F
:1024B000E31CF3F483DF0C0083D22C00130D100017
:1024C0002310F80123115800E39CA96B0324810613
:1024D0008320C10683244106032901068329C105FF
:1024E000032A8105832A4105032B0105832BC1049F
:1024F000032C8104032D010413850C00832C41045B
:10250000130101076F10102F139F2800930710006D
:10251000B305E801374D0000639AF432031B08004D
:10252000831A28009388F8FF9313EB00939CEA002A
:102530003383634133855C41B30BA301B304A5012D
:1025400013D7FB4013D9F4402310E80023112801CE
:1025500003960500039E2500130444009319E6002A
:102560009316EE00B38EC940B382C641B38FAE015D
:10257000338AA20113DCFF40135FFA4023908501E8
:102580002391E5018317C4FF031BE4FF835A08006E
:10259000B383870393854500130848003303EB0397
:1025A00033068B0333856340B30BA50193D4FB4003
:1025B00033879A40239EE5FE0359E8FFB38CE70377
:1025C000338ECC00B309AE0193DEF940B306D94196
:1025D000239FD5FE8352C8FF835FE8FF338A5400F0
:1025E000338CFE01231E48FF231F88FFE39808F267
:1025F0006FF00FC8130C1000B3052801B3070F01CB
:1026000033870F01E3968413930E0400130E040026
:10261000374D000003130800831228009388F8FF49
:10262000931FD300939AD200B38C6F40338B5A40E0
:10263000B38BAC01330AAB0193D3FB40135CFA407C
:102640002310780023118801039F050003952500BE
:10265000130444009314DF009319D5003386E4413A
:10266000B386A9403309A6013383A6019352F940EA
:10267000935FF340239055002391F501839C07005D
:10268000839A2700938ECE00139BDC00139ADA0006
:10269000B30B9B41B3035A41338CAB01338FA3017E
:1026A0001355FC409354FF40239197002390A700BB
:1026B0008319070003162700130E8E009396D90086
:1026C0001313D60033893641B302C340B30CA901BA
:1026D000B38FA20193DBFC4013DCFF402310770192
:1026E00023118701839A0500039F25000315C4FF6A
:1026F00083936EFF039B4EFFB386AA02031AE4FF87
:1027000083198EFF03960700839C27001308480057
:10271000938747009385450013074700B304E503FB
:1027200033856B03330B6C03330C7C0233834A0316
:10273000831AAEFFB38B7B02B303854133094F038A
:10274000330F9300330AAF011353FA40338A6B01FE
:10275000330BAA018354E8FF135CFB4033053603B7
:10276000B38226410359C8FFB386A301B38FA201E8
:1027700093D2FF4093DFF640338FF201B389990380
:1027800033065603B38C5C03330B3601B309AB013C
:10279000B30A9541B38BAA0193D3FB4093DCF94074
:1027A000B306790033057940B38A94013309830174
:1027B000231ED8FE338AE641231F58FF33869441F7
:1027C000B3842A41239E47FF239F97FE835BC8FF64
:1027D0008356E8FF330A6540330F7F01B303D90006
:1027E00033095600231EE8FF231F78FE330B4C01EC
:1027F00033036500B30256403305F941239E65FF5C
:10280000239FA5FE330C8341B38F5F00231E87FFF8
:10281000231FF7FFE39008E06FF08FA51307500028
:10282000E394E9B06346B0C3832DC1036FF04FA4B6
:1028300083D205001307450033048401231055009B
:1028400083D525002311B5006FF08FAA139B2400B8
:10285000930A0D0083130800031328009388F8FFE0
:10286000939CE300931BE30033857C40B3846B406F
:1028700033075501338954011356F740135EF9406D
:102880002310C8002311C80183990500839E2500E9
:10289000130848009396E900939FEE00B3823641F7
:1028A000338ADF41338C5201330F5A019357FC4076
:1028B000135DFF402390F5002391A50183130400CD
:1028C00003132400835CC8FF33857702330464015B
:1028D00093854500B30B6D02B3047D023307754148
:1028E000330957011356F940338ECC40239EC5FF60
:1028F0008359E8FFB38E6702B3869E00B382560108
:1029000093DFF240338AF941239F45FF035CC8FF00
:10291000035FE8FF330D8601B387EF01231EA8FF95
:10292000231FF8FEE39808F26FF08F94939B340016
:10293000B7340000B386030133050301138EA4AA44
:10294000130F0400B74E00000317080003192800F6
:102950009388F8FF3306C7031308480013054500A2
:1029600093864600B309C903B302D60193DFF24050
:10297000231EF8FFB385D90113DAF540231F48FF62
:10298000039CC6FF039DE6FFB30ACC03B303CD034C
:102990003383DA019357F340239EF6FEB384D301C9
:1029A00013D7F440239FE6FE0319C5FF0316E5FF86
:1029B000B309C903B302C603B38FD90193D5FF404E
:1029C000231EB5FE338AD201135CFA40231F85FF14
:1029D000831A040083172400039DC6FF0393E6FFB8
:1029E00083130F00B3045D03031A2F003304640143
:1029F000330F7F013309F302B389244133876A021D
:102A0000B382D901835AC8FFB3097C0233837502AC
:102A1000330C4C033306FD02B303834113DDF24054
:102A2000B3854503B30FE6003387D3011359F7404D
:102A3000330A2D01B387DF0193D4F74013160A013F
:102A400093521641B38A5A40B38F3501B387DF01E1
:102A500093D9F740338C3441239E56FF93150C01D4
:102A60000353E8FFB384340193D30541B38A93033E
:102A700013970401330D2D41135917413306234198
:102A8000239FC6FE131D0D010353E8FF8352C8FFA9
:102A900093570D41B3899703B38F6400330A5A00EB
:102AA000231E48FF231FF8FF03DCC6FFB385DA01AE
:102AB00093D3F540B3848301231E95FE03D7E6FF2D
:102AC0003389D901935AF940330D5741231FA5FF8C
:102AD00083D7C6FF33867740239EC6FE83D2E6FFA8
:102AE00033835A00239F66FEE39008E66FE05FF8A9
:102AF000031A08008312280013074800B30BAA0327
:102B000093874C00B383A203B38FCB0093DEFF40C7
:102B10002390DC01B385C30093D8F54023911C01B9
:102B20006FF05F88E354309B232EB103B78D000014
:102B3000138EFDFF334A3E0393050000338FAC0133
:102B400013050800139B2800B74A0000138C0500EA
:102B50009386080013830400138D0C00B38D1403B7
:102B6000B30CAF41938ECCFF93DF2E0093821F00F6
:102B700093F4320093070D00930805006384040A60
:102B8000130610006386C40613072000638AE4025C
:102B90008317050083132500B308650133884703B5
:102BA00093074D00B38B4303330E5801935CFE40F3
:102BB00023109D01B38E5B0193DFFE402311FD01C5
:102BC000839208008394280093874700338642034A
:102BD000B388680133874403B303560113D8F34025
:102BE000239E07FFB30B570113DEFB40239FC7FF54
:102BF000839C0800839E280093874700B38F4C0373
:102C0000B3886801B3824E03B3845F0113D6F440E6
:102C1000239EC7FE338752019353F740239F77FECD
:102C2000638EE70B33886801B30B6801B38C6B01CB
:102C3000839E2C00039E0C0083932B00B3824E03D3
:102C400003970B0093870701B30F4E03338E520196
:102C5000935EFE40239FD7FFB30B4703B3845F010E
:102C600003972800831F08000318280013D6F44098
:102C7000239EC7FEB382430383930800B3845B01A2
:102C8000B3886C0113D6F440239CC7FEB38B52016A
:102C9000B38C4F0313DEFB40239DC7FFB30E4803E5
:102CA000B38F5C0113D8FF40239A07FFB38243031D
:102CB000B3845E0113D6F440239BC7FEB3034703DE
:102CC00033875201935CF740239897FFB38B5301EE
:102CD00013DEFB402399C7FFE396E7F583540D000D
:102CE000835B2D00930710002310950023117501BD
:102CF000930805006398F944330CFC001305450064
:102D0000B3856500E39E86E5832DC103930C0D001A
:102D10006FF0CFFBB3070F0133870F01130F0400D0
:102D2000930F04003746000083190800831C280015
:102D30009388F8FF939AD900939BDC00B3843A41BF
:102D4000B3869B41B383C400338AC60013D9F340D2
:102D5000135BFA402310280123116801039C05002E
:102D600083922500938747001315DC009399D200C6
:102D7000B30E8541B38C5940B38ACE00B384CC00E6
:102D800093DBFA4093D6F440239075012391D5004C
:102D90008393C7FF039AE7FF130848001399D300F2
:102DA000131CDA00330B7940B3024C413305CB00DE
:102DB000B38EC2009359F54093DCFE40239E37FF4B
:102DC000239F97FF831A07008314270093854500EC
:102DD000939BDA009396D400B3835B41338A964089
:102DE0003389C300330BCA00935EF9409359FB400B
:102DF0002310D70123113701831B04008312240001
:102E0000839AC5FF8394E5FF83962F00839C0F0070
:102E1000338A740303150F00039CC7FF3304C401F6
:102E2000B38FAF011307470033899202B384520373
:102E3000B3835B03B3029A00839BE7FF338ADC030F
:102E4000338B2341B30ACB00031B2F003389C2000D
:102E500093D3FA40835AC8FF1359F940330F6F00D8
:102E6000B38C3C03B38ED603B382DC01B38EC200B5
:102E7000B30C8503B382AB0233057B03330C8B03A6
:102E8000B38BAC40338BCB00935CFB4033859A41D2
:102E9000B3893603B3828201338CC200B3063A4150
:102EA000035AE8FFB384C60093D4F44093D6FE409F
:102EB000B38E5C01935CFC40B3897400B38A260135
:102EC000338B4C01231ED8FF231F68FFB38B3E4179
:102ED000B30E9A41330A5B41239F47FF239E77FF3E
:102EE000835BC8FF8352E8FF330CA900B38C7E409C
:102EF000B3897901B38A5A00231E38FF231F58FF74
:102F0000330BDC40338A940133092541B383D30169
:102F1000239E65FF239F45FFB3862601B38493401C
:102F2000231ED7FE231F97FEE39008E06FE05FB4F7
:102F300093020400930F0400B74E000083140800AE
:102F4000031A28009388F8FF1396D400931BDA0025
:102F5000B30A9640B3834B41338BDA01B386D30176
:102F60001359FB4093D9F64023113801231028014F
:102F7000839C05000395250093874700139FDC0081
:102F80009314D500330C9F41338AA4403306DC01EF
:102F9000B30ADA01935BF64093D3FA4023907501AC
:102FA00023917500039BC7FF0399E7FF13084800AF
:102FB0009316DB00931CD900B389664133852C41FD
:102FC000338FD901330CD5019354FF40135AFC4081
:102FD000239F47FF239E97FE831A070003162700AF
:102FE00093854500939BDA00131BD600B3835B41A6
:102FF0003309CB40B389D301B306D90113DFF940BC
:1030000013DAF6402310E70123114701831304006C
:10301000031524008394C5FF0396E5FF839A2200DD
:10302000B386A402839C0200839B0F00039CC7FF0E
:103030003304C401B382A201130747003389C302DA
:10304000B309A602B386260103962F000395E7FF76
:10305000B38F6F00338B740233099F03B3043B417A
:10306000B383D40193D9F340B384D601035BC8FF83
:1030700093D4F440B30C9A03330A5A03330F5F031B
:10308000B30A4941B383DA0113D9F340835AE8FF05
:10309000338A2901B303C502B3069F01B38CD6015D
:1030A00093D6FC40330F7C03330CCC02B38BAB02C2
:1030B00033057F403306D501135FF6403306EB41FD
:1030C000B30CEB01B383D400231E98FF338B4C4128
:1030D000B30B7C01338CDB011355FC40338FAA000A
:1030E000231FE8FFB38CAA40B30A7F40239E67FFEB
:1030F000239F57FF035BC8FF835BE8FF330C9640B9
:1031000033853C01330A6A01B3837301231E48FFF0
:10311000231F78FE338F8601B3049600B3893C41A8
:1031200033062541239EE5FF239FC5FEB386D44089
:1031300033093901231ED7FE231F27FFE39008E040
:103140006FE01F93930F0500938E0500930300001B
:1031500093024D00374E00002320D100232241016D
:103160002324A1002326B100930C0C0033055F40FB
:10317000131AD501135CFA0183960800839728007F
:103180001385020093050000630C0C0693850E0066
:1031900063C42E01B3852E41139825003306040124
:1031A000031A260003180600039C2200039702005E
:1031B00013854200330607033308880333074703A8
:1031C000330A4C03330707013308C701330C464168
:1031D0003306CC01135AF6401356F840B306DA0012
:1031E000B307F600139C0601139A070193560C418E
:1031F00093570A412390D8002391F8006300AF0E43
:10320000138C0900B385D50163C42501B38525411D
:103210009399250033073401031A07008319270007
:103220000318250003170500B385D50113054500D4
:103230003306470333073703B3093803330A0A0356
:10324000330836413306C8019359F6403386D90016
:103250002390C800B30647013387C601135AF740CD
:103260003307FA002391E80063C42501B3852541A3
:10327000939725003308F40083190800831625006E
:10328000031828008317050013054500338A370308
:10329000B389D902B387070333880603B38737019D
:1032A000B389C701B3060A41338AC6011358FA40ED
:1032B00013DAF9403306C8003307EA009316060113
:1032C0001318070193D60641935708412390D8005D
:1032D0002391F800E318AFF293090C0093831300D5
:1032E000B38F6F01B38EBE016382792223909F005A
:1032F00023917F0193880F006FF05FE7176401004F
:10330000032404A40329040013067001930510008C
:103310008326C90017350100130505A1EF1050637E
:103320000328040093051000130690018326C800AB
:10333000173501001305C5A0EF1090618329040023
:10334000032481068320C10683A5C9008324410686
:10335000032901068329C105032A8105832A410522
:10336000032B0105832BC104032C8104832C41040E
:10337000032D01041305A000130101076F10502550
:10338000130F000093080000938E4C003745000097
:103390003306D3411317D601135AF70183160800D9
:1033A0008317280093850E001306000063040A06A5
:1033B0001386080063C4280133862841931B260026
:1033C000B3037401039C0300839A2300039D0E0042
:1033D000039B2E0093854E00B30B8D03B3035B0359
:1033E00033075D03330A6C03338C7B40B30AAC00B4
:1033F00013DDFA40B306DD00139B060193560B4123
:103400002310D800B30B47013387AB00135CF740A0
:103410006F00400C33061601634426013306264133
:10342000131A2600330C4401031D0C00831A2C00D0
:10343000839B0500039B250033061601B383AB0372
:1034400093854500330C5B0333875B03330A6D03BD
:10345000338D8341B30AAD0093DBFA40B383DB00C5
:1034600023107800B3064701338BA6001357FB40A7
:10347000330CF700231188016344260133062641EB
:1034800093172600330DF400831A2D00031A0D0044
:10349000839B0500039B250093854500B3864B0362
:1034A000B3075B0333875B03330D6A03338AF6404C
:1034B000B30AAA0093DBFA40B3837B00139B03019A
:1034C00093560B412310D8003307A701B307A70079
:1034D00093D7F740B38787019393070193D70341AD
:1034E0002311F800E318B3F2130F1F00130E4E0060
:1034F000B38898006394E9016FE05FFD2310FE013B
:1035000023115E0013080E006FF09FE883288100EE
:103510008325C10083260100138C1C00032A41006F
:1035200013854800B3856500639C86E36FF0CFFD8B
:103530009307050013053500131525006384060461
:10354000630C060203A7060023A0A6006368A70277
:103550009756010083A6867E9752010083A2827E41
:10356000130506002320F6002322B6002326D600EA
:10357000232456006780000023A0A6001305000046
:1035800067800000130101FE232E11002326B100E5
:103590002324F100EF005025631A050013050000F5
:1035A0008320C10113010102678000000323810011
:1035B0008325C1009753010083A343781756010068
:1035C00003264678232065002322B50023267500B4
:1035D0002324C5006FF0DFFC13000000130000007F
:1035E00093070500638AC5000327850013050600BD
:1035F000130610006FE0CF86130101FE232E110089
:10360000638A050603250500232C81002326D100AB
:10361000131525002324B1002322F100EF00D01C54
:1036200083274100832581008326C1001304050000
:103630006306050A03A78700130610002324F10080
:103640002322B100EFE0CF818327810003254100D1
:103650009305040003A6070013162600EF2090062A
:1036600013050400032481018320C1011301010219
:103670006F005018175801000328886C8328080031
:10368000130670019305100083A6C80017250100DA
:103690001305C56CEF10D02B175E0100032E4E6A88
:1036A000832E0E00930510001306100183A6CE0092
:1036B000172501001305056CEF109029175F010015
:1036C000032F0F68832F0F008320C1011305A00073
:1036D00083A5CF00130101026F10806F9752010084
:1036E00083A2026603A7020013067001930510006F
:1036F0008326C7001725010013050569EF10502523
:10370000175301000323C3638323030093051000B1
:103710001306800183A6C300172501001305456821
:10372000EF1010239755010083A5856183A605003E
:10373000032481018320C10183A5C6001305A000D5
:10374000130101026F10C068130000001300000095
:1037500093070500638CC5000327850093061000BE
:1037600013050600138606006FD09FEF130101FEBC
:10377000232E11006388050603250500232C8100F4
:103780002326B100131525002324F100EF00D005F6
:10379000832781008325C100130405006308050AFF
:1037A00003A7870093061000138606002326F10066
:1037B0002324B100EFD0DFEA8327C1000325810075
:1037C0009305040003A6070013162600EF20806F60
:1037D00013050400032481018320C10113010102A8
:1037E0006F005001175801000328885583280800EE
:1037F000130670019305100083A6C8001725010069
:103800001305C555EF10D014175E0100032E4E535B
:10381000832E0E00930510001306100183A6CE0020
:103820001725010013050555EF109012175F0100D1
:10383000032F0F51832F0F008320C1011305A00018
:1038400083A5CF00130101026F1080589752010029
:1038500083A2024F03A70200130670019305100014
:103860008326C7001725010013050552EF10500EDF
:10387000175301000323C34C832303009305100057
:103880001306800183A6C3001725010013054551C7
:10389000EF10100C9755010083A5854A83A60500FB
:1038A000032481018320C10183A5C6001305A00064
:1038B000130101026F10C05113000000130000003B
:1038C00067800000130000001300000013000000D8
:1038D00037565555B7D8CCCC37A89919B7353333A7
:1038E0003763666693771500930266559383D8CC49
:1038F000130F9899938F253313067366930E100058
:10390000639007269307050093D7174013F7170016
:10391000631C070493D7174093F6170063960604B9
:1039200093D7174013FE170063100E0493D7174068
:1039300093F81700639A080293D7174013F81700FB
:103940006314080293D7174093F51700639E050090
:1039500093D7174013F317006318030093D717404A
:1039600013F71700E30207FAB396570213D7F7418C
:10397000B388E640139E180033081E016394070FB6
:10398000B3955702B387E5403393570213D7F741F6
:10399000B306E34093981600338ED8006394C70DA6
:1039A0003398560213D7F64193870600B305E840D3
:1039B00013931500B306B3006396D70AB398550264
:1039C00013D7F541938705003388E840131E18008C
:1039D000B3050E016398B708331358021357F84123
:1039E00093070800B306E340939816003388D80085
:1039F000639A0707339E560213D7F6419387060052
:103A0000B305EE4013931500B306B300639CD704CF
:103A1000B398550213D7F541938705003388E840E2
:103A2000131E1800B3050E01639EB702331358022C
:103A30001357F84193070800B306E3409398160024
:103A40003388D8006390070393870600B396570224
:103A500013D7F741B388E640139E180033081E01C0
:103A6000E38007F3338E7702B305EE0163E2BF0E06
:103A7000B397C70213D31740B307E34033877702E6
:103A800093D6F741B308E70163E41F0D3398C702EB
:103A9000135E1840B307DE403383770293D5F741B6
:103AA000B306E30163E6DF0AB397C70213D71740F3
:103AB000B307B7403388770293D8F741330EE80154
:103AC00063E8CF09B395C70213D31540B307134179
:103AD0003387770293D6F741B308E70163EA1F07FC
:103AE000B397C70213D81740B307D840B3857702FE
:103AF00013DEF7413383E50163EC6F04B396C7022D
:103B000013D71640B307C7413388770293D8F741DC
:103B1000330EE80163EECF03B397C70293D5174086
:103B2000B3871541B386770213D3F7413387E60194
:103B300063E0EF02B398C70213D81840B307684098
:103B4000338E770213D7F741B305EE01E3F2BFF2EC
:103B500063DCFE001305150093771500E38407DA94
:103B6000930705006FF05FE0678000001308060010
:103B70009307050093880500639C060C63FAC52231
:103B8000370701006368E636370700011303800139
:103B90006374E60013030001B35666001747010083
:103BA000130787F23307D700034707009306000285
:103BB00033076700630ED700B386E640B398D5009D
:103BC0003357E5003318D600B317D500B368170193
:103BD0001356080133D5C8029316080193D606017F
:103BE00013D70701B3F8C802B385A602939808015A
:103BF00033671701637CB700B308E8001387080038
:103C000063F4B80063F408391305F5FF3307B740D0
:103C1000B355C7029397070193D707013377C702BC
:103C2000B386B60213170701B3E7E70063FAD700BC
:103C3000B307F80063F4D70063F607359385F5FF03
:103C4000131505013365B50093050000678000007A
:103C500063F8D5009305000013050000678000009D
:103C6000B707010063E6F62A3707000193078001D2
:103C700063F4E6009307000133D8F600174701000C
:103C8000130787E4330707010347070013080002FF
:103C90003307F700630607293308E840B358E60006
:103CA000B3960601B3E8D80033D3E50093DE0801EC
:103CB000B357D303139E0801B3950501135E0E019C
:103CC0003357E5003367B7009356070133160601F3
:103CD0003373D303B305FE0213130301B3E6660087
:103CE00063FCB6003383D800930603006374B3000B
:103CF000637C132D9387F7FFB386B64033D3D60387
:103D00001317070113570701B3F6D603B3056E0265
:103D1000939606013367D700637CB700B386E8004B
:103D20001387060063F4B60063F416291303F3FF48
:103D300093970701B3E667003307B740931706016F
:103D40009315030193D7070193D5050113D30601FA
:103D500013560601330EF302B388F502B385C5028C
:103D600093D70801B385C501B387B7003303C302F6
:103D700063F6C701370601003303C30013D60701FA
:103D8000330666006360C7029398080193D8080160
:103D90009397070133150501B3871701637EF51E5D
:103DA000631CC71E1385F6FF9305000067800000A3
:103DB000630A061437070100637CE618933806107F
:103DC00093B8180093983800B356160117470100AE
:103DD000130787CF3307D700034707009306000276
:103DE00033071701630AD714B387E6403318F60088
:103DF00033D3E50093580801335E1303131608010B
:103E0000B395F500135606013357E5003367B70045
:103E100093560701B317F50033731303B305C603B5
:103E200013130301B3E6660063FCB6003305D80044
:103E3000930605006374B50063760517130EFEFF45
:103E4000B386B64033D5160313170701135707017E
:103E5000B3F616033303A602939606013367D70021
:103E6000637C6700B306E8001387060063F466000E
:103E700063F606151305F5FF93150E01B3E5A500CE
:103E8000330767403355170393D60701337717037A
:103E90003303C5021317070133E7E600637C6700AD
:103EA000B306E8001387060063F4660063F6060DA8
:103EB0001305F5FF33076740B356170393970701C0
:103EC00093D70701337717033386C6021317070109
:103ED000B3E7E70063FAC700B307F80063F4C7006D
:103EE00063F807099386F6FF131505013365D500BE
:103EF00067800000133306101333130013133300CD
:103F00006FF09FC993060000930800006FF01FEC4C
:103F100093B7061093B71700939737006FF0DFD56C
:103F20003336C500B3B6B6001336160033E5C60007
:103F300093050000678000003387C5409358060151
:103F40001316060113560601930510006FF09FF338
:103F5000370700016378E6009356060193080001D5
:103F60006FF0DFE693568601930880016FF01FE63D
:103F70009386E6FF6FF05FF71305E5FF33870601D1
:103F80006FF05FF39385E5FF6FF09FCB1305E5FFBF
:103F9000338708016FF09FC7138506009305000063
:103FA00067800000130EEEFFB30605016FF05FE9B6
:103FB0001303E3FF338716016FF09FD71305E5FF67
:103FC000338706016FF05FEB9387E7FFB3061301BA
:103FD0006FF09FD2930505009306000013060000C2
:103FE000130500006F2040099305050003A5410853
:103FF0006F0000019305050003A541086F20803E76
:10400000130101FC232C8102232E11029387B5009A
:104010001307600113040500636EF708930600019F
:1040200063ECB606EF00D00593060001130780018C
:1040300093082000174801001308C8523307E8000E
:1040400083274700130687FF638EC74403A74700F3
:1040500003A6C70083A587001377C7FF3387E70050
:104060008326470023A6C5002326F1002324B6009B
:1040700093E61600130504002322D700EF00D000BA
:104080008327C1008320C103032481031385870094
:1040900013010104678000009307C0002320F4008F
:1040A000130500008320C1030324810313010104CD
:1040B0006780000093F687FFE3C007FEE3EEB6FCDF
:1040C0002326D100EF00C07B8326C1009307701F19
:1040D00063F8D74C93D79600638E071613074000FA
:1040E000636AF74293D7660093889703138E87031A
:1040F00013953800174801001308C8463305A80077
:1041000083274500130585FF6308F5021303F000BC
:104110006F00400183A5C70063560634630EB500E7
:104120009387050003A747001377C7FF3306D740DF
:10413000E352C3FE93080E0083270801974E010047
:10414000938ECE42638ED72D03A747009305F000D0
:104150001377C7FF3306D74063CEC546232AD8015D
:104160002328D801635406441306F01F0323480094
:104170006362E634137687FF130686003306C800B1
:104180008325060013555700130710003317A700A7
:104190003363E300130786FF23A4B70023A6E700D9
:1041A000232268002320F60023A6F50093D7284099
:1041B000130510003315F5006366A30AB377650095
:1041C000639407021315150093F8C8FFB3776500D1
:1041D00093884800639A070013151500B3776500AC
:1041E00093884800E38A07FE130EF000139F3800FF
:1041F000330FE80113030F000327C300938F080058
:10420000630CE33203264700930707000327C70028
:104210001376C6FFB305D640634CBE32E3C205FE3B
:104220003386C7008326460083A587001305040054
:1042300093E616002322D60023A6E5002324B70028
:104240002326F100EF0040648327C1001385870017
:104250006FF05FE51305002093080004130EF003D0
:104260006FF05FE98327880003A747001373C7FF38
:104270003306D3406366D300132706016306071A8B
:1042800083A5C10903A6C1071307F0FFB385B600D4
:104290006306E642371700001307F700B385E50011
:1042A00037F7FFFFB3F5E50013050400232E0101E6
:1042B000232CF100232AD100232861002326B100FA
:1042C000EF1090151307F0FF8325C10003230101B0
:1042D00083264101832781010328C101130E0500B4
:1042E000138FC1076306E534338767006360E534E5
:1042F000938E410D03A60E003386C50023A0CE0089
:10430000630AA74883280F001305F0FF6382A84AB9
:104310003307EE403307C70023A0EE00137F7E0073
:10432000630E0F3A137E8EFFB7180000130E8E0037
:10433000938888003306BE00B385E841B385C54045
:104340009395450193D54501130504002326D10318
:10435000232401032322F1022320D102232E610012
:10436000232CC101232AE1012328C1002326B10007
:10437000EF10900A130705001305F0FF8325C10015
:1043800003260101032F4101032E81010323C101F3
:10439000832601028327410203288102832EC10262
:1043A000630EA74403A60E003307C7413307B700C7
:1043B000136717002324C8013386C5002322EE00AB
:1043C00023A0CE00638E07031305F0006376653EDD
:1043D00083A54700130743FF137787FF93F5150065
:1043E000B3E5E50023A2B70093085000B385E700CA
:1043F00023A2150123A41501636AE54003274E009B
:1044000083A7810963F4C70023ACC10883A74109CE
:1044100063F4C70023AAC10893070E006F00C021F0
:10442000032348006FF09FD813E7160023A2E7008C
:10443000B386D700136616002324D80013050400A2
:1044400023A2C6002326F100EF0000448327C10009
:104450008320C10303248103138587001301010412
:104460006780000003A687003387E70083264700A4
:104470002326B6002326F10093E6160023A4C500E8
:10448000130504002322D700EF0000408327C1005A
:104490008320C103032481031385870013010104D2
:1044A000678000008327C70093882800E306F7C8C9
:1044B0006FF0DFB9135697009305400063FEC514F3
:1044C0009305400163E2C5281305C60513153500A1
:1044D0009305B6053305A80003260500130585FFDF
:1044E0006318C5006F00001E032686006308C50020
:1044F0008325460093F5C5FFE368B7FE0325C60094
:1045000023A6A70023A4C7002324F5002326F60032
:104510006FF0DFC9130740016370F71413074005FC
:104520006362F72493D7C6009388F706138EE706D5
:10453000139538006FF01FBC938F1F0093F73F0057
:1045400013038300638807120327C3006FF05FCB58
:1045500003A5870093E8160023A217012326E50090
:104560002324A700B386D700232AD8002328D80005
:1045700013E715003386C70023A6D60123A4D6016E
:1045800023A2E600130504002320B6002326F10031
:10459000EF00802F8327C100138587006FF09FB045
:1045A00093D83600138786006FF0DFA83387E700C3
:1045B000832647002326F1001305040093E6160026
:1045C0002322D700EF00402C8327C10013858700EA
:1045D0006FF05FAD93E5160023A2B700B386D70056
:1045E000232AD8002328D800936516003387E700D4
:1045F00023A6D60123A4D60123A2B60013050400E6
:104600002320C7002326F100EF0000288327C100E4
:10461000138587006FF01FA91356670013059603D3
:1046200013153500930586036FF0DFEA638A0715DB
:104630008327880003A747001377C7FF3306D740B7
:104640006366D70013270601E30007DE13050400A5
:10465000EF0080236FF0DFA49388C705138EB705A2
:10466000139538006FF01FA983278F009388F8FFF8
:104670006394E72193F73800130F8FFFE39607FE4B
:10468000032748009347F5FFB3F7E7002322F8001C
:10469000131515001307F5FFE376F7BC3377F50024
:1046A000631A0700131515003377F500938F4F0039
:1046B000E30A07FE93880F006FF05FB3938505014F
:1046C0006FF09FBE93D52540130710003317B70036
:1046D0003363E300232268006FF09FE23306BE00DD
:1046E000B305C0409395450193D5450113050400DA
:1046F0002324D103232201032320F102232ED100FE
:10470000232C6100232AC1012326B1002328C100E4
:10471000EF108050130705001305F0FF8325C1003B
:10472000032E4101032381018326C1018327010256
:1047300003284102832E8102E316A7C60327010145
:10474000930500006FF01FC69305400563ECC50696
:104750001356C7001305F606131535009305E60634
:104760006FF05FD713074015636CF70693D7F60019
:1047700093888707138E7707139538006FF09F97FC
:10478000938E410D03A60E003386C50023A0CE00F4
:104790006FF05FB713154501E31605B6032E8800C9
:1047A000B305B30013E715002322EE006FF05FC5D9
:1047B0002320CF016FF09FB6930710002322FE0045
:1047C0006FF0DFE89305401563ECC5061356F7005C
:1047D0001305860713153500930576076FF09FCFF5
:1047E00013074055636CF70693D726019388D707C4
:1047F000138EC707139538006FF0DF8F130F8FFFED
:104800003307E601930500006FF0DFB99385870059
:1048100013050400232AD101232801012326D100F6
:10482000EF10503C03280101832E41018326C10073
:10483000032E880003A60E0003274E006FF05FBC16
:104840009305405563E4C502135627011305D607A7
:10485000131535009305C6076FF0DFC71305803FBA
:104860009308F007130EE0076FF0DF881305803F11
:104870009305E0076FF01FC6832748006FF05FE1E4
:104880001385810B6F1080541385810B6F10805539
:10489000138601C3975500009385854F138501C486
:1048A0006F00806083254500130101FF23248100F0
:1048B000232611009387C10F130405006384F500BC
:1048C000EF50C04C83258400938741166386F50022
:1048D00013050400EF50804B8325C4009387C11C4F
:1048E000638CF50013050400032481008320C100BC
:1048F000130101016F5080498320C100032481000E
:10490000130101016780000083A7450693F7170094
:104910006398070083D7C50093F7072063860700D5
:10492000130500006780000003A58505130101FF42
:1049300023261100EF1080498320C10013050000D9
:10494000130101016780000083A7450693F7170054
:104950006398070083D7C50093F707206386070095
:10496000130500006780000003A58505130101FF02
:1049700023261100EF1000478320C100130500001B
:104980001301010167800000130101FE9707000079
:10499000938747F0232E1100232C8100232A9100B6
:1049A0001384C10F2328210123263101232441012F
:1049B000130680009305000023A0F10A13858115DA
:1049C000930740002326F400232004002322040040
:1049D000232404002322040623280400232A04009D
:1049E000232C0400EF104040171A0000130A4ABBA2
:1049F00097190000938909C117190000130909C903
:104A0000971400009384C4CE1385411523204403DA
:104A1000232234032324240323269402232E8400F8
:104A2000EF10C039B7070100938797001306800085
:104A3000930500001385011C232AF4062324040691
:104A400023260406232804062326040C232C04060C
:104A5000232E040623200408EF1000399387411603
:104A60001385C11B2322F408232444092326340977
:104A700023282409232A9408EF104034B7070200A2
:104A80009387270113068000930500001385812278
:104A9000232EF40C2328040C232A040C232C040CAE
:104AA000232A04122320040E2322040E2324040E9E
:104AB000EF1080339387C11C2328440F232A340F1F
:104AC000232C240F232E940E2326F40E032481017D
:104AD0008320C10183244101032901018329C100ED
:104AE000032A810013854122130101026F10002D5A
:104AF000130101FE232A9100930405001385410C44
:104B0000232E1100232C8100EF10402C83A7010AD3
:104B100063840710138801C39306F0FF83274800BE
:104B20009387F7FF63C80708032488006F00C0005D
:104B3000130484066380D7080317C4009387F7FF24
:104B4000E31807FEB707FFFF938717002326F4003B
:104B50001305840523220406EF1040261385410C1B
:104B6000EF1040281305C40523200400232404006B
:104B70002322040023280400232A0400232C0400F9
:104B80001306800093050000EF100026232804027E
:104B9000232A040223220404232404048320C101C1
:104BA0001305040003248101832441011301010240
:104BB0006780000003240800630604001308040053
:104BC0006FF0DFF59305C01A138504002326010159
:104BD000EFF00FC30328C1001304050063020504AE
:104BE000930740002322F5001305C500232004008D
:104BF0002324A4001306001A9305000023260101B4
:104C0000EF10801E0328C1009306F0FF23208800C8
:104C1000130804006FF09FF0EFF01FD76FF09FEFC5
:104C2000232008001385410CEF10C01B9307C00020
:104C300023A0F4006FF09FF6130101FF23248100ED
:104C4000130405001385410C23261100EF100018F2
:104C500083274403639C070083A7010A170700000A
:104C6000130787C4232AE402638C0700032481000E
:104C70008320C1001385410C130101016F108016C0
:104C8000EFF09FD0032481008320C1001385410CE5
:104C9000130101016F1000151385410C6F100013F3
:104CA0001385410C6F100014130101FF1385410C93
:104CB00023261100EF1080118320C100138601C349
:104CC00097050000938585C41305000013010101B9
:104CD0006F00801D130101FF138601C397050000BB
:104CE0009385C5C61305000023261100EF00C01BE5
:104CF0008320C1001385410C130101016F10800E48
:104D0000130101FE232E11001307050063060500A1
:104D100083274503638E07088327460693F717000A
:104D2000639807008357C60093F707206380070640
:104D3000130507002322C100EF00804C0326410029
:104D4000130705008327460693F7170063980700AB
:104D50008357C60093F70720638A07008320C101A9
:104D60001305070013010102678000002322A10040
:104D700003258605EF100007032741008320C101AA
:104D80001305070013010102678000000325860553
:104D90002326B1002324E1002322C100EF100003E9
:104DA0008325C10003278100032641006FF05FF8CF
:104DB0002326C1002324B1002322A100EFF0DFE766
:104DC0000326C10083258100032741006FF0DFF433
:104DD00003A74108130101FE232C8100232E11009B
:104DE0009306050013840500630607008327470325
:104DF000638E07088327440693F71700639807001C
:104E00008357C40093F70720638407061305070040
:104E10009385060013060400EF00803E83274406B6
:104E20001307050093F71700639807008357C40022
:104E300093F70720638C07008320C10103248101BD
:104E40001305070013010102678000002324A1005D
:104E500003258405EF001079032781008320C10119
:104E6000032481011305070013010102678000007C
:104E7000032584052326D1002324E100EF001075CB
:104E80008326C100032781006FF05FF82326A1006D
:104E9000130507002324E100EFF01FDA8326C10089
:104EA000032781006FF01FF5130101FD232021036B
:104EB000232E3101232C4101232A51012328610192
:104EC0002326710123261102232481022322910229
:104ED000930A0600130B0500938B0500130A0000CC
:104EE000930910001309F0FF83A44A009384F4FF90
:104EF00063CA040203A48A008357C40063FEF90056
:104F00008317E4009305040013050B006386270153
:104F1000E7800B00336AAA009384F4FF130484062D
:104F2000E39C24FD83AA0A00E3900AFC8320C102CB
:104F30000324810283244102032901028329C10140
:104F4000832A4101032B0101832BC10013050A00B1
:104F5000032A810113010103678000003388C60220
:104F6000130101FB93080600930710001306C1020A
:104F7000232AC102232611042326B102232CF10285
:104F80001306050023280103232E010363060500F1
:104F900083274503638A0716832747068315C700BF
:104FA00013F51700630A0504139525016340050EE8
:104FB00037E5FFFF1305F5FF37230000B3F7A70020
:104FC000B3E565002322F7062316B7009395270162
:104FD00063D0050493F71700639807008357C70051
:104FE00093F70720638C070E8320C104130500008C
:104FF000130101056780000013F50520630E050805
:1050000013952501E35605FA93952701E3C805FC9E
:10501000130506009305070013064103232CD10056
:10502000232A1101232801012326E100EF50802DBE
:105030000327C10003280101832841018327470674
:105040008326810193F717006300050A6394070222
:105050008357C70093F70720639E07000325870542
:105060002328110123260101EF00D05783280101D5
:105070000328C1008327C1038320C1043308F840FB
:10508000335518031301010567800000939527012C
:10509000E3CC05F46FF0DFF703258705232ED1005D
:1050A000232C1101232AC100232801012326E1001A
:1050B000EF00D0510327C10003280101032641015D
:1050C0008315C7008327470683288101139525018F
:1050D0008326C101E34C05EE6FF09FED03258705A4
:1050E000EF0050506FF05FF0639807008357C700E0
:1050F00093F7072063820704138506008320C10409
:105100001301010567800000232EE100232CD1004C
:10511000232A1101232601012328A100EFF0DFB18A
:105120000327C10183268101832841010326010150
:105130000328C1006FF05FE6032587052326D10011
:10514000EF00504A8326C100138506006FF01FFB55
:105150009308050003A5410813870600930606007F
:1051600013860500938508006FF05FDF130101FCD3
:10517000138E050083258500130381022324C102B9
:105180002326D10213060E0093060300232E1100DE
:105190002328E102232AF102232C0103232E1103E9
:1051A00023266100EF1080528320C1011301010406
:1051B0006780000003A34108130101FC2324C102FE
:1051C0002326D1022322B1022328E102232AF1025D
:1051D000232C0103232E1103832583009306410210
:1051E0001306050013050300232E11002326D1000A
:1051F000EF10C04D8320C10113010104678000003E
:10520000130101FE232E110013070500630605009C
:1052100083274503638C070C8327460693F7170003
:10522000639807008357C60093F70720638E07062D
:105230008327860093F6F50F9387F7FF2324F60064
:1052400063DA07000325860163C4A704938766FF1A
:10525000638007048327060093F5F50F1387170073
:105260002320E6002380D7008327460693F7170004
:10527000639807008357C60093F7072063880704E5
:105280008320C1011385050013010102678000001E
:10529000130507002322C100EF00C045032641008B
:1052A000930505006FF05FFC032586052326B100FA
:1052B0002324E1002322C100EF0050318325C100E7
:1052C00003278100032641006FF09FF60325860522
:1052D0002322B100EF001031832541008320C1015A
:1052E0001385050013010102678000002326C10019
:1052F0002324B1002322A100EFF01F940326C10054
:1053000083258100032741006FF01FF183A6410828
:10531000130101FE232E110013070500138605005B
:105320006386060083A74603638E070C8327460621
:1053300093F71700639807008357C60093F7072079
:1053400063800708832786009375F70F9387F7FF1D
:105350002324F60063DA07000325860163C4A7044B
:10536000938765FF63800704832706001377F70F91
:10537000938617002320D6002380B7008327460694
:1053800093F71700639807008357C60093F7072029
:10539000638A07048320C10113050700130101027A
:1053A0006780000093050700138506002322C100D3
:1053B000EF00403403264100130705006FF01FFC87
:1053C000032586052326E1002324D1002322C100E2
:1053D000EF00D01F0327C100832681000326410070
:1053E0006FF05FF6032586052322E100EF00901F92
:1053F000032741008320C1011305070013010102A7
:10540000678000002324A100138506002322D10019
:105410002326B100EFF05F820326C100032781003D
:10542000832641006FF09FF0130101FD23229102BA
:10543000930405001385050023248102232611020D
:1054400013840500EF00903A83A744031308150066
:1054500097150100938585961306100093060101A8
:105460001307200023288100232AA10023260101FD
:10547000232CB100232EC1002322D1002324E100DC
:1054800003A48400638C070E832744060317C4001B
:1054900093F61700638E06069316270163CA060863
:1054A000B7E6FFFF9386F6FF37260000B3F7D70075
:1054B0003367C7002322F4062316E400139727015D
:1054C0006344070C13850400130641009305040090
:1054D000EF4050633337A000832744063307E04092
:1054E0009364A70093F71700639807008357C400DD
:1054F00093F70720638607048320C10203248102F7
:105500001385040083244102130101036780000016
:10551000937607206386060493162701E3D206F8E4
:1055200013972701E35007FA9304F0FF6FF01FFC75
:1055300013972701E35807F89304F0FF6FF0DFFBA0
:1055400003258405EF00100A8320C1020324810291
:1055500013850400832441021301010367800000C6
:1055600003258405EF0090060317C4008327440633
:1055700093162701E3C406F46FF09FF2138504002D
:10558000EFF08FEB6FF05FF09304F0FF6FF09FF59B
:105590009305050003A541086FF01FE9130101FF02
:1055A00023248100138405008395E5002326110040
:1055B000EF00C06063400502832704058320C1001B
:1055C000B387A7002328F4040324810013010101F9
:1055D000678000008357C40037F7FFFF1307F7FF0A
:1055E000B3F7E7008320C1002316F40003248100F1
:1055F00013010101678000001305000067800000AF
:105600008397C500130101FE13830600232E1100AA
:1056100093F607101387050093080600130805008A
:1056200063980602B7F6FFFF9386F6FF8320C10159
:10563000B3F7D7008315E7002316F700930603009E
:105640001386080013050800130101026F00C061F2
:105650008395E5002324C100930620001306000073
:10566000232661002320E1002322A100EF00404F08
:10567000032701000323C100832881008317C7008B
:10568000032841006FF01FFA130101FF232481005A
:10569000138405008395E50023261100EF00404C9C
:1056A0001307F0FF8317C4006302E50237170000F9
:1056B000B3E7E7008320C1002328A4042316F400E5
:1056C0000324810013010101678000001307058096
:1056D00013070780B3F7E7008320C1002316F40007
:1056E0000324810013010101678000008395E50018
:1056F0006F00C033130101FE232C8100232A910087
:10570000232E110093040500138405006306050091
:105710008327450363820712032786018317C60088
:105720002324E60013F78700630607080327060112
:10573000630207089396270103274606B725000052
:1057400063D0060A9317270163C2070C03270600DC
:105750008327060183264601B307F74063DCD70A97
:105760009387170083268600930517002320B60031
:105770009386F6FF2324D6002300870003274601E3
:105780001374F40F630CF706930764FF6398070024
:105790008357C60093F71700639207068320C10161
:1057A0001305040003248101832441011301010234
:1057B0006780000093050600138504002326C100BE
:1057C000EF00C009631405040326C100B7250000DB
:1057D0008317C6000327460693962701E3C406F6FF
:1057E000B7E6FFFF9386F6FFB3E7B7003377D7003E
:1057F0002316F6002322E6066FF0DFF49305060079
:1058000013850400EF40D015E30A05F81304F0FFF8
:105810006FF0DFF893050600138504002326C1000E
:10582000EF401014E31405FE0326C1009307100097
:10583000032706006FF01FF32326C100EFF0CFBF50
:105840000326C1006FF05FED9307050003A5410833
:1058500013860500938507006FF0DFE903A7410871
:10586000130101FE232E1100130605009387050086
:105870006306070083264703638A06100397C70061
:1058800093768700638E060283A60701638A060467
:105890000397C70013761700630E060603A6470199
:1058A00023A40700130500003306C04023ACC70043
:1058B000638006088320C101130101026780000094
:1058C000937607016382060E93764700639E060671
:1058D00083A60701136787002396E700E39A06FA79
:1058E00003A7C7009305002013770728E302B7FA40
:1058F00013050600938507002324F100EF40906C08
:10590000832781000397C70083A60701137617003A
:10591000E31606F8137627009305000063140600CB
:1059200083A5470123A4B70013050000E39406F8FC
:1059300093760708E38006F8136707042396E700C9
:105940001305F0FF6FF01FF783A5070363860502B9
:10595000938607046380D502130506002326F10011
:105960002324C100EF0010288327C10003268100F3
:105970000397C70023A8070283A607011377B7FD83
:1059800023A2070023A0D7006FF0DFF42324A10097
:10599000130507002326B100EFF00FAA8327C100EB
:1059A000032681006FF09FED9306900013670704B4
:1059B0002320D6002396E7001305F0FF6FF09FEF3A
:1059C0009306300063FEC604B3E7A50093F73700E3
:1059D000638A07021306F6FF130616003306C50096
:1059E0006F0080006300A6048347050003C705001D
:1059F0001305150093851500E386E7FE3385E74020
:105A0000678000000327050083A70500E314F7FC67
:105A10001306C6FF1305450093854500E3E4C6FE63
:105A2000E31A06FA1305000067800000130101FF66
:105A300023248100130405001385050023A2010A15
:105A400023261100EFA0DFAC9307F0FF630AF500F7
:105A50008320C1000324810013010101678000003D
:105A600083A7410AE38607FE8320C1002320F400B8
:105A700003248100130101016780000083A741080E
:105A8000638EA70C83254504130101FE232A910090
:105A9000232E1100232C8100930405006388050444
:105AA000232821012326310113090000930900084E
:105AB000B387250103A40700630E040093050400C7
:105AC0000324040013850400EF00D011E31804FE42
:105AD00083A5440413094900E31C39FD1385040020
