:0200000480007A
:100000006F00C02A6F00D0156F0040296F000029D3
:100010006F00C0286F0080286F0040286F00002804
:100020006F00C0276F0080276F0040276F000027F8
:100030006F00C0266F0080266F0040266F000026EC
:100040006F00C0256F0080256F0040256F000025E0
:100050006F00C0246F0080246F0040246F000024D4
:100060006F00C0236F0080236F0040236F000023C8
:100070006F00C0226F0080226F0040226F0040336B
:10008000973101009381013017010300130181F7BB
:1000900017050000130505F713651500731055309B
:1000A000138581F4138681253306A640930500004D
:1000B000EF5010071765000013050581EF30906CB5
:1000C000EF50807613050000930500001306000032
:0C00D000EF0000016F30506C67800000F2
:1000E000130101812326117E2324817E2322917E08
:1000F0002320217F232E317D93060000130101FD73
:10010000130600009305000013050020EF30404D5A
:10011000630A0516130405001715010013058592DF
:10012000EF40D077732920B0F32900B09715010074
:100130009385059D1306010013050400EF30406A06
:10014000F32420B0B3842441F32200B0171501003A
:100150001305459033893241EF405074130709006D
:100160009386040013060900938504001715010007
:100170001305458FEF40904D37160000130606809B
:10018000971501009385C51713050100EF50C03680
:1001900093090500631E0502171501001305059458
:1001A000EF40D06F13050400EF309062130101039C
:1001B0008320C17E138509000324817E8324417E30
:1001C0000329017E8329C17D1301017F678000001F
:1001D000171501001305058CEF40506CB717000090
:1001E00013830780130401003309230097140100CF
:1001F0009384448E031624008315040013850400A1
:1002000013040402EF409044031664FE831544FE79
:1002100013850400EF4090430316A4FE831584FE6B
:1002200013850400EF4090420316E4FE8315C4FEDC
:1002300013850400EF409041031624FF831504FF4B
:1002400013850400EF409040031664FF831544FFBC
:1002500013850400EF40903F0316A4FF831584FF2D
:1002600013850400EF40903E0316E4FF8315C4FF9E
:1002700013850400EF40903DE31E24F7930910001E
:100280006FF0DFF2170501001305857AEF4010616A
:10029000930910006FF09FF10000000017050100A6
:1002A0001305155CEF40905F6FF05FFF130101FCD9
:1002B000232011002322A1002324B1002326C10002
:1002C0002328D100232AE100232CF100232E010151
:1002D00023201103232251022324610223267102C9
:1002E0002328C103232AD103232CE103232EF10366
:1002F000F322203413032000638862021303B0004A
:100300006388620013033000638862006F00C002DC
:10031000EF00003D6F004003170501001305055075
:10032000EF40D0576F004002170501001305054A42
:10033000EF40D0566F00400117050100130525500E
:10034000EF40D0556F004002F322103403830200C7
:10035000130530003373A3006314A30093822200BB
:100360009382220073901234832001000325410000
:10037000832581000326C100832601010327410153
:10038000832781010328C1018328010283224102BE
:10039000032381028323C102032E0103832E410321
:1003A000032F8103832FC103130101047300203045
:1003B000730020300000000000000000000000007A
:1003C0003305A04023AEA1F41305F0FF67800000C1
:1003D00037070010930750052320F7009706010008
:1003E00083C6564A170601001306E64B170E010096
:1003F000130E6E492320D700970E010083CEAE481E
:100400002320D70183421E00130E8E0023205700A5
:100410000343AEFF232067008343BEFF2320770002
:100420000345CEFF2320A7008345DEFF2320B7002E
:100430000348EEFF232007018348FEFF2320170116
:10044000834E0E00E31ECEFA67800000130000000A
:100450009307800523AEF1F41305F0FF67800000D9
:100460009307800523AEF1F41305F0FF67800000C9
:100470009307800523AEF1F41305F0FF67800000B9
:100480009307800523AEF1F41305F0FF67800000A9
:100490009307800523AEF1F41305F0FF6780000099
:1004A0001305F0FF67800000130000001300000038
:1004B0009307C00023AEF1F41305F0FF678000003E
:1004C000B707048023A0A700730050106F0000003E
:1004D0009307800523AEF1F41305F0FF6780000059
:1004E0009307B00023AEF1F41305F0FF678000001E
:1004F000B727000023A2F500130500006780000065
:100500009307800523AEF1F41305F0FF6780000028
:100510009307800523AEF1F41305F0FF6780000018
:10052000930780FA23AEF1F4130500006780000002
:100530001305100067800000130000001300000086
:10054000930780FA23AEF1F41305F0FF67800000F3
:100550001305F5FF13351500678000001300000038
:100560009307600123AEF1F41305F0FF67800000EC
:100570009307F00123AEF1F41305F0FF678000004C
:100580001305000067800000130000001300000046
:100590009307800523AEF1F41305F0FF6780000098
:1005A0001305F0FF67800000130000001300000037
:1005B0009307800523AEF1F41305F0FF6780000078
:1005C0001305000067800000130000001300000006
:1005D000B727000023A2F500130500006780000084
:1005E0001305F0FF678000001300000013000000F7
:1005F0001305F0FF678000001300000013000000E7
:100600009307200023AEF1F41305F0FF678000008C
:100610009307800523AEF1F41305F0FF6780000017
:100620009307A00023AEF1F41305F0FF67800000EC
:1006300003A781F4130101FE232C8100232E110056
:1006400093870500130406006306070213060400DF
:10065000172501001305055393850700EF00407F20
:100660008320C10113050400032481011301010249
:10067000678000002326B100B7C5010093850520DF
:1006800013063000172501001305C54FEF00406F1A
:10069000930210008327C10023A451F46FF01FFBC5
:1006A00023ACA1F2130500006780000013000000D6
:1006B00083A281F3170703001307C7943385A200B1
:1006C00023ACA1F26374E500636825009307C000C2
:1006D00023AEF1F49302F0FF13850200678000005F
:1006E0009307100863CC17159302F00263D4121914
:1006F000138308FD9308100563EE680217070100D5
:100700001307871A93132300B386E30003A8060098
:10071000330EE80067000E00930EC00A6388D811FC
:1007200063CE1E1B930F90096382F8119307900A02
:100730006386F814970701009387C7149703010095
:1007400093836316B386F34013F8760013075005BE
:10075000370E00106308080813051000630CA80684
:10076000930E20006302D807130F30006308E805DA
:10077000930F4000630EF803130650006304C80291
:1007800093056000630AB8002320EE00970701007C
:100790009387570F03C707002320EE0003C71700F6
:1007A000938717002320EE0003C7170093871700D5
:1007B0002320EE0003C71700938717002320EE00C5
:1007C00003C71700938717002320EE0003C7170005
:1007D00093871700938717002320EE0003C70700B5
:1007E000638C77142320EE0083C217009387870061
:1007F00023205E0003C3A7FF23206E0083C8B7FF3A
:1008000023201E0183C6C7FF2320DE0003C8D7FFB5
:1008100023200E0103C5E7FF2320AE0083CEF7FFA0
:100820002320DE0103C70700E39E77FA67800000FC
:100830009302800523AE51F4678000009302F040DC
:10084000E3CA12EF1303F03FE35813ED938808C097
:100850009303F000E3E013EF1707010013074719B4
:10086000139528003306E500832606003388E6004A
:100870006700080013031001E39E68EA930880FAFA
:1008800023AE11F5678000003726000023A2C500C3
:10089000678000009305200023AEB1F4678000005C
:1008A000130EF00123AEC1F567800000130560014F
:1008B00023AEA1F467800000370404802320A40045
:1008C000730050106F00000003AF81F463000F024B
:1008D000172501001305052B6F008057130F600DBE
:1008E000E39AE8E523ACA1F267800000130101FE62
:1008F000B7CF01002326C1002324B1001306300026
:1009000093850F20172501001305C527232E1100FD
:10091000EF0000479307100023A4F1F40326C10061
:10092000832581008320C10117250100130585253A
:10093000130101026F00C051678000001300000026
:100940001300000013000000000000000000000081
:100950001305000067800000130000001300000072
:100960001305000067800000130000001300000062
:100970001305000067800000130000001300000052
:100980001305000067800000130000001300000042
:100990001305000067800000130000001300000032
:1009A0001305000067800000130000001300000022
:1009B0001305000067800000130000001300000012
:1009C0001305000067800000130000001300000002
:1009D00013050000678000001300000013000000F2
:1009E00013050000678000001300000013000000E2
:1009F00013050000678000001300000013000000D2
:100A000013050000678000001300000013000000C1
:100A100013050000678000001300000013000000B1
:100A200013050000678000001300000013000000A1
:100A30001305000067800000130000001300000091
:100A40001305000067800000130000001300000081
:100A50001305000067800000130000001300000071
:100A60001305000067800000130000001300000061
:100A70001305000067800000130000001300000051
:100A80001305000067800000130000001300000041
:100A90001305000067800000130000001300000031
:100AA0001305000067800000130000001300000021
:100AB0001305000067800000130000001300000011
:100AC0001305000067800000130000001300000001
:100AD00013050000678000001300000013000000F1
:100AE00013050000678000001300000013000000E1
:100AF00013050000678000001300000013000000D1
:100B000013050000678000001300000013000000C0
:100B100013050000678000001300000013000000B0
:100B200013050000678000001300000013000000A0
:100B30001305000067800000130000001300000090
:100B400013050000678000000000000000000000A6
:100B50008327C50063840720032605016300062060
:100B600083260500034895000327450183C54601F8
:100B7000B3E20501A304550013F30502630E031C41
:100B80006300E61EB303E64093080001138F0300E1
:100B900063F47800138F0800338EE700834E0E0055
:100BA000930F1700130810002380D601232AF501A4
:100BB0006380031BB385F70183C20500130327007D
:100BC0009308200023805600232A650063821319AE
:100BD000338E6700834E0E001308370093053000F4
:100BE0002380D601232A05016384B316B38207014B
:100BF00003C3020093084700130E400023806600E1
:100C0000232A15016386C315B38E170103C80E008E
:100C1000930557009302500023800601232AB50054
:100C2000638853123383B700834E03009308670031
:100C3000130E60002380D601232A1501638AC31195
:100C4000338817018345080093027700130370006F
:100C50002380B600232A5500638C630EB38E5700A1
:100C600003C80E0093088700130E8000238006013E
:100C7000232A1501638EC30DB385170183C20500B6
:100C800013039700930E900023805600232A6500DB
:100C90006380D30D33886700834508009308A7005D
:100CA000130EA0002380B600232A15016382C30B14
:100CB000B382170103C30200930EB7001308B000FC
:100CC00023806600232AD50163840309B385D701F5
:100CD00083C205009308C700130EC000238056008E
:100CE000232A15016386C30733831701834E03004C
:100CF0001308D7009305D0002380D601232A0501CD
:100D00006388B304B382070103C302009308E700BA
:100D1000130EE00023806600232A1501638AC303B3
:100D2000B38E170103C80E009305F7009302F0007D
:100D300023800601232AB500638C5300B387B700D4
:100D400083C307001307070123807600232AE500E9
:100D5000330FFF011307FFFF6304E6006780000005
:100D600003C64600232805001375D60F2382A6006C
:100D70006780000013000000130000001300000053
:100D8000130101FE232A910083240500232C8100F6
:100D90002328210123263101232E11002382040060
:100DA00023840400930770FC2384F40013040500DB
:100DB00093890500130906002388040013860500A3
:100DC0009306000037D5121393050000EF209052D0
:100DD000935275003707010063FEE200130300F829
:100DE000238664001355F5002382A4002380540059
:100DF000238604002386240123042401A304040081
:100E000097030000938303D5232234018320C1017B
:100E10002328040023260400232A0400232E040090
:100E2000232C0400232204022320740203248101C2
:100E300083244101032901018329C1001301010217
:100E40006780000013000000130000001300000082
:100E5000130101FF23260100638C0522630A062289
:100E6000032505001308000093071003834645017E
:100E7000232601000327C10063E2E70A8322C100A1
:100E800013831200232661008323C10063E87708DF
:100E90008328C100138E18002326C101832EC100B0
:100EA00063EED707032FC100930F1F002326F10124
:100EB0000327C10063E4E7068322C1001383120005
:100EC000232661008323C10063EA77048328C100DD
:100ED000138E18002326C101832EC10063E0D705BD
:100EE000032FC100930F1F002326F1010327C10028
:100EF00063E6E7028322C100138312002326610008
:100F00008323C10063EC77008328C100138E18008F
:100F10002326C101832EC100E3F2D7F793F6060220
:100F2000E38606F423260100032FC10063E2E70BEA
:100F3000832FC10013871F002326E1008322C100F5
:100F400063E857080323C1009303130023267100AD
:100F50008328C10063EE1707032EC100930E1E0005
:100F60002326D1018326C10063E4D706032FC100E5
:100F7000930F1F002326F1010327C10063EAE70452
:100F80008322C10013831200232661008323C10042
:100F900063E077048328C100138E18002326C10163
:100FA000832EC10063E6D7038326C100138F16008A
:100FB0002326E101832FC10063ECF7010327C10061
:100FC00093021700232651000323C100E3F267F6C2
:100FD000B383050183C8030013081800230015011B
:100FE00023260100032EC10063E2C70B832EC1003C
:100FF00093861E002326D100032FC10063E8E70972
:10100000832FC10013871F002326E1008322C10024
:1010100063EE57060323C1009303130023267100D8
:101020008328C10063E41707032EC100930E1E003E
:101030002326D1018326C10063EAD704032FC10010
:10104000930F1F002326F1010327C10063E0E7048B
:101050008322C10013831200232661008323C10071
:1010600063E677028328C100138E18002326C1018E
:10107000832EC10063ECD7018326C100138F1600B5
:101080002326E101832FC100E3F2F7F7E360C8DE16
:10109000130101016780000013000000130000002D
:1010A0006388050C03C605006304060C832705004E
:1010B000130101FF9386150003C74701A307E10051
:1010C0008342F10013F302026318030883C347014C
:1010D000A30771000345F10093750502639E0506A1
:1010E00003C84701A30701018348F10013FE08026A
:1010F00063140E0683CE4701A307D101034FF1000D
:10110000937F0F02639A0F0403C74701A307E1000F
:101110008342F10013F302026310030483C3470107
:10112000A30771000345F10093750502639605025C
:1011300003C84701A30701018348F10013FE080219
:10114000631C0E0083CE4701A307D101034FF100BA
:10115000937F0F02E3820FF6938616002380C70069
:1011600003C6F6FFE31A06F41301010167800000CD
:10117000678000001300000013000000130000004F
:10118000630C0602638A0502032705009706000028
:101190009386469C2326B500834747002328C50035
:1011A000232A05002320D50293E2270023025700BB
:1011B000732340F16304030067800000B725000C2F
:1011C000972301009383039C03A605003305754014
:1011D0001338150093081000339E0801B36ECE003B
:1011E00023A0D50167800000130000001300000059
:1011F00083270500034795008326050183C2470125
:1012000033E3E200A304650093F3F20F6398060052
:1012100013D56300137515006780000013050000E7
:10122000678000001300000013000000130000009E
:101230006382050663000606032805000347950040
:1012400083474801B3E2E700A304550013F31700F6
:1012500063020304130E00006F008000638E0F0210
:1012600083460800B383C501130E1E002380D300FC
:101270000328050083489500834E480133EF1E0183
:10128000A304E50193FF1E00E36ACEFC13050E00E4
:1012900067800000130E000013050E006780000039
:1012A000F32740F163960702B726000C17270100C9
:1012B0001307478D03A60600B302E54013B31200DF
:1012C0009303100033986300B368C80023A016018D
:1012D000370E0100930EFEFF638CD5010325050038
:1012E00093F5F500034F4500B36FBF002302F501EE
:1012F00067800000130000001300000013000000CE
:10130000638C05029337160C6388070203270500D8
:10131000232EB5008342870013F3F203B363C300A7
:10132000230477008345470013E615002302C70016
:10133000F32640F16384060067800000B728000CA4
:10134000172801001308088403AE0800330505417F
:10135000933E1500130F1000B31FDF01B3E7CF0159
:1013600023A0F800678000001300000013000000B5
:1013700063840502032705002320B5022326050008
:10138000834747002328050093E2270023025700E4
:10139000732340F16304030067800000B725000C4D
:1013A000971301009383037E83A6050033057540E0
:1013B0001336150013081000B318C80033EED80018
:1013C00023A0C50167800000130000001300000087
:1013D00063800502032705002322B50283474700E7
:1013E00093E2870023025700732340F16304030054
:1013F00067800000B725000C971301009383837862
:1014000083A6050033057540133615001308100038
:10141000B318C80033EED80023A0C50167800000D0
:101420006386051263040612832705008346950030
:1014300003C74701B362D700A30455001373070223
:1014400063060310930300011305060063E4C31051
:1014500003C805009308100023800701630A160FD4
:1014600003CE1500930E20002380C7016302D60F20
:1014700003CF2500930F30002380E701630AF60DA8
:1014800083C63500130740002380D7006302E60CB3
:1014900083C245001303500023805700630A660A85
:1014A00083C3550013086000238077006302060B96
:1014B00083C86500130E700023801701630AC609F4
:1014C00083CE7500130F80002380D7016302E609E5
:1014D00083CF8500930690002380F701630AD60628
:1014E00083C295001307A000238057006302E6061D
:1014F00003C3A5009303B00023806700630A76044A
:1015000003C8B5009308C0002380070163021605D5
:1015100003CEC500930ED0002380C701630AD60313
:1015200003CFD500930FE0002380E7016302F603A9
:1015300083C6E5009302F0002380D700630A5600BB
:1015400083C5F5002380B700678000001305000005
:1015500067800000138503006FF09FEF1300000009
:10156000832705000347950083C24701A3040500B4
:1015700033E5E2001375E509678000001300000001
:101580008327050003C58701678000001300000062
:1015900003270500834795008342470133E3F200A8
:1015A000A304650013F50206678000001300000025
:1015B000032705008347C70093E20704230657006B
:1015C00067800000130000001300000013000000FB
:1015D000032705008347C70093F2F70B2306570044
:1015E0006780000013000000000000000000000001
:1015F000130101F8232441072328A105032A07002A
:10160000032D47002326B105938D06003308AA0356
:10161000232A9105232E1106232C8106232A9106C5
:101620002328210723263107232C81052322510754
:1016300023206107B38CCD0293102800232E71055F
:101640009306100093090600130405009384050017
:10165000138C070033091500939C2C006306DD4CA6
:10166000330BCA02930787002320F100931B2D0040
:10167000930A0500032701009385040013850A00DF
:1016800093070C0093860D0013060B00EFF05FF636
:10169000B38A7A01B38494010327010093070C00F5
:1016A00093860D0013060B0013850A009385040032
:1016B00063025911EFF0DFF3B38A7A01B384940126
:1016C0000327010093070C0093860D0013060B00FF
:1016D00013850A0093850400630E590DEFF05FF146
:1016E000B38A7A01B38494010327010093070C00A5
:1016F00093860D0013060B0013850A0093850400E2
:10170000630A590BEFF0DFEEB38A7A01B3849401D8
:101710000327010093070C0093860D0013060B00AE
:1017200013850A009385040063065909EFF05FEC06
:10173000B38A7A01B38494010327010093070C0054
:1017400093860D0013060B0013850A009385040091
:1017500063025907EFF0DFE9B38A7A01B384940199
:101760000327010093070C0093860D0013060B005E
:1017700013850A0093850400630E5903EFF05FE7B9
:10178000B38A7A01B38494010327010093070C0004
:1017900093860D0013060B0013850A009385040041
:1017A000630A5901B38A7A01EFF09FE4B38494018C
:1017B000E31259ED930C40000329CC00E30E9A513B
:1017C00063C84C4F9300200063001A26930E30002C
:1017D000E31ADA2393080D00139D2900B38FA803A1
:1017E000130F1000139528003306F901831C2600FF
:1017F0006384E9016F104029B306A400373D00005F
:10180000B380A600130E0900930DADAA3743000064
:10181000831904000318240013044400B385B9039A
:10182000938646009380400013094900130E8E00F2
:101830009388F8FF330FB80333876500135AF740D6
:10184000231E44FF330B6F00935FFB40231FF4FF05
:101850000396C6FF839EE6FFB30BB603B387BE03B2
:10186000B38A6B0093D2FA40239E56FEB38367007F
:1018700013D5F340239FA6FE039CC0FF8394E0FF93
:10188000330DBC03B389B40333086D009355F8409E
:10189000239EB0FE338F6900935BFF40239F70FF50
:1018A000831FC9FF83128EFF8313AEFF8317E9FFE7
:1018B0000397C6FF039AE6FFB38E55020355C4FF94
:1018C0003306F703330BFA02B38A7B02330C66410B
:1018D000B3046C0013DDF44093190D0113D8090112
:1018E000B307F702338F5E4133076F00935EF74013
:1018F00013960E01135B0601330C6801931A0C0159
:1019000093D40A4113DD1440338A4F033305A541B4
:10191000B3096841239EA6FE13980901935E08410E
:10192000835FE4FFB3857502B3834701B387630028
:1019300013DFF74013170F01135B0701B38B5B0233
:10194000B382750133866200935AF64093940A017C
:1019500013DD04013305AB41131A050193590A4104
:101960003308AB01B38599039313080193D703415F
:1019700013DF1740B38FEF41239FF6FF0357E4FFB8
:10198000035BC4FFB30BE800B3829E03330C6C010E
:10199000231E84FF231F74FF3386650083DEC6FF8A
:1019A000935AF64093940A0113DD04013305DD01D7
:1019B000239EA0FEB389620003DAE6FF13D8F94044
:1019C0009315080193D30501B3077A40239FF0FED6
:1019D00003DFC6FFB30FAF41239EF6FF03DBE6FF35
:1019E00033876301239FE6FEE39408E28320C10767
:1019F0000324810783244107032901078329C106A2
:101A0000032A8106832A4106032B0106832BC10585
:101A1000032C8105832C4105032D0105832DC10471
:101A20001301010867800000131E2D0093071000AA
:101A30003306C401B74E00006384F9006F108024A0
:101A4000031F04000315240013094900131AEF00B3
:101A5000931CE500B30BEA41B38DAC40B389DB01C5
:101A6000338CDD0193DAF9409358FC402310540184
:101A700023111401831406000313260013064600E5
:101A80001397E4001318E300B3029740B3066840CD
:101A9000338BD201B383D6019355FB4093D0F340EF
:101AA000231F16FE231EB6FE031EC9FF831FE9FF78
:101AB000035F04003305BE0213044400130DFDFF51
:101AC000338AF003B3041E02B30C4541B38BDC012F
:101AD00093DDFB4093990D0113DC0901B30A8F419B
:101AE000231E56FF8358E4FFB387F5033383970023
:101AF0003307D3011358F7409312080113DB020197
:101B0000B3866841231FD6FE8353C4FF8355E4FF89
:101B1000B3007C00330EBB00231E14FE231FC4FF42
:101B2000E3100DF26FF09FECB302A9401383C2FFE4
:101B30009353230013851300937575001307040056
:101B40006382050C6382A50B130620006382C5081F
:101B50009308300063821507130E40006382C505A9
:101B6000930E50006382D503130F6000E390E5717C
:101B700083DD040013074700231EB7FF83D624002C
:101B8000B3849401231FD7FE83D0040013074700BA
:101B9000231E17FE03DB2400B3849401231F67FF79
:101BA00083D7040013074700231EF7FE83DB2400BE
:101BB000B3849401231F77FF83DA040013074700DF
:101BC000231E57FF83D22400B3849401231F57FEA2
:101BD00003D3040013074700231E67FE83D32400AA
:101BE000B3849401231F77FE03D504001307470035
:101BF000231EA7FE83D52400B3849401231FB7FEC0
:101C0000E30AE9BA03D60400338E940113070702EE
:101C10002310C7FE83D42400B30E9E01338F9E0190
:101C2000231197FE83580E00B30F9F01B38D9F01C0
:101C3000231217FF03582E00B3869D01B38096012F
:101C4000231307FF03DB0E00B3849001231467FF07
:101C500083D72E002315F7FE835B0F00231677FF33
:101C6000835A2F00231757FF83D20F00231857FEE4
:101C700003D32F00231967FE83D30D00231A77FEA9
:101C800003D52D00231BA7FE83D50600231CB7FE1A
:101C900003D62600231DC7FE03DE0000231EC7FF58
:101CA00083DE2000231FD7FFE31EE9F46FF09FB00F
:101CB000130750006318EA54B380A903131E2D00C4
:101CC000B30EC401338FCE01B30FCF01338ACF01DE
:101CD00013932000B308690033856800039B080054
:101CE000039C28008314050023286101232281011D
:101CF0002324910283102500E35AA0CF9392190068
:101D0000930C090033893201939B2900939D39007C
:101D1000B7260000931529009399490023267103E3
:101D20002328B103232CB102232A3103938B0C0007
:101D300023240100138E9699B7470000232EA10398
:101D4000232A910123209101031D04008313240001
:101D5000130444003303CD03938E4E00130F4F0042
:101D600003268100938F4F00130A4A0013071600C1
:101D70002324E100B388C3033305F300135BF5406C
:101D8000231E64FF338CF8009354FC40231F94FE01
:101D90008392CEFF0399EEFFB386C203B30DC9034E
:101DA000B385F60093D9F540239E3EFFB38AFD002C
:101DB00013D8FA40239F0EFF031DCFFF8313EFFFBD
:101DC0003306CD033387C3033303F6009358F34040
:101DD000231E1FFF832841013305F700135BF540E5
:101DE000231F6FFF039CCFFF8394EFFF138B08002B
:101DF000B302CC033389C403B386F20093DDF6400B
:101E0000239EBFFF83240100B305F90093D9F54059
:101E1000239F3FFF831ACAFF0318EAFF338DCA03CB
:101E2000B303C8033306FD001353F640231E6AFEB6
:101E30003387F300135CF740231F8AFF8392EFFF81
:101E400003950800839628000398040083952400D6
:101E5000031DCFFF8313EFFF8398CFFF2320510291
:101E6000839D0B008324C10283920C002322B103C3
:101E7000832D010303972C00B38C9C00330BBB0113
:101E800083248103832D0100232CA100232A6101D7
:101E90003305AD02338B9D00832441032320610170
:101EA00003962B00B38B9B00232E11010399CEFFC9
:101EB000839AEEFF8359C4FFB38DD30223262101F9
:101EC0000359E4FF3305B541330BF5009354FB4050
:101ED000032B0102939D0401B388080313D50D0160
:101EE000B30DBB02B306DD02338DB841B308FD006C
:101EF00093D4F840939D040193D80D01330D15013F
:101F000033051541931805010325810193140D0133
:101F100013DD040193D408418328C101B303750282
:101F200023209102232C5101931D0D01330D3D01FE
:101F300093DD0D4133086803B3867600B384F60061
:101F400013D5F4409313050193D40301B385B8026C
:101F50008328C100B38505013385F5009353F5400F
:101F6000139B030113580B01B3865802B388040175
:101F7000B384044193950801139B040193D3050195
:101F800093550B41032B41021395030193580541CF
:101F90003388EA02B3832301B3860641B384F60093
:101FA0003305630393DAF44013980A01832AC100CE
:101FB00093560801B304CC02330595403308F5006D
:101FC0009354F8403387EA02939A040113D80A0124
:101FD000338506019314050113D50401931A0501F5
:101FE00093D40A41832A8101330DA5013303C3022F
:101FF000B3860641231EA4FF139806019356084199
:10200000B3825203330C6C03330657003307F600D8
:102010001355F74013180501935A0801B3028301C1
:10202000338DF2001353FD4013160301032D81027B
:10203000135706013385EA00131805013385AD03F4
:10204000135B0801131C0B0113530C41032C0101FA
:10205000B38AEA4093920A0113D70241B3037B008B
:10206000231F74FE3308F50033858403135BF840A7
:10207000B38A69013386A8033308F5001355F84085
:10208000B38AAA00B3028303B303F60013D6F34066
:1020900093930A01832A410013D80301330BC9002B
:1020A000B382F20093D3F24033055703330B7B0026
:1020B00013160B01135B0601B38315023305F500FC
:1020C0001356F540B383F30013D5F3403306A6004F
:1020D000B3825603931A060113D50A01832A01021B
:1020E000B303A8403305A800239E7EFE33881A025E
:1020F000B382F20013D6F240B38888033308F800A5
:102100009352F840330656009313060113D8030187
:10211000B3026801239F5EFE231EAAFE330B0B4110
:10212000B38D8D033386F800832841009353F64026
:1021300033097900231F6AFFB384A4033385FD00AC
:10214000935DF540B389B9013303A303338DF400E4
:102150001358FD40B3820901139B0201135C0B016C
:10216000B38515033305F300935DF540B309B90159
:102170009394090193D30401330717023386F500C2
:102180001359F64013130901135D0301B3861602B8
:102190003308F7009352F840139B020193550B014B
:1021A0003305BD40B389A541B30DAC008325C10300
:1021B00003258100B38A1A03B388F60093D4F8404C
:1021C0001397040113560701231EBFFF330C3C0174
:1021D0003389FA001353F940131D030193560D017F
:1021E0003308D640B3820301338BC640231F5FFE02
:1021F000B3836301239E8FFF239F7FFEE396A5B4E5
:102200006FF0CFFE931C2A0013850C0083240C0072
:10221000EF10505B631405006F104033E35AA001C8
:10222000930D1000E316BD35E35440019380CCFFBD
:1022300093D32000378800009306F8FFB70A010007
:1022400093FD13003383AC00B3CF4603130E040099
:102250001306050093080400B74C0000138BFAFF27
:1022600063940D04031F0400831224001306450029
:1022700093084400B305FF033387F203B387950146
:1022800093DBF740939E0B0113DC0E01337D6C0151
:10229000B300970193D3F040939D03013368BD01D0
:1022A000232005016300C30883960800839A480031
:1022B000039F280083926800B385F6031306860007
:1022C00093888800B387FA0333879501935BF740BF
:1022D000939E0B0113DC0E01337D6C01B300FF03F1
:1022E000B383970193DDF34013980D0193560801D2
:1022F000B3FA6601B382F203338F90019355FF4026
:10230000939705013367FD00232CE6FEB38B920102
:1023100093DEFB40139C0E0133ED8A01232EA6FFB2
:10232000E314C3F8835F050083522500930C10006B
:102330002310F40123115400630C9A6F130F000053
:1023400093080000930E450037480000330BD3413B
:102350001306CBFF9350260093F31000831604005E
:102360008317240093850E00130600006394030670
:102370001386080063C4980033869840931D260096
:10238000B30AB901839C2A00039D0A0003970E003B
:10239000839B2E0093854E00330BA703338C9B0346
:1023A000B3009703B3038B41B38D030193DAFD4070
:1023B000B386DA00939C060193D60C412310D40017
:1023C000330D7D033387A001B30B070193D0FB408E
:1023D0006F00400D330616016344960033069640A5
:1023E000131C2600B3008901839A2000839D0000FE
:1023F000839C0500039D250033061601B383BC03AF
:1024000093854500B30B5D0333875C03338B7341C6
:10241000330C0B019350FC40B386D000939A060115
:1024200093DC0A4123109401B38DAD03330DB70142
:10243000B3030D0193DBF340B387FB001397070150
:1024400093500741231114006344960033069640CD
:10245000131B2600330C6901831D2C00831A0C000A
:10246000039D05008393250093854500B3065D0316
:10247000B38BB303B307BD0333877641330B070137
:10248000135CFB40B30C9C01939D0C0193D60D4152
:102490002310D400B38A7A02338D5701B3030D01A0
:1024A00093D7F340B3871700139B070193570B4152
:1024B0002311F400E39065F2130F1F00130E4E007A
:1024C000B38838016306EA5713040E002310FE0197
:1024D00023115E006FF09FE7032A4C00139F290031
:1024E000139C1900939F390013070D002320E1016D
:1024F000330D3C012322F1019314270093102D008A
:1025000063160A2833039400130E1000B3089300D7
:10251000E39EC93333859800930E0900130E09001A
:10252000B74000008313040083122400130E8E00B2
:102530009394D3009397D200B38B7440338F57405A
:10254000B3891B00B3051F0093DDF94013DBF54091
:102550002310B40123116401831A0300031623001E
:1025600013094900939CDA001318D600B3865C4126
:10257000330CC840B38F1600330D1C0013DAFF4034
:102580009353FD40231043012311730083920800ED
:1025900083942800938ECE00939BD2009397D4000F
:1025A000338F5B40B3899740B3051F00B38D19008B
:1025B00013DBF54093DAFD40239068012391580125
:1025C00003160500831C2500130444001318D600CD
:1025D000139CDC00B306C840B30F9C41338D16003A
:1025E000338A1F009355FD409352FA402310B500E3
:1025F00023115500039F0800031C8EFF831BAEFFB1
:10260000839C280033088F0383130300831D23005A
:10261000031BC9FF8317E9FF8354C4FF8356E4FFFC
:1026200083994EFF839A6EFF93884800B38F7C0393
:1026300013034300130545001307F7FF330D7F0312
:10264000330AF841B30B1A0013DFFB4013180F01D4
:10265000935F0801338AF401931B0A01B384F441A8
:1026600013DA0B01B30C9C03139F040193540F0165
:10267000231E44FF338CFD02330D9D0133081D00E2
:10268000935FF840939B0F0113DF0B01B38CE601BE
:10269000139D0C01B386E64113580D013386630385
:1026A000939F060193DB0F01231F04FF330686412E
:1026B000330C1600135FFC40131D0F0193560D01E0
:1026C000B38C3503338FDB00B38FDB40B38B520306
:1026D000B387F302B3837C41B38C130013D6FC4061
:1026E000131C0601135D0C01B386A601939B060122
:1026F000B30FFD0193DC0B01B30DBB03330BAF41F3
:10270000330A9A41239E48FFB3855503B38AB70124
:10271000338F1A009357FF409393070113D6030199
:10272000338CC400B384C440B3823203B3895500F0
:10273000338D19009356FD40939B060113DA0B016C
:10274000B30D460193950D0193DA05013308584105
:10275000239F08FF035FC4FF8357E4FFB3034C418B
:10276000B38CEC013386FA00231E94FF231FC4FEB2
:10277000231FF3FF231E73FEB30F9A00231EF5FFE2
:10278000231F65FFE31007DA6FF04FA633039400B1
:10279000930D1000B3089300E39AB9333386980081
:1027A000930E0900130E0900B740000083130400C4
:1027B00083142400130E8E009399D3009397D400B2
:1027C000B38B7940B38D9740B38F1B00B3821D004C
:1027D00013DFFF4013DCF2402310E40123118401D6
:1027E000831A03008315230013094900139BDA00A1
:1027F000939CD50033085B41338DBC40B306180071
:1028000033051D0013DAF6409353F54023104301BE
:10281000231173008394080083992800938ECE00BF
:10282000939BD4009397D900B38D9B40B38F3741CE
:10283000B3821D00338F1F0013DCF240935AFF4018
:10284000239088012391580183150600031B26005D
:1028500013044400939CD5001318DB00338DBC4057
:1028600033056841B3061D00330A150093DDF640B9
:102870009353FA402310B60123117600039F0800FA
:10288000031C8EFF031BAEFF839C280033088F03BD
:10289000831B0300831A23008319C9FF8317E9FFF1
:1028A0008352C4FF835FE4FF83944EFF03956EFF62
:1028B00093884800338D6C031303430013064600CE
:1028C0001307F7FFB3066F03330AA841330B1A004F
:1028D000135FFB4013180F01135D0801338AA20137
:1028E000131B0A01135A0B01B382A241B30C9C03C0
:1028F000139F0201135D0F01231E44FF338CFA0264
:10290000B386960133881600135BF84093120B01CF
:1029100013DF0201B38CEF01B38FEF4193960C01EB
:1029200013D80601B3853B03139B0F0193520B0190
:10293000231F04FFB3858541338F9D02338C15001F
:10294000935CFC4093960C0113DB0601B38F62018C
:10295000B3826241B385A302B38BFB02B307BF40CE
:10296000338F1700135CFF40931C0C0193D60C01AE
:10297000330BDB0093150B01B38FDF40338F560011
:10298000B38DAD0213DC0501330A8A41239E48FF53
:10299000B38A5903B3839302B3895B01338519006A
:1029A0009352F540939B020193D70B01B30CFD406A
:1029B000330DFD00B3847D00B386140013DBF640B5
:1029C00093150B0113DA0501B38A4701939D0A01A0
:1029D00013D50D013308A840239F08FF8352C4FF7D
:1029E000835BE4FFB3099A01330C5C00B307750104
:1029F000231E84FF231FF4FE231FF3FF231E33FF38
:102A0000B30F4D41231EF6FF231FE6FFE31007DA45
:102A10006FE0DFFD032D81000325C100032C0101C0
:102A20009386160013044400330C9C01631EDD36AC
:102A3000032481078320C107832441070329010759
:102A40008329C106032A8106832A4106032B010636
:102A5000832BC105032C8105832C4105032D010522
:102A6000832DC104130101086F10805683DF040019
:102A7000130744002310F40103D82400B384940105
:102A8000231104016FF0CF8E3308A400373A000001
:102A9000939D3900B305A800130E09009309AAAA53
:102AA00037430000831B04008317240013044400F1
:102AB000338C3B0313084800938545009388F8FF47
:102AC000B38A3703B3046C0013D7F440231EE4FE2B
:102AD000B3826A0013DBF240231F64FF8316C8FF32
:102AE0008313E8FFB3803603B38E3303B38F6000E4
:102AF00013DFFF40231EE8FF33856E001356F540B9
:102B0000231FC8FE039AC5FF839BE5FFB3073A0363
:102B1000338C3B03B38A670093D0FA40239E15FEA3
:102B2000B3046C0093D3F440239F75FE8312090015
:102B300003150E0003162E00831E29000317C8FF7D
:102B4000031BE8FFB38FA002035AC4FF3309A90196
:102B5000330EBE01B3065702330FDB03B38BC30240
:102B6000B387E641338C6700935AFC4093940A0183
:102B700093D60401B30ED70333877F41B30F6700A9
:102B800013DFFF40931B0F0193D70B01338CF6002B
:102B9000931A0C0193D40A4113D71440338B620368
:102BA000330AEA40231E48FFB386F640939F06018E
:102BB00013DF0F418352E4FFB380C00233866E01FE
:102BC000B30E660093DBFE4093970B0193DA070187
:102BD000B383A30233857000B304650013D7F440B8
:102BE000131A0701135B0A01B3866A41939F06011A
:102BF00093D00F4133866A01B38E9003931B060175
:102C000093D70B4193DA1740B3825241231F58FEEA
:102C10008353C4FF0355E4FF330C7C0033079F0349
:102C2000B304A600231F94FE231E84FF338A6E0084
:102C3000035FC8FF135BFA4093160B0193DF060195
:102C4000B380EF01239E15FEB30E67000356E8FF25
:102C500093DBFE4093970B0193DA0701B3025641D1
:102C6000239F55FE8353C8FF3385F341231EA8FEDF
:102C7000035CE8FFB3848A01231F98FEE39408E213
:102C80006FE0DFD6139F2900831F0400031A24007E
:102C900013044400939CEF00931BEA00B38DFC41A6
:102CA000B3894B41338CDD01B38AD9019358FC4081
:102CB00093D4FA40231E14FF231F94FE031306002F
:102CC00003172600130646001318E3009316E700C7
:102CD000B3026840338BE640B383D201B305DB0116
:102CE00093D0F34013DEF540231E16FE231FC6FFCC
:102CF000831F0900831729000355C4FF338AF0039B
:102D0000130DFDFF3309E901B30CFE02B38BF00292
:102D1000B30D9A41B389DD0113DCF940931A0C011C
:102D200093D80A01B3041541231E96FE0353E4FF12
:102D30003307FE033388EB00B306D80193D2F64085
:102D4000139B020193530B01B3057340231FB6FE7F
:102D50008350C4FF035EE4FFB38F1800B387C30141
:102D6000231EF4FF231FF4FEE3100DF26FE01FC8D3
:102D7000B380A90337830000370E01009308F3FFE7
:102D8000930BFEFF3388AC0093132D00130C00004F
:102D90009306000023221101B74D0000232071018A
:102DA000930F4500938C0900E35C40C7B302A84031
:102DB00083294100938EC2FF13D62E00937A16000A
:102DC000B3C54903130B05009308040063960A0476
:102DD00083170400031F240003260100130B450082
:102DE000B30874003383B7023307BF02330EB30155
:102DF000935BFE4093920B0193DE0201B3FACE0087
:102E0000B309B70193D7F940139F070133E3EA01F0
:102E100023206500630C0B07B38B78000397080031
:102E20008392280003960B00039E2B00B30AB7027F
:102E3000B3887B00032F0100130B8B00B38EB2020B
:102E4000B389BA0193D7F94033F3E701B30BB60264
:102E50003387BE019352F74013960201B36AC30051
:102E6000232C5BFF330EBE02B38EBB0193D9FE4011
:102E7000B3F7E901330FBE011353FF40931B030166
:102E800033E77701232EEBFEE3180BF9835A050095
:102E9000035B2500930510002310540123116401E6
:102EA000130E0400E30EBAB6130F040093020C00D5
:102EB000930900002324A1012326A10023288101D6
:102EC000330DF8411305CDFF135C250093781C00EA
:102ED000831B0E0083172E0093850F00130600003E
:102EE000639408061386020063C4920033869240FE
:102EF000931E26003303D90183180300031C23000B
:102F000003970F00839E2F0093854F00330517030F
:102F1000338D8E0333038703330CA5413307BC0184
:102F20001355F740B30B7501139D0B01935B0D41D6
:102F300023107E01B388D803B30E13013383BE017F
:102F40001357F3406F00400D33065600634496005C
:102F500033069640131726003305E90003132500B6
:102F600083180500039C0500839E25003306560048
:102F700033051C039385450033076C02338D6E02C5
:102F8000B388D8033303A541330CB3011355FC4078
:102F9000B30B7501139D0B0113530D4123106E00EC
:102FA000B30E17013387BE01135CF740B307FC0073
:102FB00013950701135705412311EE006344960052
:102FC00033069640931B2600330D7901831E0D00B6
:102FD00083172D0003950500039C2500938545006C
:102FE000B308D503B30BFC02330DF502B387784168
:102FF0003385B7019358F54033836800931B030171
:1030000093DB0B4123107E01B38E8E03330CDD0165
:10301000330DBC019357FD40B387E700139C0701B4
:1030200093570C412311FE00E310B8F29389190065
:10303000330F7F00B3821200E30E3A9D130E0F0090
:1030400023105F0123116F016FF09FE7B387980092
:103050009302090093040900B7430000831E040093
:10306000031F2400938848001396DE00931CDF00A2
:10307000330DD641B386EC41330B7D00B38576002A
:10308000135AFB4093DAF5402310440123115401F5
:10309000831D030003152300130343001398DD0071
:1030A000931BD500B309B841338CAB40B38F790083
:1030B000330E7C0093DEFF40135FFE40231ED3FFE0
:1030C000231FE3FF839CC8FF039DE8FF1304440014
:1030D0001396DC009316DD00330B9641B385A641B1
:1030E000330A7B00B38A7500935DFA4013D5FA402A
:1030F000239EB8FF239FA8FE03980700839B270009
:10310000832D01009319D800139CDB00B38F094174
:10311000330E7C41B38E7F00330F7E0013D5FE400B
:10312000935AFF402390A70023915701039C02006C
:10313000839C2200039DC8FF039EE8FF83160900BD
:10314000031B2900330FAC033309B901831BC3FFF1
:10315000831FE3FF03284100835EC4FF035AE4FF9B
:10316000B38202010396040083992400B38DCC033B
:10317000938747001307F7FFB3841400B38CAC03A5
:10318000330E8E03330CBF4133087C00135FF840CD
:10319000931D0F0113D80D01330CD801131F0C011F
:1031A000B38E0E4113980E01330DFB03330E9E01B7
:1031B000330C7E00935EFC40935D0F01135F0801AA
:1031C00013980E01935C0801338E4C01131C0E0101
:1031D000B385760313580C01330A9A41931E0A01F2
:1031E00093DC0E01231EB4FF231F04FFB385A5410A
:1031F000330CA602338D7500135EFD40131A0E01C9
:10320000935E0A01338EDC41B38C9E01B385590372
:10321000B386DF02B30FBC40338C7F00135DFC40EC
:10322000131A0D01935F0A01B38EDF0193950E010E
:1032300013DD0501B38DAD41330B7B03B38BFC4133
:10324000239EB8FF338ECF01B30A5603338666013F
:10325000B30C760093D6FC40139C0601935F0C01DF
:10326000338AEF01330FFF413385A902B389AA00E6
:10327000B38E790093D5FE40939D050113DB0D01BC
:10328000B30AFB0113960A01935C060133089841C7
:10329000239F08FF8356C4FF035CE4FFB30F6A411A
:1032A000330DDD00338A8C01231EA4FF231F44FF4E
:1032B000231FC3FF231EF3FF330EEB01239EC7FF23
:1032C000239F77FFE31C07D86FE04FF2B387980086
:1032D0009309090093040900B74300000318040090
:1032E000031B240093884800931BD8009316DB002F
:1032F000B38A0B41B382664133857A00B38572008D
:103300001356F54013DEF5402310C4002311C40109
:10331000831E0300831C230013034300139ADE0063
:10332000139CDC00330DDA41330F9C41B30F7D0059
:10333000B30D7F0013D8FF4013DBFD40231E03FFB6
:10334000231F63FF839BC8FF839AE8FF1304440095
:103350009392DB009396DA0033857241B385564130
:1033600033067500338E7500935EF640935CFE4025
:10337000239ED8FF239F98FF039A0700039C2700F2
:1033800093874700131DDA00131FDC00B30D4D4176
:10339000B30F8F4133887D00338B7F009355F84006
:1033A000935FFB40239EB7FE239FF7FF839C24007F
:1033B00003960400039DE8FF039EC8FF032C010051
:1033C000831A0900831629003308CE0233098901C4
:1033D000831EC3FF831BE3FF832D4100035FC4FFF4
:1033E00083920900B384B401039B2900035AE4FFCC
:1033F000330C9D031307F7FFB38919003306A603A7
:10340000330E9E03B30C8841B38D7C0013D8FD406E
:10341000131C0801935C0C01B30D9F0113980D015F
:10342000135C0801330F9F41338DDB02330ECE0056
:1034300033087E00931C0F01135FF84093DD0C01ED
:10344000931C0F0113D60C01330ECA00330ACA4075
:1034500033855E0313180E01131F0A01935C0F01DD
:1034600013580801231E84FF231F04FF3305A541C1
:1034700033865502330D7500135EFD40131A0E019D
:10348000135F0A01338EEC01B38CEC4133856F037B
:10349000B386DE02B30EA64033867E00135DF6408F
:1034A000131A0D0113560A01330FCF0013150F0124
:1034B000935E0501330ECE40B38A7A03B30B9601B7
:1034C000330CDC41239E88FFB3856503338B5601A3
:1034D000B30C7B0093D6FC40139D060113550D01E0
:1034E000338AAD40B38DAD00B38F5F02B382F50177
:1034F00033867200135FF640131C0F01935A0C01C0
:10350000B3055501139B0501935C0B0133089841EA
:10351000239F08FF8356C4FF035DE4FF33854A0100
:10352000B38EDE00338AAC01231ED4FF231F44FF79
:10353000231FC3FF231EA3FE338E5D41239EC7FFBF
:10354000239F77FFE31C07D86FE04FCA17040100E1
:10355000032404D10329040013067001930510000D
:103560008326C90017F50000130505DCEF10007D68
:10357000032A040093051000130690018326CA0055
:1035800017F500001305C5DBEF10407B8324040012
:10359000032481078320C10783A5C40003290107F1
:1035A000832441078329C106032A8106832A410611
:1035B000032B0106832BC105032C8105832C4105B8
:1035C000032D0105832DC1041305A000130101087B
:1035D0006F10C0571300000013000000130000001C
:1035E000130101FE232C810093073500232E1100C7
:1035F0001304050013952700638006066302060482
:1036000083A0060063EEA00223A0A6001305060017
:103610008320C1012320850003248101970201003A
:1036200083A2C2C3170301000323C3C32322B5002F
:103630002326550023246500130101026780000042
:1036400023A0A600130500008320C10103248101EB
:1036500013010102678000002326B100EF009016DD
:103660008325C100E31605FA130500006FF0DFFDA6
:10367000130101FE232C8100232E110013040500E9
:103680006382C50203278400930704000324810199
:103690008320C10113050600130610001301010267
:1036A0006FD01FF5232A91009384050063880506D7
:1036B00003250500232821012326310113152500A8
:1036C00013890600EF001010930905006308050A2E
:1036D00003278400930704009306090093850400E0
:1036E00013061000EFD0DFF00326040093850900D5
:1036F0001385040013162600EF20403003248101B7
:1037000083244101032901018320C101138509009C
:103710008329C100130101026F00900B970401007F
:1037200083A404B483A00400130670019305100061
:1037300083A6C00017F50000130545C2EF10006016
:1037400083A30400930510001306100183A6C30091
:1037500017F50000130505C2EF10405E83A50400B5
:10376000832441011305A00083A5C5000324810122
:103770008320C101130101026F10403D17040100B5
:10378000032404AE83270400130670019305100080
:1037900083A6C70017F50000130505BFEF10005AF8
:1037A00083220400930510001306800183A6C20043
:1037B00017F500001305C5BEEF10405803230400A1
:1037C00083244101032901018325C3008329C1000A
:1037D0001305A0006FF09FF9130000001300000014
:1037E000130101FF23248100232611001304050087
:1037F0006384C50203278400930704000324810027
:103800008320C10013050600930610001306100064
:10381000130101016FD0DFDD2322910093840500A5
:1038200063820506032505002320210113152500C9
:10383000EF004079130905006306050A0327840099
:1038400093070400938504009306100013061000EC
:10385000EFD01FDA03260400930509001385040046
:1038600013162600EF2080190324810083244100D1
:103870008320C10013050900032901001301010180
:103880006F0000759704010083A4849D83A0040049
:10389000130670019305100083A6C00017F5000001
:1038A0001305C5ABEF10804983A3040093051000F6
:1038B0001306100183A6C30017F50000130585AB9E
:1038C000EF10C04783A50400832441001305A00026
:1038D00083A5C500032481008320C10013010101D9
:1038E0006F10C02617040100032484978327040067
:1038F000130670019305100083A6C70017F500009A
:10390000130585A8EF10804383220400930510005F
:103910001306800183A6C20017F50000130545A811
:10392000EF10C04103230400832441000329010058
:103930008325C3001305A0006FF0DFF9130000001A
:103940006780000013000000130000001300000057
:1039500093771500930630001307500013081000EA
:10396000639407189307050013D6F701B302F60016
:1039700093D7124013D3F70193F51700B303F30065
:103980006394050893D7134093D8F70193FE17006B
:10399000338EF800639A0E0693571E4013DFF7012B
:1039A00013F61700B30FFF006310060693D71F40EE
:1039B00093D2F70193F317003383F2006396030465
:1039C0009357134093D5F70113FE1700B388F50002
:1039D000631C0E0293D7184093DEF70193FF170084
:1039E000338FFE0063920F0293571F4013D6F701E7
:1039F00013F31700B302F6006318030093D71240C5
:103A000093F31700E38203F6B3E5D702639205064A
:103A1000B3C7D702B3E8D702639C0804B3C7D70281
:103A200033EED70263160E04B3C7D702B3EED70244
:103A300063900E04B3C7D70233EFD702631A0F02A5
:103A4000B3C7D702B3EFD70263940F02B3C7D7024D
:103A500033E6D702631E0600B3C7D702B3E2D7022C
:103A600063980200B3C7D70233E3D702E30203FA35
:103A7000B3E3E70263920306B3C7E702B3E5E702E5
:103A8000639C0504B3C7E702B3E8E7026396080442
:103A9000B3C7E70233EEE70263100E04B3C7E702D1
:103AA000B3EEE702639A0E02B3C7E70233EFE70211
:103AB00063140F02B3C7E702B3EFE702639E0F0080
:103AC000B3C7E70233E6E70263180600B3C7E702AD
:103AD000B3E2E702E38202FA635CF8001305150023
:103AE00093771500E38007E8930705006FF0DFF197
:103AF000678000001308060093080500138705007F
:103B00006390060E63FEC512B7070100636EF61ED2
:103B1000B7070001930680016374F6009306000165
:103B2000B72701803353D6009387873BB38767005D
:103B300083C7070013030002B387D700B306F3401F
:103B4000630CF3003397D500B357F5003318D60054
:103B500033E7E700B318D500135608013355C70201
:103B60009316080193D6060193D708013377C7024D
:103B7000B385A60213170701B3E7E70063FCB7009C
:103B8000B307F8001307F5FF63E4070163E0B73EEE
:103B900013050700B387B74033D7C70293980801CE
:103BA00093D80801B3F7C702B386E60293970701DB
:103BB000B3E8F80063FED800B30818019307F7FFD5
:103BC00063E608011307E7FF63E4D80013870700E3
:103BD000131505013365E5009305000067800000BB
:103BE00063F8D5009305000013050000678000000E
:103BF000B707010063E8F61EB7070001130880014C
:103C000063F4F60013080001B727018033D70601DB
:103C10009387873BB387E70003C70700930700023A
:103C2000330707013388E7406396E71C63E4B63047
:103C30003335C5001335150093050000678000007B
:103C4000630C060CB7070100637CF62C13370610D3
:103C50001337170013173700B356E600B727018054
:103C60009387873BB387D70083C70700930600027B
:103C7000B387E700B38EF6406394F60CB387C54074
:103C800093560601131606011356060193051000FC
:103C900033D5D70213D70801B3F7D7023303C502D0
:103CA00093970701B367F70063FC6700B307F80059
:103CB0001307F5FF63E4070163E4672A13050700B0
:103CC000B387674033D7D7029398080193D8080188
:103CD000B3F7D7023306C70293970701B3E8F8009A
:103CE00063FEC800B30818019307F7FF63E60801F5
:103CF0001307E7FF63E4C8001387070013150501E6
:103D00003365E500678000009336061093B6160011
:103D1000939636006FF0DFE0B7270180930600002E
:103D20009387873BB387D70083C70700130700003B
:103D300093060002B387E700B38EF640E380F6F403
:103D40003318D60133D3F50093560801335ED302FE
:103D500013160801B395D50113560601B357F500A4
:103D6000B3E7B70013D70701B318D5013373D302F4
:103D7000B305C6031313030133676700637EB700FF
:103D80003307E8001305FEFF6364071D6372B71C69
:103D9000130EEEFF330707013307B7403355D70241
:103DA0009397070193D707013377D7023303A6020E
:103DB00013170701B3E7E70063FE6700B307F800D6
:103DC0001307F5FF63EE071763FC67161305E5FF9E
:103DD000B387070193150E01B3876740B3E5A500CC
:103DE0006FF01FEB13B806101338180013183800C3
:103DF0006FF09FE1335EE600B3960601336EDE009E
:103E0000B3D8E500935E0E01B3D7D80313130E01A8
:103E1000B3950501135303013357E5003367B7002A
:103E20009356070133160601B3F8D803B305F3021E
:103E300093980801B3E6160163FEB600B306DE00F0
:103E40009388F7FF63EAC61163F8B6109387E7FF1C
:103E5000B386C601B386B640B3D5D60313170701A0
:103E600013570701B3F6D603B308B30293960601BE
:103E70003367D700637E17013307EE009386F5FFA3
:103E80006364C70D6372170D9385E5FF3307C701A0
:103E900093970701B70E0100B3E7B7009386FEFFC3
:103EA000B3F5D70013D30701B376D6001356060136
:103EB000338ED50233071741B306D30293580E0150
:103EC000B385C502B385D500B385B8003303C302FB
:103ED00063F4D5003303D30193D60501B38666009E
:103EE000636AD7026308D7001385070093050000B3
:103EF00067800000B70601009386F6FF33F7D50010
:103F000013170701337EDE00331505013307C701A0
:103F1000E37CE5FC1385F7FF930500006780000054
:103F2000B7070001637AF6049356060113070001F0
:103F30006FF0DFD2930500001305100067800000CA
:103F4000130507006FF01FE9938506006FF05FF41B
:103F5000130E05006FF05FE4938708006FF09FEF8A
:103F60001305E5FFB38707016FF09FD51305E5FF44
:103F7000B38707016FF01FC29356860113078001B4
:103F80006FF0DFCD930505009306000013060000D7
:103F9000130500006F109049130101FF9305000005
:103FA000232481002326110013040500EF109051F3
:103FB00083A781F563840700E780070013050400E9
:103FC000EFC00FD09305050003A541F46F00000179
:103FD0009305050003A541F46F109075130101FDD1
:103FE000232E310123261102232481022322910250
:103FF000232021039387B50013076001930905006F
:104000006360F7089307000163E0B720EF000078D2
:104010009307800193052000930400011389818296
:10402000B307F90003A44700138787FF6300E43454
:10403000832744008326C4000326840093F7C7FF28
:10404000B307F40003A747002326D60023A4C60025
:10405000136717001385090023A2E700EF004073E0
:10406000130584008320C1020324810283244102BA
:10407000032901028329C1011301010367800000A4
:1040800093F487FF63C2071863E0B418EF00007071
:104090009307701F63F6973E93D79400638E0716BD
:1040A00013074000636CF73293D76400938597033E
:1040B0001388870313963500138981823306C9005C
:1040C00003244600130686FF630886021305F000EA
:1040D0006F0040018326C40063560728630ED60094
:1040E000138406008327440093F7C7FF3387974064
:1040F000E352E5FE930508000324090193088900B3
:10410000630E1425832744009306F00093F7C7FF3E
:104110003387974063CCE636232A190123281901F7
:10412000635007341307F01F032549006368F72421
:1041300013F787FF130787003307E900832607007B
:1041400013D6570093071000B397C7003365F500E7
:10415000930787FF2326F4002324D4002322A900F9
:104160002320870023A6860093D72540130610003E
:104170003316F600636AC50AB377A6006394070294
:104180001316160093F5C5FFB377A6009385450077
:10419000639A070013161600B377A60093854500AF
:1041A000E38A07FE1308F000139335003303690018
:1041B000130503008327C500138E05006302F52451
:1041C00003A747001384070083A7C7001377C7FF1F
:1041D000B30697406342D824E3C206FE3307E400E7
:1041E00083264700032684001385090093E6160002
:1041F0002322D7002326F60023A4C700EF0040594E
:10420000130584006FF01FE69307C00023A0F90098
:10421000130500006FF01FE513060020930500044E
:104220001308F0036FF05FE903248900232861017C
:104230008327440013FBC7FF63689B0033079B4041
:104240009307F00063CAE70C23229101232A51014E
:1042500003A7C1F383AA41F5232C41012326710151
:104260009307F0FF330A6401B38A54016306F73CF5
:10427000B71700009387F700B38AFA00B7F7FFFF7C
:10428000B3FAFA0093850A0013850900EF10804DF8
:104290009307F0FF930B0500630AF5442324810183
:1042A000636E4523138C81F683250C00B385BA0019
:1042B0002320BC00138705006316AA2A9317450123
:1042C0006392072A832B8900B3075B0193E71700EA
:1042D00023A2FB0083A601F563F4B60023A8B1F482
:1042E00083A6C1F463F4B60023A6B1F4032C8100C5
:1042F00013840B0093F7C7FF3387974063EA97381F
:104300009307F00063D6E738032A8101832A41012D
:10431000832BC100832C410093E714002322F40077
:10432000B304940023249900136717001385090030
:1043300023A2E400EF00C0458320C10213058400DE
:1043400003248102032B010183244102032901027A
:104350008329C1011301010367800000032549007F
:104360006FF09FE0032684006FF09FCD03A4C70089
:1043700093852500E38287D86FF09FCB13D79700F2
:104380009306400063F2E6149306400163E4E632CC
:104390001306C7059306B705131636003306C90082
:1043A00003270600130686FF6318E6006F00402906
:1043B000032787006308E6008326470093F6C6FFBD
:1043C000E3E8D7FE0326C7002326C4002324E40025
:1043D00023248600232687006FF01FD9130740018E
:1043E0006378F710130740056364F72E93D7C40072
:1043F0009385F7061388E706139635006FF0DFCB39
:10440000130E1E0093773E0013058500638007108E
:104410008327C5006FF09FDA0326840093E514001C
:104420002322B4002326F60023A4C700B30494007B
:10443000232A99002328990093E7160023A6140144
:1044400023A4140123A2F4003307E4001385090018
:104450002320D700EF00C033130584006FF09FC006
:10446000B307F40003A7470013850900136717007B
:1044700023A2E700EF00C031130584006FF09FBE58
:1044800093D53400938784006FF05FB993E61400EE
:104490002322D400B3049400232A990023289900EE
:1044A0009366170023A6140123A4140123A2D400A9
:1044B000B307F4001385090023A0E700EF00402DA7
:1044C000130584006FF01FBA13D767001306970314
:1044D00093068703131636006FF05FEC630C240716
:1044E00003248900032C8100832744006FF09FE0A0
:1044F0009385C7051388B705139635006FF0DFBBAA
:10450000832783009385F5FF639E672693F7350025
:10451000130383FFE39607FE032749009347F6FF43
:10452000B3F7E7002322F90013161600E3EEC7CE17
:10453000E30C06CE3377F600631A07001316160055
:104540003377F600130E4E00E30A07FE93050E00C4
:104550006FF09FC5138C81F603270C003387EA00A8
:104560002320EC0083A6C1F39307F0FF6386F618BF
:10457000B3874B41B387E7002320FC0093FC7B000B
:10458000638C0C0CB38B9B41B7170000938787009B
:10459000938B8B00B3859741B38A5B01B3855541FB
:1045A0009395450113DA450193050A001385090027
:1045B000EF10401B9307F0FF6300F51833057541BA
:1045C000B30A450103270C002324790193E71A005D
:1045D000B305EA002320BC0023A2FB00E30C24CF98
:1045E0009306F00063F0660B0327440093074BFF2C
:1045F00093F787FF137717003367F7002322E40050
:10460000130650003307F4002322C7002324C700F9
:1046100063E6F60083A74B006FF0DFCB93058400C1
:1046200013850900EF10D010832B890083250C001F
:1046300083A74B006FF01FCA938A0A016FF09FC4D3
:1046400093D6264093071000B397D7003365F50043
:104650002322A9006FF05FD7B3855B01B305B0409B
:104660009395450113DA450193050A001385090066
:10467000EF10400F9307F0FFE312F5F4130A000068
:104680006FF05FF4032C81009307100023A2FB005E
:1046900013850900EF00C00F13050000032A8101F4
:1046A000832A4101032B0101832BC100832C41008C
:1046B0006FF05F9B9306400563E4E60413D7C700E1
:1046C0001306F7069306E706131636006FF01FCDA4
:1046D000130740156364F70493D7F40093858707A5
:1046E00013887707139635006FF01F9D0324890008
:1046F000832744006FF01FC023AE71F36FF01FE8F3
:104700009306401563E4E60413D7F7001306870702
:1047100093067707131636006FF05FC813074055EE
:104720006364F70493D724019385D7071388C707D9
:10473000139635006FF05F98938C8CFFB38A9A01C3
:10474000B38A7A41130A00006FF0DFE79306405501
:1047500063E4E60213D727011306D7079306C707BA
:10476000131636006FF09FC31306803F9305F007C2
:104770001308E0076FF05F941306803F9306E0078D
:104780006FF0DFC1832749006FF01FDA67800000F8
:10479000678000001305000067800000B795008067
:1047A000138601C393850531138501C46F00004151
:1047B000130101FF8325450023248100232291005A
:1047C00023261100138401F99304050063848500F6
:1047D000EF40103483A58400930784066386F500B8
:1047E00013850400EF40D03283A5C4001304040DE8
:1047F000638E8500032481008320C100138504009B
:1048000083244100130101016F4090308320C100D7
:10481000032481008324410013010101678000000B
:104820001305000067800000130101FE232C8100A6
:10483000B7470080138401F99387C779232E1100AD
:10484000232A910023282101232631012324410119
:1048500023ACF1F413068000930740009305000099
:104860001305C4052326F40023200400232204009A
:10487000232404002322040623280400232A0400FE
:10488000232C0400EF10C009B7070100375A00803D
:10489000B759008037590080B7540080130A8A0A3C
:1048A0009389C910130949199384C42093879700E9
:1048B00013068000930500001305440C23204403D5
:1048C000232234032324240323269402232AF406D8
:1048D000232E84002324040623260406232804060A
:1048E0002326040C232C0406232E0406232004086C
:1048F000EF100003B7070200130784069387270110
:104900001305C412130680009305000023244409F4
:104910002326340923282409232A9408232EF40C5F
:104920002322E4082328040C232A040C232C040C3F
:10493000232A04122320040E2322040E2324040E0F
:10494000EF00107E9307040D2328440F232A340F11
:10495000232C240F232E940E8320C1012326F40E32
:104960000324810183244101032901018329C1001A
:10497000032A8100130101026780000083A781F5EB
:10498000130101FE23263101232E1100232C810067
:10499000232A910023282101930905006386070E2D
:1049A000138901C39304F0FF83274900032489007E
:1049B0009387F7FF63D807006F000008130484068D
:1049C000638C97060317C4009387F7FFE31807FE6D
:1049D000B707FFFF938717002326F400232204065E
:1049E000232004002324040023220400232804009D
:1049F000232A0400232C04001306800093050000E2
:104A00001305C405EF00D07123280402232A0402F1
:104A100023220404232404048320C1011305040079
:104A20000324810183244101032901018329C10059
:104A300013010102678000000324090063060400DB
:104A4000130904006FF05FF69305C01A138509007F
:104A5000EFF0CFD813040500630C05021305C50061
:104A600093074000232004002322F4002324A40001
:104A70001306001A93050000EF00906A23208900B6
:104A8000130904006FF05FF2EFF01FDA6FF05FF1CF
:104A9000232009009307C00023A0F9006FF0DFF77F
:104AA00083274503638407006780000003A781F51F
:104AB000B74700809387077B232AF502E31607FE9A
:104AC0006FF09FD66780000067800000B7450080C8
:104AD000138601C393854579130500006F00000E0E
:104AE000B7550080138601C3938505821305000026
:104AF0006F00C00C130101FE232C8100232E110036
:104B0000130405006306050083274503638C070033
:104B100013050400032481018320C1011301010254
:104B20006F0080372326C1002324B100EFF05FF728
:104B300013050400032481010326C100832581009D
:104B40008320C101130101026F000035130101FE32
:104B5000232A910083A441F4232C8100232E1100E9
:104B600013040500138605006386040083A744032D
:104B70006380070293050400032481018320C1019F
:104B80001385040083244101130101026F00C0302A
:104B9000138504002326B100EFF09FF09305040075
:104BA000032481010326C1008320C1011385040071
:104BB00083244101130101026F00002E130101FD46
:104BC00023202103232E3101232C4101232A5101CB
:104BD0002328610123267101232611022324810247
:104BE00023229102130B0500938B0500930A060004
:104BF000130A0000930910001309F0FF83A44A0070
:104C000003A48A009384F4FF63C804028357C4009A
:104C100063FEF9008317E4009305040013050B00FD
:104C200063862701E7800B00336AAA009384F4FFB0
:104C300013048406E39C24FD83AA0A00E3900AFC83
:104C40008320C1020324810283244102032901023B
:104C50008329C101832A4101032B0101832BC10058
:104C600013050A00032A8101130101036780000074
:104C7000130101FB232021053389C6029307C101DB
:104C80002322F1029307100023248104232291049C
:104C9000232E3103232EB100232611042324F102F5
:104CA00023202103232621039309060013840600F1
:104CB0009304050093050700630605008327450359
:104CC000638607068397C50013972701634207028F
:104CD00003A74506B7E6FFFF9386F6FF37260000D9
:104CE000B3E7C7003377D7002396F50023A2E50684
:104CF0001306410213850400EF40502563080500A8
:104D00008327C1023309F940335439038320C10496
:104D100013050400032481048324410403290104AE
:104D20008329C10313010105678000002326E100E8
:104D3000EFF01FD78325C1006FF0DFF8130101FBEF
:104D400023229104B384C502232E310383A941F4A5
:104D50009307C1012322F102930710002324810449
:104D60002320210523261104232EA1002324F10250
:104D700023209102232691021389050013040600C3
:104D8000938506006386090083A7490363860706A7
:104D90008397C500139727016342070203A74506BF
:104DA000B7E6FFFF9386F6FF37260000B3E7C7009C
:104DB0003377D7002396F50023A2E50613064102B8
:104DC00013850900EF409018630805008327C1028E
:104DD000B384F44033D424038320C10413050400B6
:104DE0000324810483244104032901048329C1038A
:104DF0001301010567800000138509002326D100F7
:104E0000EFF01FCA8325C1006FF09FF8130101FC6A
:104E10002324C1022326D1022328E102232AF102FE
:104E2000232C0103232E11031386050083258500FF
:104E300093068102232E11002326D100EF10803F1C
:104E40008320C101130101046780000003A341F422
:104E5000130101FC2324C1022326D1022322B10223
:104E60002328E102232AF102232C0103232E11031C
:104E700083258300930641021306050013050300F2
:104E8000232E11002326D100EF10C03A8320C10148
:104E90001301010467800000130101FE232C81002F
:104EA000232E110013040500630605008327450324
:104EB00063800706832786009387F7FF2324F60085
:104EC00063DC07000327860163CAE70293F7F50F47
:104ED0001307A0006384E7028327060013F5F50F8C
:104EE000138717002320E6002380B7008320C10129
:104EF00003248101130101026780000013050400EF
:104F0000032481018320C101130101026F0080305D
:104F10002326C1002324B100EFF09FB80326C1006F
:104F2000832581006FF01FF9130101FE232A21015F
:104F300003A941F4232C9100232E110093040500B2
:104F400063060900832749036388070683A7850052
:104F50009387F7FF23A4F50063DC070003A785010F
:104F600063CCE70293F7F40F1307A0006386E70210
:104F700083A7050013F5F40F1387170023A0E5009E
:104F8000238097008320C1018324810103294101EB
:104F900013010102678000008320C1011386050010
:104FA000130509009385040003294101832481012D
:104FB000130101026F000026130509002326B1002A
:104FC000EFF01FAE8325C1006FF05FF8130101FC05
:104FD000232C81021304050013850500232A910266
:104FE000232E110293840500EF00903BB727018028
:104FF0009387874B2324F102930710002326F102A5
:10500000032744039307010293061500232AF100A6
:1050100093072000232091022322A102232ED100F6
:10502000232CF10083258400630007068397C500C5
:10503000139727016342070203A74506B7E6FFFF60
:105040009386F6FF37260000B3E7C7003377D70013
:105050002396F50023A2E50613064101130504007B
:10506000EF40C06E8320C103032481031335150074
:105070003305A0401375B500832441031305F5FFE4
:105080001301010467800000130504002326B1000A
:10509000EFF01FA18325C1006FF05FF993050500B4
:1050A00003A541F46FF09FF2130101FF2324810057
:1050B000138405008395E50023261100EF000064AA
:1050C00063400502832704058320C100B387A7003E
:1050D0002328F404032481001301010167800000E8
:1050E0008357C40037F7FFFF1307F7FFB3F7E70055
:1050F0008320C1002316F400032481001301010161
:105100006780000013050000678000008397C500DA
:10511000130101FE232C8100232A91002328210161
:1051200023263101232E110013F7071013840500E5
:105130009304050013090600938906006310070411
:1051400037F7FFFF1307F7FFB3F7E7008315E40016
:105150002316F400032481018320C10193860900F2
:10516000130609008329C1000329010113850400E6
:1051700083244101130101026F0080648395E500DF
:105180009306200013060000EF00C0508317C400F0
:105190006FF01FFB130101FF23248100138405001E
:1051A0008395E50023261100EF00C04E9307F0FF22
:1051B0006308F5028357C400371700008320C1003D
:1051C000B3E7E7009397070193D707412328A40487
:1051D0002316F400032481001301010167800000FD
:1051E0008357C40037F7FFFF1307F7FFB3F7E70054
:1051F0009397070193D707418320C1002316F4003A
:105200000324810013010101678000008395E500FC
:105210006F004036130101FE232C8100232A9100E8
:1052200023282101232E1100130905009384050072
:1052300013040600630605008327450363800716F1
:10524000832784010317C4002324F4009377870085
:105250006380070883270401638C07062326310136
:105260009316270193F9F40F93F4F40F63D806080B
:105270000327040083264401B307F74063D8D70A05
:1052800083268400130617002320C4009386F6FFAC
:105290002324D400230037010327440193871700F8
:1052A0006302F70C8357C40093F71700639A070C47
:1052B0008329C1008320C101032481010329010145
:1052C000138504008324410113010102678000005B
:1052D0009305040013050900EF00000E631E050886
:1052E0000317C400232631018327040193162701E5
:1052F00093F9F40F93F4F40FE3CC06F683264406F7
:1053000037E6FFFFB72500003367B7001306F6FF47
:10531000B3F6C6002316E400032704002322D406B4
:1053200083264401B307F740E3CCD7F49305040088
:1053300013050900EF40C033631E05020327040074
:105340008326840093071000130617009386F6FF48
:105350002320C4002324D400230037010327440161
:10536000E312F7F49305040013050900EF40403001
:10537000E30005F48329C1009304F0FF6FF09FF36D
:105380009307A000E396F4F29305040013050900C7
:10539000EF40002EE30E05F06FF0DFFDEFF04FF071
:1053A0006FF01FEA9307050003A541F4138605007B
:1053B000938507006FF01FE683A741F4130101FFF7
:1053C0002324810023229100232611009304050049
:1053D000138405006386070003A74703630C070EC9
:1053E0008317C40013F78700630A07060327040125
:1053F0006306070893F617006388060283264401B4
:105400002324040013050000B306D040232CD4004D
:10541000630A07028320C100032481008324410022
:10542000130101016780000093F6270013060000B6
:1054300063940600032644012324C40013050000DE
:10544000E31A07FC13F70708E30607FC93E70704D2
:105450002316F4001305F0FF6FF0DFFB13F70701CD
:105460006300070813F74700631C070203270401C2
:1054700093E787002316F400E31E07F693F6072848
:1054800013060020E388C6F6930504001385040084
:10549000EF40C07C8317C400032704016FF09FF521
:1054A00083250403638E0500130704046388E50065
:1054B00013850400EF00D0278317C40023280402BB
:1054C0000327040193F7B7FD232204002320E400FF
:1054D0006FF01FFA13850700EFF08FDC6FF05FF0BD
:1054E0001307900023A0E40093E707042316F400B9
:1054F0001305F0FF6FF01FF29307300063FEC70241
:10550000B3E7A50093F737006394070293063000D2
:105510006F0040011306C6FF130545009385450043
:1055200063FCC6000327050083A70500E304F7FE1C
:105530009306F6FF6F00C0009306F6FF63080602AD
:1055400093861600B306D5006F0080006380A60224
:105550008347050003C70500130515009385150053
:10556000E386E7FE3385E74067800000130500000F
:1055700067800000130101FF232481002322910092
:1055800013040500138505002326110023AE01F442
:10559000EFA01FF19307F0FF630CF5008320C1001B
:1055A000032481008324410013010101678000006E
:1055B00083A7C1F5E38407FE8320C1002320F40004
:1055C000032481008324410013010101678000004E
:1055D00083A741F4638EA70A83254504130101FEC6
:1055E000232A9100232E110093040500638C0504E7
:1055F0002328210123263101232C810013090000D7
:1056000093090008B387250103A40700630E040073
:10561000930504000324040013850400EF005011D7
:10562000E31804FE83A5440413094900E31C39FD73
:1056300013850400EF00D00F032481010329010129
:105640008329C10083A584036386050013850400B4
:10565000EF00100E83A5C4046386050013850400C3
:10566000EF00100D83A74403638C07008320C10162
:1056700013850400832441011301010267800700A0
:105680008320C101832441011301010267800000CE
:1056900067800000130101FF1387050023248100A8
:1056A00023229100930506001304050013860600CB
:1056B000130507002326110023AE01F4EFA05FECD1
:1056C0009307F0FF630CF5008320C10003248100E1
:1056D00083244100130101016780000083A7C1F505
:1056E000E38407FE8320C1002320F400032481000B
:1056F000832441001301010167800000130101FFB1
:1057000013870500232481002322910093050600BE
:105710001304050013860600130507002326110055
:1057200023AE01F4EFA0DFE99307F0FF630CF5006F
:105730008320C1000324810083244100130101015F
:105740006780000083A7C1F5E38407FE8320C100C2
:105750002320F4000324810083244100130101016C
:1057600067800000130101FF2324810023229100A0
:1057700013040500138505002326110023AE01F450
:10578000EFA01FF39307F0FF630CF5008320C10027
:10579000032481008324410013010101678000007C
:1057A00083A7C1F5E38407FE8320C1002320F40012
:1057B000032481008324410013010101678000005C
:1057C000130101FF13870500232481002322910088
:1057D0009305060013040500138606001305070051
:1057E0002326110023AE01F4EFA09FE49307F0FFFE
:1057F000630CF5008320C100032481008324410051
:10580000130101016780000083A7C1F5E38407FE4F
:105810008320C1002320F40003248100832441005D
:105820001301010167800000130101FF232481009F
:10583000B737018037340180232021019387C7B710
:105840001307C4B723261100232291003389E740B0
:105850006382E702135929401304C4B7930400007C
:10586000832704009384140013044400E780070096
:10587000E3E824FF37340180B73701809387C7B747
:105880001307C4B73389E740135929406380E702FF
:105890001304C4B793040000832704009384140006
:1058A00013044400E7800700E3E824FF8320C100DD
:1058B0000324810083244100032901001301010115
:1058C00067800000130101FF23248100B7370180A6
:1058D000373401809387C7B71304C4B73304F44047
:1058E0002322910023261100935424406380040254
:1058F0001304C4FF3304F400832704009384F4FFEB
:105900001304C4FFE7800700E39804FE8320C1006E
:1059100003248100832441001301010167800000FA
:105920001303F00013070500637EC3029377F700AB
:105930006390070A63920508937606FF1376F600D4
:10594000B386E6002320B7002322B7002324B70044
:105950002326B70013070701E366D7FE631406008A
:1059600067800000B306C3409396260097020000AC
:10597000B38656006780C6002307B700A306B700AA
:105980002306B700A305B7002305B700A304B7009B
:105990002304B700A303B7002303B700A302B70093
:1059A0002302B700A301B7002301B700A300B7008B
:1059B0002300B7006780000093F5F50F93968500EC
:1059C000B3E5D50093960501B3E5D5006FF0DFF69A
:1059D0009396270097020000B3865600938200003A
:1059E000E78006FA93800200938707FF3307F740AA
:1059F0003306F600E378C3F66FF0DFF3B3C7A50014
:105A000093F73700B308C500639407069307300087
:105A100063F0C7069377350013070500639A0706FE
:105A200013F6C8FFB306E6409307000263CED7081B
:105A300093860500930707006378C70203A8060052
:105A4000938747009386460023AE07FFE3E8C7FE2F
:105A50009307F6FFB387E74093F7C7FF93874700A5
:105A60003307F700B385F50063681701678000000E
:105A7000130705006378150583C705001307170092
:105A800093851500A30FF7FEE398E8FE67800000FA
:105A900083C605001307170093773700A30FD7FEBF
:105AA00093851500E38E07F683C6050013071700DC
:105AB00093773700A30FD7FE93851500E39A07FC71
:105AC0006FF01FF667800000130101FF232681009D
:105AD0001304000283A3050083A2450083AF850061
