:0200000480007A
:100000006F00C0236F00D00E6F0040226F000022EF
:100010006F00C0216F0080216F0040216F00002120
:100020006F00C0206F0080206F0040206F00002014
:100030006F00C01F6F00801F6F00401F6F00001F08
:100040006F00C01E6F00801E6F00401E6F00001EFC
:100050006F00C01D6F00801D6F00401D6F00001DF0
:100060006F00C01C6F00801C6F00401C6F00001CE4
:100070006F00C01B6F00801B6F00401B6F00402C87
:1000800097710200938101A017010300130181F70A
:1000900017050000130505F713651500731055309B
:1000A0001765020013058547177602001306861DA3
:1000B0003306A64093050000EF20D06E17350000F0
:1000C000130585E5EF20802CEF20905B13050000E1
:1000D0009305000013060000EF0080046F0040014C
:0400E0006780000035
:1000F000130101FF93050000232481002326110032
:1001000013040500EF30C02083A701AA6384070011
:10011000E780070013050400EF00803300000000B3
:10012000130101D913068001930781009306010191
:10013000930506001307100013050024232611263B
:10014000232481262322912623202127232E312593
:10015000232C4125EF10D031732920B0732400B037
:100160009305810013050101930671001306C10078
:10017000EF100043130A0500F32920B0F32400B068
:10018000832581001735010013058574EF20407920
:100190008325C1001735010013058574EF204078D1
:1001A00093050A001735010013058574EF20407789
:1001B000834571001735010013058574EF204076E3
:1001C00033862941973501009385857417350100E1
:1001D00013058574EF20C074338684409735010081
:1001E00093850573173501001305C574EF2040731F
:1001F0008320C12603248126832441260329012646
:100200008329C125032A8125130500001301012735
:10021000678000009307000063880700173500001F
:10022000130585CF6F208016678000001735010009
:1002300013059565EF20100A6FF05FFF130101FCB5
:10024000232011002322A1002324B1002326C10072
:100250002328D100232AE100232CF100232E0101C1
:100260002320110323225102232461022326710239
:100270002328C103232AD103232CE103232EF103D6
:10028000F322203413032000638862021303B000BA
:100290006388620013033000638862006F00C0024D
:1002A000EF00003D6F00400317350100130585592D
:1002B000EF2050026F0040021735010013058553EF
:1002C000EF2050016F004001173501001305A559BB
:1002D000EF2050006F004002F3221034038302002D
:1002E000130530003373A3006314A300938222002C
:1002F0009382220073901234832001000325410071
:10030000832581000326C1008326010103274101C3
:10031000832781010328C10183280102832241022E
:10032000032381028323C102032E0103832E410391
:10033000032F8103832FC1031301010473002030B5
:1003400073002030000000000000000000000000EA
:100350003305A04023A2A1AA1305F0FF6780000087
:1003600037070010930750052320F7009736010048
:1003700083C6D6531736010013066655173E010093
:10038000130EEE522320D700973E010083CE2E524B
:100390002320D70183421E00130E8E002320570016
:1003A0000343AEFF232067008343BEFF2320770073
:1003B0000345CEFF2320A7008345DEFF2320B7009F
:1003C0000348EEFF232007018348FEFF2320170187
:1003D000834E0E00E31ECEFA67800000130000007B
:1003E0009307800523A2F1AA1305F0FF67800000A0
:1003F0009307800523A2F1AA1305F0FF6780000090
:100400009307800523A2F1AA1305F0FF678000007F
:100410009307800523A2F1AA1305F0FF678000006F
:100420009307800523A2F1AA1305F0FF678000005F
:100430001305F0FF678000001300000013000000A8
:100440009307C00023A2F1AA1305F0FF6780000004
:10045000B707048023A0A700730050106F000000AE
:100460009307800523A2F1AA1305F0FF678000001F
:100470009307B00023A2F1AA1305F0FF67800000E4
:10048000B727000023A2F5001305000067800000D5
:100490009307800523A2F1AA1305F0FF67800000EF
:1004A0009307800523A2F1AA1305F0FF67800000DF
:1004B000930780FA23A2F1AA1305000067800000C9
:1004C00013051000678000001300000013000000F7
:1004D000930780FA23A2F1AA1305F0FF67800000BA
:1004E0001305F5FF133515006780000013000000A9
:1004F0009307600123A2F1AA1305F0FF67800000B3
:100500009307F00123A2F1AA1305F0FF6780000012
:1005100013050000678000001300000013000000B6
:100520009307800523A2F1AA1305F0FF678000005E
:100530001305F0FF678000001300000013000000A7
:100540009307800523A2F1AA1305F0FF678000003E
:100550001305000067800000130000001300000076
:10056000B727000023A2F5001305000067800000F4
:100570001305F0FF67800000130000001300000067
:100580001305F0FF67800000130000001300000057
:100590009307200023A2F1AA1305F0FF6780000053
:1005A0009307800523A2F1AA1305F0FF67800000DE
:1005B0009307A00023A2F1AA1305F0FF67800000B3
:1005C00003A781A9130101FE232C8100232E110012
:1005D0009387050013040600630607021306040050
:1005E000175502001305054793850700EF00407F6C
:1005F0008320C101130504000324810113010102BA
:10060000678000002326B100B7C50100938505204F
:1006100013063000175502001305C543EF00406F65
:10062000930210008327C10023AC51A86FF01FFB79
:1006300023A0A1A81305000067800000130000009C
:1006400083A201A8170703001307C79B3385A200E5
:1006500023A0A1A86374E500636825009307C00088
:1006600023A2F1AA9302F0FF138502006780000025
:100670009307100863CC17159302F00263D4121984
:10068000138308FD9308100563EE68021737010015
:100690001307877393132300B386E30003A80600B0
:1006A000330EE80067000E00930EC00A6388D8116D
:1006B00063CE1E1B930F90096382F8119307900A73
:1006C0006386F814973701009387471E973301001C
:1006D0009383E31FB386F34013F8760013075005A6
:1006E000370E00106308080813051000630CA806F5
:1006F000930E20006302D807130F30006308E8054B
:10070000930F4000630EF803130650006304C80201
:1007100093056000630AB8002320EE0097370100BC
:100720009387D71803C707002320EE0003C71700DD
:10073000938717002320EE0003C717009387170045
:100740002320EE0003C71700938717002320EE0035
:1007500003C71700938717002320EE0003C7170075
:1007600093871700938717002320EE0003C7070025
:10077000638C77142320EE0083C2170093878700D1
:1007800023205E0003C3A7FF23206E0083C8B7FFAA
:1007900023201E0183C6C7FF2320DE0003C8D7FF26
:1007A00023200E0103C5E7FF2320AE0083CEF7FF11
:1007B0002320DE0103C70700E39E77FA678000006D
:1007C0009302800523A251AA678000009302F040A3
:1007D000E3CA12EF1303F03FE35813ED938808C008
:1007E0009303F000E3E013EF17370100130747729C
:1007F000139528003306E500832606003388E600BB
:100800006700080013031001E39E68EA930880FA6A
:1008100023A211AB678000003726000023A2C50089
:10082000678000009305200023A2B1AA6780000022
:10083000130EF00123A2C1AB678000001305600115
:1008400023A2A1AA67800000370404802320A4000B
:10085000730050106F00000003AF81A963000F0206
:10086000175502001305051F6F008057130F600D09
:10087000E39AE8E523A0A1A867800000130101FE28
:10088000B7CF01002326C1002324B1001306300096
:1008900093850F20175502001305C51B232E110049
:1008A000EF0000479307100023ACF1A80326C10016
:1008B000832581008320C101175502001305851986
:1008C000130101026F00C051678000001300000097
:1008D00013000000130000000000000000000000F2
:1008E00013050000678000001300000013000000E3
:1008F00013050000678000001300000013000000D3
:1009000013050000678000001300000013000000C2
:1009100013050000678000001300000013000000B2
:1009200013050000678000001300000013000000A2
:100930001305000067800000130000001300000092
:100940001305000067800000130000001300000082
:100950001305000067800000130000001300000072
:100960001305000067800000130000001300000062
:100970001305000067800000130000001300000052
:100980001305000067800000130000001300000042
:100990001305000067800000130000001300000032
:1009A0001305000067800000130000001300000022
:1009B0001305000067800000130000001300000012
:1009C0001305000067800000130000001300000002
:1009D00013050000678000001300000013000000F2
:1009E00013050000678000001300000013000000E2
:1009F00013050000678000001300000013000000D2
:100A000013050000678000001300000013000000C1
:100A100013050000678000001300000013000000B1
:100A200013050000678000001300000013000000A1
:100A30001305000067800000130000001300000091
:100A40001305000067800000130000001300000081
:100A50001305000067800000130000001300000071
:100A60001305000067800000130000001300000061
:100A70001305000067800000130000001300000051
:100A80001305000067800000130000001300000041
:100A90001305000067800000130000001300000031
:100AA0001305000067800000130000001300000021
:100AB0001305000067800000130000001300000011
:100AC0001305000067800000130000001300000001
:100AD0001305000067800000000000000000000017
:100AE0008327C500638407200326050163000620D1
:100AF00083260500034895000327450183C5460169
:100B0000B3E20501A304550013F30502630E031CB1
:100B10006300E61EB303E64093080001138F030051
:100B200063F47800138F0800338EE700834E0E00C5
:100B3000930F1700130810002380D601232AF50114
:100B40006380031BB385F70183C2050013032700ED
:100B50009308200023805600232A6500638213191E
:100B6000338E6700834E0E00130837009305300064
:100B70002380D601232A05016384B316B3820701BB
:100B800003C3020093084700130E40002380660051
:100B9000232A15016386C315B38E170103C80E00FF
:100BA000930557009302500023800601232AB500C5
:100BB000638853123383B700834E030093086700A2
:100BC000130E60002380D601232A1501638AC31106
:100BD00033881701834508009302770013037000E0
:100BE0002380B600232A5500638C630EB38E570012
:100BF00003C80E0093088700130E800023800601AF
:100C0000232A1501638EC30DB385170183C2050026
:100C100013039700930E900023805600232A65004B
:100C20006380D30D33886700834508009308A700CD
:100C3000130EA0002380B600232A15016382C30B84
:100C4000B382170103C30200930EB7001308B0006C
:100C500023806600232AD50163840309B385D70165
:100C600083C205009308C700130EC00023805600FE
:100C7000232A15016386C30733831701834E0300BC
:100C80001308D7009305D0002380D601232A05013D
:100C90006388B304B382070103C302009308E7002B
:100CA000130EE00023806600232A1501638AC30324
:100CB000B38E170103C80E009305F7009302F000EE
:100CC00023800601232AB500638C5300B387B70045
:100CD00083C307001307070123807600232AE5005A
:100CE000330FFF011307FFFF6304E6006780000076
:100CF00003C64600232805001375D60F2382A600DD
:100D000067800000130000001300000013000000C3
:100D1000130101FE232A910083240500232C810066
:100D20002328210123263101232E110023820400D0
:100D300023840400930770FC2384F400130405004B
:100D40009389050013090600238804001386050013
:100D50009306000037D5121393050000EF10801C96
:100D6000935275003707010063FEE200130300F899
:100D7000238664001355F5002382A40023805400C9
:100D8000238604002386240123042401A3040400F1
:100D900097030000938303D5232234018320C101EC
:100DA0002328040023260400232A0400232E040001
:100DB000232C040023220402232074020324810133
:100DC00083244101032901018329C1001301010288
:100DD00067800000130000001300000013000000F3
:100DE000130101FF23260100638C0522630A0622FA
:100DF00003250500130800009307100383464501EF
:100E0000232601000327C10063E2E70A8322C10011
:100E100013831200232661008323C10063E877084F
:100E20008328C100138E18002326C101832EC10020
:100E300063EED707032FC100930F1F002326F10194
:100E40000327C10063E4E7068322C1001383120075
:100E5000232661008323C10063EA77048328C1004D
:100E6000138E18002326C101832EC10063E0D7052D
:100E7000032FC100930F1F002326F1010327C10098
:100E800063E6E7028322C100138312002326610078
:100E90008323C10063EC77008328C100138E180000
:100EA0002326C101832EC100E3F2D7F793F6060291
:100EB000E38606F423260100032FC10063E2E70B5B
:100EC000832FC10013871F002326E1008322C10066
:100ED00063E857080323C10093031300232671001E
:100EE0008328C10063EE1707032EC100930E1E0076
:100EF0002326D1018326C10063E4D706032FC10056
:100F0000930F1F002326F1010327C10063EAE704C2
:100F10008322C10013831200232661008323C100B2
:100F200063E077048328C100138E18002326C101D3
:100F3000832EC10063E6D7038326C100138F1600FA
:100F40002326E101832FC10063ECF7010327C100D1
:100F500093021700232651000323C100E3F267F632
:100F6000B383050183C8030013081800230015018B
:100F700023260100032EC10063E2C70B832EC100AC
:100F800093861E002326D100032FC10063E8E709E2
:100F9000832FC10013871F002326E1008322C10095
:100FA00063EE57060323C100930313002326710049
:100FB0008328C10063E41707032EC100930E1E00AF
:100FC0002326D1018326C10063EAD704032FC10081
:100FD000930F1F002326F1010327C10063E0E704FC
:100FE0008322C10013831200232661008323C100E2
:100FF00063E677028328C100138E18002326C101FF
:10100000832EC10063ECD7018326C100138F160025
:101010002326E101832FC100E3F2F7F7E360C8DE86
:10102000130101016780000013000000130000009D
:101030006388050C03C605006304060C83270500BE
:10104000130101FF9386150003C74701A307E100C1
:101050008342F10013F302026318030883C34701BC
:10106000A30771000345F10093750502639E050611
:1010700003C84701A30701018348F10013FE0802DA
:1010800063140E0683CE4701A307D101034FF1007D
:10109000937F0F02639A0F0403C74701A307E10080
:1010A0008342F10013F302026310030483C3470178
:1010B000A30771000345F1009375050263960502CD
:1010C00003C84701A30701018348F10013FE08028A
:1010D000631C0E0083CE4701A307D101034FF1002B
:1010E000937F0F02E3820FF6938616002380C700DA
:1010F00003C6F6FFE31A06F413010101678000003E
:1011000067800000130000001300000013000000BF
:10111000630C0602638A0502032705009706000098
:101120009386469C2326B500834747002328C500A5
:10113000232A05002320D50293E22700230257002B
:10114000732340F16304030067800000B725000C9F
:10115000975302009383039003A60500330575405F
:101160001338150093081000339E0801B36ECE00AB
:1011700023A0D501678000001300000013000000C9
:1011800083270500034795008326050183C2470195
:1011900033E3E200A304650093F3F20F63980600C3
:1011A00013D5630013751500678000001305000058
:1011B000678000001300000013000000130000000F
:1011C00063820506630006060328050003479500B1
:1011D00083474801B3E2E700A304550013F3170067
:1011E00063020304130E00006F008000638E0F0281
:1011F00083460800B383C501130E1E002380D3006D
:101200000328050083489500834E480133EF1E01F3
:10121000A304E50193FF1E00E36ACEFC13050E0054
:1012200067800000130E000013050E0067800000A9
:10123000F32740F163960702B726000C1757020008
:101240001307478103A60600B302E54013B312005B
:101250009303100033986300B368C80023A01601FD
:10126000370E0100930EFEFF638CD50103250500A8
:1012700093F5F500034F4500B36FBF002302F5015E
:10128000678000001300000013000000130000003E
:10129000638C05029337160C638807020327050049
:1012A000232EB5008342870013F3F203B363C30018
:1012B000230477008345470013E615002302C70087
:1012C000F32640F16384060067800000B728000C15
:1012D000174802001308087803AE080033050541DB
:1012E000933E1500130F1000B31FDF01B3E7CF01CA
:1012F00023A0F80067800000130000001300000026
:1013000063840502032705002320B5022326050078
:10131000834747002328050093E227002302570054
:10132000732340F16304030067800000B725000CBD
:10133000974302009383037283A60500330575402B
:101340001336150013081000B318C80033EED80088
:1013500023A0C501678000001300000013000000F7
:1013600063800502032705002322B5028347470057
:1013700093E2870023025700732340F163040300C4
:1013800067800000B725000C974302009383836CAD
:1013900083A60500330575401336150013081000A9
:1013A000B318C80033EED80023A0C5016780000041
:1013B00063860512630406128327050083469500A1
:1013C00003C74701B362D700A30455001373070294
:1013D00063060310930300011305060063E4C310C2
:1013E00003C805009308100023800701630A160F45
:1013F00003CE1500930E20002380C7016302D60F91
:1014000003CF2500930F30002380E701630AF60D18
:1014100083C63500130740002380D7006302E60C23
:1014200083C245001303500023805700630A660AF5
:1014300083C3550013086000238077006302060B06
:1014400083C86500130E700023801701630AC60964
:1014500083CE7500130F80002380D7016302E60955
:1014600083CF8500930690002380F701630AD60698
:1014700083C295001307A000238057006302E6068D
:1014800003C3A5009303B00023806700630A7604BA
:1014900003C8B5009308C000238007016302160546
:1014A00003CEC500930ED0002380C701630AD60384
:1014B00003CFD500930FE0002380E7016302F6031A
:1014C00083C6E5009302F0002380D700630A56002C
:1014D00083C5F5002380B700678000001305000076
:1014E00067800000138503006FF09FEF130000007A
:1014F000832705000347950083C24701A304050025
:1015000033E5E2001375E509678000001300000071
:101510008327050003C587016780000013000000D2
:1015200003270500834795008342470133E3F20018
:10153000A304650013F50206678000001300000095
:10154000032705008347C70093E2070423065700DB
:10155000678000001300000013000000130000006B
:10156000032705008347C70093F2F70B23065700B4
:101570006780000013000000000000000000000071
:1015800013068001930605009387050013071000DA
:1015900093050600130500246F00806D1300000002
:1015A000130101FF2324810013040600232291006C
:1015B000138606009384050093050400232611007A
:1015C000EF00000483A704001305000063C80700B0
:1015D00003250400B302F54013B512008320C100B7
:1015E000032481008324410013010101678000006E
:1015F00013000000000000000000000000000000D8
:10160000130101FC232E8102232A21032328310305
:10161000232641032324510323226103232C910217
:1016200023207103232E8101232C9101232AA10160
:101630002328B1011383050093080600930A65016E
:1016400093090000130A0000973301009383439429
:1016500017540200130404F1975E0200938E8E1457
:101660001309F00F130B0021B306350193144A0040
:101670009389090393A70463973F0100938F4F8DCC
:10168000173701001307C79093850400639607007E
:1016900093820480938502F9B382BE006F0000023A
:1016A000938F4F006354B9009305F00F2380B2006D
:1016B0006382F313938212001307070103080700E4
:1016C00003C6060083CC1600830B170003CC26004C
:1016D00083052700B307C80283CD3600030F370008
:1016E00003CD8601030E47000308570003A60F0031
:1016F000B38B9B0383CC9601B387C70003066700B7
:10170000B3858503B387770103CCA601830B7700EC
:10171000330FBF03B387B70083C5B601830D8700BE
:10172000330EAE03B387E70103CF0603030D970023
:1017300033089803B387C70103CE1603830CA700B1
:1017400033068603B387070103C82603030CB700DB
:10175000B38BBB02B387C70083C536030306C7003C
:10176000338FED03B387770183CD8604830BD700D6
:10177000330ECD03B387E70103CD9604030FE700D3
:1017800033880C03B387C70183CCA604030EF7008C
:10179000330CBC02B385070103C8B6043306B60395
:1017A000B38D8501B38BAB03338DCD00330F9F0316
:1017B000B3077D01B30C0E03338EE701330C9E019A
:1017C00093558C40E34E80ED23800200938F4F00B1
:1017D000E3927FEE9386260093840401E39C56E90E
:1017E000938A0603130ABA00E39069E9930B030096
:1017F000130800009306000097120200938202254E
:10180000975F0200938F0FFF173601001306468E75
:10181000130A0016130FF0629305F00F930A80006D
:10182000130B400013830800B38946032326D1001D
:1018300093070800130C000093860B0013174C004D
:10184000B30B3701973D0100938D8D843309F4006C
:1018500093040019938C070093030C0083A70D00D9
:10186000938804E713850B002324B101130E0500B0
:101870006376AF00130D0580130E0DF9338CCF0185
:101880003387CE0123228101338E1201834D07005D
:10189000030C0E00034D170013078700338C8D03D4
:1018A000830D1E00130E8E00B30DBD03B387870199
:1018B000034DA7FF030CAEFFB387B701330C8D03B5
:1018C000830DBEFF034DB7FFB30DBD03B387870183
:1018D000034DC7FF030CCEFFB387B701330C8D0355
:1018E000830DDEFF034DD7FFB30DBD03B387870123
:1018F000034DE7FF030CEEFF330C8D03338DB7016F
:101900008347F7FF830DFEFFB387B703330C8D01C9
:10191000032D4100B307FC00E31AEDF69388080598
:101920001305050BE39414F5032781006354F002BB
:1019300093DD874063D4B501930DF00F2300B917F1
:10194000930D4700630EB60113091900938404191F
:101950006FF0DFF023000916930D4700E396CDFEEC
:10196000138C230093878C01E31A5CED8329C1005B
:10197000938B06001308080693861900E39666EB1E
:1019800093080300972501009385857613830B0048
:1019900017380100130888FB173901001309C99A89
:1019A000138501DC130A00189309F00F83A70500C3
:1019B000975E0200938E0ED7130E000013870EFA67
:1019C0003306C8010344070083020600030B160018
:1019D000834A1700330F540283042600834D2700E7
:1019E000030D360003443700830C46008343470051
:1019F000030C560083425700830B6600B38A6A03C8
:101A0000834F6700B387E701030B7600034F77002E
:101A10001307870013068600B38D9D02B384570118
:101A20003304A403338DB401B3839303B30C8D004B
:101A3000B3828203338C7C00B38F7F03B30B5C00D3
:101A4000B30A6F03B387FB01B3875701E31CD7F7D2
:101A5000130E0E06930E0706E3124EF76354F002C0
:101A600013DF874063D4E901130FF00F2300E50172
:101A700093854500630EB900130515001308081877
:101A80006FF0DFF22300050093854500E39625FF04
:101A9000938461E5173501001305858D13880400D3
:101AA00093090500973501009385058A1309F00F06
:101AB00083A7050013060500138701DC834D07008B
:101AC00003040600834B1700030B1600B38E8D0230
:101AD000830A2600034A270003043600834D37009B
:101AE000030D460083434700830C56008342570092
:101AF000030C6600338E6B03834F6700830B760005
:101B0000034F7700030B8600B387D701834E87000E
:101B10001307A7001306A600330A5A03B387C701A9
:101B2000830AF6FF034EF7FFB38D8D02338447011E
:101B3000B383A303330DB401B3829203B30C7D00CE
:101B4000B38F8F03338C5C00330F7F03B30BFC0127
:101B5000B38E6E03338BEB01330A5E03B307DB01F5
:101B6000B3874701E39CE4F413DEB740635AC90F1F
:101B70001306F00F2300C8009385450013081800D2
:101B800013056509E39635F3838C61E5838471E57C
:101B9000930F000063D69C00938C0400930F1000F9
:101BA000838981E563D63C01938C0900930F200063
:101BB000038991E563D62C01930C0900930F300043
:101BC000838DA1E563D6BC01938C0D00938F060035
:101BD0008386B1E563D6DC00938C0600930F50003A
:101BE0000384C1E563D68C00930C0400930F60005E
:101BF0008383D1E563D67C00938C0300930F700040
:101C0000038DE1E563D6AC01930C0D00930F8000CA
:101C10008382F1E563D65C00938C0200930F900001
:101C2000238098010324C1032320F301832481032B
:101C30000329410383290103032AC102832A810264
:101C4000032B4102832B0102032CC101832C810150
:101C5000032D4101832D0101130101046780000060
:101C60001347FEFF935AF74133765E016FF09FF002
:101C70009388C1A903AE0800130101FD930205007A
:101C800023261102930E102513052E00938F0500B5
:101C9000130F06009383060063ECAE1C9746020008
:101CA0009386C6DDB385C60103C3050003C81500CE
:101CB00023A0A80013060005631AC300130EB8FC86
:101CC000937EFE0F13051000637CD5018320C102B3
:101CD00017250100130545C9130101036F00905F2B
:101CE00003A80800930610251306B80063E4C61E77
:101CF00023A0C80013038FFE631A030A93868FFE86
:101D00006396060A83A5080093061025338EB20059
:101D100063E0C611638C03022322E100174702002F
:101D20001307C7D5B305B700138602001385030058
:101D30002324F1002320C101EF1080348327810088
:101D400003274100032E01009388C1A923A0C801E5
:101D500083AE080013162700930610253305D6011D
:101D600063E6A6066382070217480200130808D13B
:101D70002320A100B305D80113850700EF104030E0
:101D8000032501009388C1A923A0A80083A308000C
:101D9000130F10256386E3038320C102172501007A
:101DA0001305C5CA130101036F00D0528320C1027D
:101DB000172501001305C5BC130101036F009051E5
:101DC0008320C10213010103678000001306050090
:101DD000973502009385851F17250100130505B768
:101DE0002320E100EF00D033832701009305F0FFAB
:101DF0009388C1A9E38CB7F8138607001725010063
:101E0000130585BFEF00D0319388C1A96FF01FF88B
:101E100013060E00973502009385451B1725010018
:101E20001305C5B22324F1002322E1002320510031
:101E3000EF00102F032601009305F0FF0327410058
:101E4000832781009388C1A9E304B6F01725010018
:101E50001305C5B52322F1002320E100EF00502C2B
:101E600083274100032701009388C1A96FF05FEE2B
:101E7000232AD1002328C1002326B1001306050020
:101E800093860E00973502009385451417250100AF
:101E90001305C5AB232EF100232CE10023245100B0
:101EA0002322010023200100EF0090278327C10196
:101EB0000327810183234101032F0101832FC100E7
:101EC0008322810003284100032301009388C1A9D4
:101ED0006FF05FDE973502009385450F17250100EF
:101EE0001305C5A6232AF1002328E100232671004B
:101EF0002324E1012322F10123205100EF0050228D
:101F000083274101032701018323C100032F81009F
:101F1000832F4100832201009388C1A96FF09FDDC8
:101F200013000000130806009307050093880500BE
:101F3000639C060C63FAC522370701006368E63626
:101F400037070001130380016374E60013030001E7
:101F5000B356660017370200130787083307D70008
:101F6000034707009306000233076700630ED7009C
:101F7000B386E640B398D5003357E5003318D60052
:101F8000B317D500B36817011356080133D5C8023B
:101F90009316080193D6060113D70701B3F8C802B8
:101FA000B385A6029398080133671701637CB700D5
:101FB000B308E8001387080063F4B80063F4083935
:101FC0001305F5FF3307B740B355C70293970701D1
:101FD00093D707013377C702B386B60213170701F9
:101FE000B3E7E70063FAD700B307F80063F4D7005C
:101FF00063F607359385F5FF131505013365B500C5
:10200000930500006780000063F8D5009305000089
:102010001305000067800000B707010063E6F62A99
:10202000370700019307800163F4E600930700017E
:1020300033D8F60017370200130787FA3307070172
:1020400003470700130800023307F7006306072958
:102050003308E840B358E600B3960601B3E8D80069
:1020600033D3E50093DE0801B357D303139E080171
:10207000B3950501135E0E013357E5003367B700D2
:1020800093560701331606013373D303B305FE02DB
:1020900013130301B3E6660063FCB6003383D80074
:1020A000930603006374B300637C132D9387F7FFDB
:1020B000B386B64033D3D60313170701135707016E
:1020C000B3F6D603B3056E02939606013367D700C5
:1020D000637CB700B386E8001387060063F4B6009C
:1020E00063F416291303F3FF93970701B3E6670020
:1020F0003307B740931706019315030193D70701E0
:1021000093D5050113D3060113560601330EF302CE
:10211000B388F502B385C50293D70801B385C5011D
:10212000B387B7003303C30263F6C7013706010064
:102130003303C30013D60701330666006360C7028A
:102140009398080193D80801939707013315050167
:10215000B3871701637EF51E631CC71E1385F6FF48
:102160009305000067800000630A0614370701002A
:10217000637CE6189338061093B8180093983800DB
:10218000B356160117370200130787E53307D70048
:10219000034707009306000233071701630AD714A9
:1021A000B387E6403318F60033D3E50093580801AF
:1021B000335E130313160801B395F5001356060199
:1021C0003357E5003367B70093560701B317F5009F
:1021D00033731303B305C60313130301B3E6660099
:1021E00063FCB6003305D800930605006374B500A0
:1021F00063760517130EFEFFB386B64033D516037C
:102200001317070113570701B3F616033303A6028A
:10221000939606013367D700637C6700B306E80036
:102220001387060063F4660063F606151305F5FFD1
:1022300093150E01B3E5A500330767403355170327
:1022400093D60701337717033303C502131707012A
:1022500033E7E600637C6700B306E80013870600F7
:1022600063F4660063F6060D1305F5FF3307674058
:10227000B35617039397070193D7070133771703D3
:102280003386C60213170701B3E7E70063FAC700F6
:10229000B307F80063F4C70063F807099386F6FFF5
:1022A000131505013365D500678000001333061050
:1022B00013331300131333006FF09FC9930600000C
:1022C000930800006FF01FEC93B7061093B7170048
:1022D000939737006FF0DFD53336C500B3B6B6003D
:1022E0001336160033E5C600930500006780000032
:1022F0003387C5409358060113160601135606018D
:10230000930510006FF09FF3370700016378E60034
:1023100093560601930800016FF0DFE6935686019D
:10232000930880016FF01FE69386E6FF6FF05FF77A
:102330001305E5FF338706016FF05FF39385E5FF33
:102340006FF09FCB1305E5FF338708016FF09FC740
:10235000138506009305000067800000130EEEFF52
:10236000B30605016FF05FE91303E3FF338716013E
:102370006FF09FD71305E5FF338706016FF05FEB22
:102380009387E7FFB30613016FF09FD29305050013
:102390009306000013060000130500006F0090690B
:1023A000174602001306C6929755000093854543D1
:1023B00017450200130585926F00C046832545002E
:1023C000130101FF23248100232611009387013587
:1023D000130405006384F500EF504040832584001A
:1023E0009387813B6386F50013050400EF50003F9F
:1023F0008325C40093870142638CF5001305040014
:10240000032481008320C100130101016F50003DAE
:102410008320C100032481001301010167800000B3
:1024200083A7450693F717006398070083D7C50075
:1024300093F70720638607001305000067800000FC
:1024400003A58505130101FF23261100EF00D033FA
:102450008320C10013050000130101016780000003
:1024600083A7450693F717006398070083D7C50035
:1024700093F70720638607001305000067800000BC
:1024800003A58505130101FF23261100EF0050313C
:102490008320C100130500001301010167800000C3
:1024A000130101FE970700009387C7EF232E110049
:1024B000232C8100232A9100138401352328210134
:1024C00023263101232441011306800093050000D7
:1024D00023A0F1AA1385C13A930740002326F400F4
:1024E00023200400232204002324040023220406C2
:1024F00023280400232A0400232C0400EF00902A40
:10250000170A0000130A0A5E970900009389C9633D
:10251000170900001309C96B9704000093848471A4
:102520001385813A232044032322340323242403E4
:1025300023269402232E8400EF001024B707010005
:10254000938797001306800093050000138541418F
:10255000232AF4062324040623260406232804063B
:102560002326040C232C0406232E0406232004080F
:10257000EF0050239387813B138501412322F40808
:10258000232444092326340923282409232A9408D0
:10259000EF00901EB7070200938727011306800003
:1025A000930500001385C147232EF40C2328040C47
:1025B000232A040C232C040C232A04122320040EA7
:1025C0002322040E2324040EEF00D01D9387014222
:1025D0002328440F232A340F232C240F232E940E58
:1025E0002326F40E032481018320C10183244101A9
:1025F000032901018329C100032A81001385814732
:10260000130101026F005017130101FE232A9100EC
:1026100093040500138541AC232E1100232C810067
:10262000EF00901683A701AA6386071017380200EF
:102630001308086A9306F0FF832748009387F7FF83
:1026400063C80708032488006F00C00013048406D1
:102650006380D7080317C4009387F7FFE31807FECA
:10266000B707FFFF938717002326F400130584059F
:1026700023220406EF005010138541ACEF005012E6
:102680001305C4052320040023240400232204008E
:1026900023280400232A0400232C040013068000AE
:1026A00093050000EF00101023280402232A0402DF
:1026B00023220404232404048320C10113050400FD
:1026C000032481018324410113010102678000007A
:1026D0000324080063060400130804006FF0DFF50C
:1026E0009305C01A1385040023260101EF10C019B9
:1026F0000328C1001304050063020504930740008A
:102700002322F5001305C500232004002324A40080
:102710001306001A9305000023260101EF0090081C
:102720000328C1009306F0FF23208800130804004B
:102730006FF09FF0EFF0DFD66FF05FEF232008001F
:10274000138541ACEF00D0059307C00023A0F4002F
:102750006FF09FF6130101FF23248100130405008D
:10276000138541AC23261100EF0010028327440398
:10277000639C070083A701AA17070000130747C43B
:10278000232AE402638C0700032481008320C10014
:10279000138541AC130101016F009000EFF05FD091
:1027A000032481008320C100138541AC1301010182
:1027B0006F00007F138541AC6F00007D138541AC35
:1027C0006F00007E130101FF138541AC2326110029
:1027D000EF00807B8320C100173602001306464FAE
:1027E00097050000938505C413050000130101013E
:1027F0006F004003130101FF173602001306464D18
:1028000097050000938505C61305000023261100D7
:10281000EF0040018320C100138541AC1301010189
:102820006F000078130101FD23202103232E3101C5
:10283000232C4101232A5101232861012326710100
:10284000232611022324810223229102930A0600E7
:10285000130B0500938B0500130A00009309100069
:102860001309F0FF83A44A009384F4FF63CA0402AF
:1028700003A48A008357C40063FEF9008317E400B1
:102880009305040013050B0063862701E7800B0006
:10289000336AAA009384F4FF13048406E39C24FDA6
:1028A00083AA0A00E3900AFC8320C1020324810268
:1028B00083244102032901028329C101832A4101A2
:1028C000032B0101832BC10013050A00032A810198
:1028D0001301010367800000130101FC138E050042
:1028E00083258500130381022324C1022326D102FC
:1028F00013060E0093060300232E11002328E10285
:10290000232AF102232C0103232E11032326610025
:10291000EF1090008320C1011301010467800000C3
:1029200003A341A8130101FC2324C1022326D102E1
:102930002322B1022328E102232AF102232C0103DE
:10294000232E1103832583009306410213060500FD
:1029500013050300232E11002326D100EF10C07BA6
:102960008320C1011301010467800000130101FDF0
:10297000232291029304050013850500232481027C
:102980002326110213840500EF00100283A74403DD
:1029900013081500971501009385C505130610004F
:1029A000930601011307200023288100232AA10098
:1029B00023260101232CB100232EC1002322D100A4
:1029C0002324E10003A48400638C070E83274406BC
:1029D0000317C40093F61700638E060693162701AB
:1029E00063CA0608B7E6FFFF9386F6FF37260000A6
:1029F000B3F7D7003367C7002322F4062316E40099
:102A0000139727016344070C138504001306410044
:102A100093050400EF5080343337A0008327440629
:102A20003307E0409364A70093F71700639807000B
:102A30008357C40093F70720638607048320C102ED
:102A4000032481021385040083244102130101033E
:102A5000678000009376072063860604931627019B
:102A6000E3D206F813972701E35007FA9304F0FF27
:102A70006FF01FFC13972701E35807F89304F0FF4A
:102A80006FF0DFFB03258405EF0080518320C10236
:102A900003248102138504008324410213010103EE
:102AA0006780000003258405EF00004E0317C40073
:102AB0008327440693162701E3C406F46FF09FF2C0
:102AC00013850400EFF01FC96FF05FF09304F0FF6F
:102AD0006FF09FF59305050003A541A86FF01FE96E
:102AE000130101FF23248100138405008395E50071
:102AF00023261100EF00402D6340050283270405C3
:102B00008320C100B387A7002328F4040324810095
:102B100013010101678000008357C40037F7FFFFEE
:102B20001307F7FFB3F7E7008320C1002316F40073
:102B300003248100130101016780000013050000D8
:102B4000678000008397C500130101FE1383060010
:102B5000232E110093F60710138705009308060033
:102B60001308050063980602B7F6FFFF9386F6FF89
:102B70008320C101B3F7D7008315E7002316F700C0
:102B800093060300138608001305080013010102D1
:102B90006F0040298395E5002324C100930620009F
:102BA00013060000232661002320E1002322A10058
:102BB000EF00C01B032701000323C100832881000D
:102BC0008317C700032841006FF01FFA130101FFAC
:102BD00023248100138405008395E500232611003A
:102BE000EF00C0181307F0FF8317C4006302E5026B
:102BF00037170000B3E7E7008320C1002328A404AF
:102C00002316F400032481001301010167800000F2
:102C10001307058013070780B3F7E7008320C1007F
:102C20002316F400032481001301010167800000D2
:102C30008395E5006F004000130101FF232481000C
:102C4000130405001385050023A201AA2326110001
:102C5000EFD00FFE9307F0FF630AF5008320C10059
:102C600003248100130101016780000083A741AAAA
:102C7000E38607FE8320C1002320F40003248100A3
:102C8000130101016780000083A741A8638EA70C90
:102C900083254504130101FE232A9100232E1100F0
:102CA000232C810093040500638805042328210157
:102CB000232631011309000093090008B387250179
:102CC00003A40700630E040093050400032404001A
:102CD00013850400EF00D00CE31804FE83A5440420
:102CE00013094900E31C39FD13850400EF00500B64
:102CF000032901018329C10083A58403638605009C
:102D000013850400EF00D00903A40404630C04003D
:102D1000930504000324040013850400EF00500809
:102D2000E31804FE83A5C40463860500138504002C
:102D3000EF00100783A74403638E0700032481017B
:102D40008320C10113850400832441011301010282
:102D5000678007008320C10103248101832441018E
:102D6000130101026780000067800000938705005F
:102D7000130101FF232481009305060013040500BD
:102D800013860600138507002326110023A201AA3B
:102D9000EFD00FF89307F0FF630AF5008320C1001E
:102DA00003248100130101016780000083A741AA69
:102DB000E38607FE8320C1002320F4000324810062
:102DC000130101016780000093870500130101FFD3
:102DD00023248100930506001304050013860600D2
:102DE000138507002326110023A201AAEFD04FF676
:102DF0009307F0FF630AF5008320C10003248100DC
:102E0000130101016780000083A741AAE38607FE42
:102E10008320C1002320F400032481001301010159
:102E20006780000093870500130101FF23248100C0
:102E3000930506001304050013860600138507009A
:102E40002326110023A201AAEFD08FF79307F0FFEA
:102E5000630AF5008320C1000324810013010101EE
:102E60006780000083A741AAE38607FE8320C10094
:102E70002320F40003248100130101016780000076
:102E8000130101FF232481002320210123261100A7
:102E90002322910017390200130949BB173402009D
:102EA0001304C4BA630289023309894013592940C3
:102EB0009304000083270400938414001304440047
:102EC000E7800700E3E824FF17390200130949B837
:102ED00017340200130484B763028902330989405E
:102EE000135929409304000083270400938414009D
:102EF00013044400E7800700E3E824FF8320C100B7
:102F000003248100832441000329010013010101EE
:102F10006780000097370200938787B31737020056
:102F2000130707B3130101FFB387E7402322910082
:102F30002326110093D427406386040223248100B2
:102F400017340200130484B03304F4008327040010
:102F50009384F4FF1304C4FFE7800700E39804FEA2
:102F6000032481008320C100832441001301010157
:102F700067800000678000006780000067800000B5
:102F80006780000067800000678000001305100064
:102F90006780000013051000678000006780000054
:102FA000678000001303F00013070500637EC3026F
:102FB0009377F7006390070A63920508937606FFFC
:102FC0001376F600B386E6002320B7002322B7006D
:102FD0002324B7002326B70013070701E366D7FEB3
:102FE0006314060067800000B306C3409396260072
:102FF00097020000B38656006780C6002307B7001B
:10300000A306B7002306B700A305B7002305B70042
:10301000A304B7002304B700A303B7002303B7003A
:10302000A302B7002302B700A301B7002301B70032
:10303000A300B7002300B7006780000093F5F50FE9
:1030400093968500B3E5D50093960501B3E5D500C9
:103050006FF0DFF69396270097020000B3865600C4
:1030600093820000E78006FA93800200938707FFAF
:103070003307F7403306F600E378C3F66FF0DFF36B
:10308000B3C7A50093F73700B308C50063960706DA
:1030900013364600631206069377350013070500C2
:1030A000639A070C13F6C8FFB306E64093070002C5
:1030B00063C4D7069386050093070700637AC702A7
:1030C00003A80600938747009386460023AE07FFB8
:1030D000E3E8C7FE1306F6FF3306E6401376C6FFA5
:1030E0009385450013074700B385C5003307C70024
:1030F000636817016780000013070500E37C15FF74
:1031000083C705001307170093851500A30FF7FE6B
:10311000E398E8FE6780000083A6050083A24500CF
:1031200083AF850003AFC50083AE050103AE450143
:1031300003A3850103A8C5012320D70083A60502A8
:1031400013074702232057FE232ED7FE2322F7FF23
:10315000B306E6402324E7FF2326D7FF2328C7FF33
:10316000232A67FE232C07FF93854502E3C6D7FA7F
:103170006FF05FF483C605001307170093773700DD
:10318000A30FD7FE93851500E38E07F083C60500D5
:103190001307170093773700A30FD7FE9385150009
:1031A000E39A07FC6FF01FF09377350013070500D3
:1031B000639C0704B7867F7F9386F6F79305F0FF3D
:1031C0000326070013074700B377D600B387D7005D
:1031D000B3E7C700B3E7D700E384B7FE8346C7FF72
:1031E000B307A740638406048346D7FF638C0602B7
:1031F0000345E7FF3335A0003305F5001305E5FF70
:1032000067800000E38806FA83470700130717006A
:1032100093763700E39807FE3307A7401305F7FFBF
:10322000678000001385D7FF678000001385C7FF04
:1032300067800000130101FD23248102138481A80B
:103240002322910293040500032504002320210377
:10325000232E31012326B100232611021309060073
:1032600093890600EFF05FD283A781AC8325C1006C
:103270006384070803A747009306F00103250400B1
:1032800063C2E60893162700639C04021307170025
:1032900023A2E700B387D70023A4B700EFF05FD0E5
:1032A000130500008320C10203248102832441020C
:1032B000032901028329C101130101036780000072
:1032C000B388D70023A4280903A887181306100081
:1032D0003316E6003368C80023A4071923A4381165
:1032E00013082000E39404FB03A8C7183366C80042
:1032F00023A6C7186FF09FF99387814823A4F1ACE8
:103300006FF05FF7EFF0DFC91305F0FF6FF09FF983
:10331000130101FD23267101938B81A823286101EC
:10332000130B050003A50B00232C4101138A81AC6C
:10333000232021032324810123261102138C05005D
:10334000EFF09FC403290A00630C0908232E310102
:10335000232A510123248102232291022322910155
:103360009309F0FF930A1000832449001384F4FFAB
:10337000634E040493942400B304990063140C086E
:103380008327490083A644009387F7FF6388870C4F
:1033900023A20400638606028327891833978A00D4
:1033A000832C4900B377F70063920708E780060093
:1033B0000327490083270A00631C9709639A27099A
:1033C0001304F4FF9384C4FFE31A34FB0324810243
:1033D000832441028329C101832A4101832C4100B6
:1033E00003A50B008320C10203290102032A8101E6
:1033F000032B0101832BC100032C81001301010366
:103400006FF01FBA83A744101307F4FFE30AFCF61A
:103410001304E4FFE30C37FB83A7041063848705E0
:10342000938484FFE31034FF6FF05FFA8327C91899
:1034300083A544083377F700631C070213050B00CC
:10344000E78006000327490083270A00E30897F76F
:10345000E38E07F6138907006FF01FF1232289001E
:103460006FF05FF3130407009384C4FF6FF05FF104
:1034700013850500E78006006FF09FF3130101FE3E
:10348000232C8100232A91002328210123263101A6
:1034900013840500232E110013090500973902003B
:1034A0009389C997EF00504683A78900371700001A
:1034B00083A4470093F4C4FF9387F47F9387077F27
:1034C000338487401354C4001304F4FF1314C4005E
:1034D000634EE4009305000013050900EF50D05936
:1034E00083A78900B38797006306F50213050900D7
:1034F000EF0010428320C101032481018324410194
:10350000032901018329C1001305000013010102F1
:1035100067800000B305804013050900EF50D055C7
:103520009307F0FF6304F50403A7890083A7816173
:10353000B384844093E41400232297001305090008
:10354000B387874023ACF160EF00903C8320C1013A
:103550000324810183244101032901018329C1003E
:10356000130510001301010267800000930500009D
:1035700013050900EF50505003A789009306F0008F
:10358000B307E540E3D4F6F683A6C1A893E7170096
:103590002322F7003305D54023ACA1606FF01FF55F
:1035A00063840512130101FE232C81002326B10040
:1035B00013040500232E1100EF0010358325C100F0
:1035C000973802009388888503A8880003A5C5FF63
:1035D000138785FF9377E5FF3306F70083264600C0
:1035E0001373150093F6C6FF6308C8182322D6008C
:1035F0003308D6000328480013781800631A03081C
:1036000003A385FF173502001305C5813307674003
:1036100083258700B3876700638AA5120323C70049
:1036200023A665002324B300630C081893E6170053
:103630002322D7002320F6009306F01F63E2F60A48
:1036400093F687FF9386860083A54800B386D8004B
:1036500003A6060013D5570093071000B397A700E1
:10366000B3E7B700938586FF2324C7002326B7005E
:1036700023A2F80023A0E6002326E6001305040099
:10368000032481018320C101130101026F0050282E
:10369000631E0802B387D70017250200130585783B
:1036A0008326860013E81700B305F7006380A6168B
:1036B0000326C60023A6C6002324D6002322070122
:1036C00023A0F5006FF05FF7678000001365150019
:1036D00023AEA5FE2320F6009306F01FE3F2F6F6D4
:1036E00093D69700130640006360D60E93D667000A
:1036F000938596039395350013868603B385B800AA
:1037000083A60500938585FF6398D5006F00C011DF
:1037100083A686006388D50003A646001376C6FFFD
:10372000E3E8C7FE83A5C6002326B7002324D700FD
:1037300013050400032481018320C10123A4E500B3
:1037400023A6E600130101026F00901C6310080A13
:103750008325C60003268600B386F60093E716008D
:103760002326B60023A4C5002322F7003307D70081
:103770002320D7006FF09FF0B386D70063100302B9
:1037800083A785FF3307F74003268700B386F6003B
:103790008327C7002326F60023A4C70013E61600DC
:1037A00083A701A92322C70023A4E800E3E8F6ECDD
:1037B00083A541AD13050400EFF05FCC6FF01FEC63
:1037C000B387D7006FF0DFED130640016378D602B0
:1037D000130640056368D60693D6C7009385F606A0
:1037E000939535001386E6066FF05FF193E61700B8
:1037F0002322D7002320F6006FF05FE89385C605EB
:10380000939535001386B6056FF05FEF23AAE800A5
:1038100023A8E8002326A7002324A70023220701CA
:1038200023A0F5006FF09FE503A54800135626403E
:1038300093071000B397C700B3E7A70023A2F800CF
:103840006FF09FEE13064015636CD60093D6F70019
:103850009385860793953500138676076FF01FEAE8
:1038600013064055636CD60093D627019385D6077F
:10387000939535001386C6076FF05FE89305803F88
:103880001306E0076FF09FE7130101FC232C810270
:10389000232E11029387B50013076001130405005E
:1038A000636EF7089306000163ECB606EF00D005DF
:1038B00093060001130780019308200017280200D7
:1038C0001308C8553307E80083274700130687FF0E
:1038D000638EC74403A7470003A6C70083A58700DC
:1038E0001377C7FF3387E7008326470023A6C50069
:1038F0002326F1002324B60093E6160013050400E6
:103900002322D700EF00D0008327C1008320C1030A
:1039100003248103138587001301010467800000DD
:103920009307C0002320F400130500008320C10387
:1039300003248103130101046780000093F687FFCD
:10394000E3C007FEE3EEB6FC2326D100EF00C07B08
:103950008326C1009307701F63F8D74C93D7960056
:10396000638E071613074000636AF74293D7660019
:1039700093889703138E8703139538001728020046
:103980001308C8493305A80083274500130585FFA0
:103990006308F5021303F0006F00400183A5C70020
:1039A00063560634630EB5009387050003A74700EE
:1039B0001377C7FF3306D740E352C3FE93080E00C8
:1039C00083270801972E0200938ECE45638ED72D54
:1039D00003A747009305F0001377C7FF3306D740CE
:1039E00063CEC546232AD8012328D8016354064450
:1039F0001306F01F032348006362E634137687FF43
:103A0000130686003306C8008325060013555700A9
:103A1000130710003317A7003363E300130786FF73
:103A200023A4B70023A6E700232268002320F60082
:103A300023A6F50093D72840130510003315F50091
:103A40006366A30AB3776500639407021315150034
:103A500093F8C8FFB377650093884800639A07001E
:103A600013151500B377650093884800E38A07FEB5
:103A7000130EF000139F3800330FE80113030F00FB
:103A80000327C300938F0800630CE332032647002B
:103A9000930707000327C7001376C6FFB305D64078
:103AA000634CBE32E3C205FE3386C7008326460060
:103AB00083A587001305040093E616002322D60091
:103AC00023A6E5002324B7002326F100EF0040647D
:103AD0008327C100138587006FF05FE51305002081
:103AE00093080004130EF0036FF05FE9832788004A
:103AF00003A747001373C7FF3306D3406366D300A1
:103B0000132706016306071A83A541AD03A6C1A8C2
:103B10001307F0FFB385B6006306E64237170000CF
:103B20001307F700B385E50037F7FFFFB3F5E500AE
:103B300013050400232E0101232CF100232AD100B8
:103B4000232861002326B100EF5000731307F0FF14
:103B50008325C100032301018326410183278101BD
:103B60000328C101130E0500138FC1A86306E534B5
:103B7000338767006360E534938E816103A60E008E
:103B80003386C50023A0CE00630AA74883280F0010
:103B90001305F0FF6382A84A3307EE403307C700DE
:103BA00023A0EE00137F7E00630E0F3A137E8EFF7C
:103BB000B7180000130E8E00938888003306BE00ED
:103BC000B385E841B385C5409395450193D545013B
:103BD000130504002326D103232401032322F10229
:103BE0002320D102232E6100232CC101232AE101CD
:103BF0002328C1002326B100EF50006813070500F9
:103C00001305F0FF8325C10003260101032F4101A5
:103C1000032E81010323C101832601028327410270
:103C200003288102832EC102630EA74403A60E005F
:103C30003307C7413307B700136717002324C801B0
:103C40003386C5002322EE0023A0CE00638E070337
:103C50001305F0006376653E83A54700130743FF15
:103C6000137787FF93F51500B3E5E50023A2B700AE
:103C700093085000B385E70023A2150123A4150182
:103C8000636AE54003274E0083A701AD63F4C700D4
:103C900023A8C1AC83A7C1AC63F4C70023A6C1AC01
:103CA00093070E006F00C021032348006FF09FD8D8
:103CB00013E7160023A2E700B386D70013661600A9
:103CC0002324D8001305040023A2C6002326F100F4
:103CD000EF0000448327C1008320C1030324810334
:103CE00013858700130101046780000003A6870085
:103CF0003387E700832647002326B6002326F100FA
:103D000093E6160023A4C500130504002322D70060
:103D1000EF0000408327C1008320C10303248103F7
:103D20001385870013010104678000008327C70003
:103D300093882800E306F7C86FF0DFB913569700A1
:103D40009305400063FEC5149305400163E2C52856
:103D50001305C605131535009305B6053305A800F0
:103D600003260500130585FF6318C5006F00001EBC
:103D7000032686006308C5008325460093F5C5FF2A
:103D8000E368B7FE0325C60023A6A70023A4C70047
:103D90002324F5002326F6006FF0DFC91307400146
:103DA0006370F714130740056362F72493D7C600C6
:103DB0009388F706138EE706139538006FF01FBC43
:103DC000938F1F0093F73F0013038300638807124C
:103DD0000327C3006FF05FCB03A5870093E81600AD
:103DE00023A217012326E5002324A700B386D700CA
:103DF000232AD8002328D80013E715003386C700EC
:103E000023A6D60123A4D60123A2E60013050400AD
:103E10002320B6002326F100EF00802F8327C10066
:103E2000138587006FF09FB093D836001387860004
:103E30006FF0DFA83387E700832647002326F100D1
:103E40001305040093E616002322D700EF00402C50
:103E50008327C100138587006FF05FAD93E51600DF
:103E600023A2B700B386D700232AD8002328D8007E
:103E7000936516003387E70023A6D60123A4D60155
:103E800023A2B600130504002320C7002326F10057
:103E9000EF0000288327C100138587006FF01FA95A
:103EA0001356670013059603131535009305860313
:103EB0006FF0DFEA638A07158327880003A74700AE
:103EC0001377C7FF3306D7406366D7001327060171
:103ED000E30007DE13050400EF0080236FF0DFA48A
:103EE0009388C705138EB705139538006FF01FA987
:103EF00083278F009388F8FF6394E72193F73800B6
:103F0000130F8FFFE39607FE032748009347F5FF43
:103F1000B3F7E7002322F800131515001307F5FF88
:103F2000E376F7BC3377F500631A07001315150025
:103F30003377F500938F4F00E30A07FE93880F0055
:103F40006FF05FB3938505016FF09FBE93D5254059
:103F5000130710003317B7003363E3002322680010
:103F60006FF09FE23306BE00B305C0409395450154
:103F700093D54501130504002324D1032322010313
:103F80002320F102232ED100232C6100232AC1011A
:103F90002326B1002328C100EF50002E130705008F
:103FA0001305F0FF8325C100032E41010323810186
:103FB0008326C1018327010203284102832E810247
:103FC000E316A7C603270101930500006FF01FC683
:103FD0009305400563ECC5061356C7001305F606A6
:103FE000131535009305E6066FF05FD713074015EC
:103FF000636CF70693D7F60093888707138E7707CD
:10400000139538006FF09F97938E816103A60E0081
:104010003386C50023A0CE006FF05FB713154501AE
:10402000E31605B6032E8800B305B30013E71500A9
:104030002322EE006FF05FC52320CF016FF09FB603
:10404000930710002322FE006FF0DFE89305401570
:1040500063ECC5061356F7001305860713153500E4
:10406000930576076FF09FCF13074055636CF706F3
:1040700093D726019388D707138EC7071395380067
:104080006FF0DF8F130F8FFF3307E60193050000FA
:104090006FF0DFB99385870013050400232AD1014F
:1040A000232801012326D100EFF08FCF032801013F
:1040B000832E41018326C100032E880003A60E0033
:1040C00003274E006FF05FBC9305405563E4C502C3
:1040D000135627011305D607131535009305C60798
:1040E0006FF0DFC71305803F9308F007130EE0075A
:1040F0006FF0DF881305803F9305E0076FF01FC660
:10410000832748006FF05FE1138581AB6FE0DFE745
:10411000138581AB6FE0DFE8130101E6232E111850
:10412000232A9118232251192328A117930A060044
:10413000138D0500232AD10093040500EF50C0120F
:104140008327050013850700232AF102EFF0CF85AE
:104150002328A102130680001305010A930500001D
:10416000EFE05FE46388040083A7440363940700DF
:104170006F20400503274D068317CD009376170067
:104180006388063E9396270163D406006F10005F94
:10419000B7E6FFFF9386F6FF372600003377D70098
:1041A000B3E7C7002322ED062316FD00931727016E
:1041B00063D407006F3000278317CD0013F7870003
:1041C0006308072803270D016304072813F7A701D5
:1041D0009306A0006300D72A9307C10B232C8118F4
:1041E00023282119232631192326B1172324411905
:1041F00023206119232E7117232C8117232A91174D
:10420000232C010A232A010A2328F10A1384070018
:10421000232C0100232C010223260102232E01025C
:1042200023200104232A010423220104232801005E
:10423000172902001309890D930D500293090001FB
:10424000232451012326A101832A8100032A490E38
:10425000EF40507F930605001307010A13860A00FA
:104260009305810813850400E7000A00630C052606
:10427000634C0524832781086386B701B38AAA00AB
:104280006FF0DFFC83278100130A0500338BFA40AF
:104290006392FA2693871A0003C31A00A30F01063C
:1042A0002324F100130BF0FF130D0000930AA00567
:1042B000171A0200130ACAE2130C0000938B0700BE
:1042C000938B1B00930703FE63E6FA049397270082
:1042D000B387470183A70700B387470167800700BB
:1042E000130703FD130C00009306900093172C0096
:1042F00003C30B00B387870193971700330CF700B4
:10430000130703FD938B1B00E3F2E6FE930703FE06
:10431000E3FEFAFA23247101930E0C00630C0320D0
:10432000930A1000230E610EA30F0106138C0A00DE
:1043300023200102130B0000232401022322010287
:10434000130E00009307C10F032A810B937C4D08C5
:1043500093050A0063840C6C0347F10763060706A4
:104360000325410B130700001306F107130A1A0077
:1043700013051500930610002320C4002322D40047
:10438000232C410B232AA10A130670001304840076
:10439000634AA62E630A07020325410B130701088F
:1043A0002320E400130A2A00130720001305150038
:1043B0002322E400232C410B232AA10A13077000B7
:1043C00013048400E346A77813070008E382EC5A3D
:1043D000330B5B416340606713770D10631E0776F4
:1043E0002320F4008327410B330A5A01232C410B6D
:1043F000938717002322540113077000232AF10A20
:104400006344F73C13048400137F4D0063060F00E0
:10441000B38A8E41634E503D63D48E01930E0C00DF
:1044200083270101B387D7012328F100E3180A6627
:1044300083270102232A010A6388070083250102DA
:1044400013850400EFF0CF951304C10B6FF0DFDF8D
:1044500093050D0013850400EF30505C63040500E4
:104460006F3040148317CD009306A00013F7A70107
:10447000E314D7D60317ED00E34007D603274D0614
:10448000137717006318070093F70720639407005A
:104490006F2080528326410113860A0093050D0088
:1044A00013850400EF3080218320C1192328A10047
:1044B0000325010183244119832A4118032D011783
:1044C0001301011A678000001306800093050000A5
:1044D0001305010AEFE01FAD13051000B38AAA000F
:1044E0006FF0DFD683278100130A0500338BFA4073
:1044F0006382FA04832781000326410B232264018F
:104500002320F4008327810B13061600232AC10AF7
:10451000B3876701232CF10A93077000130484000A
:1045200063C8C70283270101B38767012328F1000D
:10453000E3120AD68327810B032DC1006384070091
:104540006F2000308317CD00232A010A6F00105816
:104550008325C1001306010B13850400EF304024AE
:10456000630405006F20104B1304C10B6FF09FFB19
:1045700093F607206380063493962701E3DA06C09A
:1045800093162701E3DC06C26F20506A23247101D1
:1045900093778D00930E0C00638407006F10003238
:1045A000832741019387770093F787FF03A70700CD
:1045B00093878700232CE10203A7C7FF232AF1007A
:1045C0002326E10297270200938747ED0327C102C4
:1045D00003AA070083AA4700832B8103131C17003B
:1045E00093551C0013850B0013060A0093860A00DE
:1045F000232261022320D103EFE09034832E0102B5
:1046000003234102630405006F10500013850B0063
:1046100093551C0013060A0093860A00EFD0C07160
:10462000832E0102032341026344A0006F10007E29
:104630008325C10213850B001306000093060000BA
:10464000EFD0806F832E010203234102137DFDF71B
:10465000635405006F20007A930670040347F10746
:1046600097F700009387874063D466006F20000DA2
:10467000630407006F20903A930A3000138C0A00FD
:104680006F0080378325C1001306010B13850400DA
:10469000232EC105232CF104232861042326E104E1
:1046A0002324D105EF30C00FE3140540032A810B0A
:1046B000032EC10583278105032301050327C104B8
:1046C000832E81041304C10B6FF0DFCC832A410BCE
:1046D0008326810113071000330AEA00B38AEA0037
:1046E000130B84006344D7006F00507B1307100046
:1046F0002322E4002320F400232C410B232A510B16
:1047000013077000635457016F10005F0327010304
:10471000938A1A00232A510B330AEA000327410324
:10472000232C410B130B8B00232CEBFE03270103DF
:10473000232EEBFE13077000635457016F1080584F
:104740002324F10203258103832781018325C102EC
:1047500013060000930600002322D1031384F7FF01
:10476000EFD08043832E4102E30605788327810240
:10477000938A1A00330A8A0093871700232A510B61
:10478000232C410B2320FB0023228B009307700076
:10479000E3C85773130B8B008327C1038326C10320
:1047A00013070109338A470193871A002320EB007E
:1047B000232C410B232AF10A2322DB00130770006C
:1047C00013048B00E352F7C48325C1001306010BC9
:1047D000138504002322D103EF20907CE31A052CDB
:1047E000032A810B832E41021304C10B6FF0DFC13A
:1047F000130B00018327410B97180200938808A62A
:1048000063585B07930C7000138D0E00971B02001A
:10481000938BCBA46F00C000938A0AFF63565B059D
:10482000130A0A01938717002320740123226401CD
:10483000232C410B232AF10A13048400E3DEFCFC41
:104840008325C1001306010B13850400EF2050756A
:10485000E3100526938A0AFF032A810B8327410B65
:104860001304C10BE34E5BFB930E0D0093880B000A
:10487000330A5A0193871700232C410B232AF10A8C
:10488000232014012322540113077000E356F7B8C4
:104890008325C1001306010B138504002322D103D5
:1048A000EF201070E3160520032A810B832E4102AE
:1048B0006FF09FB603258D05EFE00FED8317CD0058
:1048C00003274D0693962701E3C2068E6FF05F8C97
:1048D00003C30B006FF0DF9E03C30B00136D0D02CB
:1048E0006FF01F9E2324710193770D02930E0C002D
:1048F00063940778832741018326410113770D01D3
:104900009387470003AA0600630407006F209051B5
:1049100013770D04631407006F10103B131A0A017C
:10492000135A0A41935AFA41232AF10013870A00C5
:104930006342077263440B4EB3675A01137DFDF760
:10494000639E074C631C0B4C8348F107639408007B
:104950006F10D053130C0000130E0000232001022F
:10496000930A0000130B000093070116130C1C00A0
:1049700063140E006F20104F032A810B0325410B97
:10498000937C4D08130C2C0093050A0013060500B8
:10499000E38E0C182324010223220102130E0000CF
:1049A000E38E089E130720006FF01F9C23247101E3
:1049B00093073004930E0C006314F3006F1040282B
:1049C00093770D01638407006F10802783274101CF
:1049D000130C1000930A0C0083A70700130AC10FE1
:1049E000230EF10E83274101A30F01069387470091
:1049F000232AF10093070A00032A810B23200102D6
:104A00002324010223220102937C4D08130B000092
:104A1000130E000093050A00E3900C9433878E4137
:104A2000E346E0380347F107E31C0792330B5B4191
:104A3000E354609B0326410B971C0200938C0C816E
:104A400063D8690B930B0B0013070A00938C0A00C1
:104A500093087000938A07002324D105930704006C
:104A6000130B0E00130A0300170402001304047E44
:104A70006F00C000938B0BFF63D879051307070104
:104A80001306160023A0870023A23701232CE10A76
:104A9000232AC10A93878700E3DEC8FC8325C1006F
:104AA0001306010B13850400EF20904FE31205005D
:104AB000938B0BFF0327810B0326410B9307C10B3D
:104AC00093087000E3CC79FB832E810413030A0062
:104AD000130A070013070400130E0B0013840700CA
:104AE000138B0B0093870A00938A0C00930C07002A
:104AF000330A6A011306160023209401232264015D
:104B0000232C410B232AC10A1307700013048400CD
:104B1000E354C78C8325C1001306010B13850400E1
:104B2000232CC1052328F104232661042324D10565
:104B3000EF201047631E057613770D10032A810BB3
:104B4000032E8105832701050323C104832E8104DD
:104B50001304C10BE306078813075006E35867B632
:104B6000032581038325C10213060000930600007C
:104B70002326F1042324D1052328C105EFD0C00149
:104B8000832E81048327C104032E0105E314050647
:104B90008327410B17F70000130747F12320E40098
:104BA000130A1A0013071000938717002322E4004A
:104BB000232C410B232AF10A1307700013048400ED
:104BC0006354F7006F104061832741080327810178
:104BD000E3DEE73A032701038327410B1304840034
:104BE000330AEA000327410393871700232C410B64
:104BF000232CE4FE03270103232AF10A232EE4FEDB
:104C000013077000E342F76A83278101938AF7FF55
:104C1000635C50FF130B00018327410B63445B016E
:104C20006F20900813070A00938C0A00930B700002
:104C3000170A0200130A8A61938A0E006F000001AE
:104C4000938C0CFF63449B016F10007413070701E2
:104C5000938717002320440123226401232CE10AB7
:104C6000232AF10A13048400E3DCFBFC8325C10042
:104C70001306010B13850400EF209032631A0562BE
:104C80000327810B8327410B1304C10B6FF05FFBDC
:104C900083274101032741012324710183A70700D2
:104CA000A30F0106930E0C00930B4700E3820764E9
:104CB000130730056314E3006F108054137E0D0159
:104CC00063040E006F10C05363540B006F10103953
:104CD0001385070013060B00930500002324C1036E
:104CE000232AF10023228103EF3080692320A102CF
:104CF0000347F10783274101832E4102032E8102DE
:104D0000631405006F20C06683260102B38AF64053
:104D100013C8FAFF1358F84133FC0A016304070073
:104D2000130C1C00232A7101130B00002324010221
:104D30002322010223200102130330076FF0CFE08A
:104D40008327410103AC0700E35A0C248327410168
:104D5000330C804193874700232AF10003C30B00E3
:104D6000136D4D006FF0CFD52324710193770D02A1
:104D7000930E0C00136F0D01639807068327410102
:104D80009387470003274101A30F0106930A000000
:104D9000032A070063540B006F10D060232AF10030
:104DA000137DFFF7631E0A06631C0B06130E00003B
:104DB0008348F107130B0000130C0000930A000056
:104DC0009307011623200102E38408BA130C1C0088
:104DD0006FF01FBA2324710193770D02930E0C001C
:104DE000E38E0732130F0D0083274101A30F010645
:104DF0009387770093F787FF13878700232AE100C3
:104E000003AA070083AA4700E3480B3A137DFFF784
:104E100063160B00B3675A01E38A07F8E3940A505C
:104E200093079000E3E04751130A0A03A30F4115CB
:104E3000130C0B00E35660378348F107130E000094
:104E4000930A10009307F115232001026FF0DFF79A
:104E50002324710193770D02930E0C0013680D014A
:104E6000E3800724832741019387770093F787FF27
:104E700013878700232AE10003A6470003A7070042
:104E8000A30F0106137DF8BF63440B50137DF8B7E1
:104E900063100B50B367C700639C074E137C180068
:104EA00063060C6E93070003A30FF114930A0C0022
:104EB00023200102130B00002324010223220102FC
:104EC000130E00009307F1156FF00FC89307B0029F
:104ED00003C30B00A30FF1066FF08FBE03C30B00DB
:104EE00093078006E306F33E136D0D046FF04FBD8C
:104EF0002324710193770D02930E0C00E39C07208D
:104F0000832741010327410193760D0193874700D1
:104F100003270700638406006F20407493760D0416
:104F2000639406006F10405C1317070113570701C5
:104F3000232AF10013080D00130600006FF05FF440
:104F4000032741012324710193770D0213074700C2
:104F5000E396071293770D01638407006F10804773
:104F600093770D04638407006F10100C137F0D20DE
:104F700063140F006F10004683274101832601014F
:104F8000232AE10083A707002380D7006FF0CFAB6F
:104F9000B7870000938707832310F1088327410117
:104FA00023247101A30F010603A70700930E0C0031
:104FB0009386470013060000E3440B20137FFDF7A0
:104FC000136D2F00630407006F10803F63040B0014
:104FD0006F10003F232AD100130E20001303800717
:104FE0008348F107130B0000130C0000930A000024
:104FF00093070116232001026FF01FDD03C30B008E
:105000009307C006E30EF32C136D0D016FF04FAB49
:1050100003C30B00136D8D006FF08FAA2324710161
:1050200093770D02930E0C00136F0D016398070424
:10503000832741019387470003274101232AF10079
:10504000130D0F00032A0700935AFA4113870A0031
:10505000E352078EB3374001B30A5041B38AFA4096
:105060009307D002A30FF106330A4041E3480BDA5D
:10507000137DFDF76FF09FDA130F0D0083274101B9
:10508000130D0F009387770093F787FF03A747005F
:105090009386870003AA0700232AD100930A0700FA
:1050A0006FF01F8913850400EF40001C8327450023
:1050B000138507002322F104EFE00F8F930C050006
:1050C00013850400232A9105EF40001A0327850069
:1050D00003C30B002320E10463840C9E6302079E3C
:1050E00083470700638E079C136D0D406FF04F9D43
:1050F00003C30B00136D1D006FF08F9C8347F107F6
:1051000003C30B00639E079A93070002A30FF106E7
:105110006FF00F9B03C30B00136D0D086FF04F9AD8
:1051200003C30B009307A00293861B006314F300D4
:105130006F200045130703FD13069000130B0000BA
:105140006364E60293172B0003C30600B38767016D
:1051500093971700338BE700130703FD9386160020
:10516000E372E6FEE3420B0C938B06006FF08F9523
:10517000B3888E41635E10A5930200010326410BA4
:10518000970C0200938C8C0C63D8120B2326F1042D
:1051900013070A0093070400938C0A00930370001E
:1051A000938B0E002324610413840800170A020065
:1051B000130ACA09930A0E006F00C000130404FF0B
:1051C00063DA8204130707011306160023A04701C0
:1051D00023A25700232CE10A232AC10A93878700C0
:1051E000E3DEC3FC8325C1001306010B1385040015
:1051F000EF20005B631E050A93020001130404FF05
:105200000327810B0326410B9307C10B9303700007
:10521000E3CA82FA9308040003238104138407007D
:105220008327C104138E0A00938E0B00938A0C000F
:10523000930C0A00130A0700330A1A01130616001A
:105240002320940123221401232C410B232AC10A79
:105250001307700013048400635CC7968325C100A4
:105260001306010B13850400232CC1052328F10428
:10527000232661042324D105EF208052631A0502FE
:10528000032A810B832E81040323C1048327010594
:10529000032E81051304C10B6FF08F938325C1008A
:1052A0001306010B13850400EF20804F630205985D
:1052B00083220102032DC10063880200938502004E
:1052C00013850400EFE0CFAD8317CD0003274D0613
:1052D000137717006316070013F70720E300072A68
:1052E00093F70704638407006F1010650324811986
:1052F000032901198329C118032A8118032B0118D6
:10530000832BC117032C8117832C4117832DC116C2
:105310008320C1190325010183244119832A4118DF
:10532000032D01171301011A6780000033878E4196
:105330002324010223220102130E00006348E03AF5
:10534000639408006FF08F85130720006FF0CF8102
:105350008325C1001306010B13850400232CC1050E
:105360002328F104232661042324D105EF204043A0
:10537000E31005F4032A810B032E81058327010521
:105380000323C104832E81041304C10B6FF0CF8368
:10539000930701169315D6019376770013573700BC
:1053A000138507003387E5009386060313563600FE
:1053B000B365C700A38FD7FE9387F7FFE39C05FC77
:1053C000938606FD6386060013771D00631E07584B
:1053D00013070116B30AF740130C0B0063445B4933
:1053E000232001022324010223220102130E0000C4
:1053F0006FE09FF503264108635AC03A03278101F5
:10540000130B0E006354C701130B070063586003AE
:105410000327410B330A6A012320F4001307170006
:1054200023226401232C410B232AE10A93067000F6
:105430001304840063D4E6006F1010251347FBFFAC
:105440001357F741337BEB00330B6E41635460011C
:105450006F00507D13770D40B38CC70163040700C4
:105460006F100075832A41080327810163C8EA0091
:1054700013771D00631407006F1080348326010327
:105480000327410B13048400330ADA008326410307
:1054900013071700232C410B232CD4FE8326010372
:1054A000232AE10A232ED4FE9306700063D4E6007B
:1054B0006F10502503278101B387E700338B974195
:1054C000B30A574163D46A01138B0A00635860031F
:1054D0008327410B330A6A01232094019387170025
:1054E00023226401232C410B232AF10A13077000A5
:1054F000130484006354F7006F1050279347FBFF99
:1055000093D7F741337BFB00B38A6A416344500170
:105510006FE09FEF130B00018327410B63445B0196
:105520006F10907813070A00938C0A00930B700099
:10553000170A0200130A8AD1938A0E006F00C00076
:10554000938C0CFFE3529B651307070193871700A9
:105550002320440123226401232CE10A232AF10A97
:1055600013048400E3DEFBFC8325C1001306010B5A
:1055700013850400EF20C022E31C05D20327810B12
:105580008327410B1304C10B6FF09FFB930A0000AC
:10559000130B00002324010223220102130E00003A
:1055A00023200102930701166FE01FDA0326410B47
:1055B000130A000197080200938848CA6352EA0A56
:1055C000938B0700232C510593070400930370006D
:1055D0002324D10523266104130407002328C105D1
:1055E000970A0200938A8AC76F00C000130404FF61
:1055F00063588A04938505011306160023A05701FA
:1056000023A24701232CB10A232AC10A93878700CA
:10561000E3DEC3FC8325C1001306010B13850400E0
:10562000EF200018E31605C8130404FF8325810B3F
:105630000326410B9307C10B93037000E34C8AFAD6
:1056400093880A00832E81040323C104032E0105DD
:10565000832A8105130704001384070093870B0036
:10566000330AB700130516002322E400232C410B54
:10567000232AA10A23201401130770006348A7708E
:105680000347F107130484006318071C63940C009C
:105690006FE01FD4930C00006FE05FD0B376ED0095
:1056A000638406006FF08F842320F4002322E4003B
:1056B000232C410B232A510B9307700063DE578D77
:1056C0008325C1001306010B138504002322D10397
:1056D000EF20000DE31E05BC032A810B832A410B3A
:1056E000832E4102130BC10B6FF00F8B930C200024
:1056F0006FF01FEC032781019307100063DEE7883A
:1057000093071001970C0200938C4CB4E3D8E74E3A
:10571000930C0C00930B0001930770002322D1031C
:10572000170C0200130C8CB26F00C000130404FFAE
:10573000E3DE8B4A130A0A01938A1A0023208B01A5
:1057400023227B01232C410B232A510B130B8B00AB
:10575000E3DE57FD8325C1001306010B138504000A
:10576000EF200004E31605B4032A810B832A410BC2
:10577000130BC10B930770006FF05FFB93162701AB
:1057800063C406006FE09FA36F10501D93771D0048
:10579000639407006FE05FC76FF0CFC39387470044
:1057A00003C30B00232AF1006FE09FB10327410BD5
:1057B00097E600009386862F2320D400130A1A0050
:1057C00093061000130717002322D400232C410B4B
:1057D000232AE10A930670001304840063D4E600D0
:1057E0006F10C064032781013367C700E30E07749D
:1057F000032701038326410B13048400330A470166
:105800000327410393861600232C410B232CE4FE2F
:1058100003270103232AD10A232EE4FE1307700075
:10582000E342D776635406006F10C07C03278101E2
:10583000938616002320F400330A4701232C410BE2
:10584000232AD10A2322E4009307700063C4D700FF
:105850006FE05FBB6FE05FF713870C00930C0000F5
:105860006FE09FB0138C0A00232001022324010261
:1058700023220102130E00006FE01FAD83274101B8
:10588000832601010326010183A7070093D6F64171
:10589000232AE10023A0C70023A2D7006FE0DF9AEC
:1058A0008327410193874700032741011306000026
:1058B000232AF100032707006FF08FDC83274101C3
:1058C000130501062322610283A707002320810319
:1058D00003A707002320E10603A747002322E106D0
:1058E00003A787002324E10683A7C7002326F10628
:1058F000EFD0502A83274101032341022326B1021E
:1059000093874700232AF100232CA102930E0C0059
:105910006FE05FCB13080D006FF0CFD483274101F8
:105920008326410113770D019387470083A6060064
:10593000630407006F10105113770D04E304073C54
:10594000139A0601A30F0106135A0A01930A0000D5
:10595000E34A0B6A336E4B01232AF100137DFDF7F6
:10596000631E0ECA6FF0CFE71305E5FF13070003B0
:1059700093060116B38AA640A38FE7FE130C0B0013
:1059800063545B01138C0A00930705002320010276
:105990002324010223220102130E00006FE0DF9A8C
:1059A0008348F107130C1000130E0000930A100037
:1059B0009307F1156FF04FC9130D0F006FF00FC66D
:1059C000136D2D00232AD100130E20009308000030
:1059D00097E500009385850A130380079307011656
:1059E0009376F700B386D50083C6060013574700A9
:1059F0009387F7FF2380D7009316C6013387E6000D
:105A000013564600B366C700E39C06FC1307011655
:105A1000B30AF740130C0B0063565BBB138C0A00F0
:105A2000232001026FF04FBA130BF0FF938B060097
:105A30006FE05F89930E0C002324710197E500004D
:105A40009385050593770D02638807248327410119
:105A50009387770093F787FF03A7070003A6470004
:105A60009386870093771D003365C7006384070022
:105A700063180536A30F010663420B2C137DFDB797
:105A800063180B7463160574232AD100130E0000EB
:105A90006FF00FB2930E0C002324710197E5000004
:105AA0009385C5FD6FF01FFA8325C1001306010B16
:105AB000138504002322D103EF10904E631A05FED4
:105AC000032A810B832E41021304C10B6FF0CF9385
:105AD00003C31B00136D0D20938B1B006FE04FFE63
